{
	"contracts/Auction.sol": {
		"Auction": {
			"abi": [
				{
					"inputs": [
						{
							"internalType": "address",
							"name": "_coinToken",
							"type": "address"
						},
						{
							"internalType": "uint256",
							"name": "_duration",
							"type": "uint256"
						},
						{
							"internalType": "uint256",
							"name": "_maxParticipants",
							"type": "uint256"
						},
						{
							"internalType": "address",
							"name": "_erc1155Token",
							"type": "address"
						},
						{
							"internalType": "uint256",
							"name": "_erc1155TokenId",
							"type": "uint256"
						}
					],
					"stateMutability": "nonpayable",
					"type": "constructor"
				},
				{
					"anonymous": false,
					"inputs": [
						{
							"indexed": false,
							"internalType": "uint256",
							"name": "winningBid",
							"type": "uint256"
						},
						{
							"indexed": false,
							"internalType": "address",
							"name": "winner",
							"type": "address"
						}
					],
					"name": "AuctionEnded",
					"type": "event"
				},
				{
					"anonymous": false,
					"inputs": [
						{
							"indexed": false,
							"internalType": "address",
							"name": "participant",
							"type": "address"
						},
						{
							"indexed": false,
							"internalType": "uint256",
							"name": "reserveAmount",
							"type": "uint256"
						}
					],
					"name": "ParticipantJoined",
					"type": "event"
				},
				{
					"inputs": [],
					"name": "auctionEndTime",
					"outputs": [
						{
							"internalType": "uint256",
							"name": "",
							"type": "uint256"
						}
					],
					"stateMutability": "view",
					"type": "function"
				},
				{
					"inputs": [],
					"name": "coinToken",
					"outputs": [
						{
							"internalType": "contract IERC20",
							"name": "",
							"type": "address"
						}
					],
					"stateMutability": "view",
					"type": "function"
				},
				{
					"inputs": [],
					"name": "endAuction",
					"outputs": [],
					"stateMutability": "nonpayable",
					"type": "function"
				},
				{
					"inputs": [],
					"name": "ended",
					"outputs": [
						{
							"internalType": "bool",
							"name": "",
							"type": "bool"
						}
					],
					"stateMutability": "view",
					"type": "function"
				},
				{
					"inputs": [],
					"name": "erc1155Token",
					"outputs": [
						{
							"internalType": "contract IERC1155",
							"name": "",
							"type": "address"
						}
					],
					"stateMutability": "view",
					"type": "function"
				},
				{
					"inputs": [],
					"name": "erc1155TokenId",
					"outputs": [
						{
							"internalType": "uint256",
							"name": "",
							"type": "uint256"
						}
					],
					"stateMutability": "view",
					"type": "function"
				},
				{
					"inputs": [],
					"name": "getTotalReserve",
					"outputs": [
						{
							"internalType": "uint256",
							"name": "",
							"type": "uint256"
						}
					],
					"stateMutability": "view",
					"type": "function"
				},
				{
					"inputs": [
						{
							"internalType": "uint256",
							"name": "reserveAmount",
							"type": "uint256"
						}
					],
					"name": "joinAuction",
					"outputs": [],
					"stateMutability": "nonpayable",
					"type": "function"
				},
				{
					"inputs": [],
					"name": "maxParticipants",
					"outputs": [
						{
							"internalType": "uint256",
							"name": "",
							"type": "uint256"
						}
					],
					"stateMutability": "view",
					"type": "function"
				},
				{
					"inputs": [],
					"name": "owner",
					"outputs": [
						{
							"internalType": "address",
							"name": "",
							"type": "address"
						}
					],
					"stateMutability": "view",
					"type": "function"
				},
				{
					"inputs": [],
					"name": "participantCount",
					"outputs": [
						{
							"internalType": "uint256",
							"name": "",
							"type": "uint256"
						}
					],
					"stateMutability": "view",
					"type": "function"
				},
				{
					"inputs": [
						{
							"internalType": "address",
							"name": "",
							"type": "address"
						}
					],
					"name": "participants",
					"outputs": [
						{
							"internalType": "uint256",
							"name": "reserveAmount",
							"type": "uint256"
						},
						{
							"internalType": "bool",
							"name": "active",
							"type": "bool"
						}
					],
					"stateMutability": "view",
					"type": "function"
				},
				{
					"inputs": [
						{
							"internalType": "uint256",
							"name": "",
							"type": "uint256"
						}
					],
					"name": "reserveAmounts",
					"outputs": [
						{
							"internalType": "uint256",
							"name": "",
							"type": "uint256"
						}
					],
					"stateMutability": "view",
					"type": "function"
				},
				{
					"inputs": [],
					"name": "totalReserve",
					"outputs": [
						{
							"internalType": "uint256",
							"name": "",
							"type": "uint256"
						}
					],
					"stateMutability": "view",
					"type": "function"
				},
				{
					"inputs": [],
					"name": "winnerDeterminationInstance",
					"outputs": [
						{
							"internalType": "contract WinnerDetermination",
							"name": "",
							"type": "address"
						}
					],
					"stateMutability": "view",
					"type": "function"
				}
			],
			"devdoc": {
				"kind": "dev",
				"methods": {},
				"version": 1
			},
			"evm": {
				"assembly": "    /* \"contracts/Auction.sol\":213:3959  contract Auction {... */\n  mstore(0x40, 0x80)\n    /* \"contracts/Auction.sol\":1399:2004  constructor(address _coinToken, uint256 _duration, uint256 _maxParticipants,address _erc1155Token, uint256 _erc1155TokenId) {... */\n  callvalue\n  dup1\n  iszero\n  tag_1\n  jumpi\n  0x00\n  dup1\n  revert\ntag_1:\n  pop\n  mload(0x40)\n  sub(codesize, bytecodeSize)\n  dup1\n  bytecodeSize\n  dup4\n  codecopy\n  dup2\n  dup2\n  add\n  0x40\n  mstore\n  dup2\n  add\n  swap1\n  tag_2\n  swap2\n  swap1\n  tag_3\n  jump\t// in\ntag_2:\n    /* \"contracts/Auction.sol\":1542:1552  msg.sender */\n  caller\n    /* \"contracts/Auction.sol\":1534:1539  owner */\n  0x01\n  0x00\n    /* \"contracts/Auction.sol\":1534:1552  owner = msg.sender */\n  0x0100\n  exp\n  dup2\n  sload\n  dup2\n  0xffffffffffffffffffffffffffffffffffffffff\n  mul\n  not\n  and\n  swap1\n  dup4\n  0xffffffffffffffffffffffffffffffffffffffff\n  and\n  mul\n  or\n  swap1\n  sstore\n  pop\n    /* \"contracts/Auction.sol\":1582:1592  _coinToken */\n  dup5\n    /* \"contracts/Auction.sol\":1563:1572  coinToken */\n  0x06\n  0x00\n    /* \"contracts/Auction.sol\":1563:1593  coinToken = IERC20(_coinToken) */\n  0x0100\n  exp\n  dup2\n  sload\n  dup2\n  0xffffffffffffffffffffffffffffffffffffffff\n  mul\n  not\n  and\n  swap1\n  dup4\n  0xffffffffffffffffffffffffffffffffffffffff\n  and\n  mul\n  or\n  swap1\n  sstore\n  pop\n    /* \"contracts/Auction.sol\":1629:1642  _erc1155Token */\n  dup2\n    /* \"contracts/Auction.sol\":1605:1617  erc1155Token */\n  0x07\n  0x00\n    /* \"contracts/Auction.sol\":1605:1643  erc1155Token = IERC1155(_erc1155Token) */\n  0x0100\n  exp\n  dup2\n  sload\n  dup2\n  0xffffffffffffffffffffffffffffffffffffffff\n  mul\n  not\n  and\n  swap1\n  dup4\n  0xffffffffffffffffffffffffffffffffffffffff\n  and\n  mul\n  or\n  swap1\n  sstore\n  pop\n    /* \"contracts/Auction.sol\":1708:1723  _erc1155TokenId */\n  dup1\n    /* \"contracts/Auction.sol\":1691:1705  erc1155TokenId */\n  0x08\n    /* \"contracts/Auction.sol\":1691:1723  erc1155TokenId = _erc1155TokenId */\n  dup2\n  swap1\n  sstore\n  pop\n    /* \"contracts/Auction.sol\":1793:1802  _duration */\n  dup4\n    /* \"contracts/Auction.sol\":1775:1790  block.timestamp */\n  timestamp\n    /* \"contracts/Auction.sol\":1775:1802  block.timestamp + _duration */\n  tag_6\n  swap2\n  swap1\n  tag_7\n  jump\t// in\ntag_6:\n    /* \"contracts/Auction.sol\":1758:1772  auctionEndTime */\n  0x02\n    /* \"contracts/Auction.sol\":1758:1802  auctionEndTime = block.timestamp + _duration */\n  dup2\n  swap1\n  sstore\n  pop\n    /* \"contracts/Auction.sol\":1831:1847  _maxParticipants */\n  dup3\n    /* \"contracts/Auction.sol\":1813:1828  maxParticipants */\n  0x03\n    /* \"contracts/Auction.sol\":1813:1847  maxParticipants = _maxParticipants */\n  dup2\n  swap1\n  sstore\n  pop\n    /* \"contracts/Auction.sol\":1913:1925  erc1155Token */\n  0x07\n  0x00\n  swap1\n  sload\n  swap1\n  0x0100\n  exp\n  swap1\n  div\n  0xffffffffffffffffffffffffffffffffffffffff\n  and\n    /* \"contracts/Auction.sol\":1913:1942  erc1155Token.safeTransferFrom */\n  0xffffffffffffffffffffffffffffffffffffffff\n  and\n  0xf242432a\n    /* \"contracts/Auction.sol\":1943:1953  msg.sender */\n  caller\n    /* \"contracts/Auction.sol\":1963:1967  this */\n  address\n    /* \"contracts/Auction.sol\":1970:1984  erc1155TokenId */\n  sload(0x08)\n    /* \"contracts/Auction.sol\":1986:1987  1 */\n  0x01\n    /* \"contracts/Auction.sol\":1913:1992  erc1155Token.safeTransferFrom(msg.sender, address(this), erc1155TokenId, 1, \"\") */\n  mload(0x40)\n  dup6\n  0xffffffff\n  and\n  0xe0\n  shl\n  dup2\n  mstore\n  0x04\n  add\n  tag_8\n  swap5\n  swap4\n  swap3\n  swap2\n  swap1\n  tag_9\n  jump\t// in\ntag_8:\n  0x00\n  mload(0x40)\n  dup1\n  dup4\n  sub\n  dup2\n  0x00\n  dup8\n  dup1\n  extcodesize\n  iszero\n  dup1\n  iszero\n  tag_10\n  jumpi\n  0x00\n  dup1\n  revert\ntag_10:\n  pop\n  gas\n  call\n  iszero\n  dup1\n  iszero\n  tag_12\n  jumpi\n  returndatasize\n  0x00\n  dup1\n  returndatacopy\n  revert(0x00, returndatasize)\ntag_12:\n  pop\n  pop\n  pop\n  pop\n    /* \"contracts/Auction.sol\":1399:2004  constructor(address _coinToken, uint256 _duration, uint256 _maxParticipants,address _erc1155Token, uint256 _erc1155TokenId) {... */\n  pop\n  pop\n  pop\n  pop\n  pop\n    /* \"contracts/Auction.sol\":213:3959  contract Auction {... */\n  jump(tag_13)\n    /* \"#utility.yul\":88:205   */\ntag_15:\n    /* \"#utility.yul\":197:198   */\n  0x00\n    /* \"#utility.yul\":194:195   */\n  dup1\n    /* \"#utility.yul\":187:199   */\n  revert\n    /* \"#utility.yul\":334:460   */\ntag_17:\n    /* \"#utility.yul\":371:378   */\n  0x00\n    /* \"#utility.yul\":411:453   */\n  0xffffffffffffffffffffffffffffffffffffffff\n    /* \"#utility.yul\":404:409   */\n  dup3\n    /* \"#utility.yul\":400:454   */\n  and\n    /* \"#utility.yul\":389:454   */\n  swap1\n  pop\n    /* \"#utility.yul\":334:460   */\n  swap2\n  swap1\n  pop\n  jump\t// out\n    /* \"#utility.yul\":466:562   */\ntag_18:\n    /* \"#utility.yul\":503:510   */\n  0x00\n    /* \"#utility.yul\":532:556   */\n  tag_40\n    /* \"#utility.yul\":550:555   */\n  dup3\n    /* \"#utility.yul\":532:556   */\n  tag_17\n  jump\t// in\ntag_40:\n    /* \"#utility.yul\":521:556   */\n  swap1\n  pop\n    /* \"#utility.yul\":466:562   */\n  swap2\n  swap1\n  pop\n  jump\t// out\n    /* \"#utility.yul\":568:690   */\ntag_19:\n    /* \"#utility.yul\":641:665   */\n  tag_42\n    /* \"#utility.yul\":659:664   */\n  dup2\n    /* \"#utility.yul\":641:665   */\n  tag_18\n  jump\t// in\ntag_42:\n    /* \"#utility.yul\":634:639   */\n  dup2\n    /* \"#utility.yul\":631:666   */\n  eq\n    /* \"#utility.yul\":621:684   */\n  tag_43\n  jumpi\n    /* \"#utility.yul\":680:681   */\n  0x00\n    /* \"#utility.yul\":677:678   */\n  dup1\n    /* \"#utility.yul\":670:682   */\n  revert\n    /* \"#utility.yul\":621:684   */\ntag_43:\n    /* \"#utility.yul\":568:690   */\n  pop\n  jump\t// out\n    /* \"#utility.yul\":696:839   */\ntag_20:\n    /* \"#utility.yul\":753:758   */\n  0x00\n    /* \"#utility.yul\":784:790   */\n  dup2\n    /* \"#utility.yul\":778:791   */\n  mload\n    /* \"#utility.yul\":769:791   */\n  swap1\n  pop\n    /* \"#utility.yul\":800:833   */\n  tag_45\n    /* \"#utility.yul\":827:832   */\n  dup2\n    /* \"#utility.yul\":800:833   */\n  tag_19\n  jump\t// in\ntag_45:\n    /* \"#utility.yul\":696:839   */\n  swap3\n  swap2\n  pop\n  pop\n  jump\t// out\n    /* \"#utility.yul\":845:922   */\ntag_21:\n    /* \"#utility.yul\":882:889   */\n  0x00\n    /* \"#utility.yul\":911:916   */\n  dup2\n    /* \"#utility.yul\":900:916   */\n  swap1\n  pop\n    /* \"#utility.yul\":845:922   */\n  swap2\n  swap1\n  pop\n  jump\t// out\n    /* \"#utility.yul\":928:1050   */\ntag_22:\n    /* \"#utility.yul\":1001:1025   */\n  tag_48\n    /* \"#utility.yul\":1019:1024   */\n  dup2\n    /* \"#utility.yul\":1001:1025   */\n  tag_21\n  jump\t// in\ntag_48:\n    /* \"#utility.yul\":994:999   */\n  dup2\n    /* \"#utility.yul\":991:1026   */\n  eq\n    /* \"#utility.yul\":981:1044   */\n  tag_49\n  jumpi\n    /* \"#utility.yul\":1040:1041   */\n  0x00\n    /* \"#utility.yul\":1037:1038   */\n  dup1\n    /* \"#utility.yul\":1030:1042   */\n  revert\n    /* \"#utility.yul\":981:1044   */\ntag_49:\n    /* \"#utility.yul\":928:1050   */\n  pop\n  jump\t// out\n    /* \"#utility.yul\":1056:1199   */\ntag_23:\n    /* \"#utility.yul\":1113:1118   */\n  0x00\n    /* \"#utility.yul\":1144:1150   */\n  dup2\n    /* \"#utility.yul\":1138:1151   */\n  mload\n    /* \"#utility.yul\":1129:1151   */\n  swap1\n  pop\n    /* \"#utility.yul\":1160:1193   */\n  tag_51\n    /* \"#utility.yul\":1187:1192   */\n  dup2\n    /* \"#utility.yul\":1160:1193   */\n  tag_22\n  jump\t// in\ntag_51:\n    /* \"#utility.yul\":1056:1199   */\n  swap3\n  swap2\n  pop\n  pop\n  jump\t// out\n    /* \"#utility.yul\":1205:2182   */\ntag_3:\n    /* \"#utility.yul\":1311:1317   */\n  0x00\n    /* \"#utility.yul\":1319:1325   */\n  dup1\n    /* \"#utility.yul\":1327:1333   */\n  0x00\n    /* \"#utility.yul\":1335:1341   */\n  dup1\n    /* \"#utility.yul\":1343:1349   */\n  0x00\n    /* \"#utility.yul\":1392:1395   */\n  0xa0\n    /* \"#utility.yul\":1380:1389   */\n  dup7\n    /* \"#utility.yul\":1371:1378   */\n  dup9\n    /* \"#utility.yul\":1367:1390   */\n  sub\n    /* \"#utility.yul\":1363:1396   */\n  slt\n    /* \"#utility.yul\":1360:1480   */\n  iszero\n  tag_53\n  jumpi\n    /* \"#utility.yul\":1399:1478   */\n  tag_54\n  tag_15\n  jump\t// in\ntag_54:\n    /* \"#utility.yul\":1360:1480   */\ntag_53:\n    /* \"#utility.yul\":1519:1520   */\n  0x00\n    /* \"#utility.yul\":1544:1608   */\n  tag_55\n    /* \"#utility.yul\":1600:1607   */\n  dup9\n    /* \"#utility.yul\":1591:1597   */\n  dup3\n    /* \"#utility.yul\":1580:1589   */\n  dup10\n    /* \"#utility.yul\":1576:1598   */\n  add\n    /* \"#utility.yul\":1544:1608   */\n  tag_20\n  jump\t// in\ntag_55:\n    /* \"#utility.yul\":1534:1608   */\n  swap6\n  pop\n    /* \"#utility.yul\":1490:1618   */\n  pop\n    /* \"#utility.yul\":1657:1659   */\n  0x20\n    /* \"#utility.yul\":1683:1747   */\n  tag_56\n    /* \"#utility.yul\":1739:1746   */\n  dup9\n    /* \"#utility.yul\":1730:1736   */\n  dup3\n    /* \"#utility.yul\":1719:1728   */\n  dup10\n    /* \"#utility.yul\":1715:1737   */\n  add\n    /* \"#utility.yul\":1683:1747   */\n  tag_23\n  jump\t// in\ntag_56:\n    /* \"#utility.yul\":1673:1747   */\n  swap5\n  pop\n    /* \"#utility.yul\":1628:1757   */\n  pop\n    /* \"#utility.yul\":1796:1798   */\n  0x40\n    /* \"#utility.yul\":1822:1886   */\n  tag_57\n    /* \"#utility.yul\":1878:1885   */\n  dup9\n    /* \"#utility.yul\":1869:1875   */\n  dup3\n    /* \"#utility.yul\":1858:1867   */\n  dup10\n    /* \"#utility.yul\":1854:1876   */\n  add\n    /* \"#utility.yul\":1822:1886   */\n  tag_23\n  jump\t// in\ntag_57:\n    /* \"#utility.yul\":1812:1886   */\n  swap4\n  pop\n    /* \"#utility.yul\":1767:1896   */\n  pop\n    /* \"#utility.yul\":1935:1937   */\n  0x60\n    /* \"#utility.yul\":1961:2025   */\n  tag_58\n    /* \"#utility.yul\":2017:2024   */\n  dup9\n    /* \"#utility.yul\":2008:2014   */\n  dup3\n    /* \"#utility.yul\":1997:2006   */\n  dup10\n    /* \"#utility.yul\":1993:2015   */\n  add\n    /* \"#utility.yul\":1961:2025   */\n  tag_20\n  jump\t// in\ntag_58:\n    /* \"#utility.yul\":1951:2025   */\n  swap3\n  pop\n    /* \"#utility.yul\":1906:2035   */\n  pop\n    /* \"#utility.yul\":2074:2077   */\n  0x80\n    /* \"#utility.yul\":2101:2165   */\n  tag_59\n    /* \"#utility.yul\":2157:2164   */\n  dup9\n    /* \"#utility.yul\":2148:2154   */\n  dup3\n    /* \"#utility.yul\":2137:2146   */\n  dup10\n    /* \"#utility.yul\":2133:2155   */\n  add\n    /* \"#utility.yul\":2101:2165   */\n  tag_23\n  jump\t// in\ntag_59:\n    /* \"#utility.yul\":2091:2165   */\n  swap2\n  pop\n    /* \"#utility.yul\":2045:2175   */\n  pop\n    /* \"#utility.yul\":1205:2182   */\n  swap3\n  swap6\n  pop\n  swap3\n  swap6\n  swap1\n  swap4\n  pop\n  jump\t// out\n    /* \"#utility.yul\":2188:2368   */\ntag_24:\n    /* \"#utility.yul\":2236:2313   */\n  0x4e487b7100000000000000000000000000000000000000000000000000000000\n    /* \"#utility.yul\":2233:2234   */\n  0x00\n    /* \"#utility.yul\":2226:2314   */\n  mstore\n    /* \"#utility.yul\":2333:2337   */\n  0x11\n    /* \"#utility.yul\":2330:2331   */\n  0x04\n    /* \"#utility.yul\":2323:2338   */\n  mstore\n    /* \"#utility.yul\":2357:2361   */\n  0x24\n    /* \"#utility.yul\":2354:2355   */\n  0x00\n    /* \"#utility.yul\":2347:2362   */\n  revert\n    /* \"#utility.yul\":2374:2565   */\ntag_7:\n    /* \"#utility.yul\":2414:2417   */\n  0x00\n    /* \"#utility.yul\":2433:2453   */\n  tag_62\n    /* \"#utility.yul\":2451:2452   */\n  dup3\n    /* \"#utility.yul\":2433:2453   */\n  tag_21\n  jump\t// in\ntag_62:\n    /* \"#utility.yul\":2428:2453   */\n  swap2\n  pop\n    /* \"#utility.yul\":2467:2487   */\n  tag_63\n    /* \"#utility.yul\":2485:2486   */\n  dup4\n    /* \"#utility.yul\":2467:2487   */\n  tag_21\n  jump\t// in\ntag_63:\n    /* \"#utility.yul\":2462:2487   */\n  swap3\n  pop\n    /* \"#utility.yul\":2510:2511   */\n  dup3\n    /* \"#utility.yul\":2507:2508   */\n  dup3\n    /* \"#utility.yul\":2503:2512   */\n  add\n    /* \"#utility.yul\":2496:2512   */\n  swap1\n  pop\n    /* \"#utility.yul\":2531:2534   */\n  dup1\n    /* \"#utility.yul\":2528:2529   */\n  dup3\n    /* \"#utility.yul\":2525:2535   */\n  gt\n    /* \"#utility.yul\":2522:2558   */\n  iszero\n  tag_64\n  jumpi\n    /* \"#utility.yul\":2538:2556   */\n  tag_65\n  tag_24\n  jump\t// in\ntag_65:\n    /* \"#utility.yul\":2522:2558   */\ntag_64:\n    /* \"#utility.yul\":2374:2565   */\n  swap3\n  swap2\n  pop\n  pop\n  jump\t// out\n    /* \"#utility.yul\":2571:2689   */\ntag_25:\n    /* \"#utility.yul\":2658:2682   */\n  tag_67\n    /* \"#utility.yul\":2676:2681   */\n  dup2\n    /* \"#utility.yul\":2658:2682   */\n  tag_18\n  jump\t// in\ntag_67:\n    /* \"#utility.yul\":2653:2656   */\n  dup3\n    /* \"#utility.yul\":2646:2683   */\n  mstore\n    /* \"#utility.yul\":2571:2689   */\n  pop\n  pop\n  jump\t// out\n    /* \"#utility.yul\":2695:2813   */\ntag_26:\n    /* \"#utility.yul\":2782:2806   */\n  tag_69\n    /* \"#utility.yul\":2800:2805   */\n  dup2\n    /* \"#utility.yul\":2782:2806   */\n  tag_21\n  jump\t// in\ntag_69:\n    /* \"#utility.yul\":2777:2780   */\n  dup3\n    /* \"#utility.yul\":2770:2807   */\n  mstore\n    /* \"#utility.yul\":2695:2813   */\n  pop\n  pop\n  jump\t// out\n    /* \"#utility.yul\":2819:2904   */\ntag_27:\n    /* \"#utility.yul\":2864:2871   */\n  0x00\n    /* \"#utility.yul\":2893:2898   */\n  dup2\n    /* \"#utility.yul\":2882:2898   */\n  swap1\n  pop\n    /* \"#utility.yul\":2819:2904   */\n  swap2\n  swap1\n  pop\n  jump\t// out\n    /* \"#utility.yul\":2910:2970   */\ntag_28:\n    /* \"#utility.yul\":2938:2941   */\n  0x00\n    /* \"#utility.yul\":2959:2964   */\n  dup2\n    /* \"#utility.yul\":2952:2964   */\n  swap1\n  pop\n    /* \"#utility.yul\":2910:2970   */\n  swap2\n  swap1\n  pop\n  jump\t// out\n    /* \"#utility.yul\":2976:3134   */\ntag_29:\n    /* \"#utility.yul\":3034:3043   */\n  0x00\n    /* \"#utility.yul\":3067:3128   */\n  tag_73\n    /* \"#utility.yul\":3085:3127   */\n  tag_74\n    /* \"#utility.yul\":3094:3126   */\n  tag_75\n    /* \"#utility.yul\":3120:3125   */\n  dup5\n    /* \"#utility.yul\":3094:3126   */\n  tag_27\n  jump\t// in\ntag_75:\n    /* \"#utility.yul\":3085:3127   */\n  tag_28\n  jump\t// in\ntag_74:\n    /* \"#utility.yul\":3067:3128   */\n  tag_21\n  jump\t// in\ntag_73:\n    /* \"#utility.yul\":3054:3128   */\n  swap1\n  pop\n    /* \"#utility.yul\":2976:3134   */\n  swap2\n  swap1\n  pop\n  jump\t// out\n    /* \"#utility.yul\":3140:3287   */\ntag_30:\n    /* \"#utility.yul\":3235:3280   */\n  tag_77\n    /* \"#utility.yul\":3274:3279   */\n  dup2\n    /* \"#utility.yul\":3235:3280   */\n  tag_29\n  jump\t// in\ntag_77:\n    /* \"#utility.yul\":3230:3233   */\n  dup3\n    /* \"#utility.yul\":3223:3281   */\n  mstore\n    /* \"#utility.yul\":3140:3287   */\n  pop\n  pop\n  jump\t// out\n    /* \"#utility.yul\":3293:3461   */\ntag_31:\n    /* \"#utility.yul\":3376:3387   */\n  0x00\n    /* \"#utility.yul\":3410:3416   */\n  dup3\n    /* \"#utility.yul\":3405:3408   */\n  dup3\n    /* \"#utility.yul\":3398:3417   */\n  mstore\n    /* \"#utility.yul\":3450:3454   */\n  0x20\n    /* \"#utility.yul\":3445:3448   */\n  dup3\n    /* \"#utility.yul\":3441:3455   */\n  add\n    /* \"#utility.yul\":3426:3455   */\n  swap1\n  pop\n    /* \"#utility.yul\":3293:3461   */\n  swap3\n  swap2\n  pop\n  pop\n  jump\t// out\n    /* \"#utility.yul\":3467:3581   */\ntag_32:\n  pop\n  jump\t// out\n    /* \"#utility.yul\":3587:3949   */\ntag_33:\n    /* \"#utility.yul\":3728:3731   */\n  0x00\n    /* \"#utility.yul\":3749:3814   */\n  tag_81\n    /* \"#utility.yul\":3812:3813   */\n  0x00\n    /* \"#utility.yul\":3807:3810   */\n  dup4\n    /* \"#utility.yul\":3749:3814   */\n  tag_31\n  jump\t// in\ntag_81:\n    /* \"#utility.yul\":3742:3814   */\n  swap2\n  pop\n    /* \"#utility.yul\":3823:3916   */\n  tag_82\n    /* \"#utility.yul\":3912:3915   */\n  dup3\n    /* \"#utility.yul\":3823:3916   */\n  tag_32\n  jump\t// in\ntag_82:\n    /* \"#utility.yul\":3941:3942   */\n  0x00\n    /* \"#utility.yul\":3936:3939   */\n  dup3\n    /* \"#utility.yul\":3932:3943   */\n  add\n    /* \"#utility.yul\":3925:3943   */\n  swap1\n  pop\n    /* \"#utility.yul\":3587:3949   */\n  swap2\n  swap1\n  pop\n  jump\t// out\n    /* \"#utility.yul\":3955:4830   */\ntag_9:\n    /* \"#utility.yul\":4240:4244   */\n  0x00\n    /* \"#utility.yul\":4278:4281   */\n  0xa0\n    /* \"#utility.yul\":4267:4276   */\n  dup3\n    /* \"#utility.yul\":4263:4282   */\n  add\n    /* \"#utility.yul\":4255:4282   */\n  swap1\n  pop\n    /* \"#utility.yul\":4292:4363   */\n  tag_84\n    /* \"#utility.yul\":4360:4361   */\n  0x00\n    /* \"#utility.yul\":4349:4358   */\n  dup4\n    /* \"#utility.yul\":4345:4362   */\n  add\n    /* \"#utility.yul\":4336:4342   */\n  dup8\n    /* \"#utility.yul\":4292:4363   */\n  tag_25\n  jump\t// in\ntag_84:\n    /* \"#utility.yul\":4373:4445   */\n  tag_85\n    /* \"#utility.yul\":4441:4443   */\n  0x20\n    /* \"#utility.yul\":4430:4439   */\n  dup4\n    /* \"#utility.yul\":4426:4444   */\n  add\n    /* \"#utility.yul\":4417:4423   */\n  dup7\n    /* \"#utility.yul\":4373:4445   */\n  tag_25\n  jump\t// in\ntag_85:\n    /* \"#utility.yul\":4455:4527   */\n  tag_86\n    /* \"#utility.yul\":4523:4525   */\n  0x40\n    /* \"#utility.yul\":4512:4521   */\n  dup4\n    /* \"#utility.yul\":4508:4526   */\n  add\n    /* \"#utility.yul\":4499:4505   */\n  dup6\n    /* \"#utility.yul\":4455:4527   */\n  tag_26\n  jump\t// in\ntag_86:\n    /* \"#utility.yul\":4537:4617   */\n  tag_87\n    /* \"#utility.yul\":4613:4615   */\n  0x60\n    /* \"#utility.yul\":4602:4611   */\n  dup4\n    /* \"#utility.yul\":4598:4616   */\n  add\n    /* \"#utility.yul\":4589:4595   */\n  dup5\n    /* \"#utility.yul\":4537:4617   */\n  tag_30\n  jump\t// in\ntag_87:\n    /* \"#utility.yul\":4665:4674   */\n  dup2\n    /* \"#utility.yul\":4659:4663   */\n  dup2\n    /* \"#utility.yul\":4655:4675   */\n  sub\n    /* \"#utility.yul\":4649:4652   */\n  0x80\n    /* \"#utility.yul\":4638:4647   */\n  dup4\n    /* \"#utility.yul\":4634:4653   */\n  add\n    /* \"#utility.yul\":4627:4676   */\n  mstore\n    /* \"#utility.yul\":4693:4823   */\n  tag_88\n    /* \"#utility.yul\":4818:4822   */\n  dup2\n    /* \"#utility.yul\":4693:4823   */\n  tag_33\n  jump\t// in\ntag_88:\n    /* \"#utility.yul\":4685:4823   */\n  swap1\n  pop\n    /* \"#utility.yul\":3955:4830   */\n  swap6\n  swap5\n  pop\n  pop\n  pop\n  pop\n  pop\n  jump\t// out\n    /* \"contracts/Auction.sol\":213:3959  contract Auction {... */\ntag_13:\n  dataSize(sub_0)\n  dup1\n  dataOffset(sub_0)\n  0x00\n  codecopy\n  0x00\n  return\nstop\n\nsub_0: assembly {\n        /* \"contracts/Auction.sol\":213:3959  contract Auction {... */\n      mstore(0x40, 0x80)\n      callvalue\n      dup1\n      iszero\n      tag_1\n      jumpi\n      0x00\n      dup1\n      revert\n    tag_1:\n      pop\n      jumpi(tag_2, lt(calldatasize, 0x04))\n      shr(0xe0, calldataload(0x00))\n      dup1\n      0x58797cb6\n      gt\n      tag_18\n      jumpi\n      dup1\n      0xe537213e\n      gt\n      tag_19\n      jumpi\n      dup1\n      0xe537213e\n      eq\n      tag_14\n      jumpi\n      dup1\n      0xec022918\n      eq\n      tag_15\n      jumpi\n      dup1\n      0xf0194f89\n      eq\n      tag_16\n      jumpi\n      dup1\n      0xfe67a54b\n      eq\n      tag_17\n      jumpi\n      jump(tag_2)\n    tag_19:\n      dup1\n      0x58797cb6\n      eq\n      tag_10\n      jumpi\n      dup1\n      0x637a6687\n      eq\n      tag_11\n      jumpi\n      dup1\n      0x67a555d8\n      eq\n      tag_12\n      jumpi\n      dup1\n      0x8da5cb5b\n      eq\n      tag_13\n      jumpi\n      jump(tag_2)\n    tag_18:\n      dup1\n      0x24924bf7\n      gt\n      tag_20\n      jumpi\n      dup1\n      0x24924bf7\n      eq\n      tag_6\n      jumpi\n      dup1\n      0x362f04c0\n      eq\n      tag_7\n      jumpi\n      dup1\n      0x4b449cba\n      eq\n      tag_8\n      jumpi\n      dup1\n      0x4c68df67\n      eq\n      tag_9\n      jumpi\n      jump(tag_2)\n    tag_20:\n      dup1\n      0x09e69ede\n      eq\n      tag_3\n      jumpi\n      dup1\n      0x12fa6feb\n      eq\n      tag_4\n      jumpi\n      dup1\n      0x21f42268\n      eq\n      tag_5\n      jumpi\n    tag_2:\n      0x00\n      dup1\n      revert\n        /* \"contracts/Auction.sol\":821:872  mapping(address => Participant) public participants */\n    tag_3:\n      tag_21\n      0x04\n      dup1\n      calldatasize\n      sub\n      dup2\n      add\n      swap1\n      tag_22\n      swap2\n      swap1\n      tag_23\n      jump\t// in\n    tag_22:\n      tag_24\n      jump\t// in\n    tag_21:\n      mload(0x40)\n      tag_25\n      swap3\n      swap2\n      swap1\n      tag_26\n      jump\t// in\n    tag_25:\n      mload(0x40)\n      dup1\n      swap2\n      sub\n      swap1\n      return\n        /* \"contracts/Auction.sol\":915:932  bool public ended */\n    tag_4:\n      tag_27\n      tag_28\n      jump\t// in\n    tag_27:\n      mload(0x40)\n      tag_29\n      swap2\n      swap1\n      tag_30\n      jump\t// in\n    tag_29:\n      mload(0x40)\n      dup1\n      swap2\n      sub\n      swap1\n      return\n        /* \"contracts/Auction.sol\":576:604  IERC1155 public erc1155Token */\n    tag_5:\n      tag_31\n      tag_32\n      jump\t// in\n    tag_31:\n      mload(0x40)\n      tag_33\n      swap2\n      swap1\n      tag_34\n      jump\t// in\n    tag_33:\n      mload(0x40)\n      dup1\n      swap2\n      sub\n      swap1\n      return\n        /* \"contracts/Auction.sol\":397:427  uint256 public maxParticipants */\n    tag_6:\n      tag_35\n      tag_36\n      jump\t// in\n    tag_35:\n      mload(0x40)\n      tag_37\n      swap2\n      swap1\n      tag_38\n      jump\t// in\n    tag_37:\n      mload(0x40)\n      dup1\n      swap2\n      sub\n      swap1\n      return\n        /* \"contracts/Auction.sol\":434:465  uint256 public participantCount */\n    tag_7:\n      tag_39\n      tag_40\n      jump\t// in\n    tag_39:\n      mload(0x40)\n      tag_41\n      swap2\n      swap1\n      tag_38\n      jump\t// in\n    tag_41:\n      mload(0x40)\n      dup1\n      swap2\n      sub\n      swap1\n      return\n        /* \"contracts/Auction.sol\":361:390  uint256 public auctionEndTime */\n    tag_8:\n      tag_42\n      tag_43\n      jump\t// in\n    tag_42:\n      mload(0x40)\n      tag_44\n      swap2\n      swap1\n      tag_38\n      jump\t// in\n    tag_44:\n      mload(0x40)\n      dup1\n      swap2\n      sub\n      swap1\n      return\n        /* \"contracts/Auction.sol\":879:906  uint256 public totalReserve */\n    tag_9:\n      tag_45\n      tag_46\n      jump\t// in\n    tag_45:\n      mload(0x40)\n      tag_47\n      swap2\n      swap1\n      tag_38\n      jump\t// in\n    tag_47:\n      mload(0x40)\n      dup1\n      swap2\n      sub\n      swap1\n      return\n        /* \"contracts/Auction.sol\":546:569  IERC20 public coinToken */\n    tag_10:\n      tag_48\n      tag_49\n      jump\t// in\n    tag_48:\n      mload(0x40)\n      tag_50\n      swap2\n      swap1\n      tag_51\n      jump\t// in\n    tag_50:\n      mload(0x40)\n      dup1\n      swap2\n      sub\n      swap1\n      return\n        /* \"contracts/Auction.sol\":637:666  uint256 public erc1155TokenId */\n    tag_11:\n      tag_52\n      tag_53\n      jump\t// in\n    tag_52:\n      mload(0x40)\n      tag_54\n      swap2\n      swap1\n      tag_38\n      jump\t// in\n    tag_54:\n      mload(0x40)\n      dup1\n      swap2\n      sub\n      swap1\n      return\n        /* \"contracts/Auction.sol\":237:291  WinnerDetermination public winnerDeterminationInstance */\n    tag_12:\n      tag_55\n      tag_56\n      jump\t// in\n    tag_55:\n      mload(0x40)\n      tag_57\n      swap2\n      swap1\n      tag_58\n      jump\t// in\n    tag_57:\n      mload(0x40)\n      dup1\n      swap2\n      sub\n      swap1\n      return\n        /* \"contracts/Auction.sol\":334:354  address public owner */\n    tag_13:\n      tag_59\n      tag_60\n      jump\t// in\n    tag_59:\n      mload(0x40)\n      tag_61\n      swap2\n      swap1\n      tag_62\n      jump\t// in\n    tag_61:\n      mload(0x40)\n      dup1\n      swap2\n      sub\n      swap1\n      return\n        /* \"contracts/Auction.sol\":472:503  uint256[] public reserveAmounts */\n    tag_14:\n      tag_63\n      0x04\n      dup1\n      calldatasize\n      sub\n      dup2\n      add\n      swap1\n      tag_64\n      swap2\n      swap1\n      tag_65\n      jump\t// in\n    tag_64:\n      tag_66\n      jump\t// in\n    tag_63:\n      mload(0x40)\n      tag_67\n      swap2\n      swap1\n      tag_38\n      jump\t// in\n    tag_67:\n      mload(0x40)\n      dup1\n      swap2\n      sub\n      swap1\n      return\n        /* \"contracts/Auction.sol\":3859:3956  function getTotalReserve() external view returns (uint256) {... */\n    tag_15:\n      tag_68\n      tag_69\n      jump\t// in\n    tag_68:\n      mload(0x40)\n      tag_70\n      swap2\n      swap1\n      tag_38\n      jump\t// in\n    tag_70:\n      mload(0x40)\n      dup1\n      swap2\n      sub\n      swap1\n      return\n        /* \"contracts/Auction.sol\":2012:2808  function joinAuction(uint256 reserveAmount) external onlyBeforeEnd {... */\n    tag_16:\n      tag_71\n      0x04\n      dup1\n      calldatasize\n      sub\n      dup2\n      add\n      swap1\n      tag_72\n      swap2\n      swap1\n      tag_65\n      jump\t// in\n    tag_72:\n      tag_73\n      jump\t// in\n    tag_71:\n      stop\n        /* \"contracts/Auction.sol\":2816:3851  function endAuction() external onlyOwner onlyBeforeEnd {... */\n    tag_17:\n      tag_74\n      tag_75\n      jump\t// in\n    tag_74:\n      stop\n        /* \"contracts/Auction.sol\":821:872  mapping(address => Participant) public participants */\n    tag_24:\n      mstore(0x20, 0x0a)\n      dup1\n      0x00\n      mstore\n      keccak256(0x00, 0x40)\n      0x00\n      swap2\n      pop\n      swap1\n      pop\n      dup1\n      0x00\n      add\n      sload\n      swap1\n      dup1\n      0x01\n      add\n      0x00\n      swap1\n      sload\n      swap1\n      0x0100\n      exp\n      swap1\n      div\n      0xff\n      and\n      swap1\n      pop\n      dup3\n      jump\t// out\n        /* \"contracts/Auction.sol\":915:932  bool public ended */\n    tag_28:\n      0x0c\n      0x00\n      swap1\n      sload\n      swap1\n      0x0100\n      exp\n      swap1\n      div\n      0xff\n      and\n      dup2\n      jump\t// out\n        /* \"contracts/Auction.sol\":576:604  IERC1155 public erc1155Token */\n    tag_32:\n      0x07\n      0x00\n      swap1\n      sload\n      swap1\n      0x0100\n      exp\n      swap1\n      div\n      0xffffffffffffffffffffffffffffffffffffffff\n      and\n      dup2\n      jump\t// out\n        /* \"contracts/Auction.sol\":397:427  uint256 public maxParticipants */\n    tag_36:\n      sload(0x03)\n      dup2\n      jump\t// out\n        /* \"contracts/Auction.sol\":434:465  uint256 public participantCount */\n    tag_40:\n      sload(0x04)\n      dup2\n      jump\t// out\n        /* \"contracts/Auction.sol\":361:390  uint256 public auctionEndTime */\n    tag_43:\n      sload(0x02)\n      dup2\n      jump\t// out\n        /* \"contracts/Auction.sol\":879:906  uint256 public totalReserve */\n    tag_46:\n      sload(0x0b)\n      dup2\n      jump\t// out\n        /* \"contracts/Auction.sol\":546:569  IERC20 public coinToken */\n    tag_49:\n      0x06\n      0x00\n      swap1\n      sload\n      swap1\n      0x0100\n      exp\n      swap1\n      div\n      0xffffffffffffffffffffffffffffffffffffffff\n      and\n      dup2\n      jump\t// out\n        /* \"contracts/Auction.sol\":637:666  uint256 public erc1155TokenId */\n    tag_53:\n      sload(0x08)\n      dup2\n      jump\t// out\n        /* \"contracts/Auction.sol\":237:291  WinnerDetermination public winnerDeterminationInstance */\n    tag_56:\n      0x00\n      dup1\n      sload\n      swap1\n      0x0100\n      exp\n      swap1\n      div\n      0xffffffffffffffffffffffffffffffffffffffff\n      and\n      dup2\n      jump\t// out\n        /* \"contracts/Auction.sol\":334:354  address public owner */\n    tag_60:\n      0x01\n      0x00\n      swap1\n      sload\n      swap1\n      0x0100\n      exp\n      swap1\n      div\n      0xffffffffffffffffffffffffffffffffffffffff\n      and\n      dup2\n      jump\t// out\n        /* \"contracts/Auction.sol\":472:503  uint256[] public reserveAmounts */\n    tag_66:\n      0x05\n      dup2\n      dup2\n      sload\n      dup2\n      lt\n      tag_76\n      jumpi\n      0x00\n      dup1\n      revert\n    tag_76:\n      swap1\n      0x00\n      mstore\n      keccak256(0x00, 0x20)\n      add\n      0x00\n      swap2\n      pop\n      swap1\n      pop\n      sload\n      dup2\n      jump\t// out\n        /* \"contracts/Auction.sol\":3859:3956  function getTotalReserve() external view returns (uint256) {... */\n    tag_69:\n        /* \"contracts/Auction.sol\":3909:3916  uint256 */\n      0x00\n        /* \"contracts/Auction.sol\":3936:3948  totalReserve */\n      sload(0x0b)\n        /* \"contracts/Auction.sol\":3929:3948  return totalReserve */\n      swap1\n      pop\n        /* \"contracts/Auction.sol\":3859:3956  function getTotalReserve() external view returns (uint256) {... */\n      swap1\n      jump\t// out\n        /* \"contracts/Auction.sol\":2012:2808  function joinAuction(uint256 reserveAmount) external onlyBeforeEnd {... */\n    tag_73:\n        /* \"contracts/Auction.sol\":1253:1258  ended */\n      0x0c\n      0x00\n      swap1\n      sload\n      swap1\n      0x0100\n      exp\n      swap1\n      div\n      0xff\n      and\n        /* \"contracts/Auction.sol\":1252:1258  !ended */\n      iszero\n        /* \"contracts/Auction.sol\":1244:1289  require(!ended, \"Auction has already ended.\") */\n      tag_80\n      jumpi\n      mload(0x40)\n      0x08c379a000000000000000000000000000000000000000000000000000000000\n      dup2\n      mstore\n      0x04\n      add\n      tag_81\n      swap1\n      tag_82\n      jump\t// in\n    tag_81:\n      mload(0x40)\n      dup1\n      swap2\n      sub\n      swap1\n      revert\n    tag_80:\n        /* \"contracts/Auction.sol\":1326:1340  auctionEndTime */\n      sload(0x02)\n        /* \"contracts/Auction.sol\":1308:1323  block.timestamp */\n      timestamp\n        /* \"contracts/Auction.sol\":1308:1340  block.timestamp < auctionEndTime */\n      lt\n        /* \"contracts/Auction.sol\":1300:1371  require(block.timestamp < auctionEndTime, \"Auction has already ended.\") */\n      tag_83\n      jumpi\n      mload(0x40)\n      0x08c379a000000000000000000000000000000000000000000000000000000000\n      dup2\n      mstore\n      0x04\n      add\n      tag_84\n      swap1\n      tag_82\n      jump\t// in\n    tag_84:\n      mload(0x40)\n      dup1\n      swap2\n      sub\n      swap1\n      revert\n    tag_83:\n        /* \"contracts/Auction.sol\":2099:2111  participants */\n      0x0a\n        /* \"contracts/Auction.sol\":2099:2123  participants[msg.sender] */\n      0x00\n        /* \"contracts/Auction.sol\":2112:2122  msg.sender */\n      caller\n        /* \"contracts/Auction.sol\":2099:2123  participants[msg.sender] */\n      0xffffffffffffffffffffffffffffffffffffffff\n      and\n      0xffffffffffffffffffffffffffffffffffffffff\n      and\n      dup2\n      mstore\n      0x20\n      add\n      swap1\n      dup2\n      mstore\n      0x20\n      add\n      0x00\n      keccak256\n        /* \"contracts/Auction.sol\":2099:2130  participants[msg.sender].active */\n      0x01\n      add\n      0x00\n      swap1\n      sload\n      swap1\n      0x0100\n      exp\n      swap1\n      div\n      0xff\n      and\n        /* \"contracts/Auction.sol\":2098:2130  !participants[msg.sender].active */\n      iszero\n        /* \"contracts/Auction.sol\":2090:2171  require(!participants[msg.sender].active, \"You have already joined the auction.\") */\n      tag_86\n      jumpi\n      mload(0x40)\n      0x08c379a000000000000000000000000000000000000000000000000000000000\n      dup2\n      mstore\n      0x04\n      add\n      tag_87\n      swap1\n      tag_88\n      jump\t// in\n    tag_87:\n      mload(0x40)\n      dup1\n      swap2\n      sub\n      swap1\n      revert\n    tag_86:\n        /* \"contracts/Auction.sol\":2209:2224  maxParticipants */\n      sload(0x03)\n        /* \"contracts/Auction.sol\":2190:2206  participantCount */\n      sload(0x04)\n        /* \"contracts/Auction.sol\":2190:2224  participantCount < maxParticipants */\n      lt\n        /* \"contracts/Auction.sol\":2182:2245  require(participantCount < maxParticipants, \"Auction is full.\") */\n      tag_89\n      jumpi\n      mload(0x40)\n      0x08c379a000000000000000000000000000000000000000000000000000000000\n      dup2\n      mstore\n      0x04\n      add\n      tag_90\n      swap1\n      tag_91\n      jump\t// in\n    tag_90:\n      mload(0x40)\n      dup1\n      swap2\n      sub\n      swap1\n      revert\n    tag_89:\n        /* \"contracts/Auction.sol\":2280:2281  0 */\n      0x00\n        /* \"contracts/Auction.sol\":2264:2277  reserveAmount */\n      dup2\n        /* \"contracts/Auction.sol\":2264:2281  reserveAmount > 0 */\n      gt\n        /* \"contracts/Auction.sol\":2256:2327  require(reserveAmount > 0, \"Reserve amount must be greater than zero.\") */\n      tag_92\n      jumpi\n      mload(0x40)\n      0x08c379a000000000000000000000000000000000000000000000000000000000\n      dup2\n      mstore\n      0x04\n      add\n      tag_93\n      swap1\n      tag_94\n      jump\t// in\n    tag_93:\n      mload(0x40)\n      dup1\n      swap2\n      sub\n      swap1\n      revert\n    tag_92:\n        /* \"contracts/Auction.sol\":2367:2461  Participant({... */\n      mload(0x40)\n      dup1\n      0x40\n      add\n      0x40\n      mstore\n      dup1\n        /* \"contracts/Auction.sol\":2409:2422  reserveAmount */\n      dup3\n        /* \"contracts/Auction.sol\":2367:2461  Participant({... */\n      dup2\n      mstore\n      0x20\n      add\n        /* \"contracts/Auction.sol\":2445:2449  true */\n      0x01\n        /* \"contracts/Auction.sol\":2367:2461  Participant({... */\n      iszero\n      iszero\n      dup2\n      mstore\n      pop\n        /* \"contracts/Auction.sol\":2340:2352  participants */\n      0x0a\n        /* \"contracts/Auction.sol\":2340:2364  participants[msg.sender] */\n      0x00\n        /* \"contracts/Auction.sol\":2353:2363  msg.sender */\n      caller\n        /* \"contracts/Auction.sol\":2340:2364  participants[msg.sender] */\n      0xffffffffffffffffffffffffffffffffffffffff\n      and\n      0xffffffffffffffffffffffffffffffffffffffff\n      and\n      dup2\n      mstore\n      0x20\n      add\n      swap1\n      dup2\n      mstore\n      0x20\n      add\n      0x00\n      keccak256\n        /* \"contracts/Auction.sol\":2340:2461  participants[msg.sender] = Participant({... */\n      0x00\n      dup3\n      add\n      mload\n      dup2\n      0x00\n      add\n      sstore\n      0x20\n      dup3\n      add\n      mload\n      dup2\n      0x01\n      add\n      exp(0x0100, 0x00)\n      dup2\n      sload\n      dup2\n      0xff\n      mul\n      not\n      and\n      swap1\n      dup4\n      iszero\n      iszero\n      mul\n      or\n      swap1\n      sstore\n      pop\n      swap1\n      pop\n      pop\n        /* \"contracts/Auction.sol\":2490:2503  reserveAmount */\n      dup1\n        /* \"contracts/Auction.sol\":2474:2486  totalReserve */\n      0x0b\n      0x00\n        /* \"contracts/Auction.sol\":2474:2503  totalReserve += reserveAmount */\n      dup3\n      dup3\n      sload\n      tag_95\n      swap2\n      swap1\n      tag_96\n      jump\t// in\n    tag_95:\n      swap3\n      pop\n      pop\n      dup2\n      swap1\n      sstore\n      pop\n        /* \"contracts/Auction.sol\":2514:2528  reserveAmounts */\n      0x05\n        /* \"contracts/Auction.sol\":2534:2547  reserveAmount */\n      dup2\n        /* \"contracts/Auction.sol\":2514:2548  reserveAmounts.push(reserveAmount) */\n      swap1\n      dup1\n      0x01\n      dup2\n      sload\n      add\n      dup1\n      dup3\n      sstore\n      dup1\n      swap2\n      pop\n      pop\n      0x01\n      swap1\n      sub\n      swap1\n      0x00\n      mstore\n      keccak256(0x00, 0x20)\n      add\n      0x00\n      swap1\n      swap2\n      swap1\n      swap2\n      swap1\n      swap2\n      pop\n      sstore\n        /* \"contracts/Auction.sol\":2622:2632  msg.sender */\n      caller\n        /* \"contracts/Auction.sol\":2587:2601  addressAtIndex */\n      0x09\n        /* \"contracts/Auction.sol\":2587:2619  addressAtIndex[participantCount] */\n      0x00\n        /* \"contracts/Auction.sol\":2602:2618  participantCount */\n      sload(0x04)\n        /* \"contracts/Auction.sol\":2587:2619  addressAtIndex[participantCount] */\n      dup2\n      mstore\n      0x20\n      add\n      swap1\n      dup2\n      mstore\n      0x20\n      add\n      0x00\n      keccak256\n      0x00\n        /* \"contracts/Auction.sol\":2587:2632  addressAtIndex[participantCount] = msg.sender */\n      0x0100\n      exp\n      dup2\n      sload\n      dup2\n      0xffffffffffffffffffffffffffffffffffffffff\n      mul\n      not\n      and\n      swap1\n      dup4\n      0xffffffffffffffffffffffffffffffffffffffff\n      and\n      mul\n      or\n      swap1\n      sstore\n      pop\n        /* \"contracts/Auction.sol\":2643:2659  participantCount */\n      0x04\n      0x00\n        /* \"contracts/Auction.sol\":2643:2661  participantCount++ */\n      dup2\n      sload\n      dup1\n      swap3\n      swap2\n      swap1\n      tag_98\n      swap1\n      tag_99\n      jump\t// in\n    tag_98:\n      swap2\n      swap1\n      pop\n      sstore\n      pop\n        /* \"contracts/Auction.sol\":2674:2683  coinToken */\n      0x06\n      0x00\n      swap1\n      sload\n      swap1\n      0x0100\n      exp\n      swap1\n      div\n      0xffffffffffffffffffffffffffffffffffffffff\n      and\n        /* \"contracts/Auction.sol\":2674:2696  coinToken.transferFrom */\n      0xffffffffffffffffffffffffffffffffffffffff\n      and\n      0x23b872dd\n        /* \"contracts/Auction.sol\":2697:2707  msg.sender */\n      caller\n        /* \"contracts/Auction.sol\":2717:2721  this */\n      address\n        /* \"contracts/Auction.sol\":2724:2737  reserveAmount */\n      dup5\n        /* \"contracts/Auction.sol\":2674:2738  coinToken.transferFrom(msg.sender, address(this), reserveAmount) */\n      mload(0x40)\n      dup5\n      0xffffffff\n      and\n      0xe0\n      shl\n      dup2\n      mstore\n      0x04\n      add\n      tag_100\n      swap4\n      swap3\n      swap2\n      swap1\n      tag_101\n      jump\t// in\n    tag_100:\n      0x20\n      mload(0x40)\n      dup1\n      dup4\n      sub\n      dup2\n      0x00\n      dup8\n      gas\n      call\n      iszero\n      dup1\n      iszero\n      tag_103\n      jumpi\n      returndatasize\n      0x00\n      dup1\n      returndatacopy\n      revert(0x00, returndatasize)\n    tag_103:\n      pop\n      pop\n      pop\n      pop\n      mload(0x40)\n      returndatasize\n      not(0x1f)\n      0x1f\n      dup3\n      add\n      and\n      dup3\n      add\n      dup1\n      0x40\n      mstore\n      pop\n      dup2\n      add\n      swap1\n      tag_104\n      swap2\n      swap1\n      tag_105\n      jump\t// in\n    tag_104:\n      pop\n        /* \"contracts/Auction.sol\":2756:2800  ParticipantJoined(msg.sender, reserveAmount) */\n      0x8123641a38ad3476ac345fc38496fa9edc26a110698c8c0c9fffc30f546f918c\n        /* \"contracts/Auction.sol\":2774:2784  msg.sender */\n      caller\n        /* \"contracts/Auction.sol\":2786:2799  reserveAmount */\n      dup3\n        /* \"contracts/Auction.sol\":2756:2800  ParticipantJoined(msg.sender, reserveAmount) */\n      mload(0x40)\n      tag_106\n      swap3\n      swap2\n      swap1\n      tag_107\n      jump\t// in\n    tag_106:\n      mload(0x40)\n      dup1\n      swap2\n      sub\n      swap1\n      log1\n        /* \"contracts/Auction.sol\":2012:2808  function joinAuction(uint256 reserveAmount) external onlyBeforeEnd {... */\n      pop\n      jump\t// out\n        /* \"contracts/Auction.sol\":2816:3851  function endAuction() external onlyOwner onlyBeforeEnd {... */\n    tag_75:\n        /* \"contracts/Auction.sol\":1132:1137  owner */\n      0x01\n      0x00\n      swap1\n      sload\n      swap1\n      0x0100\n      exp\n      swap1\n      div\n      0xffffffffffffffffffffffffffffffffffffffff\n      and\n        /* \"contracts/Auction.sol\":1118:1137  msg.sender == owner */\n      0xffffffffffffffffffffffffffffffffffffffff\n      and\n        /* \"contracts/Auction.sol\":1118:1128  msg.sender */\n      caller\n        /* \"contracts/Auction.sol\":1118:1137  msg.sender == owner */\n      0xffffffffffffffffffffffffffffffffffffffff\n      and\n      eq\n        /* \"contracts/Auction.sol\":1110:1180  require(msg.sender == owner, \"Only the owner can call this function.\") */\n      tag_109\n      jumpi\n      mload(0x40)\n      0x08c379a000000000000000000000000000000000000000000000000000000000\n      dup2\n      mstore\n      0x04\n      add\n      tag_110\n      swap1\n      tag_111\n      jump\t// in\n    tag_110:\n      mload(0x40)\n      dup1\n      swap2\n      sub\n      swap1\n      revert\n    tag_109:\n        /* \"contracts/Auction.sol\":1253:1258  ended */\n      0x0c\n      0x00\n      swap1\n      sload\n      swap1\n      0x0100\n      exp\n      swap1\n      div\n      0xff\n      and\n        /* \"contracts/Auction.sol\":1252:1258  !ended */\n      iszero\n        /* \"contracts/Auction.sol\":1244:1289  require(!ended, \"Auction has already ended.\") */\n      tag_113\n      jumpi\n      mload(0x40)\n      0x08c379a000000000000000000000000000000000000000000000000000000000\n      dup2\n      mstore\n      0x04\n      add\n      tag_114\n      swap1\n      tag_82\n      jump\t// in\n    tag_114:\n      mload(0x40)\n      dup1\n      swap2\n      sub\n      swap1\n      revert\n    tag_113:\n        /* \"contracts/Auction.sol\":1326:1340  auctionEndTime */\n      sload(0x02)\n        /* \"contracts/Auction.sol\":1308:1323  block.timestamp */\n      timestamp\n        /* \"contracts/Auction.sol\":1308:1340  block.timestamp < auctionEndTime */\n      lt\n        /* \"contracts/Auction.sol\":1300:1371  require(block.timestamp < auctionEndTime, \"Auction has already ended.\") */\n      tag_115\n      jumpi\n      mload(0x40)\n      0x08c379a000000000000000000000000000000000000000000000000000000000\n      dup2\n      mstore\n      0x04\n      add\n      tag_116\n      swap1\n      tag_82\n      jump\t// in\n    tag_116:\n      mload(0x40)\n      dup1\n      swap2\n      sub\n      swap1\n      revert\n    tag_115:\n        /* \"contracts/Auction.sol\":2890:2894  true */\n      0x01\n        /* \"contracts/Auction.sol\":2882:2887  ended */\n      0x0c\n      0x00\n        /* \"contracts/Auction.sol\":2882:2894  ended = true */\n      0x0100\n      exp\n      dup2\n      sload\n      dup2\n      0xff\n      mul\n      not\n      and\n      swap1\n      dup4\n      iszero\n      iszero\n      mul\n      or\n      swap1\n      sstore\n      pop\n        /* \"contracts/Auction.sol\":2915:2947  uint256[2] memory  winningValues */\n      0x00\n        /* \"contracts/Auction.sol\":2950:2977  winnerDeterminationInstance */\n      dup1\n      0x00\n      swap1\n      sload\n      swap1\n      0x0100\n      exp\n      swap1\n      div\n      0xffffffffffffffffffffffffffffffffffffffff\n      and\n        /* \"contracts/Auction.sol\":2950:2987  winnerDeterminationInstance.getWinner */\n      0xffffffffffffffffffffffffffffffffffffffff\n      and\n      0x16e74f09\n        /* \"contracts/Auction.sol\":2988:3002  reserveAmounts */\n      0x05\n        /* \"contracts/Auction.sol\":2950:3003  winnerDeterminationInstance.getWinner(reserveAmounts) */\n      mload(0x40)\n      dup3\n      0xffffffff\n      and\n      0xe0\n      shl\n      dup2\n      mstore\n      0x04\n      add\n      tag_118\n      swap2\n      swap1\n      tag_119\n      jump\t// in\n    tag_118:\n      0x40\n      dup1\n      mload\n      dup1\n      dup4\n      sub\n      dup2\n      dup7\n      gas\n      staticcall\n      iszero\n      dup1\n      iszero\n      tag_121\n      jumpi\n      returndatasize\n      0x00\n      dup1\n      returndatacopy\n      revert(0x00, returndatasize)\n    tag_121:\n      pop\n      pop\n      pop\n      pop\n      mload(0x40)\n      returndatasize\n      not(0x1f)\n      0x1f\n      dup3\n      add\n      and\n      dup3\n      add\n      dup1\n      0x40\n      mstore\n      pop\n      dup2\n      add\n      swap1\n      tag_122\n      swap2\n      swap1\n      tag_123\n      jump\t// in\n    tag_122:\n        /* \"contracts/Auction.sol\":2915:3003  uint256[2] memory  winningValues = winnerDeterminationInstance.getWinner(reserveAmounts) */\n      swap1\n      pop\n        /* \"contracts/Auction.sol\":3038:3056  uint256 winningBid */\n      0x00\n        /* \"contracts/Auction.sol\":3059:3072  winningValues */\n      dup2\n        /* \"contracts/Auction.sol\":3073:3074  0 */\n      0x00\n        /* \"contracts/Auction.sol\":3059:3075  winningValues[0] */\n      0x02\n      dup2\n      lt\n      tag_124\n      jumpi\n      tag_125\n      tag_126\n      jump\t// in\n    tag_125:\n    tag_124:\n      0x20\n      mul\n      add\n      mload\n        /* \"contracts/Auction.sol\":3038:3075  uint256 winningBid = winningValues[0] */\n      swap1\n      pop\n        /* \"contracts/Auction.sol\":3086:3109  uint256 winningBidIndex */\n      0x00\n        /* \"contracts/Auction.sol\":3112:3125  winningValues */\n      dup3\n        /* \"contracts/Auction.sol\":3126:3127  1 */\n      0x01\n        /* \"contracts/Auction.sol\":3112:3128  winningValues[1] */\n      0x02\n      dup2\n      lt\n      tag_127\n      jumpi\n      tag_128\n      tag_126\n      jump\t// in\n    tag_128:\n    tag_127:\n      0x20\n      mul\n      add\n      mload\n        /* \"contracts/Auction.sol\":3086:3128  uint256 winningBidIndex = winningValues[1] */\n      swap1\n      pop\n        /* \"contracts/Auction.sol\":3139:3153  address winner */\n      0x00\n        /* \"contracts/Auction.sol\":3156:3170  addressAtIndex */\n      0x09\n        /* \"contracts/Auction.sol\":3156:3187  addressAtIndex[winningBidIndex] */\n      0x00\n        /* \"contracts/Auction.sol\":3171:3186  winningBidIndex */\n      dup4\n        /* \"contracts/Auction.sol\":3156:3187  addressAtIndex[winningBidIndex] */\n      dup2\n      mstore\n      0x20\n      add\n      swap1\n      dup2\n      mstore\n      0x20\n      add\n      0x00\n      keccak256\n      0x00\n      swap1\n      sload\n      swap1\n      0x0100\n      exp\n      swap1\n      div\n      0xffffffffffffffffffffffffffffffffffffffff\n      and\n        /* \"contracts/Auction.sol\":3139:3187  address winner = addressAtIndex[winningBidIndex] */\n      swap1\n      pop\n        /* \"contracts/Auction.sol\":3238:3247  coinToken */\n      0x06\n      0x00\n      swap1\n      sload\n      swap1\n      0x0100\n      exp\n      swap1\n      div\n      0xffffffffffffffffffffffffffffffffffffffff\n      and\n        /* \"contracts/Auction.sol\":3238:3260  coinToken.transferFrom */\n      0xffffffffffffffffffffffffffffffffffffffff\n      and\n      0x23b872dd\n        /* \"contracts/Auction.sol\":3269:3273  this */\n      address\n        /* \"contracts/Auction.sol\":3276:3282  winner */\n      dup4\n        /* \"contracts/Auction.sol\":3299:3309  winningBid */\n      dup7\n        /* \"contracts/Auction.sol\":3284:3296  totalReserve */\n      sload(0x0b)\n        /* \"contracts/Auction.sol\":3284:3309  totalReserve - winningBid */\n      tag_129\n      swap2\n      swap1\n      tag_130\n      jump\t// in\n    tag_129:\n        /* \"contracts/Auction.sol\":3238:3310  coinToken.transferFrom(address(this), winner, totalReserve - winningBid) */\n      mload(0x40)\n      dup5\n      0xffffffff\n      and\n      0xe0\n      shl\n      dup2\n      mstore\n      0x04\n      add\n      tag_131\n      swap4\n      swap3\n      swap2\n      swap1\n      tag_101\n      jump\t// in\n    tag_131:\n      0x20\n      mload(0x40)\n      dup1\n      dup4\n      sub\n      dup2\n      0x00\n      dup8\n      gas\n      call\n      iszero\n      dup1\n      iszero\n      tag_133\n      jumpi\n      returndatasize\n      0x00\n      dup1\n      returndatacopy\n      revert(0x00, returndatasize)\n    tag_133:\n      pop\n      pop\n      pop\n      pop\n      mload(0x40)\n      returndatasize\n      not(0x1f)\n      0x1f\n      dup3\n      add\n      and\n      dup3\n      add\n      dup1\n      0x40\n      mstore\n      pop\n      dup2\n      add\n      swap1\n      tag_134\n      swap2\n      swap1\n      tag_105\n      jump\t// in\n    tag_134:\n      pop\n        /* \"contracts/Auction.sol\":3372:3384  erc1155Token */\n      0x07\n      0x00\n      swap1\n      sload\n      swap1\n      0x0100\n      exp\n      swap1\n      div\n      0xffffffffffffffffffffffffffffffffffffffff\n      and\n        /* \"contracts/Auction.sol\":3372:3401  erc1155Token.safeTransferFrom */\n      0xffffffffffffffffffffffffffffffffffffffff\n      and\n      0xf242432a\n        /* \"contracts/Auction.sol\":3410:3414  this */\n      address\n        /* \"contracts/Auction.sol\":3417:3423  winner */\n      dup4\n        /* \"contracts/Auction.sol\":3425:3439  erc1155TokenId */\n      sload(0x08)\n        /* \"contracts/Auction.sol\":3441:3442  1 */\n      0x01\n        /* \"contracts/Auction.sol\":3372:3447  erc1155Token.safeTransferFrom(address(this), winner, erc1155TokenId, 1, \"\") */\n      mload(0x40)\n      dup6\n      0xffffffff\n      and\n      0xe0\n      shl\n      dup2\n      mstore\n      0x04\n      add\n      tag_135\n      swap5\n      swap4\n      swap3\n      swap2\n      swap1\n      tag_136\n      jump\t// in\n    tag_135:\n      0x00\n      mload(0x40)\n      dup1\n      dup4\n      sub\n      dup2\n      0x00\n      dup8\n      dup1\n      extcodesize\n      iszero\n      dup1\n      iszero\n      tag_137\n      jumpi\n      0x00\n      dup1\n      revert\n    tag_137:\n      pop\n      gas\n      call\n      iszero\n      dup1\n      iszero\n      tag_139\n      jumpi\n      returndatasize\n      0x00\n      dup1\n      returndatacopy\n      revert(0x00, returndatasize)\n    tag_139:\n      pop\n      pop\n      pop\n      pop\n        /* \"contracts/Auction.sol\":3503:3512  uint256 i */\n      0x00\n        /* \"contracts/Auction.sol\":3498:3794  for (uint256 i = 0; i < participantCount; i++) {... */\n    tag_140:\n        /* \"contracts/Auction.sol\":3522:3538  participantCount */\n      sload(0x04)\n        /* \"contracts/Auction.sol\":3518:3519  i */\n      dup2\n        /* \"contracts/Auction.sol\":3518:3538  i < participantCount */\n      lt\n        /* \"contracts/Auction.sol\":3498:3794  for (uint256 i = 0; i < participantCount; i++) {... */\n      iszero\n      tag_141\n      jumpi\n        /* \"contracts/Auction.sol\":3569:3584  winningBidIndex */\n      dup3\n        /* \"contracts/Auction.sol\":3564:3565  i */\n      dup2\n        /* \"contracts/Auction.sol\":3564:3584  i != winningBidIndex */\n      eq\n        /* \"contracts/Auction.sol\":3560:3783  if (i != winningBidIndex) {... */\n      tag_143\n      jumpi\n        /* \"contracts/Auction.sol\":3605:3624  address participant */\n      0x00\n        /* \"contracts/Auction.sol\":3627:3641  addressAtIndex */\n      0x09\n        /* \"contracts/Auction.sol\":3627:3644  addressAtIndex[i] */\n      0x00\n        /* \"contracts/Auction.sol\":3642:3643  i */\n      dup4\n        /* \"contracts/Auction.sol\":3627:3644  addressAtIndex[i] */\n      dup2\n      mstore\n      0x20\n      add\n      swap1\n      dup2\n      mstore\n      0x20\n      add\n      0x00\n      keccak256\n      0x00\n      swap1\n      sload\n      swap1\n      0x0100\n      exp\n      swap1\n      div\n      0xffffffffffffffffffffffffffffffffffffffff\n      and\n        /* \"contracts/Auction.sol\":3605:3644  address participant = addressAtIndex[i] */\n      swap1\n      pop\n        /* \"contracts/Auction.sol\":3663:3683  uint256 refundAmount */\n      0x00\n        /* \"contracts/Auction.sol\":3686:3700  reserveAmounts */\n      0x05\n        /* \"contracts/Auction.sol\":3701:3702  i */\n      dup4\n        /* \"contracts/Auction.sol\":3686:3703  reserveAmounts[i] */\n      dup2\n      sload\n      dup2\n      lt\n      tag_144\n      jumpi\n      tag_145\n      tag_126\n      jump\t// in\n    tag_145:\n    tag_144:\n      swap1\n      0x00\n      mstore\n      keccak256(0x00, 0x20)\n      add\n      sload\n        /* \"contracts/Auction.sol\":3663:3703  uint256 refundAmount = reserveAmounts[i] */\n      swap1\n      pop\n        /* \"contracts/Auction.sol\":3722:3731  coinToken */\n      0x06\n      0x00\n      swap1\n      sload\n      swap1\n      0x0100\n      exp\n      swap1\n      div\n      0xffffffffffffffffffffffffffffffffffffffff\n      and\n        /* \"contracts/Auction.sol\":3722:3740  coinToken.transfer */\n      0xffffffffffffffffffffffffffffffffffffffff\n      and\n      0xa9059cbb\n        /* \"contracts/Auction.sol\":3741:3752  participant */\n      dup4\n        /* \"contracts/Auction.sol\":3754:3766  refundAmount */\n      dup4\n        /* \"contracts/Auction.sol\":3722:3767  coinToken.transfer(participant, refundAmount) */\n      mload(0x40)\n      dup4\n      0xffffffff\n      and\n      0xe0\n      shl\n      dup2\n      mstore\n      0x04\n      add\n      tag_147\n      swap3\n      swap2\n      swap1\n      tag_107\n      jump\t// in\n    tag_147:\n      0x20\n      mload(0x40)\n      dup1\n      dup4\n      sub\n      dup2\n      0x00\n      dup8\n      gas\n      call\n      iszero\n      dup1\n      iszero\n      tag_149\n      jumpi\n      returndatasize\n      0x00\n      dup1\n      returndatacopy\n      revert(0x00, returndatasize)\n    tag_149:\n      pop\n      pop\n      pop\n      pop\n      mload(0x40)\n      returndatasize\n      not(0x1f)\n      0x1f\n      dup3\n      add\n      and\n      dup3\n      add\n      dup1\n      0x40\n      mstore\n      pop\n      dup2\n      add\n      swap1\n      tag_150\n      swap2\n      swap1\n      tag_105\n      jump\t// in\n    tag_150:\n      pop\n        /* \"contracts/Auction.sol\":3586:3783  {... */\n      pop\n      pop\n        /* \"contracts/Auction.sol\":3560:3783  if (i != winningBidIndex) {... */\n    tag_143:\n        /* \"contracts/Auction.sol\":3540:3543  i++ */\n      dup1\n      dup1\n      tag_151\n      swap1\n      tag_99\n      jump\t// in\n    tag_151:\n      swap2\n      pop\n      pop\n        /* \"contracts/Auction.sol\":3498:3794  for (uint256 i = 0; i < participantCount; i++) {... */\n      jump(tag_140)\n    tag_141:\n      pop\n        /* \"contracts/Auction.sol\":3811:3843  AuctionEnded(winningBid, winner) */\n      0xc07789fac136048b605fef8e227ab89b2e33d8afc9ab4817d374197cd81443d6\n        /* \"contracts/Auction.sol\":3824:3834  winningBid */\n      dup4\n        /* \"contracts/Auction.sol\":3836:3842  winner */\n      dup3\n        /* \"contracts/Auction.sol\":3811:3843  AuctionEnded(winningBid, winner) */\n      mload(0x40)\n      tag_152\n      swap3\n      swap2\n      swap1\n      tag_153\n      jump\t// in\n    tag_152:\n      mload(0x40)\n      dup1\n      swap2\n      sub\n      swap1\n      log1\n        /* \"contracts/Auction.sol\":2871:3851  {... */\n      pop\n      pop\n      pop\n      pop\n        /* \"contracts/Auction.sol\":2816:3851  function endAuction() external onlyOwner onlyBeforeEnd {... */\n      jump\t// out\n        /* \"#utility.yul\":7:82   */\n    tag_154:\n        /* \"#utility.yul\":40:46   */\n      0x00\n        /* \"#utility.yul\":73:75   */\n      0x40\n        /* \"#utility.yul\":67:76   */\n      mload\n        /* \"#utility.yul\":57:76   */\n      swap1\n      pop\n        /* \"#utility.yul\":7:82   */\n      swap1\n      jump\t// out\n        /* \"#utility.yul\":88:205   */\n    tag_155:\n        /* \"#utility.yul\":197:198   */\n      0x00\n        /* \"#utility.yul\":194:195   */\n      dup1\n        /* \"#utility.yul\":187:199   */\n      revert\n        /* \"#utility.yul\":334:460   */\n    tag_157:\n        /* \"#utility.yul\":371:378   */\n      0x00\n        /* \"#utility.yul\":411:453   */\n      0xffffffffffffffffffffffffffffffffffffffff\n        /* \"#utility.yul\":404:409   */\n      dup3\n        /* \"#utility.yul\":400:454   */\n      and\n        /* \"#utility.yul\":389:454   */\n      swap1\n      pop\n        /* \"#utility.yul\":334:460   */\n      swap2\n      swap1\n      pop\n      jump\t// out\n        /* \"#utility.yul\":466:562   */\n    tag_158:\n        /* \"#utility.yul\":503:510   */\n      0x00\n        /* \"#utility.yul\":532:556   */\n      tag_224\n        /* \"#utility.yul\":550:555   */\n      dup3\n        /* \"#utility.yul\":532:556   */\n      tag_157\n      jump\t// in\n    tag_224:\n        /* \"#utility.yul\":521:556   */\n      swap1\n      pop\n        /* \"#utility.yul\":466:562   */\n      swap2\n      swap1\n      pop\n      jump\t// out\n        /* \"#utility.yul\":568:690   */\n    tag_159:\n        /* \"#utility.yul\":641:665   */\n      tag_226\n        /* \"#utility.yul\":659:664   */\n      dup2\n        /* \"#utility.yul\":641:665   */\n      tag_158\n      jump\t// in\n    tag_226:\n        /* \"#utility.yul\":634:639   */\n      dup2\n        /* \"#utility.yul\":631:666   */\n      eq\n        /* \"#utility.yul\":621:684   */\n      tag_227\n      jumpi\n        /* \"#utility.yul\":680:681   */\n      0x00\n        /* \"#utility.yul\":677:678   */\n      dup1\n        /* \"#utility.yul\":670:682   */\n      revert\n        /* \"#utility.yul\":621:684   */\n    tag_227:\n        /* \"#utility.yul\":568:690   */\n      pop\n      jump\t// out\n        /* \"#utility.yul\":696:835   */\n    tag_160:\n        /* \"#utility.yul\":742:747   */\n      0x00\n        /* \"#utility.yul\":780:786   */\n      dup2\n        /* \"#utility.yul\":767:787   */\n      calldataload\n        /* \"#utility.yul\":758:787   */\n      swap1\n      pop\n        /* \"#utility.yul\":796:829   */\n      tag_229\n        /* \"#utility.yul\":823:828   */\n      dup2\n        /* \"#utility.yul\":796:829   */\n      tag_159\n      jump\t// in\n    tag_229:\n        /* \"#utility.yul\":696:835   */\n      swap3\n      swap2\n      pop\n      pop\n      jump\t// out\n        /* \"#utility.yul\":841:1170   */\n    tag_23:\n        /* \"#utility.yul\":900:906   */\n      0x00\n        /* \"#utility.yul\":949:951   */\n      0x20\n        /* \"#utility.yul\":937:946   */\n      dup3\n        /* \"#utility.yul\":928:935   */\n      dup5\n        /* \"#utility.yul\":924:947   */\n      sub\n        /* \"#utility.yul\":920:952   */\n      slt\n        /* \"#utility.yul\":917:1036   */\n      iszero\n      tag_231\n      jumpi\n        /* \"#utility.yul\":955:1034   */\n      tag_232\n      tag_155\n      jump\t// in\n    tag_232:\n        /* \"#utility.yul\":917:1036   */\n    tag_231:\n        /* \"#utility.yul\":1075:1076   */\n      0x00\n        /* \"#utility.yul\":1100:1153   */\n      tag_233\n        /* \"#utility.yul\":1145:1152   */\n      dup5\n        /* \"#utility.yul\":1136:1142   */\n      dup3\n        /* \"#utility.yul\":1125:1134   */\n      dup6\n        /* \"#utility.yul\":1121:1143   */\n      add\n        /* \"#utility.yul\":1100:1153   */\n      tag_160\n      jump\t// in\n    tag_233:\n        /* \"#utility.yul\":1090:1153   */\n      swap2\n      pop\n        /* \"#utility.yul\":1046:1163   */\n      pop\n        /* \"#utility.yul\":841:1170   */\n      swap3\n      swap2\n      pop\n      pop\n      jump\t// out\n        /* \"#utility.yul\":1176:1253   */\n    tag_161:\n        /* \"#utility.yul\":1213:1220   */\n      0x00\n        /* \"#utility.yul\":1242:1247   */\n      dup2\n        /* \"#utility.yul\":1231:1247   */\n      swap1\n      pop\n        /* \"#utility.yul\":1176:1253   */\n      swap2\n      swap1\n      pop\n      jump\t// out\n        /* \"#utility.yul\":1259:1377   */\n    tag_162:\n        /* \"#utility.yul\":1346:1370   */\n      tag_236\n        /* \"#utility.yul\":1364:1369   */\n      dup2\n        /* \"#utility.yul\":1346:1370   */\n      tag_161\n      jump\t// in\n    tag_236:\n        /* \"#utility.yul\":1341:1344   */\n      dup3\n        /* \"#utility.yul\":1334:1371   */\n      mstore\n        /* \"#utility.yul\":1259:1377   */\n      pop\n      pop\n      jump\t// out\n        /* \"#utility.yul\":1383:1473   */\n    tag_163:\n        /* \"#utility.yul\":1417:1424   */\n      0x00\n        /* \"#utility.yul\":1460:1465   */\n      dup2\n        /* \"#utility.yul\":1453:1466   */\n      iszero\n        /* \"#utility.yul\":1446:1467   */\n      iszero\n        /* \"#utility.yul\":1435:1467   */\n      swap1\n      pop\n        /* \"#utility.yul\":1383:1473   */\n      swap2\n      swap1\n      pop\n      jump\t// out\n        /* \"#utility.yul\":1479:1588   */\n    tag_164:\n        /* \"#utility.yul\":1560:1581   */\n      tag_239\n        /* \"#utility.yul\":1575:1580   */\n      dup2\n        /* \"#utility.yul\":1560:1581   */\n      tag_163\n      jump\t// in\n    tag_239:\n        /* \"#utility.yul\":1555:1558   */\n      dup3\n        /* \"#utility.yul\":1548:1582   */\n      mstore\n        /* \"#utility.yul\":1479:1588   */\n      pop\n      pop\n      jump\t// out\n        /* \"#utility.yul\":1594:1914   */\n    tag_26:\n        /* \"#utility.yul\":1709:1713   */\n      0x00\n        /* \"#utility.yul\":1747:1749   */\n      0x40\n        /* \"#utility.yul\":1736:1745   */\n      dup3\n        /* \"#utility.yul\":1732:1750   */\n      add\n        /* \"#utility.yul\":1724:1750   */\n      swap1\n      pop\n        /* \"#utility.yul\":1760:1831   */\n      tag_241\n        /* \"#utility.yul\":1828:1829   */\n      0x00\n        /* \"#utility.yul\":1817:1826   */\n      dup4\n        /* \"#utility.yul\":1813:1830   */\n      add\n        /* \"#utility.yul\":1804:1810   */\n      dup6\n        /* \"#utility.yul\":1760:1831   */\n      tag_162\n      jump\t// in\n    tag_241:\n        /* \"#utility.yul\":1841:1907   */\n      tag_242\n        /* \"#utility.yul\":1903:1905   */\n      0x20\n        /* \"#utility.yul\":1892:1901   */\n      dup4\n        /* \"#utility.yul\":1888:1906   */\n      add\n        /* \"#utility.yul\":1879:1885   */\n      dup5\n        /* \"#utility.yul\":1841:1907   */\n      tag_164\n      jump\t// in\n    tag_242:\n        /* \"#utility.yul\":1594:1914   */\n      swap4\n      swap3\n      pop\n      pop\n      pop\n      jump\t// out\n        /* \"#utility.yul\":1920:2130   */\n    tag_30:\n        /* \"#utility.yul\":2007:2011   */\n      0x00\n        /* \"#utility.yul\":2045:2047   */\n      0x20\n        /* \"#utility.yul\":2034:2043   */\n      dup3\n        /* \"#utility.yul\":2030:2048   */\n      add\n        /* \"#utility.yul\":2022:2048   */\n      swap1\n      pop\n        /* \"#utility.yul\":2058:2123   */\n      tag_244\n        /* \"#utility.yul\":2120:2121   */\n      0x00\n        /* \"#utility.yul\":2109:2118   */\n      dup4\n        /* \"#utility.yul\":2105:2122   */\n      add\n        /* \"#utility.yul\":2096:2102   */\n      dup5\n        /* \"#utility.yul\":2058:2123   */\n      tag_164\n      jump\t// in\n    tag_244:\n        /* \"#utility.yul\":1920:2130   */\n      swap3\n      swap2\n      pop\n      pop\n      jump\t// out\n        /* \"#utility.yul\":2136:2196   */\n    tag_165:\n        /* \"#utility.yul\":2164:2167   */\n      0x00\n        /* \"#utility.yul\":2185:2190   */\n      dup2\n        /* \"#utility.yul\":2178:2190   */\n      swap1\n      pop\n        /* \"#utility.yul\":2136:2196   */\n      swap2\n      swap1\n      pop\n      jump\t// out\n        /* \"#utility.yul\":2202:2344   */\n    tag_166:\n        /* \"#utility.yul\":2252:2261   */\n      0x00\n        /* \"#utility.yul\":2285:2338   */\n      tag_247\n        /* \"#utility.yul\":2303:2337   */\n      tag_248\n        /* \"#utility.yul\":2312:2336   */\n      tag_249\n        /* \"#utility.yul\":2330:2335   */\n      dup5\n        /* \"#utility.yul\":2312:2336   */\n      tag_157\n      jump\t// in\n    tag_249:\n        /* \"#utility.yul\":2303:2337   */\n      tag_165\n      jump\t// in\n    tag_248:\n        /* \"#utility.yul\":2285:2338   */\n      tag_157\n      jump\t// in\n    tag_247:\n        /* \"#utility.yul\":2272:2338   */\n      swap1\n      pop\n        /* \"#utility.yul\":2202:2344   */\n      swap2\n      swap1\n      pop\n      jump\t// out\n        /* \"#utility.yul\":2350:2476   */\n    tag_167:\n        /* \"#utility.yul\":2400:2409   */\n      0x00\n        /* \"#utility.yul\":2433:2470   */\n      tag_251\n        /* \"#utility.yul\":2464:2469   */\n      dup3\n        /* \"#utility.yul\":2433:2470   */\n      tag_166\n      jump\t// in\n    tag_251:\n        /* \"#utility.yul\":2420:2470   */\n      swap1\n      pop\n        /* \"#utility.yul\":2350:2476   */\n      swap2\n      swap1\n      pop\n      jump\t// out\n        /* \"#utility.yul\":2482:2624   */\n    tag_168:\n        /* \"#utility.yul\":2548:2557   */\n      0x00\n        /* \"#utility.yul\":2581:2618   */\n      tag_253\n        /* \"#utility.yul\":2612:2617   */\n      dup3\n        /* \"#utility.yul\":2581:2618   */\n      tag_167\n      jump\t// in\n    tag_253:\n        /* \"#utility.yul\":2568:2618   */\n      swap1\n      pop\n        /* \"#utility.yul\":2482:2624   */\n      swap2\n      swap1\n      pop\n      jump\t// out\n        /* \"#utility.yul\":2630:2793   */\n    tag_169:\n        /* \"#utility.yul\":2733:2786   */\n      tag_255\n        /* \"#utility.yul\":2780:2785   */\n      dup2\n        /* \"#utility.yul\":2733:2786   */\n      tag_168\n      jump\t// in\n    tag_255:\n        /* \"#utility.yul\":2728:2731   */\n      dup3\n        /* \"#utility.yul\":2721:2787   */\n      mstore\n        /* \"#utility.yul\":2630:2793   */\n      pop\n      pop\n      jump\t// out\n        /* \"#utility.yul\":2799:3053   */\n    tag_34:\n        /* \"#utility.yul\":2908:2912   */\n      0x00\n        /* \"#utility.yul\":2946:2948   */\n      0x20\n        /* \"#utility.yul\":2935:2944   */\n      dup3\n        /* \"#utility.yul\":2931:2949   */\n      add\n        /* \"#utility.yul\":2923:2949   */\n      swap1\n      pop\n        /* \"#utility.yul\":2959:3046   */\n      tag_257\n        /* \"#utility.yul\":3043:3044   */\n      0x00\n        /* \"#utility.yul\":3032:3041   */\n      dup4\n        /* \"#utility.yul\":3028:3045   */\n      add\n        /* \"#utility.yul\":3019:3025   */\n      dup5\n        /* \"#utility.yul\":2959:3046   */\n      tag_169\n      jump\t// in\n    tag_257:\n        /* \"#utility.yul\":2799:3053   */\n      swap3\n      swap2\n      pop\n      pop\n      jump\t// out\n        /* \"#utility.yul\":3059:3281   */\n    tag_38:\n        /* \"#utility.yul\":3152:3156   */\n      0x00\n        /* \"#utility.yul\":3190:3192   */\n      0x20\n        /* \"#utility.yul\":3179:3188   */\n      dup3\n        /* \"#utility.yul\":3175:3193   */\n      add\n        /* \"#utility.yul\":3167:3193   */\n      swap1\n      pop\n        /* \"#utility.yul\":3203:3274   */\n      tag_259\n        /* \"#utility.yul\":3271:3272   */\n      0x00\n        /* \"#utility.yul\":3260:3269   */\n      dup4\n        /* \"#utility.yul\":3256:3273   */\n      add\n        /* \"#utility.yul\":3247:3253   */\n      dup5\n        /* \"#utility.yul\":3203:3274   */\n      tag_162\n      jump\t// in\n    tag_259:\n        /* \"#utility.yul\":3059:3281   */\n      swap3\n      swap2\n      pop\n      pop\n      jump\t// out\n        /* \"#utility.yul\":3287:3427   */\n    tag_170:\n        /* \"#utility.yul\":3351:3360   */\n      0x00\n        /* \"#utility.yul\":3384:3421   */\n      tag_261\n        /* \"#utility.yul\":3415:3420   */\n      dup3\n        /* \"#utility.yul\":3384:3421   */\n      tag_167\n      jump\t// in\n    tag_261:\n        /* \"#utility.yul\":3371:3421   */\n      swap1\n      pop\n        /* \"#utility.yul\":3287:3427   */\n      swap2\n      swap1\n      pop\n      jump\t// out\n        /* \"#utility.yul\":3433:3592   */\n    tag_171:\n        /* \"#utility.yul\":3534:3585   */\n      tag_263\n        /* \"#utility.yul\":3579:3584   */\n      dup2\n        /* \"#utility.yul\":3534:3585   */\n      tag_170\n      jump\t// in\n    tag_263:\n        /* \"#utility.yul\":3529:3532   */\n      dup3\n        /* \"#utility.yul\":3522:3586   */\n      mstore\n        /* \"#utility.yul\":3433:3592   */\n      pop\n      pop\n      jump\t// out\n        /* \"#utility.yul\":3598:3848   */\n    tag_51:\n        /* \"#utility.yul\":3705:3709   */\n      0x00\n        /* \"#utility.yul\":3743:3745   */\n      0x20\n        /* \"#utility.yul\":3732:3741   */\n      dup3\n        /* \"#utility.yul\":3728:3746   */\n      add\n        /* \"#utility.yul\":3720:3746   */\n      swap1\n      pop\n        /* \"#utility.yul\":3756:3841   */\n      tag_265\n        /* \"#utility.yul\":3838:3839   */\n      0x00\n        /* \"#utility.yul\":3827:3836   */\n      dup4\n        /* \"#utility.yul\":3823:3840   */\n      add\n        /* \"#utility.yul\":3814:3820   */\n      dup5\n        /* \"#utility.yul\":3756:3841   */\n      tag_171\n      jump\t// in\n    tag_265:\n        /* \"#utility.yul\":3598:3848   */\n      swap3\n      swap2\n      pop\n      pop\n      jump\t// out\n        /* \"#utility.yul\":3854:4007   */\n    tag_172:\n        /* \"#utility.yul\":3931:3940   */\n      0x00\n        /* \"#utility.yul\":3964:4001   */\n      tag_267\n        /* \"#utility.yul\":3995:4000   */\n      dup3\n        /* \"#utility.yul\":3964:4001   */\n      tag_167\n      jump\t// in\n    tag_267:\n        /* \"#utility.yul\":3951:4001   */\n      swap1\n      pop\n        /* \"#utility.yul\":3854:4007   */\n      swap2\n      swap1\n      pop\n      jump\t// out\n        /* \"#utility.yul\":4013:4198   */\n    tag_173:\n        /* \"#utility.yul\":4127:4191   */\n      tag_269\n        /* \"#utility.yul\":4185:4190   */\n      dup2\n        /* \"#utility.yul\":4127:4191   */\n      tag_172\n      jump\t// in\n    tag_269:\n        /* \"#utility.yul\":4122:4125   */\n      dup3\n        /* \"#utility.yul\":4115:4192   */\n      mstore\n        /* \"#utility.yul\":4013:4198   */\n      pop\n      pop\n      jump\t// out\n        /* \"#utility.yul\":4204:4480   */\n    tag_58:\n        /* \"#utility.yul\":4324:4328   */\n      0x00\n        /* \"#utility.yul\":4362:4364   */\n      0x20\n        /* \"#utility.yul\":4351:4360   */\n      dup3\n        /* \"#utility.yul\":4347:4365   */\n      add\n        /* \"#utility.yul\":4339:4365   */\n      swap1\n      pop\n        /* \"#utility.yul\":4375:4473   */\n      tag_271\n        /* \"#utility.yul\":4470:4471   */\n      0x00\n        /* \"#utility.yul\":4459:4468   */\n      dup4\n        /* \"#utility.yul\":4455:4472   */\n      add\n        /* \"#utility.yul\":4446:4452   */\n      dup5\n        /* \"#utility.yul\":4375:4473   */\n      tag_173\n      jump\t// in\n    tag_271:\n        /* \"#utility.yul\":4204:4480   */\n      swap3\n      swap2\n      pop\n      pop\n      jump\t// out\n        /* \"#utility.yul\":4486:4604   */\n    tag_174:\n        /* \"#utility.yul\":4573:4597   */\n      tag_273\n        /* \"#utility.yul\":4591:4596   */\n      dup2\n        /* \"#utility.yul\":4573:4597   */\n      tag_158\n      jump\t// in\n    tag_273:\n        /* \"#utility.yul\":4568:4571   */\n      dup3\n        /* \"#utility.yul\":4561:4598   */\n      mstore\n        /* \"#utility.yul\":4486:4604   */\n      pop\n      pop\n      jump\t// out\n        /* \"#utility.yul\":4610:4832   */\n    tag_62:\n        /* \"#utility.yul\":4703:4707   */\n      0x00\n        /* \"#utility.yul\":4741:4743   */\n      0x20\n        /* \"#utility.yul\":4730:4739   */\n      dup3\n        /* \"#utility.yul\":4726:4744   */\n      add\n        /* \"#utility.yul\":4718:4744   */\n      swap1\n      pop\n        /* \"#utility.yul\":4754:4825   */\n      tag_275\n        /* \"#utility.yul\":4822:4823   */\n      0x00\n        /* \"#utility.yul\":4811:4820   */\n      dup4\n        /* \"#utility.yul\":4807:4824   */\n      add\n        /* \"#utility.yul\":4798:4804   */\n      dup5\n        /* \"#utility.yul\":4754:4825   */\n      tag_174\n      jump\t// in\n    tag_275:\n        /* \"#utility.yul\":4610:4832   */\n      swap3\n      swap2\n      pop\n      pop\n      jump\t// out\n        /* \"#utility.yul\":4838:4960   */\n    tag_175:\n        /* \"#utility.yul\":4911:4935   */\n      tag_277\n        /* \"#utility.yul\":4929:4934   */\n      dup2\n        /* \"#utility.yul\":4911:4935   */\n      tag_161\n      jump\t// in\n    tag_277:\n        /* \"#utility.yul\":4904:4909   */\n      dup2\n        /* \"#utility.yul\":4901:4936   */\n      eq\n        /* \"#utility.yul\":4891:4954   */\n      tag_278\n      jumpi\n        /* \"#utility.yul\":4950:4951   */\n      0x00\n        /* \"#utility.yul\":4947:4948   */\n      dup1\n        /* \"#utility.yul\":4940:4952   */\n      revert\n        /* \"#utility.yul\":4891:4954   */\n    tag_278:\n        /* \"#utility.yul\":4838:4960   */\n      pop\n      jump\t// out\n        /* \"#utility.yul\":4966:5105   */\n    tag_176:\n        /* \"#utility.yul\":5012:5017   */\n      0x00\n        /* \"#utility.yul\":5050:5056   */\n      dup2\n        /* \"#utility.yul\":5037:5057   */\n      calldataload\n        /* \"#utility.yul\":5028:5057   */\n      swap1\n      pop\n        /* \"#utility.yul\":5066:5099   */\n      tag_280\n        /* \"#utility.yul\":5093:5098   */\n      dup2\n        /* \"#utility.yul\":5066:5099   */\n      tag_175\n      jump\t// in\n    tag_280:\n        /* \"#utility.yul\":4966:5105   */\n      swap3\n      swap2\n      pop\n      pop\n      jump\t// out\n        /* \"#utility.yul\":5111:5440   */\n    tag_65:\n        /* \"#utility.yul\":5170:5176   */\n      0x00\n        /* \"#utility.yul\":5219:5221   */\n      0x20\n        /* \"#utility.yul\":5207:5216   */\n      dup3\n        /* \"#utility.yul\":5198:5205   */\n      dup5\n        /* \"#utility.yul\":5194:5217   */\n      sub\n        /* \"#utility.yul\":5190:5222   */\n      slt\n        /* \"#utility.yul\":5187:5306   */\n      iszero\n      tag_282\n      jumpi\n        /* \"#utility.yul\":5225:5304   */\n      tag_283\n      tag_155\n      jump\t// in\n    tag_283:\n        /* \"#utility.yul\":5187:5306   */\n    tag_282:\n        /* \"#utility.yul\":5345:5346   */\n      0x00\n        /* \"#utility.yul\":5370:5423   */\n      tag_284\n        /* \"#utility.yul\":5415:5422   */\n      dup5\n        /* \"#utility.yul\":5406:5412   */\n      dup3\n        /* \"#utility.yul\":5395:5404   */\n      dup6\n        /* \"#utility.yul\":5391:5413   */\n      add\n        /* \"#utility.yul\":5370:5423   */\n      tag_176\n      jump\t// in\n    tag_284:\n        /* \"#utility.yul\":5360:5423   */\n      swap2\n      pop\n        /* \"#utility.yul\":5316:5433   */\n      pop\n        /* \"#utility.yul\":5111:5440   */\n      swap3\n      swap2\n      pop\n      pop\n      jump\t// out\n        /* \"#utility.yul\":5446:5615   */\n    tag_177:\n        /* \"#utility.yul\":5530:5541   */\n      0x00\n        /* \"#utility.yul\":5564:5570   */\n      dup3\n        /* \"#utility.yul\":5559:5562   */\n      dup3\n        /* \"#utility.yul\":5552:5571   */\n      mstore\n        /* \"#utility.yul\":5604:5608   */\n      0x20\n        /* \"#utility.yul\":5599:5602   */\n      dup3\n        /* \"#utility.yul\":5595:5609   */\n      add\n        /* \"#utility.yul\":5580:5609   */\n      swap1\n      pop\n        /* \"#utility.yul\":5446:5615   */\n      swap3\n      swap2\n      pop\n      pop\n      jump\t// out\n        /* \"#utility.yul\":5621:5797   */\n    tag_178:\n        /* \"#utility.yul\":5761:5789   */\n      0x41756374696f6e2068617320616c726561647920656e6465642e000000000000\n        /* \"#utility.yul\":5757:5758   */\n      0x00\n        /* \"#utility.yul\":5749:5755   */\n      dup3\n        /* \"#utility.yul\":5745:5759   */\n      add\n        /* \"#utility.yul\":5738:5790   */\n      mstore\n        /* \"#utility.yul\":5621:5797   */\n      pop\n      jump\t// out\n        /* \"#utility.yul\":5803:6169   */\n    tag_179:\n        /* \"#utility.yul\":5945:5948   */\n      0x00\n        /* \"#utility.yul\":5966:6033   */\n      tag_288\n        /* \"#utility.yul\":6030:6032   */\n      0x1a\n        /* \"#utility.yul\":6025:6028   */\n      dup4\n        /* \"#utility.yul\":5966:6033   */\n      tag_177\n      jump\t// in\n    tag_288:\n        /* \"#utility.yul\":5959:6033   */\n      swap2\n      pop\n        /* \"#utility.yul\":6042:6135   */\n      tag_289\n        /* \"#utility.yul\":6131:6134   */\n      dup3\n        /* \"#utility.yul\":6042:6135   */\n      tag_178\n      jump\t// in\n    tag_289:\n        /* \"#utility.yul\":6160:6162   */\n      0x20\n        /* \"#utility.yul\":6155:6158   */\n      dup3\n        /* \"#utility.yul\":6151:6163   */\n      add\n        /* \"#utility.yul\":6144:6163   */\n      swap1\n      pop\n        /* \"#utility.yul\":5803:6169   */\n      swap2\n      swap1\n      pop\n      jump\t// out\n        /* \"#utility.yul\":6175:6594   */\n    tag_82:\n        /* \"#utility.yul\":6341:6345   */\n      0x00\n        /* \"#utility.yul\":6379:6381   */\n      0x20\n        /* \"#utility.yul\":6368:6377   */\n      dup3\n        /* \"#utility.yul\":6364:6382   */\n      add\n        /* \"#utility.yul\":6356:6382   */\n      swap1\n      pop\n        /* \"#utility.yul\":6428:6437   */\n      dup2\n        /* \"#utility.yul\":6422:6426   */\n      dup2\n        /* \"#utility.yul\":6418:6438   */\n      sub\n        /* \"#utility.yul\":6414:6415   */\n      0x00\n        /* \"#utility.yul\":6403:6412   */\n      dup4\n        /* \"#utility.yul\":6399:6416   */\n      add\n        /* \"#utility.yul\":6392:6439   */\n      mstore\n        /* \"#utility.yul\":6456:6587   */\n      tag_291\n        /* \"#utility.yul\":6582:6586   */\n      dup2\n        /* \"#utility.yul\":6456:6587   */\n      tag_179\n      jump\t// in\n    tag_291:\n        /* \"#utility.yul\":6448:6587   */\n      swap1\n      pop\n        /* \"#utility.yul\":6175:6594   */\n      swap2\n      swap1\n      pop\n      jump\t// out\n        /* \"#utility.yul\":6600:6823   */\n    tag_180:\n        /* \"#utility.yul\":6740:6774   */\n      0x596f75206861766520616c7265616479206a6f696e6564207468652061756374\n        /* \"#utility.yul\":6736:6737   */\n      0x00\n        /* \"#utility.yul\":6728:6734   */\n      dup3\n        /* \"#utility.yul\":6724:6738   */\n      add\n        /* \"#utility.yul\":6717:6775   */\n      mstore\n        /* \"#utility.yul\":6809:6815   */\n      0x696f6e2e00000000000000000000000000000000000000000000000000000000\n        /* \"#utility.yul\":6804:6806   */\n      0x20\n        /* \"#utility.yul\":6796:6802   */\n      dup3\n        /* \"#utility.yul\":6792:6807   */\n      add\n        /* \"#utility.yul\":6785:6816   */\n      mstore\n        /* \"#utility.yul\":6600:6823   */\n      pop\n      jump\t// out\n        /* \"#utility.yul\":6829:7195   */\n    tag_181:\n        /* \"#utility.yul\":6971:6974   */\n      0x00\n        /* \"#utility.yul\":6992:7059   */\n      tag_294\n        /* \"#utility.yul\":7056:7058   */\n      0x24\n        /* \"#utility.yul\":7051:7054   */\n      dup4\n        /* \"#utility.yul\":6992:7059   */\n      tag_177\n      jump\t// in\n    tag_294:\n        /* \"#utility.yul\":6985:7059   */\n      swap2\n      pop\n        /* \"#utility.yul\":7068:7161   */\n      tag_295\n        /* \"#utility.yul\":7157:7160   */\n      dup3\n        /* \"#utility.yul\":7068:7161   */\n      tag_180\n      jump\t// in\n    tag_295:\n        /* \"#utility.yul\":7186:7188   */\n      0x40\n        /* \"#utility.yul\":7181:7184   */\n      dup3\n        /* \"#utility.yul\":7177:7189   */\n      add\n        /* \"#utility.yul\":7170:7189   */\n      swap1\n      pop\n        /* \"#utility.yul\":6829:7195   */\n      swap2\n      swap1\n      pop\n      jump\t// out\n        /* \"#utility.yul\":7201:7620   */\n    tag_88:\n        /* \"#utility.yul\":7367:7371   */\n      0x00\n        /* \"#utility.yul\":7405:7407   */\n      0x20\n        /* \"#utility.yul\":7394:7403   */\n      dup3\n        /* \"#utility.yul\":7390:7408   */\n      add\n        /* \"#utility.yul\":7382:7408   */\n      swap1\n      pop\n        /* \"#utility.yul\":7454:7463   */\n      dup2\n        /* \"#utility.yul\":7448:7452   */\n      dup2\n        /* \"#utility.yul\":7444:7464   */\n      sub\n        /* \"#utility.yul\":7440:7441   */\n      0x00\n        /* \"#utility.yul\":7429:7438   */\n      dup4\n        /* \"#utility.yul\":7425:7442   */\n      add\n        /* \"#utility.yul\":7418:7465   */\n      mstore\n        /* \"#utility.yul\":7482:7613   */\n      tag_297\n        /* \"#utility.yul\":7608:7612   */\n      dup2\n        /* \"#utility.yul\":7482:7613   */\n      tag_181\n      jump\t// in\n    tag_297:\n        /* \"#utility.yul\":7474:7613   */\n      swap1\n      pop\n        /* \"#utility.yul\":7201:7620   */\n      swap2\n      swap1\n      pop\n      jump\t// out\n        /* \"#utility.yul\":7626:7792   */\n    tag_182:\n        /* \"#utility.yul\":7766:7784   */\n      0x41756374696f6e2069732066756c6c2e00000000000000000000000000000000\n        /* \"#utility.yul\":7762:7763   */\n      0x00\n        /* \"#utility.yul\":7754:7760   */\n      dup3\n        /* \"#utility.yul\":7750:7764   */\n      add\n        /* \"#utility.yul\":7743:7785   */\n      mstore\n        /* \"#utility.yul\":7626:7792   */\n      pop\n      jump\t// out\n        /* \"#utility.yul\":7798:8164   */\n    tag_183:\n        /* \"#utility.yul\":7940:7943   */\n      0x00\n        /* \"#utility.yul\":7961:8028   */\n      tag_300\n        /* \"#utility.yul\":8025:8027   */\n      0x10\n        /* \"#utility.yul\":8020:8023   */\n      dup4\n        /* \"#utility.yul\":7961:8028   */\n      tag_177\n      jump\t// in\n    tag_300:\n        /* \"#utility.yul\":7954:8028   */\n      swap2\n      pop\n        /* \"#utility.yul\":8037:8130   */\n      tag_301\n        /* \"#utility.yul\":8126:8129   */\n      dup3\n        /* \"#utility.yul\":8037:8130   */\n      tag_182\n      jump\t// in\n    tag_301:\n        /* \"#utility.yul\":8155:8157   */\n      0x20\n        /* \"#utility.yul\":8150:8153   */\n      dup3\n        /* \"#utility.yul\":8146:8158   */\n      add\n        /* \"#utility.yul\":8139:8158   */\n      swap1\n      pop\n        /* \"#utility.yul\":7798:8164   */\n      swap2\n      swap1\n      pop\n      jump\t// out\n        /* \"#utility.yul\":8170:8589   */\n    tag_91:\n        /* \"#utility.yul\":8336:8340   */\n      0x00\n        /* \"#utility.yul\":8374:8376   */\n      0x20\n        /* \"#utility.yul\":8363:8372   */\n      dup3\n        /* \"#utility.yul\":8359:8377   */\n      add\n        /* \"#utility.yul\":8351:8377   */\n      swap1\n      pop\n        /* \"#utility.yul\":8423:8432   */\n      dup2\n        /* \"#utility.yul\":8417:8421   */\n      dup2\n        /* \"#utility.yul\":8413:8433   */\n      sub\n        /* \"#utility.yul\":8409:8410   */\n      0x00\n        /* \"#utility.yul\":8398:8407   */\n      dup4\n        /* \"#utility.yul\":8394:8411   */\n      add\n        /* \"#utility.yul\":8387:8434   */\n      mstore\n        /* \"#utility.yul\":8451:8582   */\n      tag_303\n        /* \"#utility.yul\":8577:8581   */\n      dup2\n        /* \"#utility.yul\":8451:8582   */\n      tag_183\n      jump\t// in\n    tag_303:\n        /* \"#utility.yul\":8443:8582   */\n      swap1\n      pop\n        /* \"#utility.yul\":8170:8589   */\n      swap2\n      swap1\n      pop\n      jump\t// out\n        /* \"#utility.yul\":8595:8823   */\n    tag_184:\n        /* \"#utility.yul\":8735:8769   */\n      0x5265736572766520616d6f756e74206d75737420626520677265617465722074\n        /* \"#utility.yul\":8731:8732   */\n      0x00\n        /* \"#utility.yul\":8723:8729   */\n      dup3\n        /* \"#utility.yul\":8719:8733   */\n      add\n        /* \"#utility.yul\":8712:8770   */\n      mstore\n        /* \"#utility.yul\":8804:8815   */\n      0x68616e207a65726f2e0000000000000000000000000000000000000000000000\n        /* \"#utility.yul\":8799:8801   */\n      0x20\n        /* \"#utility.yul\":8791:8797   */\n      dup3\n        /* \"#utility.yul\":8787:8802   */\n      add\n        /* \"#utility.yul\":8780:8816   */\n      mstore\n        /* \"#utility.yul\":8595:8823   */\n      pop\n      jump\t// out\n        /* \"#utility.yul\":8829:9195   */\n    tag_185:\n        /* \"#utility.yul\":8971:8974   */\n      0x00\n        /* \"#utility.yul\":8992:9059   */\n      tag_306\n        /* \"#utility.yul\":9056:9058   */\n      0x29\n        /* \"#utility.yul\":9051:9054   */\n      dup4\n        /* \"#utility.yul\":8992:9059   */\n      tag_177\n      jump\t// in\n    tag_306:\n        /* \"#utility.yul\":8985:9059   */\n      swap2\n      pop\n        /* \"#utility.yul\":9068:9161   */\n      tag_307\n        /* \"#utility.yul\":9157:9160   */\n      dup3\n        /* \"#utility.yul\":9068:9161   */\n      tag_184\n      jump\t// in\n    tag_307:\n        /* \"#utility.yul\":9186:9188   */\n      0x40\n        /* \"#utility.yul\":9181:9184   */\n      dup3\n        /* \"#utility.yul\":9177:9189   */\n      add\n        /* \"#utility.yul\":9170:9189   */\n      swap1\n      pop\n        /* \"#utility.yul\":8829:9195   */\n      swap2\n      swap1\n      pop\n      jump\t// out\n        /* \"#utility.yul\":9201:9620   */\n    tag_94:\n        /* \"#utility.yul\":9367:9371   */\n      0x00\n        /* \"#utility.yul\":9405:9407   */\n      0x20\n        /* \"#utility.yul\":9394:9403   */\n      dup3\n        /* \"#utility.yul\":9390:9408   */\n      add\n        /* \"#utility.yul\":9382:9408   */\n      swap1\n      pop\n        /* \"#utility.yul\":9454:9463   */\n      dup2\n        /* \"#utility.yul\":9448:9452   */\n      dup2\n        /* \"#utility.yul\":9444:9464   */\n      sub\n        /* \"#utility.yul\":9440:9441   */\n      0x00\n        /* \"#utility.yul\":9429:9438   */\n      dup4\n        /* \"#utility.yul\":9425:9442   */\n      add\n        /* \"#utility.yul\":9418:9465   */\n      mstore\n        /* \"#utility.yul\":9482:9613   */\n      tag_309\n        /* \"#utility.yul\":9608:9612   */\n      dup2\n        /* \"#utility.yul\":9482:9613   */\n      tag_185\n      jump\t// in\n    tag_309:\n        /* \"#utility.yul\":9474:9613   */\n      swap1\n      pop\n        /* \"#utility.yul\":9201:9620   */\n      swap2\n      swap1\n      pop\n      jump\t// out\n        /* \"#utility.yul\":9626:9806   */\n    tag_186:\n        /* \"#utility.yul\":9674:9751   */\n      0x4e487b7100000000000000000000000000000000000000000000000000000000\n        /* \"#utility.yul\":9671:9672   */\n      0x00\n        /* \"#utility.yul\":9664:9752   */\n      mstore\n        /* \"#utility.yul\":9771:9775   */\n      0x11\n        /* \"#utility.yul\":9768:9769   */\n      0x04\n        /* \"#utility.yul\":9761:9776   */\n      mstore\n        /* \"#utility.yul\":9795:9799   */\n      0x24\n        /* \"#utility.yul\":9792:9793   */\n      0x00\n        /* \"#utility.yul\":9785:9800   */\n      revert\n        /* \"#utility.yul\":9812:10003   */\n    tag_96:\n        /* \"#utility.yul\":9852:9855   */\n      0x00\n        /* \"#utility.yul\":9871:9891   */\n      tag_312\n        /* \"#utility.yul\":9889:9890   */\n      dup3\n        /* \"#utility.yul\":9871:9891   */\n      tag_161\n      jump\t// in\n    tag_312:\n        /* \"#utility.yul\":9866:9891   */\n      swap2\n      pop\n        /* \"#utility.yul\":9905:9925   */\n      tag_313\n        /* \"#utility.yul\":9923:9924   */\n      dup4\n        /* \"#utility.yul\":9905:9925   */\n      tag_161\n      jump\t// in\n    tag_313:\n        /* \"#utility.yul\":9900:9925   */\n      swap3\n      pop\n        /* \"#utility.yul\":9948:9949   */\n      dup3\n        /* \"#utility.yul\":9945:9946   */\n      dup3\n        /* \"#utility.yul\":9941:9950   */\n      add\n        /* \"#utility.yul\":9934:9950   */\n      swap1\n      pop\n        /* \"#utility.yul\":9969:9972   */\n      dup1\n        /* \"#utility.yul\":9966:9967   */\n      dup3\n        /* \"#utility.yul\":9963:9973   */\n      gt\n        /* \"#utility.yul\":9960:9996   */\n      iszero\n      tag_314\n      jumpi\n        /* \"#utility.yul\":9976:9994   */\n      tag_315\n      tag_186\n      jump\t// in\n    tag_315:\n        /* \"#utility.yul\":9960:9996   */\n    tag_314:\n        /* \"#utility.yul\":9812:10003   */\n      swap3\n      swap2\n      pop\n      pop\n      jump\t// out\n        /* \"#utility.yul\":10009:10242   */\n    tag_99:\n        /* \"#utility.yul\":10048:10051   */\n      0x00\n        /* \"#utility.yul\":10071:10095   */\n      tag_317\n        /* \"#utility.yul\":10089:10094   */\n      dup3\n        /* \"#utility.yul\":10071:10095   */\n      tag_161\n      jump\t// in\n    tag_317:\n        /* \"#utility.yul\":10062:10095   */\n      swap2\n      pop\n        /* \"#utility.yul\":10117:10183   */\n      0xffffffffffffffffffffffffffffffffffffffffffffffffffffffffffffffff\n        /* \"#utility.yul\":10110:10115   */\n      dup3\n        /* \"#utility.yul\":10107:10184   */\n      sub\n        /* \"#utility.yul\":10104:10207   */\n      tag_318\n      jumpi\n        /* \"#utility.yul\":10187:10205   */\n      tag_319\n      tag_186\n      jump\t// in\n    tag_319:\n        /* \"#utility.yul\":10104:10207   */\n    tag_318:\n        /* \"#utility.yul\":10234:10235   */\n      0x01\n        /* \"#utility.yul\":10227:10232   */\n      dup3\n        /* \"#utility.yul\":10223:10236   */\n      add\n        /* \"#utility.yul\":10216:10236   */\n      swap1\n      pop\n        /* \"#utility.yul\":10009:10242   */\n      swap2\n      swap1\n      pop\n      jump\t// out\n        /* \"#utility.yul\":10248:10690   */\n    tag_101:\n        /* \"#utility.yul\":10397:10401   */\n      0x00\n        /* \"#utility.yul\":10435:10437   */\n      0x60\n        /* \"#utility.yul\":10424:10433   */\n      dup3\n        /* \"#utility.yul\":10420:10438   */\n      add\n        /* \"#utility.yul\":10412:10438   */\n      swap1\n      pop\n        /* \"#utility.yul\":10448:10519   */\n      tag_321\n        /* \"#utility.yul\":10516:10517   */\n      0x00\n        /* \"#utility.yul\":10505:10514   */\n      dup4\n        /* \"#utility.yul\":10501:10518   */\n      add\n        /* \"#utility.yul\":10492:10498   */\n      dup7\n        /* \"#utility.yul\":10448:10519   */\n      tag_174\n      jump\t// in\n    tag_321:\n        /* \"#utility.yul\":10529:10601   */\n      tag_322\n        /* \"#utility.yul\":10597:10599   */\n      0x20\n        /* \"#utility.yul\":10586:10595   */\n      dup4\n        /* \"#utility.yul\":10582:10600   */\n      add\n        /* \"#utility.yul\":10573:10579   */\n      dup6\n        /* \"#utility.yul\":10529:10601   */\n      tag_174\n      jump\t// in\n    tag_322:\n        /* \"#utility.yul\":10611:10683   */\n      tag_323\n        /* \"#utility.yul\":10679:10681   */\n      0x40\n        /* \"#utility.yul\":10668:10677   */\n      dup4\n        /* \"#utility.yul\":10664:10682   */\n      add\n        /* \"#utility.yul\":10655:10661   */\n      dup5\n        /* \"#utility.yul\":10611:10683   */\n      tag_162\n      jump\t// in\n    tag_323:\n        /* \"#utility.yul\":10248:10690   */\n      swap5\n      swap4\n      pop\n      pop\n      pop\n      pop\n      jump\t// out\n        /* \"#utility.yul\":10696:10812   */\n    tag_187:\n        /* \"#utility.yul\":10766:10787   */\n      tag_325\n        /* \"#utility.yul\":10781:10786   */\n      dup2\n        /* \"#utility.yul\":10766:10787   */\n      tag_163\n      jump\t// in\n    tag_325:\n        /* \"#utility.yul\":10759:10764   */\n      dup2\n        /* \"#utility.yul\":10756:10788   */\n      eq\n        /* \"#utility.yul\":10746:10806   */\n      tag_326\n      jumpi\n        /* \"#utility.yul\":10802:10803   */\n      0x00\n        /* \"#utility.yul\":10799:10800   */\n      dup1\n        /* \"#utility.yul\":10792:10804   */\n      revert\n        /* \"#utility.yul\":10746:10806   */\n    tag_326:\n        /* \"#utility.yul\":10696:10812   */\n      pop\n      jump\t// out\n        /* \"#utility.yul\":10818:10955   */\n    tag_188:\n        /* \"#utility.yul\":10872:10877   */\n      0x00\n        /* \"#utility.yul\":10903:10909   */\n      dup2\n        /* \"#utility.yul\":10897:10910   */\n      mload\n        /* \"#utility.yul\":10888:10910   */\n      swap1\n      pop\n        /* \"#utility.yul\":10919:10949   */\n      tag_328\n        /* \"#utility.yul\":10943:10948   */\n      dup2\n        /* \"#utility.yul\":10919:10949   */\n      tag_187\n      jump\t// in\n    tag_328:\n        /* \"#utility.yul\":10818:10955   */\n      swap3\n      swap2\n      pop\n      pop\n      jump\t// out\n        /* \"#utility.yul\":10961:11306   */\n    tag_105:\n        /* \"#utility.yul\":11028:11034   */\n      0x00\n        /* \"#utility.yul\":11077:11079   */\n      0x20\n        /* \"#utility.yul\":11065:11074   */\n      dup3\n        /* \"#utility.yul\":11056:11063   */\n      dup5\n        /* \"#utility.yul\":11052:11075   */\n      sub\n        /* \"#utility.yul\":11048:11080   */\n      slt\n        /* \"#utility.yul\":11045:11164   */\n      iszero\n      tag_330\n      jumpi\n        /* \"#utility.yul\":11083:11162   */\n      tag_331\n      tag_155\n      jump\t// in\n    tag_331:\n        /* \"#utility.yul\":11045:11164   */\n    tag_330:\n        /* \"#utility.yul\":11203:11204   */\n      0x00\n        /* \"#utility.yul\":11228:11289   */\n      tag_332\n        /* \"#utility.yul\":11281:11288   */\n      dup5\n        /* \"#utility.yul\":11272:11278   */\n      dup3\n        /* \"#utility.yul\":11261:11270   */\n      dup6\n        /* \"#utility.yul\":11257:11279   */\n      add\n        /* \"#utility.yul\":11228:11289   */\n      tag_188\n      jump\t// in\n    tag_332:\n        /* \"#utility.yul\":11218:11289   */\n      swap2\n      pop\n        /* \"#utility.yul\":11174:11299   */\n      pop\n        /* \"#utility.yul\":10961:11306   */\n      swap3\n      swap2\n      pop\n      pop\n      jump\t// out\n        /* \"#utility.yul\":11312:11644   */\n    tag_107:\n        /* \"#utility.yul\":11433:11437   */\n      0x00\n        /* \"#utility.yul\":11471:11473   */\n      0x40\n        /* \"#utility.yul\":11460:11469   */\n      dup3\n        /* \"#utility.yul\":11456:11474   */\n      add\n        /* \"#utility.yul\":11448:11474   */\n      swap1\n      pop\n        /* \"#utility.yul\":11484:11555   */\n      tag_334\n        /* \"#utility.yul\":11552:11553   */\n      0x00\n        /* \"#utility.yul\":11541:11550   */\n      dup4\n        /* \"#utility.yul\":11537:11554   */\n      add\n        /* \"#utility.yul\":11528:11534   */\n      dup6\n        /* \"#utility.yul\":11484:11555   */\n      tag_174\n      jump\t// in\n    tag_334:\n        /* \"#utility.yul\":11565:11637   */\n      tag_335\n        /* \"#utility.yul\":11633:11635   */\n      0x20\n        /* \"#utility.yul\":11622:11631   */\n      dup4\n        /* \"#utility.yul\":11618:11636   */\n      add\n        /* \"#utility.yul\":11609:11615   */\n      dup5\n        /* \"#utility.yul\":11565:11637   */\n      tag_162\n      jump\t// in\n    tag_335:\n        /* \"#utility.yul\":11312:11644   */\n      swap4\n      swap3\n      pop\n      pop\n      pop\n      jump\t// out\n        /* \"#utility.yul\":11650:11875   */\n    tag_189:\n        /* \"#utility.yul\":11790:11824   */\n      0x4f6e6c7920746865206f776e65722063616e2063616c6c20746869732066756e\n        /* \"#utility.yul\":11786:11787   */\n      0x00\n        /* \"#utility.yul\":11778:11784   */\n      dup3\n        /* \"#utility.yul\":11774:11788   */\n      add\n        /* \"#utility.yul\":11767:11825   */\n      mstore\n        /* \"#utility.yul\":11859:11867   */\n      0x6374696f6e2e0000000000000000000000000000000000000000000000000000\n        /* \"#utility.yul\":11854:11856   */\n      0x20\n        /* \"#utility.yul\":11846:11852   */\n      dup3\n        /* \"#utility.yul\":11842:11857   */\n      add\n        /* \"#utility.yul\":11835:11868   */\n      mstore\n        /* \"#utility.yul\":11650:11875   */\n      pop\n      jump\t// out\n        /* \"#utility.yul\":11881:12247   */\n    tag_190:\n        /* \"#utility.yul\":12023:12026   */\n      0x00\n        /* \"#utility.yul\":12044:12111   */\n      tag_338\n        /* \"#utility.yul\":12108:12110   */\n      0x26\n        /* \"#utility.yul\":12103:12106   */\n      dup4\n        /* \"#utility.yul\":12044:12111   */\n      tag_177\n      jump\t// in\n    tag_338:\n        /* \"#utility.yul\":12037:12111   */\n      swap2\n      pop\n        /* \"#utility.yul\":12120:12213   */\n      tag_339\n        /* \"#utility.yul\":12209:12212   */\n      dup3\n        /* \"#utility.yul\":12120:12213   */\n      tag_189\n      jump\t// in\n    tag_339:\n        /* \"#utility.yul\":12238:12240   */\n      0x40\n        /* \"#utility.yul\":12233:12236   */\n      dup3\n        /* \"#utility.yul\":12229:12241   */\n      add\n        /* \"#utility.yul\":12222:12241   */\n      swap1\n      pop\n        /* \"#utility.yul\":11881:12247   */\n      swap2\n      swap1\n      pop\n      jump\t// out\n        /* \"#utility.yul\":12253:12672   */\n    tag_111:\n        /* \"#utility.yul\":12419:12423   */\n      0x00\n        /* \"#utility.yul\":12457:12459   */\n      0x20\n        /* \"#utility.yul\":12446:12455   */\n      dup3\n        /* \"#utility.yul\":12442:12460   */\n      add\n        /* \"#utility.yul\":12434:12460   */\n      swap1\n      pop\n        /* \"#utility.yul\":12506:12515   */\n      dup2\n        /* \"#utility.yul\":12500:12504   */\n      dup2\n        /* \"#utility.yul\":12496:12516   */\n      sub\n        /* \"#utility.yul\":12492:12493   */\n      0x00\n        /* \"#utility.yul\":12481:12490   */\n      dup4\n        /* \"#utility.yul\":12477:12494   */\n      add\n        /* \"#utility.yul\":12470:12517   */\n      mstore\n        /* \"#utility.yul\":12534:12665   */\n      tag_341\n        /* \"#utility.yul\":12660:12664   */\n      dup2\n        /* \"#utility.yul\":12534:12665   */\n      tag_190\n      jump\t// in\n    tag_341:\n        /* \"#utility.yul\":12526:12665   */\n      swap1\n      pop\n        /* \"#utility.yul\":12253:12672   */\n      swap2\n      swap1\n      pop\n      jump\t// out\n        /* \"#utility.yul\":12678:12789   */\n    tag_191:\n        /* \"#utility.yul\":12742:12748   */\n      0x00\n        /* \"#utility.yul\":12776:12781   */\n      dup2\n        /* \"#utility.yul\":12770:12782   */\n      sload\n        /* \"#utility.yul\":12760:12782   */\n      swap1\n      pop\n        /* \"#utility.yul\":12678:12789   */\n      swap2\n      swap1\n      pop\n      jump\t// out\n        /* \"#utility.yul\":12795:12979   */\n    tag_192:\n        /* \"#utility.yul\":12894:12905   */\n      0x00\n        /* \"#utility.yul\":12928:12934   */\n      dup3\n        /* \"#utility.yul\":12923:12926   */\n      dup3\n        /* \"#utility.yul\":12916:12935   */\n      mstore\n        /* \"#utility.yul\":12968:12972   */\n      0x20\n        /* \"#utility.yul\":12963:12966   */\n      dup3\n        /* \"#utility.yul\":12959:12973   */\n      add\n        /* \"#utility.yul\":12944:12973   */\n      swap1\n      pop\n        /* \"#utility.yul\":12795:12979   */\n      swap3\n      swap2\n      pop\n      pop\n      jump\t// out\n        /* \"#utility.yul\":12985:13141   */\n    tag_193:\n        /* \"#utility.yul\":13049:13053   */\n      0x00\n        /* \"#utility.yul\":13072:13075   */\n      dup2\n        /* \"#utility.yul\":13064:13075   */\n      swap1\n      pop\n        /* \"#utility.yul\":13095:13098   */\n      dup2\n        /* \"#utility.yul\":13092:13093   */\n      0x00\n        /* \"#utility.yul\":13085:13099   */\n      mstore\n        /* \"#utility.yul\":13129:13133   */\n      0x20\n        /* \"#utility.yul\":13126:13127   */\n      0x00\n        /* \"#utility.yul\":13116:13134   */\n      keccak256\n        /* \"#utility.yul\":13108:13134   */\n      swap1\n      pop\n        /* \"#utility.yul\":12985:13141   */\n      swap2\n      swap1\n      pop\n      jump\t// out\n        /* \"#utility.yul\":13147:13255   */\n    tag_194:\n        /* \"#utility.yul\":13224:13248   */\n      tag_346\n        /* \"#utility.yul\":13242:13247   */\n      dup2\n        /* \"#utility.yul\":13224:13248   */\n      tag_161\n      jump\t// in\n    tag_346:\n        /* \"#utility.yul\":13219:13222   */\n      dup3\n        /* \"#utility.yul\":13212:13249   */\n      mstore\n        /* \"#utility.yul\":13147:13255   */\n      pop\n      pop\n      jump\t// out\n        /* \"#utility.yul\":13261:13440   */\n    tag_195:\n        /* \"#utility.yul\":13330:13340   */\n      0x00\n        /* \"#utility.yul\":13351:13397   */\n      tag_348\n        /* \"#utility.yul\":13393:13396   */\n      dup4\n        /* \"#utility.yul\":13385:13391   */\n      dup4\n        /* \"#utility.yul\":13351:13397   */\n      tag_194\n      jump\t// in\n    tag_348:\n        /* \"#utility.yul\":13429:13433   */\n      0x20\n        /* \"#utility.yul\":13424:13427   */\n      dup4\n        /* \"#utility.yul\":13420:13434   */\n      add\n        /* \"#utility.yul\":13406:13434   */\n      swap1\n      pop\n        /* \"#utility.yul\":13261:13440   */\n      swap3\n      swap2\n      pop\n      pop\n      jump\t// out\n        /* \"#utility.yul\":13446:13548   */\n    tag_196:\n        /* \"#utility.yul\":13488:13496   */\n      0x00\n        /* \"#utility.yul\":13535:13540   */\n      dup2\n        /* \"#utility.yul\":13532:13533   */\n      0x00\n        /* \"#utility.yul\":13528:13541   */\n      shr\n        /* \"#utility.yul\":13507:13541   */\n      swap1\n      pop\n        /* \"#utility.yul\":13446:13548   */\n      swap2\n      swap1\n      pop\n      jump\t// out\n        /* \"#utility.yul\":13554:13644   */\n    tag_197:\n        /* \"#utility.yul\":13604:13611   */\n      0x00\n        /* \"#utility.yul\":13633:13638   */\n      dup2\n        /* \"#utility.yul\":13622:13638   */\n      swap1\n      pop\n        /* \"#utility.yul\":13554:13644   */\n      swap2\n      swap1\n      pop\n      jump\t// out\n        /* \"#utility.yul\":13650:13816   */\n    tag_198:\n        /* \"#utility.yul\":13719:13724   */\n      0x00\n        /* \"#utility.yul\":13744:13810   */\n      tag_352\n        /* \"#utility.yul\":13775:13809   */\n      tag_353\n        /* \"#utility.yul\":13798:13808   */\n      dup4\n        /* \"#utility.yul\":13775:13809   */\n      tag_196\n      jump\t// in\n    tag_353:\n        /* \"#utility.yul\":13744:13810   */\n      tag_197\n      jump\t// in\n    tag_352:\n        /* \"#utility.yul\":13735:13810   */\n      swap1\n      pop\n        /* \"#utility.yul\":13650:13816   */\n      swap2\n      swap1\n      pop\n      jump\t// out\n        /* \"#utility.yul\":13822:13966   */\n    tag_199:\n        /* \"#utility.yul\":13877:13882   */\n      0x00\n        /* \"#utility.yul\":13902:13959   */\n      tag_355\n        /* \"#utility.yul\":13953:13957   */\n      dup3\n        /* \"#utility.yul\":13947:13958   */\n      sload\n        /* \"#utility.yul\":13902:13959   */\n      tag_198\n      jump\t// in\n    tag_355:\n        /* \"#utility.yul\":13893:13959   */\n      swap1\n      pop\n        /* \"#utility.yul\":13822:13966   */\n      swap2\n      swap1\n      pop\n      jump\t// out\n        /* \"#utility.yul\":13972:14082   */\n    tag_200:\n        /* \"#utility.yul\":14039:14043   */\n      0x00\n        /* \"#utility.yul\":14071:14075   */\n      0x01\n        /* \"#utility.yul\":14066:14069   */\n      dup3\n        /* \"#utility.yul\":14062:14076   */\n      add\n        /* \"#utility.yul\":14054:14076   */\n      swap1\n      pop\n        /* \"#utility.yul\":13972:14082   */\n      swap2\n      swap1\n      pop\n      jump\t// out\n        /* \"#utility.yul\":14118:14869   */\n    tag_201:\n        /* \"#utility.yul\":14234:14237   */\n      0x00\n        /* \"#utility.yul\":14263:14314   */\n      tag_358\n        /* \"#utility.yul\":14308:14313   */\n      dup3\n        /* \"#utility.yul\":14263:14314   */\n      tag_191\n      jump\t// in\n    tag_358:\n        /* \"#utility.yul\":14330:14416   */\n      tag_359\n        /* \"#utility.yul\":14409:14415   */\n      dup2\n        /* \"#utility.yul\":14404:14407   */\n      dup6\n        /* \"#utility.yul\":14330:14416   */\n      tag_192\n      jump\t// in\n    tag_359:\n        /* \"#utility.yul\":14323:14416   */\n      swap4\n      pop\n        /* \"#utility.yul\":14440:14493   */\n      tag_360\n        /* \"#utility.yul\":14487:14492   */\n      dup4\n        /* \"#utility.yul\":14440:14493   */\n      tag_193\n      jump\t// in\n    tag_360:\n        /* \"#utility.yul\":14516:14523   */\n      dup1\n        /* \"#utility.yul\":14547:14548   */\n      0x00\n        /* \"#utility.yul\":14532:14844   */\n    tag_361:\n        /* \"#utility.yul\":14557:14563   */\n      dup4\n        /* \"#utility.yul\":14554:14555   */\n      dup2\n        /* \"#utility.yul\":14551:14564   */\n      lt\n        /* \"#utility.yul\":14532:14844   */\n      iszero\n      tag_363\n      jumpi\n        /* \"#utility.yul\":14627:14671   */\n      tag_364\n        /* \"#utility.yul\":14664:14670   */\n      dup3\n        /* \"#utility.yul\":14627:14671   */\n      tag_199\n      jump\t// in\n    tag_364:\n        /* \"#utility.yul\":14691:14754   */\n      tag_365\n        /* \"#utility.yul\":14750:14753   */\n      dup9\n        /* \"#utility.yul\":14735:14748   */\n      dup3\n        /* \"#utility.yul\":14691:14754   */\n      tag_195\n      jump\t// in\n    tag_365:\n        /* \"#utility.yul\":14684:14754   */\n      swap8\n      pop\n        /* \"#utility.yul\":14777:14834   */\n      tag_366\n        /* \"#utility.yul\":14827:14833   */\n      dup4\n        /* \"#utility.yul\":14777:14834   */\n      tag_200\n      jump\t// in\n    tag_366:\n        /* \"#utility.yul\":14767:14834   */\n      swap3\n      pop\n        /* \"#utility.yul\":14592:14844   */\n      pop\n        /* \"#utility.yul\":14579:14580   */\n      0x01\n        /* \"#utility.yul\":14576:14577   */\n      dup2\n        /* \"#utility.yul\":14572:14581   */\n      add\n        /* \"#utility.yul\":14567:14581   */\n      swap1\n      pop\n        /* \"#utility.yul\":14532:14844   */\n      jump(tag_361)\n    tag_363:\n        /* \"#utility.yul\":14536:14550   */\n      pop\n        /* \"#utility.yul\":14860:14863   */\n      dup6\n        /* \"#utility.yul\":14853:14863   */\n      swap4\n      pop\n        /* \"#utility.yul\":14239:14869   */\n      pop\n      pop\n      pop\n        /* \"#utility.yul\":14118:14869   */\n      swap3\n      swap2\n      pop\n      pop\n      jump\t// out\n        /* \"#utility.yul\":14875:15242   */\n    tag_119:\n        /* \"#utility.yul\":15015:15019   */\n      0x00\n        /* \"#utility.yul\":15053:15055   */\n      0x20\n        /* \"#utility.yul\":15042:15051   */\n      dup3\n        /* \"#utility.yul\":15038:15056   */\n      add\n        /* \"#utility.yul\":15030:15056   */\n      swap1\n      pop\n        /* \"#utility.yul\":15102:15111   */\n      dup2\n        /* \"#utility.yul\":15096:15100   */\n      dup2\n        /* \"#utility.yul\":15092:15112   */\n      sub\n        /* \"#utility.yul\":15088:15089   */\n      0x00\n        /* \"#utility.yul\":15077:15086   */\n      dup4\n        /* \"#utility.yul\":15073:15090   */\n      add\n        /* \"#utility.yul\":15066:15113   */\n      mstore\n        /* \"#utility.yul\":15130:15235   */\n      tag_368\n        /* \"#utility.yul\":15230:15234   */\n      dup2\n        /* \"#utility.yul\":15221:15227   */\n      dup5\n        /* \"#utility.yul\":15130:15235   */\n      tag_201\n      jump\t// in\n    tag_368:\n        /* \"#utility.yul\":15122:15235   */\n      swap1\n      pop\n        /* \"#utility.yul\":14875:15242   */\n      swap3\n      swap2\n      pop\n      pop\n      jump\t// out\n        /* \"#utility.yul\":15248:15365   */\n    tag_202:\n        /* \"#utility.yul\":15357:15358   */\n      0x00\n        /* \"#utility.yul\":15354:15355   */\n      dup1\n        /* \"#utility.yul\":15347:15359   */\n      revert\n        /* \"#utility.yul\":15371:15473   */\n    tag_203:\n        /* \"#utility.yul\":15412:15418   */\n      0x00\n        /* \"#utility.yul\":15463:15465   */\n      0x1f\n        /* \"#utility.yul\":15459:15466   */\n      not\n        /* \"#utility.yul\":15454:15456   */\n      0x1f\n        /* \"#utility.yul\":15447:15452   */\n      dup4\n        /* \"#utility.yul\":15443:15457   */\n      add\n        /* \"#utility.yul\":15439:15467   */\n      and\n        /* \"#utility.yul\":15429:15467   */\n      swap1\n      pop\n        /* \"#utility.yul\":15371:15473   */\n      swap2\n      swap1\n      pop\n      jump\t// out\n        /* \"#utility.yul\":15479:15659   */\n    tag_204:\n        /* \"#utility.yul\":15527:15604   */\n      0x4e487b7100000000000000000000000000000000000000000000000000000000\n        /* \"#utility.yul\":15524:15525   */\n      0x00\n        /* \"#utility.yul\":15517:15605   */\n      mstore\n        /* \"#utility.yul\":15624:15628   */\n      0x41\n        /* \"#utility.yul\":15621:15622   */\n      0x04\n        /* \"#utility.yul\":15614:15629   */\n      mstore\n        /* \"#utility.yul\":15648:15652   */\n      0x24\n        /* \"#utility.yul\":15645:15646   */\n      0x00\n        /* \"#utility.yul\":15638:15653   */\n      revert\n        /* \"#utility.yul\":15665:15946   */\n    tag_205:\n        /* \"#utility.yul\":15748:15775   */\n      tag_373\n        /* \"#utility.yul\":15770:15774   */\n      dup3\n        /* \"#utility.yul\":15748:15775   */\n      tag_203\n      jump\t// in\n    tag_373:\n        /* \"#utility.yul\":15740:15746   */\n      dup2\n        /* \"#utility.yul\":15736:15776   */\n      add\n        /* \"#utility.yul\":15878:15884   */\n      dup2\n        /* \"#utility.yul\":15866:15876   */\n      dup2\n        /* \"#utility.yul\":15863:15885   */\n      lt\n        /* \"#utility.yul\":15842:15860   */\n      0xffffffffffffffff\n        /* \"#utility.yul\":15830:15840   */\n      dup3\n        /* \"#utility.yul\":15827:15861   */\n      gt\n        /* \"#utility.yul\":15824:15886   */\n      or\n        /* \"#utility.yul\":15821:15909   */\n      iszero\n      tag_374\n      jumpi\n        /* \"#utility.yul\":15889:15907   */\n      tag_375\n      tag_204\n      jump\t// in\n    tag_375:\n        /* \"#utility.yul\":15821:15909   */\n    tag_374:\n        /* \"#utility.yul\":15929:15939   */\n      dup1\n        /* \"#utility.yul\":15925:15927   */\n      0x40\n        /* \"#utility.yul\":15918:15940   */\n      mstore\n        /* \"#utility.yul\":15708:15946   */\n      pop\n        /* \"#utility.yul\":15665:15946   */\n      pop\n      pop\n      jump\t// out\n        /* \"#utility.yul\":15952:16081   */\n    tag_206:\n        /* \"#utility.yul\":15986:15992   */\n      0x00\n        /* \"#utility.yul\":16013:16033   */\n      tag_377\n      tag_154\n      jump\t// in\n    tag_377:\n        /* \"#utility.yul\":16003:16033   */\n      swap1\n      pop\n        /* \"#utility.yul\":16042:16075   */\n      tag_378\n        /* \"#utility.yul\":16070:16074   */\n      dup3\n        /* \"#utility.yul\":16062:16068   */\n      dup3\n        /* \"#utility.yul\":16042:16075   */\n      tag_205\n      jump\t// in\n    tag_378:\n        /* \"#utility.yul\":15952:16081   */\n      swap2\n      swap1\n      pop\n      jump\t// out\n        /* \"#utility.yul\":16087:16336   */\n    tag_207:\n        /* \"#utility.yul\":16162:16166   */\n      0x00\n        /* \"#utility.yul\":16252:16270   */\n      0xffffffffffffffff\n        /* \"#utility.yul\":16244:16250   */\n      dup3\n        /* \"#utility.yul\":16241:16271   */\n      gt\n        /* \"#utility.yul\":16238:16294   */\n      iszero\n      tag_380\n      jumpi\n        /* \"#utility.yul\":16274:16292   */\n      tag_381\n      tag_204\n      jump\t// in\n    tag_381:\n        /* \"#utility.yul\":16238:16294   */\n    tag_380:\n        /* \"#utility.yul\":16324:16328   */\n      0x20\n        /* \"#utility.yul\":16316:16322   */\n      dup3\n        /* \"#utility.yul\":16312:16329   */\n      mul\n        /* \"#utility.yul\":16304:16329   */\n      swap1\n      pop\n        /* \"#utility.yul\":16087:16336   */\n      swap2\n      swap1\n      pop\n      jump\t// out\n        /* \"#utility.yul\":16342:16459   */\n    tag_208:\n        /* \"#utility.yul\":16451:16452   */\n      0x00\n        /* \"#utility.yul\":16448:16449   */\n      dup1\n        /* \"#utility.yul\":16441:16453   */\n      revert\n        /* \"#utility.yul\":16465:16608   */\n    tag_209:\n        /* \"#utility.yul\":16522:16527   */\n      0x00\n        /* \"#utility.yul\":16553:16559   */\n      dup2\n        /* \"#utility.yul\":16547:16560   */\n      mload\n        /* \"#utility.yul\":16538:16560   */\n      swap1\n      pop\n        /* \"#utility.yul\":16569:16602   */\n      tag_384\n        /* \"#utility.yul\":16596:16601   */\n      dup2\n        /* \"#utility.yul\":16569:16602   */\n      tag_175\n      jump\t// in\n    tag_384:\n        /* \"#utility.yul\":16465:16608   */\n      swap3\n      swap2\n      pop\n      pop\n      jump\t// out\n        /* \"#utility.yul\":16632:17297   */\n    tag_210:\n        /* \"#utility.yul\":16737:16742   */\n      0x00\n        /* \"#utility.yul\":16762:16841   */\n      tag_386\n        /* \"#utility.yul\":16778:16840   */\n      tag_387\n        /* \"#utility.yul\":16833:16839   */\n      dup5\n        /* \"#utility.yul\":16778:16840   */\n      tag_207\n      jump\t// in\n    tag_387:\n        /* \"#utility.yul\":16762:16841   */\n      tag_206\n      jump\t// in\n    tag_386:\n        /* \"#utility.yul\":16753:16841   */\n      swap1\n      pop\n        /* \"#utility.yul\":16861:16866   */\n      dup1\n        /* \"#utility.yul\":16914:16918   */\n      0x20\n        /* \"#utility.yul\":16906:16912   */\n      dup5\n        /* \"#utility.yul\":16902:16919   */\n      mul\n        /* \"#utility.yul\":16894:16900   */\n      dup4\n        /* \"#utility.yul\":16890:16920   */\n      add\n        /* \"#utility.yul\":16943:16946   */\n      dup6\n        /* \"#utility.yul\":16935:16941   */\n      dup2\n        /* \"#utility.yul\":16932:16947   */\n      gt\n        /* \"#utility.yul\":16929:17051   */\n      iszero\n      tag_388\n      jumpi\n        /* \"#utility.yul\":16962:17041   */\n      tag_389\n      tag_208\n      jump\t// in\n    tag_389:\n        /* \"#utility.yul\":16929:17051   */\n    tag_388:\n        /* \"#utility.yul\":17077:17083   */\n      dup4\n        /* \"#utility.yul\":17060:17291   */\n    tag_390:\n        /* \"#utility.yul\":17094:17100   */\n      dup2\n        /* \"#utility.yul\":17089:17092   */\n      dup2\n        /* \"#utility.yul\":17086:17101   */\n      lt\n        /* \"#utility.yul\":17060:17291   */\n      iszero\n      tag_392\n      jumpi\n        /* \"#utility.yul\":17169:17172   */\n      dup1\n        /* \"#utility.yul\":17198:17246   */\n      tag_393\n        /* \"#utility.yul\":17242:17245   */\n      dup9\n        /* \"#utility.yul\":17230:17240   */\n      dup3\n        /* \"#utility.yul\":17198:17246   */\n      tag_209\n      jump\t// in\n    tag_393:\n        /* \"#utility.yul\":17193:17196   */\n      dup5\n        /* \"#utility.yul\":17186:17247   */\n      mstore\n        /* \"#utility.yul\":17276:17280   */\n      0x20\n        /* \"#utility.yul\":17271:17274   */\n      dup5\n        /* \"#utility.yul\":17267:17281   */\n      add\n        /* \"#utility.yul\":17260:17281   */\n      swap4\n      pop\n        /* \"#utility.yul\":17136:17291   */\n      pop\n        /* \"#utility.yul\":17120:17124   */\n      0x20\n        /* \"#utility.yul\":17115:17118   */\n      dup2\n        /* \"#utility.yul\":17111:17125   */\n      add\n        /* \"#utility.yul\":17104:17125   */\n      swap1\n      pop\n        /* \"#utility.yul\":17060:17291   */\n      jump(tag_390)\n    tag_392:\n        /* \"#utility.yul\":17064:17085   */\n      pop\n        /* \"#utility.yul\":16743:17297   */\n      pop\n      pop\n        /* \"#utility.yul\":16632:17297   */\n      swap4\n      swap3\n      pop\n      pop\n      pop\n      jump\t// out\n        /* \"#utility.yul\":17321:17682   */\n    tag_211:\n        /* \"#utility.yul\":17401:17406   */\n      0x00\n        /* \"#utility.yul\":17450:17453   */\n      dup3\n        /* \"#utility.yul\":17443:17447   */\n      0x1f\n        /* \"#utility.yul\":17435:17441   */\n      dup4\n        /* \"#utility.yul\":17431:17448   */\n      add\n        /* \"#utility.yul\":17427:17454   */\n      slt\n        /* \"#utility.yul\":17417:17539   */\n      tag_395\n      jumpi\n        /* \"#utility.yul\":17458:17537   */\n      tag_396\n      tag_202\n      jump\t// in\n    tag_396:\n        /* \"#utility.yul\":17417:17539   */\n    tag_395:\n        /* \"#utility.yul\":17562:17566   */\n      0x02\n        /* \"#utility.yul\":17584:17676   */\n      tag_397\n        /* \"#utility.yul\":17672:17675   */\n      dup5\n        /* \"#utility.yul\":17664:17670   */\n      dup3\n        /* \"#utility.yul\":17656:17662   */\n      dup6\n        /* \"#utility.yul\":17584:17676   */\n      tag_210\n      jump\t// in\n    tag_397:\n        /* \"#utility.yul\":17575:17676   */\n      swap2\n      pop\n        /* \"#utility.yul\":17407:17682   */\n      pop\n        /* \"#utility.yul\":17321:17682   */\n      swap3\n      swap2\n      pop\n      pop\n      jump\t// out\n        /* \"#utility.yul\":17688:18085   */\n    tag_123:\n        /* \"#utility.yul\":17781:17787   */\n      0x00\n        /* \"#utility.yul\":17830:17832   */\n      0x40\n        /* \"#utility.yul\":17818:17827   */\n      dup3\n        /* \"#utility.yul\":17809:17816   */\n      dup5\n        /* \"#utility.yul\":17805:17828   */\n      sub\n        /* \"#utility.yul\":17801:17833   */\n      slt\n        /* \"#utility.yul\":17798:17917   */\n      iszero\n      tag_399\n      jumpi\n        /* \"#utility.yul\":17836:17915   */\n      tag_400\n      tag_155\n      jump\t// in\n    tag_400:\n        /* \"#utility.yul\":17798:17917   */\n    tag_399:\n        /* \"#utility.yul\":17956:17957   */\n      0x00\n        /* \"#utility.yul\":17981:18068   */\n      tag_401\n        /* \"#utility.yul\":18060:18067   */\n      dup5\n        /* \"#utility.yul\":18051:18057   */\n      dup3\n        /* \"#utility.yul\":18040:18049   */\n      dup6\n        /* \"#utility.yul\":18036:18058   */\n      add\n        /* \"#utility.yul\":17981:18068   */\n      tag_211\n      jump\t// in\n    tag_401:\n        /* \"#utility.yul\":17971:18068   */\n      swap2\n      pop\n        /* \"#utility.yul\":17927:18078   */\n      pop\n        /* \"#utility.yul\":17688:18085   */\n      swap3\n      swap2\n      pop\n      pop\n      jump\t// out\n        /* \"#utility.yul\":18091:18271   */\n    tag_126:\n        /* \"#utility.yul\":18139:18216   */\n      0x4e487b7100000000000000000000000000000000000000000000000000000000\n        /* \"#utility.yul\":18136:18137   */\n      0x00\n        /* \"#utility.yul\":18129:18217   */\n      mstore\n        /* \"#utility.yul\":18236:18240   */\n      0x32\n        /* \"#utility.yul\":18233:18234   */\n      0x04\n        /* \"#utility.yul\":18226:18241   */\n      mstore\n        /* \"#utility.yul\":18260:18264   */\n      0x24\n        /* \"#utility.yul\":18257:18258   */\n      0x00\n        /* \"#utility.yul\":18250:18265   */\n      revert\n        /* \"#utility.yul\":18277:18471   */\n    tag_130:\n        /* \"#utility.yul\":18317:18321   */\n      0x00\n        /* \"#utility.yul\":18337:18357   */\n      tag_404\n        /* \"#utility.yul\":18355:18356   */\n      dup3\n        /* \"#utility.yul\":18337:18357   */\n      tag_161\n      jump\t// in\n    tag_404:\n        /* \"#utility.yul\":18332:18357   */\n      swap2\n      pop\n        /* \"#utility.yul\":18371:18391   */\n      tag_405\n        /* \"#utility.yul\":18389:18390   */\n      dup4\n        /* \"#utility.yul\":18371:18391   */\n      tag_161\n      jump\t// in\n    tag_405:\n        /* \"#utility.yul\":18366:18391   */\n      swap3\n      pop\n        /* \"#utility.yul\":18415:18416   */\n      dup3\n        /* \"#utility.yul\":18412:18413   */\n      dup3\n        /* \"#utility.yul\":18408:18417   */\n      sub\n        /* \"#utility.yul\":18400:18417   */\n      swap1\n      pop\n        /* \"#utility.yul\":18439:18440   */\n      dup2\n        /* \"#utility.yul\":18433:18437   */\n      dup2\n        /* \"#utility.yul\":18430:18441   */\n      gt\n        /* \"#utility.yul\":18427:18464   */\n      iszero\n      tag_406\n      jumpi\n        /* \"#utility.yul\":18444:18462   */\n      tag_407\n      tag_186\n      jump\t// in\n    tag_407:\n        /* \"#utility.yul\":18427:18464   */\n    tag_406:\n        /* \"#utility.yul\":18277:18471   */\n      swap3\n      swap2\n      pop\n      pop\n      jump\t// out\n        /* \"#utility.yul\":18477:18562   */\n    tag_212:\n        /* \"#utility.yul\":18522:18529   */\n      0x00\n        /* \"#utility.yul\":18551:18556   */\n      dup2\n        /* \"#utility.yul\":18540:18556   */\n      swap1\n      pop\n        /* \"#utility.yul\":18477:18562   */\n      swap2\n      swap1\n      pop\n      jump\t// out\n        /* \"#utility.yul\":18568:18726   */\n    tag_213:\n        /* \"#utility.yul\":18626:18635   */\n      0x00\n        /* \"#utility.yul\":18659:18720   */\n      tag_410\n        /* \"#utility.yul\":18677:18719   */\n      tag_411\n        /* \"#utility.yul\":18686:18718   */\n      tag_412\n        /* \"#utility.yul\":18712:18717   */\n      dup5\n        /* \"#utility.yul\":18686:18718   */\n      tag_212\n      jump\t// in\n    tag_412:\n        /* \"#utility.yul\":18677:18719   */\n      tag_165\n      jump\t// in\n    tag_411:\n        /* \"#utility.yul\":18659:18720   */\n      tag_161\n      jump\t// in\n    tag_410:\n        /* \"#utility.yul\":18646:18720   */\n      swap1\n      pop\n        /* \"#utility.yul\":18568:18726   */\n      swap2\n      swap1\n      pop\n      jump\t// out\n        /* \"#utility.yul\":18732:18879   */\n    tag_214:\n        /* \"#utility.yul\":18827:18872   */\n      tag_414\n        /* \"#utility.yul\":18866:18871   */\n      dup2\n        /* \"#utility.yul\":18827:18872   */\n      tag_213\n      jump\t// in\n    tag_414:\n        /* \"#utility.yul\":18822:18825   */\n      dup3\n        /* \"#utility.yul\":18815:18873   */\n      mstore\n        /* \"#utility.yul\":18732:18879   */\n      pop\n      pop\n      jump\t// out\n        /* \"#utility.yul\":18885:19053   */\n    tag_215:\n        /* \"#utility.yul\":18968:18979   */\n      0x00\n        /* \"#utility.yul\":19002:19008   */\n      dup3\n        /* \"#utility.yul\":18997:19000   */\n      dup3\n        /* \"#utility.yul\":18990:19009   */\n      mstore\n        /* \"#utility.yul\":19042:19046   */\n      0x20\n        /* \"#utility.yul\":19037:19040   */\n      dup3\n        /* \"#utility.yul\":19033:19047   */\n      add\n        /* \"#utility.yul\":19018:19047   */\n      swap1\n      pop\n        /* \"#utility.yul\":18885:19053   */\n      swap3\n      swap2\n      pop\n      pop\n      jump\t// out\n        /* \"#utility.yul\":19059:19173   */\n    tag_216:\n      pop\n      jump\t// out\n        /* \"#utility.yul\":19179:19541   */\n    tag_217:\n        /* \"#utility.yul\":19320:19323   */\n      0x00\n        /* \"#utility.yul\":19341:19406   */\n      tag_418\n        /* \"#utility.yul\":19404:19405   */\n      0x00\n        /* \"#utility.yul\":19399:19402   */\n      dup4\n        /* \"#utility.yul\":19341:19406   */\n      tag_215\n      jump\t// in\n    tag_418:\n        /* \"#utility.yul\":19334:19406   */\n      swap2\n      pop\n        /* \"#utility.yul\":19415:19508   */\n      tag_419\n        /* \"#utility.yul\":19504:19507   */\n      dup3\n        /* \"#utility.yul\":19415:19508   */\n      tag_216\n      jump\t// in\n    tag_419:\n        /* \"#utility.yul\":19533:19534   */\n      0x00\n        /* \"#utility.yul\":19528:19531   */\n      dup3\n        /* \"#utility.yul\":19524:19535   */\n      add\n        /* \"#utility.yul\":19517:19535   */\n      swap1\n      pop\n        /* \"#utility.yul\":19179:19541   */\n      swap2\n      swap1\n      pop\n      jump\t// out\n        /* \"#utility.yul\":19547:20422   */\n    tag_136:\n        /* \"#utility.yul\":19832:19836   */\n      0x00\n        /* \"#utility.yul\":19870:19873   */\n      0xa0\n        /* \"#utility.yul\":19859:19868   */\n      dup3\n        /* \"#utility.yul\":19855:19874   */\n      add\n        /* \"#utility.yul\":19847:19874   */\n      swap1\n      pop\n        /* \"#utility.yul\":19884:19955   */\n      tag_421\n        /* \"#utility.yul\":19952:19953   */\n      0x00\n        /* \"#utility.yul\":19941:19950   */\n      dup4\n        /* \"#utility.yul\":19937:19954   */\n      add\n        /* \"#utility.yul\":19928:19934   */\n      dup8\n        /* \"#utility.yul\":19884:19955   */\n      tag_174\n      jump\t// in\n    tag_421:\n        /* \"#utility.yul\":19965:20037   */\n      tag_422\n        /* \"#utility.yul\":20033:20035   */\n      0x20\n        /* \"#utility.yul\":20022:20031   */\n      dup4\n        /* \"#utility.yul\":20018:20036   */\n      add\n        /* \"#utility.yul\":20009:20015   */\n      dup7\n        /* \"#utility.yul\":19965:20037   */\n      tag_174\n      jump\t// in\n    tag_422:\n        /* \"#utility.yul\":20047:20119   */\n      tag_423\n        /* \"#utility.yul\":20115:20117   */\n      0x40\n        /* \"#utility.yul\":20104:20113   */\n      dup4\n        /* \"#utility.yul\":20100:20118   */\n      add\n        /* \"#utility.yul\":20091:20097   */\n      dup6\n        /* \"#utility.yul\":20047:20119   */\n      tag_162\n      jump\t// in\n    tag_423:\n        /* \"#utility.yul\":20129:20209   */\n      tag_424\n        /* \"#utility.yul\":20205:20207   */\n      0x60\n        /* \"#utility.yul\":20194:20203   */\n      dup4\n        /* \"#utility.yul\":20190:20208   */\n      add\n        /* \"#utility.yul\":20181:20187   */\n      dup5\n        /* \"#utility.yul\":20129:20209   */\n      tag_214\n      jump\t// in\n    tag_424:\n        /* \"#utility.yul\":20257:20266   */\n      dup2\n        /* \"#utility.yul\":20251:20255   */\n      dup2\n        /* \"#utility.yul\":20247:20267   */\n      sub\n        /* \"#utility.yul\":20241:20244   */\n      0x80\n        /* \"#utility.yul\":20230:20239   */\n      dup4\n        /* \"#utility.yul\":20226:20245   */\n      add\n        /* \"#utility.yul\":20219:20268   */\n      mstore\n        /* \"#utility.yul\":20285:20415   */\n      tag_425\n        /* \"#utility.yul\":20410:20414   */\n      dup2\n        /* \"#utility.yul\":20285:20415   */\n      tag_217\n      jump\t// in\n    tag_425:\n        /* \"#utility.yul\":20277:20415   */\n      swap1\n      pop\n        /* \"#utility.yul\":19547:20422   */\n      swap6\n      swap5\n      pop\n      pop\n      pop\n      pop\n      pop\n      jump\t// out\n        /* \"#utility.yul\":20428:20760   */\n    tag_153:\n        /* \"#utility.yul\":20549:20553   */\n      0x00\n        /* \"#utility.yul\":20587:20589   */\n      0x40\n        /* \"#utility.yul\":20576:20585   */\n      dup3\n        /* \"#utility.yul\":20572:20590   */\n      add\n        /* \"#utility.yul\":20564:20590   */\n      swap1\n      pop\n        /* \"#utility.yul\":20600:20671   */\n      tag_427\n        /* \"#utility.yul\":20668:20669   */\n      0x00\n        /* \"#utility.yul\":20657:20666   */\n      dup4\n        /* \"#utility.yul\":20653:20670   */\n      add\n        /* \"#utility.yul\":20644:20650   */\n      dup6\n        /* \"#utility.yul\":20600:20671   */\n      tag_162\n      jump\t// in\n    tag_427:\n        /* \"#utility.yul\":20681:20753   */\n      tag_428\n        /* \"#utility.yul\":20749:20751   */\n      0x20\n        /* \"#utility.yul\":20738:20747   */\n      dup4\n        /* \"#utility.yul\":20734:20752   */\n      add\n        /* \"#utility.yul\":20725:20731   */\n      dup5\n        /* \"#utility.yul\":20681:20753   */\n      tag_174\n      jump\t// in\n    tag_428:\n        /* \"#utility.yul\":20428:20760   */\n      swap4\n      swap3\n      pop\n      pop\n      pop\n      jump\t// out\n\n    auxdata: 0xa26469706673582212205bd0670d6ffdcf64a90d6e5ab0084cc016074aa7a296555a99e5895bdd945deb64736f6c63430008120033\n}\n",
				"bytecode": {
					"linkReferences": {},
					"object": "60806040523480156200001157600080fd5b5060405162001c0938038062001c09833981810160405281019062000037919062000266565b33600160006101000a81548173ffffffffffffffffffffffffffffffffffffffff021916908373ffffffffffffffffffffffffffffffffffffffff16021790555084600660006101000a81548173ffffffffffffffffffffffffffffffffffffffff021916908373ffffffffffffffffffffffffffffffffffffffff16021790555081600760006101000a81548173ffffffffffffffffffffffffffffffffffffffff021916908373ffffffffffffffffffffffffffffffffffffffff1602179055508060088190555083426200010f91906200031d565b60028190555082600381905550600760009054906101000a900473ffffffffffffffffffffffffffffffffffffffff1673ffffffffffffffffffffffffffffffffffffffff1663f242432a333060085460016040518563ffffffff1660e01b815260040162000182949392919062000402565b600060405180830381600087803b1580156200019d57600080fd5b505af1158015620001b2573d6000803e3d6000fd5b50505050505050505062000464565b600080fd5b600073ffffffffffffffffffffffffffffffffffffffff82169050919050565b6000620001f382620001c6565b9050919050565b6200020581620001e6565b81146200021157600080fd5b50565b6000815190506200022581620001fa565b92915050565b6000819050919050565b62000240816200022b565b81146200024c57600080fd5b50565b600081519050620002608162000235565b92915050565b600080600080600060a08688031215620002855762000284620001c1565b5b6000620002958882890162000214565b9550506020620002a8888289016200024f565b9450506040620002bb888289016200024f565b9350506060620002ce8882890162000214565b9250506080620002e1888289016200024f565b9150509295509295909350565b7f4e487b7100000000000000000000000000000000000000000000000000000000600052601160045260246000fd5b60006200032a826200022b565b915062000337836200022b565b9250828201905080821115620003525762000351620002ee565b5b92915050565b6200036381620001e6565b82525050565b62000374816200022b565b82525050565b6000819050919050565b6000819050919050565b6000620003af620003a9620003a3846200037a565b62000384565b6200022b565b9050919050565b620003c1816200038e565b82525050565b600082825260208201905092915050565b50565b6000620003ea600083620003c7565b9150620003f782620003d8565b600082019050919050565b600060a08201905062000419600083018762000358565b62000428602083018662000358565b62000437604083018562000369565b620004466060830184620003b6565b81810360808301526200045981620003db565b905095945050505050565b61179580620004746000396000f3fe608060405234801561001057600080fd5b50600436106100f55760003560e01c806358797cb611610097578063e537213e11610066578063e537213e14610257578063ec02291814610287578063f0194f89146102a5578063fe67a54b146102c1576100f5565b806358797cb6146101df578063637a6687146101fd57806367a555d81461021b5780638da5cb5b14610239576100f5565b806324924bf7116100d357806324924bf714610167578063362f04c0146101855780634b449cba146101a35780634c68df67146101c1576100f5565b806309e69ede146100fa57806312fa6feb1461012b57806321f4226814610149575b600080fd5b610114600480360381019061010f9190610d18565b6102cb565b604051610122929190610d79565b60405180910390f35b6101336102fc565b6040516101409190610da2565b60405180910390f35b61015161030f565b60405161015e9190610e1c565b60405180910390f35b61016f610335565b60405161017c9190610e37565b60405180910390f35b61018d61033b565b60405161019a9190610e37565b60405180910390f35b6101ab610341565b6040516101b89190610e37565b60405180910390f35b6101c9610347565b6040516101d69190610e37565b60405180910390f35b6101e761034d565b6040516101f49190610e73565b60405180910390f35b610205610373565b6040516102129190610e37565b60405180910390f35b610223610379565b6040516102309190610eaf565b60405180910390f35b61024161039d565b60405161024e9190610ed9565b60405180910390f35b610271600480360381019061026c9190610f20565b6103c3565b60405161027e9190610e37565b60405180910390f35b61028f6103e7565b60405161029c9190610e37565b60405180910390f35b6102bf60048036038101906102ba9190610f20565b6103f1565b005b6102c96107af565b005b600a6020528060005260406000206000915090508060000154908060010160009054906101000a900460ff16905082565b600c60009054906101000a900460ff1681565b600760009054906101000a900473ffffffffffffffffffffffffffffffffffffffff1681565b60035481565b60045481565b60025481565b600b5481565b600660009054906101000a900473ffffffffffffffffffffffffffffffffffffffff1681565b60085481565b60008054906101000a900473ffffffffffffffffffffffffffffffffffffffff1681565b600160009054906101000a900473ffffffffffffffffffffffffffffffffffffffff1681565b600581815481106103d357600080fd5b906000526020600020016000915090505481565b6000600b54905090565b600c60009054906101000a900460ff1615610441576040517f08c379a000000000000000000000000000000000000000000000000000000000815260040161043890610faa565b60405180910390fd5b6002544210610485576040517f08c379a000000000000000000000000000000000000000000000000000000000815260040161047c90610faa565b60405180910390fd5b600a60003373ffffffffffffffffffffffffffffffffffffffff1673ffffffffffffffffffffffffffffffffffffffff16815260200190815260200160002060010160009054906101000a900460ff1615610515576040517f08c379a000000000000000000000000000000000000000000000000000000000815260040161050c9061103c565b60405180910390fd5b6003546004541061055b576040517f08c379a0000000000000000000000000000000000000000000000000000000008152600401610552906110a8565b60405180910390fd5b6000811161059e576040517f08c379a00000000000000000000000000000000000000000000000000000000081526004016105959061113a565b60405180910390fd5b604051806040016040528082815260200160011515815250600a60003373ffffffffffffffffffffffffffffffffffffffff1673ffffffffffffffffffffffffffffffffffffffff1681526020019081526020016000206000820151816000015560208201518160010160006101000a81548160ff02191690831515021790555090505080600b60008282546106349190611189565b9250508190555060058190806001815401808255809150506001900390600052602060002001600090919091909150553360096000600454815260200190815260200160002060006101000a81548173ffffffffffffffffffffffffffffffffffffffff021916908373ffffffffffffffffffffffffffffffffffffffff160217905550600460008154809291906106cb906111bd565b9190505550600660009054906101000a900473ffffffffffffffffffffffffffffffffffffffff1673ffffffffffffffffffffffffffffffffffffffff166323b872dd3330846040518463ffffffff1660e01b815260040161072f93929190611205565b6020604051808303816000875af115801561074e573d6000803e3d6000fd5b505050506040513d601f19601f820116820180604052508101906107729190611268565b507f8123641a38ad3476ac345fc38496fa9edc26a110698c8c0c9fffc30f546f918c33826040516107a4929190611295565b60405180910390a150565b600160009054906101000a900473ffffffffffffffffffffffffffffffffffffffff1673ffffffffffffffffffffffffffffffffffffffff163373ffffffffffffffffffffffffffffffffffffffff161461083f576040517f08c379a000000000000000000000000000000000000000000000000000000000815260040161083690611330565b60405180910390fd5b600c60009054906101000a900460ff161561088f576040517f08c379a000000000000000000000000000000000000000000000000000000000815260040161088690610faa565b60405180910390fd5b60025442106108d3576040517f08c379a00000000000000000000000000000000000000000000000000000000081526004016108ca90610faa565b60405180910390fd5b6001600c60006101000a81548160ff02191690831515021790555060008060009054906101000a900473ffffffffffffffffffffffffffffffffffffffff1673ffffffffffffffffffffffffffffffffffffffff166316e74f0960056040518263ffffffff1660e01b815260040161094b919061145e565b6040805180830381865afa158015610967573d6000803e3d6000fd5b505050506040513d601f19601f8201168201806040525081019061098b91906115dc565b90506000816000600281106109a3576109a2611609565b5b602002015190506000826001600281106109c0576109bf611609565b5b6020020151905060006009600083815260200190815260200160002060009054906101000a900473ffffffffffffffffffffffffffffffffffffffff169050600660009054906101000a900473ffffffffffffffffffffffffffffffffffffffff1673ffffffffffffffffffffffffffffffffffffffff166323b872dd308386600b54610a4d9190611638565b6040518463ffffffff1660e01b8152600401610a6b93929190611205565b6020604051808303816000875af1158015610a8a573d6000803e3d6000fd5b505050506040513d601f19601f82011682018060405250810190610aae9190611268565b50600760009054906101000a900473ffffffffffffffffffffffffffffffffffffffff1673ffffffffffffffffffffffffffffffffffffffff1663f242432a308360085460016040518563ffffffff1660e01b8152600401610b1394939291906116de565b600060405180830381600087803b158015610b2d57600080fd5b505af1158015610b41573d6000803e3d6000fd5b5050505060005b600454811015610c6b57828114610c585760006009600083815260200190815260200160002060009054906101000a900473ffffffffffffffffffffffffffffffffffffffff169050600060058381548110610ba757610ba6611609565b5b90600052602060002001549050600660009054906101000a900473ffffffffffffffffffffffffffffffffffffffff1673ffffffffffffffffffffffffffffffffffffffff1663a9059cbb83836040518363ffffffff1660e01b8152600401610c11929190611295565b6020604051808303816000875af1158015610c30573d6000803e3d6000fd5b505050506040513d601f19601f82011682018060405250810190610c549190611268565b5050505b8080610c63906111bd565b915050610b48565b507fc07789fac136048b605fef8e227ab89b2e33d8afc9ab4817d374197cd81443d68382604051610c9d929190611736565b60405180910390a150505050565b6000604051905090565b600080fd5b600073ffffffffffffffffffffffffffffffffffffffff82169050919050565b6000610ce582610cba565b9050919050565b610cf581610cda565b8114610d0057600080fd5b50565b600081359050610d1281610cec565b92915050565b600060208284031215610d2e57610d2d610cb5565b5b6000610d3c84828501610d03565b91505092915050565b6000819050919050565b610d5881610d45565b82525050565b60008115159050919050565b610d7381610d5e565b82525050565b6000604082019050610d8e6000830185610d4f565b610d9b6020830184610d6a565b9392505050565b6000602082019050610db76000830184610d6a565b92915050565b6000819050919050565b6000610de2610ddd610dd884610cba565b610dbd565b610cba565b9050919050565b6000610df482610dc7565b9050919050565b6000610e0682610de9565b9050919050565b610e1681610dfb565b82525050565b6000602082019050610e316000830184610e0d565b92915050565b6000602082019050610e4c6000830184610d4f565b92915050565b6000610e5d82610de9565b9050919050565b610e6d81610e52565b82525050565b6000602082019050610e886000830184610e64565b92915050565b6000610e9982610de9565b9050919050565b610ea981610e8e565b82525050565b6000602082019050610ec46000830184610ea0565b92915050565b610ed381610cda565b82525050565b6000602082019050610eee6000830184610eca565b92915050565b610efd81610d45565b8114610f0857600080fd5b50565b600081359050610f1a81610ef4565b92915050565b600060208284031215610f3657610f35610cb5565b5b6000610f4484828501610f0b565b91505092915050565b600082825260208201905092915050565b7f41756374696f6e2068617320616c726561647920656e6465642e000000000000600082015250565b6000610f94601a83610f4d565b9150610f9f82610f5e565b602082019050919050565b60006020820190508181036000830152610fc381610f87565b9050919050565b7f596f75206861766520616c7265616479206a6f696e656420746865206175637460008201527f696f6e2e00000000000000000000000000000000000000000000000000000000602082015250565b6000611026602483610f4d565b915061103182610fca565b604082019050919050565b6000602082019050818103600083015261105581611019565b9050919050565b7f41756374696f6e2069732066756c6c2e00000000000000000000000000000000600082015250565b6000611092601083610f4d565b915061109d8261105c565b602082019050919050565b600060208201905081810360008301526110c181611085565b9050919050565b7f5265736572766520616d6f756e74206d7573742062652067726561746572207460008201527f68616e207a65726f2e0000000000000000000000000000000000000000000000602082015250565b6000611124602983610f4d565b915061112f826110c8565b604082019050919050565b6000602082019050818103600083015261115381611117565b9050919050565b7f4e487b7100000000000000000000000000000000000000000000000000000000600052601160045260246000fd5b600061119482610d45565b915061119f83610d45565b92508282019050808211156111b7576111b661115a565b5b92915050565b60006111c882610d45565b91507fffffffffffffffffffffffffffffffffffffffffffffffffffffffffffffffff82036111fa576111f961115a565b5b600182019050919050565b600060608201905061121a6000830186610eca565b6112276020830185610eca565b6112346040830184610d4f565b949350505050565b61124581610d5e565b811461125057600080fd5b50565b6000815190506112628161123c565b92915050565b60006020828403121561127e5761127d610cb5565b5b600061128c84828501611253565b91505092915050565b60006040820190506112aa6000830185610eca565b6112b76020830184610d4f565b9392505050565b7f4f6e6c7920746865206f776e65722063616e2063616c6c20746869732066756e60008201527f6374696f6e2e0000000000000000000000000000000000000000000000000000602082015250565b600061131a602683610f4d565b9150611325826112be565b604082019050919050565b600060208201905081810360008301526113498161130d565b9050919050565b600081549050919050565b600082825260208201905092915050565b60008190508160005260206000209050919050565b61138a81610d45565b82525050565b600061139c8383611381565b60208301905092915050565b60008160001c9050919050565b6000819050919050565b60006113d26113cd836113a8565b6113b5565b9050919050565b60006113e582546113bf565b9050919050565b6000600182019050919050565b600061140482611350565b61140e818561135b565b93506114198361136c565b8060005b838110156114515761142e826113d9565b6114388882611390565b9750611443836113ec565b92505060018101905061141d565b5085935050505092915050565b6000602082019050818103600083015261147881846113f9565b905092915050565b600080fd5b6000601f19601f8301169050919050565b7f4e487b7100000000000000000000000000000000000000000000000000000000600052604160045260246000fd5b6114ce82611485565b810181811067ffffffffffffffff821117156114ed576114ec611496565b5b80604052505050565b6000611500610cab565b905061150c82826114c5565b919050565b600067ffffffffffffffff82111561152c5761152b611496565b5b602082029050919050565b600080fd5b60008151905061154b81610ef4565b92915050565b600061156461155f84611511565b6114f6565b9050806020840283018581111561157e5761157d611537565b5b835b818110156115a75780611593888261153c565b845260208401935050602081019050611580565b5050509392505050565b600082601f8301126115c6576115c5611480565b5b60026115d3848285611551565b91505092915050565b6000604082840312156115f2576115f1610cb5565b5b6000611600848285016115b1565b91505092915050565b7f4e487b7100000000000000000000000000000000000000000000000000000000600052603260045260246000fd5b600061164382610d45565b915061164e83610d45565b92508282039050818111156116665761166561115a565b5b92915050565b6000819050919050565b600061169161168c6116878461166c565b610dbd565b610d45565b9050919050565b6116a181611676565b82525050565b600082825260208201905092915050565b50565b60006116c86000836116a7565b91506116d3826116b8565b600082019050919050565b600060a0820190506116f36000830187610eca565b6117006020830186610eca565b61170d6040830185610d4f565b61171a6060830184611698565b818103608083015261172b816116bb565b905095945050505050565b600060408201905061174b6000830185610d4f565b6117586020830184610eca565b939250505056fea26469706673582212205bd0670d6ffdcf64a90d6e5ab0084cc016074aa7a296555a99e5895bdd945deb64736f6c63430008120033",
					"opcodes": "PUSH1 0x80 PUSH1 0x40 MSTORE CALLVALUE DUP1 ISZERO PUSH3 0x11 JUMPI PUSH1 0x0 DUP1 REVERT JUMPDEST POP PUSH1 0x40 MLOAD PUSH3 0x1C09 CODESIZE SUB DUP1 PUSH3 0x1C09 DUP4 CODECOPY DUP2 DUP2 ADD PUSH1 0x40 MSTORE DUP2 ADD SWAP1 PUSH3 0x37 SWAP2 SWAP1 PUSH3 0x266 JUMP JUMPDEST CALLER PUSH1 0x1 PUSH1 0x0 PUSH2 0x100 EXP DUP2 SLOAD DUP2 PUSH20 0xFFFFFFFFFFFFFFFFFFFFFFFFFFFFFFFFFFFFFFFF MUL NOT AND SWAP1 DUP4 PUSH20 0xFFFFFFFFFFFFFFFFFFFFFFFFFFFFFFFFFFFFFFFF AND MUL OR SWAP1 SSTORE POP DUP5 PUSH1 0x6 PUSH1 0x0 PUSH2 0x100 EXP DUP2 SLOAD DUP2 PUSH20 0xFFFFFFFFFFFFFFFFFFFFFFFFFFFFFFFFFFFFFFFF MUL NOT AND SWAP1 DUP4 PUSH20 0xFFFFFFFFFFFFFFFFFFFFFFFFFFFFFFFFFFFFFFFF AND MUL OR SWAP1 SSTORE POP DUP2 PUSH1 0x7 PUSH1 0x0 PUSH2 0x100 EXP DUP2 SLOAD DUP2 PUSH20 0xFFFFFFFFFFFFFFFFFFFFFFFFFFFFFFFFFFFFFFFF MUL NOT AND SWAP1 DUP4 PUSH20 0xFFFFFFFFFFFFFFFFFFFFFFFFFFFFFFFFFFFFFFFF AND MUL OR SWAP1 SSTORE POP DUP1 PUSH1 0x8 DUP2 SWAP1 SSTORE POP DUP4 TIMESTAMP PUSH3 0x10F SWAP2 SWAP1 PUSH3 0x31D JUMP JUMPDEST PUSH1 0x2 DUP2 SWAP1 SSTORE POP DUP3 PUSH1 0x3 DUP2 SWAP1 SSTORE POP PUSH1 0x7 PUSH1 0x0 SWAP1 SLOAD SWAP1 PUSH2 0x100 EXP SWAP1 DIV PUSH20 0xFFFFFFFFFFFFFFFFFFFFFFFFFFFFFFFFFFFFFFFF AND PUSH20 0xFFFFFFFFFFFFFFFFFFFFFFFFFFFFFFFFFFFFFFFF AND PUSH4 0xF242432A CALLER ADDRESS PUSH1 0x8 SLOAD PUSH1 0x1 PUSH1 0x40 MLOAD DUP6 PUSH4 0xFFFFFFFF AND PUSH1 0xE0 SHL DUP2 MSTORE PUSH1 0x4 ADD PUSH3 0x182 SWAP5 SWAP4 SWAP3 SWAP2 SWAP1 PUSH3 0x402 JUMP JUMPDEST PUSH1 0x0 PUSH1 0x40 MLOAD DUP1 DUP4 SUB DUP2 PUSH1 0x0 DUP8 DUP1 EXTCODESIZE ISZERO DUP1 ISZERO PUSH3 0x19D JUMPI PUSH1 0x0 DUP1 REVERT JUMPDEST POP GAS CALL ISZERO DUP1 ISZERO PUSH3 0x1B2 JUMPI RETURNDATASIZE PUSH1 0x0 DUP1 RETURNDATACOPY RETURNDATASIZE PUSH1 0x0 REVERT JUMPDEST POP POP POP POP POP POP POP POP POP PUSH3 0x464 JUMP JUMPDEST PUSH1 0x0 DUP1 REVERT JUMPDEST PUSH1 0x0 PUSH20 0xFFFFFFFFFFFFFFFFFFFFFFFFFFFFFFFFFFFFFFFF DUP3 AND SWAP1 POP SWAP2 SWAP1 POP JUMP JUMPDEST PUSH1 0x0 PUSH3 0x1F3 DUP3 PUSH3 0x1C6 JUMP JUMPDEST SWAP1 POP SWAP2 SWAP1 POP JUMP JUMPDEST PUSH3 0x205 DUP2 PUSH3 0x1E6 JUMP JUMPDEST DUP2 EQ PUSH3 0x211 JUMPI PUSH1 0x0 DUP1 REVERT JUMPDEST POP JUMP JUMPDEST PUSH1 0x0 DUP2 MLOAD SWAP1 POP PUSH3 0x225 DUP2 PUSH3 0x1FA JUMP JUMPDEST SWAP3 SWAP2 POP POP JUMP JUMPDEST PUSH1 0x0 DUP2 SWAP1 POP SWAP2 SWAP1 POP JUMP JUMPDEST PUSH3 0x240 DUP2 PUSH3 0x22B JUMP JUMPDEST DUP2 EQ PUSH3 0x24C JUMPI PUSH1 0x0 DUP1 REVERT JUMPDEST POP JUMP JUMPDEST PUSH1 0x0 DUP2 MLOAD SWAP1 POP PUSH3 0x260 DUP2 PUSH3 0x235 JUMP JUMPDEST SWAP3 SWAP2 POP POP JUMP JUMPDEST PUSH1 0x0 DUP1 PUSH1 0x0 DUP1 PUSH1 0x0 PUSH1 0xA0 DUP7 DUP9 SUB SLT ISZERO PUSH3 0x285 JUMPI PUSH3 0x284 PUSH3 0x1C1 JUMP JUMPDEST JUMPDEST PUSH1 0x0 PUSH3 0x295 DUP9 DUP3 DUP10 ADD PUSH3 0x214 JUMP JUMPDEST SWAP6 POP POP PUSH1 0x20 PUSH3 0x2A8 DUP9 DUP3 DUP10 ADD PUSH3 0x24F JUMP JUMPDEST SWAP5 POP POP PUSH1 0x40 PUSH3 0x2BB DUP9 DUP3 DUP10 ADD PUSH3 0x24F JUMP JUMPDEST SWAP4 POP POP PUSH1 0x60 PUSH3 0x2CE DUP9 DUP3 DUP10 ADD PUSH3 0x214 JUMP JUMPDEST SWAP3 POP POP PUSH1 0x80 PUSH3 0x2E1 DUP9 DUP3 DUP10 ADD PUSH3 0x24F JUMP JUMPDEST SWAP2 POP POP SWAP3 SWAP6 POP SWAP3 SWAP6 SWAP1 SWAP4 POP JUMP JUMPDEST PUSH32 0x4E487B7100000000000000000000000000000000000000000000000000000000 PUSH1 0x0 MSTORE PUSH1 0x11 PUSH1 0x4 MSTORE PUSH1 0x24 PUSH1 0x0 REVERT JUMPDEST PUSH1 0x0 PUSH3 0x32A DUP3 PUSH3 0x22B JUMP JUMPDEST SWAP2 POP PUSH3 0x337 DUP4 PUSH3 0x22B JUMP JUMPDEST SWAP3 POP DUP3 DUP3 ADD SWAP1 POP DUP1 DUP3 GT ISZERO PUSH3 0x352 JUMPI PUSH3 0x351 PUSH3 0x2EE JUMP JUMPDEST JUMPDEST SWAP3 SWAP2 POP POP JUMP JUMPDEST PUSH3 0x363 DUP2 PUSH3 0x1E6 JUMP JUMPDEST DUP3 MSTORE POP POP JUMP JUMPDEST PUSH3 0x374 DUP2 PUSH3 0x22B JUMP JUMPDEST DUP3 MSTORE POP POP JUMP JUMPDEST PUSH1 0x0 DUP2 SWAP1 POP SWAP2 SWAP1 POP JUMP JUMPDEST PUSH1 0x0 DUP2 SWAP1 POP SWAP2 SWAP1 POP JUMP JUMPDEST PUSH1 0x0 PUSH3 0x3AF PUSH3 0x3A9 PUSH3 0x3A3 DUP5 PUSH3 0x37A JUMP JUMPDEST PUSH3 0x384 JUMP JUMPDEST PUSH3 0x22B JUMP JUMPDEST SWAP1 POP SWAP2 SWAP1 POP JUMP JUMPDEST PUSH3 0x3C1 DUP2 PUSH3 0x38E JUMP JUMPDEST DUP3 MSTORE POP POP JUMP JUMPDEST PUSH1 0x0 DUP3 DUP3 MSTORE PUSH1 0x20 DUP3 ADD SWAP1 POP SWAP3 SWAP2 POP POP JUMP JUMPDEST POP JUMP JUMPDEST PUSH1 0x0 PUSH3 0x3EA PUSH1 0x0 DUP4 PUSH3 0x3C7 JUMP JUMPDEST SWAP2 POP PUSH3 0x3F7 DUP3 PUSH3 0x3D8 JUMP JUMPDEST PUSH1 0x0 DUP3 ADD SWAP1 POP SWAP2 SWAP1 POP JUMP JUMPDEST PUSH1 0x0 PUSH1 0xA0 DUP3 ADD SWAP1 POP PUSH3 0x419 PUSH1 0x0 DUP4 ADD DUP8 PUSH3 0x358 JUMP JUMPDEST PUSH3 0x428 PUSH1 0x20 DUP4 ADD DUP7 PUSH3 0x358 JUMP JUMPDEST PUSH3 0x437 PUSH1 0x40 DUP4 ADD DUP6 PUSH3 0x369 JUMP JUMPDEST PUSH3 0x446 PUSH1 0x60 DUP4 ADD DUP5 PUSH3 0x3B6 JUMP JUMPDEST DUP2 DUP2 SUB PUSH1 0x80 DUP4 ADD MSTORE PUSH3 0x459 DUP2 PUSH3 0x3DB JUMP JUMPDEST SWAP1 POP SWAP6 SWAP5 POP POP POP POP POP JUMP JUMPDEST PUSH2 0x1795 DUP1 PUSH3 0x474 PUSH1 0x0 CODECOPY PUSH1 0x0 RETURN INVALID PUSH1 0x80 PUSH1 0x40 MSTORE CALLVALUE DUP1 ISZERO PUSH2 0x10 JUMPI PUSH1 0x0 DUP1 REVERT JUMPDEST POP PUSH1 0x4 CALLDATASIZE LT PUSH2 0xF5 JUMPI PUSH1 0x0 CALLDATALOAD PUSH1 0xE0 SHR DUP1 PUSH4 0x58797CB6 GT PUSH2 0x97 JUMPI DUP1 PUSH4 0xE537213E GT PUSH2 0x66 JUMPI DUP1 PUSH4 0xE537213E EQ PUSH2 0x257 JUMPI DUP1 PUSH4 0xEC022918 EQ PUSH2 0x287 JUMPI DUP1 PUSH4 0xF0194F89 EQ PUSH2 0x2A5 JUMPI DUP1 PUSH4 0xFE67A54B EQ PUSH2 0x2C1 JUMPI PUSH2 0xF5 JUMP JUMPDEST DUP1 PUSH4 0x58797CB6 EQ PUSH2 0x1DF JUMPI DUP1 PUSH4 0x637A6687 EQ PUSH2 0x1FD JUMPI DUP1 PUSH4 0x67A555D8 EQ PUSH2 0x21B JUMPI DUP1 PUSH4 0x8DA5CB5B EQ PUSH2 0x239 JUMPI PUSH2 0xF5 JUMP JUMPDEST DUP1 PUSH4 0x24924BF7 GT PUSH2 0xD3 JUMPI DUP1 PUSH4 0x24924BF7 EQ PUSH2 0x167 JUMPI DUP1 PUSH4 0x362F04C0 EQ PUSH2 0x185 JUMPI DUP1 PUSH4 0x4B449CBA EQ PUSH2 0x1A3 JUMPI DUP1 PUSH4 0x4C68DF67 EQ PUSH2 0x1C1 JUMPI PUSH2 0xF5 JUMP JUMPDEST DUP1 PUSH4 0x9E69EDE EQ PUSH2 0xFA JUMPI DUP1 PUSH4 0x12FA6FEB EQ PUSH2 0x12B JUMPI DUP1 PUSH4 0x21F42268 EQ PUSH2 0x149 JUMPI JUMPDEST PUSH1 0x0 DUP1 REVERT JUMPDEST PUSH2 0x114 PUSH1 0x4 DUP1 CALLDATASIZE SUB DUP2 ADD SWAP1 PUSH2 0x10F SWAP2 SWAP1 PUSH2 0xD18 JUMP JUMPDEST PUSH2 0x2CB JUMP JUMPDEST PUSH1 0x40 MLOAD PUSH2 0x122 SWAP3 SWAP2 SWAP1 PUSH2 0xD79 JUMP JUMPDEST PUSH1 0x40 MLOAD DUP1 SWAP2 SUB SWAP1 RETURN JUMPDEST PUSH2 0x133 PUSH2 0x2FC JUMP JUMPDEST PUSH1 0x40 MLOAD PUSH2 0x140 SWAP2 SWAP1 PUSH2 0xDA2 JUMP JUMPDEST PUSH1 0x40 MLOAD DUP1 SWAP2 SUB SWAP1 RETURN JUMPDEST PUSH2 0x151 PUSH2 0x30F JUMP JUMPDEST PUSH1 0x40 MLOAD PUSH2 0x15E SWAP2 SWAP1 PUSH2 0xE1C JUMP JUMPDEST PUSH1 0x40 MLOAD DUP1 SWAP2 SUB SWAP1 RETURN JUMPDEST PUSH2 0x16F PUSH2 0x335 JUMP JUMPDEST PUSH1 0x40 MLOAD PUSH2 0x17C SWAP2 SWAP1 PUSH2 0xE37 JUMP JUMPDEST PUSH1 0x40 MLOAD DUP1 SWAP2 SUB SWAP1 RETURN JUMPDEST PUSH2 0x18D PUSH2 0x33B JUMP JUMPDEST PUSH1 0x40 MLOAD PUSH2 0x19A SWAP2 SWAP1 PUSH2 0xE37 JUMP JUMPDEST PUSH1 0x40 MLOAD DUP1 SWAP2 SUB SWAP1 RETURN JUMPDEST PUSH2 0x1AB PUSH2 0x341 JUMP JUMPDEST PUSH1 0x40 MLOAD PUSH2 0x1B8 SWAP2 SWAP1 PUSH2 0xE37 JUMP JUMPDEST PUSH1 0x40 MLOAD DUP1 SWAP2 SUB SWAP1 RETURN JUMPDEST PUSH2 0x1C9 PUSH2 0x347 JUMP JUMPDEST PUSH1 0x40 MLOAD PUSH2 0x1D6 SWAP2 SWAP1 PUSH2 0xE37 JUMP JUMPDEST PUSH1 0x40 MLOAD DUP1 SWAP2 SUB SWAP1 RETURN JUMPDEST PUSH2 0x1E7 PUSH2 0x34D JUMP JUMPDEST PUSH1 0x40 MLOAD PUSH2 0x1F4 SWAP2 SWAP1 PUSH2 0xE73 JUMP JUMPDEST PUSH1 0x40 MLOAD DUP1 SWAP2 SUB SWAP1 RETURN JUMPDEST PUSH2 0x205 PUSH2 0x373 JUMP JUMPDEST PUSH1 0x40 MLOAD PUSH2 0x212 SWAP2 SWAP1 PUSH2 0xE37 JUMP JUMPDEST PUSH1 0x40 MLOAD DUP1 SWAP2 SUB SWAP1 RETURN JUMPDEST PUSH2 0x223 PUSH2 0x379 JUMP JUMPDEST PUSH1 0x40 MLOAD PUSH2 0x230 SWAP2 SWAP1 PUSH2 0xEAF JUMP JUMPDEST PUSH1 0x40 MLOAD DUP1 SWAP2 SUB SWAP1 RETURN JUMPDEST PUSH2 0x241 PUSH2 0x39D JUMP JUMPDEST PUSH1 0x40 MLOAD PUSH2 0x24E SWAP2 SWAP1 PUSH2 0xED9 JUMP JUMPDEST PUSH1 0x40 MLOAD DUP1 SWAP2 SUB SWAP1 RETURN JUMPDEST PUSH2 0x271 PUSH1 0x4 DUP1 CALLDATASIZE SUB DUP2 ADD SWAP1 PUSH2 0x26C SWAP2 SWAP1 PUSH2 0xF20 JUMP JUMPDEST PUSH2 0x3C3 JUMP JUMPDEST PUSH1 0x40 MLOAD PUSH2 0x27E SWAP2 SWAP1 PUSH2 0xE37 JUMP JUMPDEST PUSH1 0x40 MLOAD DUP1 SWAP2 SUB SWAP1 RETURN JUMPDEST PUSH2 0x28F PUSH2 0x3E7 JUMP JUMPDEST PUSH1 0x40 MLOAD PUSH2 0x29C SWAP2 SWAP1 PUSH2 0xE37 JUMP JUMPDEST PUSH1 0x40 MLOAD DUP1 SWAP2 SUB SWAP1 RETURN JUMPDEST PUSH2 0x2BF PUSH1 0x4 DUP1 CALLDATASIZE SUB DUP2 ADD SWAP1 PUSH2 0x2BA SWAP2 SWAP1 PUSH2 0xF20 JUMP JUMPDEST PUSH2 0x3F1 JUMP JUMPDEST STOP JUMPDEST PUSH2 0x2C9 PUSH2 0x7AF JUMP JUMPDEST STOP JUMPDEST PUSH1 0xA PUSH1 0x20 MSTORE DUP1 PUSH1 0x0 MSTORE PUSH1 0x40 PUSH1 0x0 KECCAK256 PUSH1 0x0 SWAP2 POP SWAP1 POP DUP1 PUSH1 0x0 ADD SLOAD SWAP1 DUP1 PUSH1 0x1 ADD PUSH1 0x0 SWAP1 SLOAD SWAP1 PUSH2 0x100 EXP SWAP1 DIV PUSH1 0xFF AND SWAP1 POP DUP3 JUMP JUMPDEST PUSH1 0xC PUSH1 0x0 SWAP1 SLOAD SWAP1 PUSH2 0x100 EXP SWAP1 DIV PUSH1 0xFF AND DUP2 JUMP JUMPDEST PUSH1 0x7 PUSH1 0x0 SWAP1 SLOAD SWAP1 PUSH2 0x100 EXP SWAP1 DIV PUSH20 0xFFFFFFFFFFFFFFFFFFFFFFFFFFFFFFFFFFFFFFFF AND DUP2 JUMP JUMPDEST PUSH1 0x3 SLOAD DUP2 JUMP JUMPDEST PUSH1 0x4 SLOAD DUP2 JUMP JUMPDEST PUSH1 0x2 SLOAD DUP2 JUMP JUMPDEST PUSH1 0xB SLOAD DUP2 JUMP JUMPDEST PUSH1 0x6 PUSH1 0x0 SWAP1 SLOAD SWAP1 PUSH2 0x100 EXP SWAP1 DIV PUSH20 0xFFFFFFFFFFFFFFFFFFFFFFFFFFFFFFFFFFFFFFFF AND DUP2 JUMP JUMPDEST PUSH1 0x8 SLOAD DUP2 JUMP JUMPDEST PUSH1 0x0 DUP1 SLOAD SWAP1 PUSH2 0x100 EXP SWAP1 DIV PUSH20 0xFFFFFFFFFFFFFFFFFFFFFFFFFFFFFFFFFFFFFFFF AND DUP2 JUMP JUMPDEST PUSH1 0x1 PUSH1 0x0 SWAP1 SLOAD SWAP1 PUSH2 0x100 EXP SWAP1 DIV PUSH20 0xFFFFFFFFFFFFFFFFFFFFFFFFFFFFFFFFFFFFFFFF AND DUP2 JUMP JUMPDEST PUSH1 0x5 DUP2 DUP2 SLOAD DUP2 LT PUSH2 0x3D3 JUMPI PUSH1 0x0 DUP1 REVERT JUMPDEST SWAP1 PUSH1 0x0 MSTORE PUSH1 0x20 PUSH1 0x0 KECCAK256 ADD PUSH1 0x0 SWAP2 POP SWAP1 POP SLOAD DUP2 JUMP JUMPDEST PUSH1 0x0 PUSH1 0xB SLOAD SWAP1 POP SWAP1 JUMP JUMPDEST PUSH1 0xC PUSH1 0x0 SWAP1 SLOAD SWAP1 PUSH2 0x100 EXP SWAP1 DIV PUSH1 0xFF AND ISZERO PUSH2 0x441 JUMPI PUSH1 0x40 MLOAD PUSH32 0x8C379A000000000000000000000000000000000000000000000000000000000 DUP2 MSTORE PUSH1 0x4 ADD PUSH2 0x438 SWAP1 PUSH2 0xFAA JUMP JUMPDEST PUSH1 0x40 MLOAD DUP1 SWAP2 SUB SWAP1 REVERT JUMPDEST PUSH1 0x2 SLOAD TIMESTAMP LT PUSH2 0x485 JUMPI PUSH1 0x40 MLOAD PUSH32 0x8C379A000000000000000000000000000000000000000000000000000000000 DUP2 MSTORE PUSH1 0x4 ADD PUSH2 0x47C SWAP1 PUSH2 0xFAA JUMP JUMPDEST PUSH1 0x40 MLOAD DUP1 SWAP2 SUB SWAP1 REVERT JUMPDEST PUSH1 0xA PUSH1 0x0 CALLER PUSH20 0xFFFFFFFFFFFFFFFFFFFFFFFFFFFFFFFFFFFFFFFF AND PUSH20 0xFFFFFFFFFFFFFFFFFFFFFFFFFFFFFFFFFFFFFFFF AND DUP2 MSTORE PUSH1 0x20 ADD SWAP1 DUP2 MSTORE PUSH1 0x20 ADD PUSH1 0x0 KECCAK256 PUSH1 0x1 ADD PUSH1 0x0 SWAP1 SLOAD SWAP1 PUSH2 0x100 EXP SWAP1 DIV PUSH1 0xFF AND ISZERO PUSH2 0x515 JUMPI PUSH1 0x40 MLOAD PUSH32 0x8C379A000000000000000000000000000000000000000000000000000000000 DUP2 MSTORE PUSH1 0x4 ADD PUSH2 0x50C SWAP1 PUSH2 0x103C JUMP JUMPDEST PUSH1 0x40 MLOAD DUP1 SWAP2 SUB SWAP1 REVERT JUMPDEST PUSH1 0x3 SLOAD PUSH1 0x4 SLOAD LT PUSH2 0x55B JUMPI PUSH1 0x40 MLOAD PUSH32 0x8C379A000000000000000000000000000000000000000000000000000000000 DUP2 MSTORE PUSH1 0x4 ADD PUSH2 0x552 SWAP1 PUSH2 0x10A8 JUMP JUMPDEST PUSH1 0x40 MLOAD DUP1 SWAP2 SUB SWAP1 REVERT JUMPDEST PUSH1 0x0 DUP2 GT PUSH2 0x59E JUMPI PUSH1 0x40 MLOAD PUSH32 0x8C379A000000000000000000000000000000000000000000000000000000000 DUP2 MSTORE PUSH1 0x4 ADD PUSH2 0x595 SWAP1 PUSH2 0x113A JUMP JUMPDEST PUSH1 0x40 MLOAD DUP1 SWAP2 SUB SWAP1 REVERT JUMPDEST PUSH1 0x40 MLOAD DUP1 PUSH1 0x40 ADD PUSH1 0x40 MSTORE DUP1 DUP3 DUP2 MSTORE PUSH1 0x20 ADD PUSH1 0x1 ISZERO ISZERO DUP2 MSTORE POP PUSH1 0xA PUSH1 0x0 CALLER PUSH20 0xFFFFFFFFFFFFFFFFFFFFFFFFFFFFFFFFFFFFFFFF AND PUSH20 0xFFFFFFFFFFFFFFFFFFFFFFFFFFFFFFFFFFFFFFFF AND DUP2 MSTORE PUSH1 0x20 ADD SWAP1 DUP2 MSTORE PUSH1 0x20 ADD PUSH1 0x0 KECCAK256 PUSH1 0x0 DUP3 ADD MLOAD DUP2 PUSH1 0x0 ADD SSTORE PUSH1 0x20 DUP3 ADD MLOAD DUP2 PUSH1 0x1 ADD PUSH1 0x0 PUSH2 0x100 EXP DUP2 SLOAD DUP2 PUSH1 0xFF MUL NOT AND SWAP1 DUP4 ISZERO ISZERO MUL OR SWAP1 SSTORE POP SWAP1 POP POP DUP1 PUSH1 0xB PUSH1 0x0 DUP3 DUP3 SLOAD PUSH2 0x634 SWAP2 SWAP1 PUSH2 0x1189 JUMP JUMPDEST SWAP3 POP POP DUP2 SWAP1 SSTORE POP PUSH1 0x5 DUP2 SWAP1 DUP1 PUSH1 0x1 DUP2 SLOAD ADD DUP1 DUP3 SSTORE DUP1 SWAP2 POP POP PUSH1 0x1 SWAP1 SUB SWAP1 PUSH1 0x0 MSTORE PUSH1 0x20 PUSH1 0x0 KECCAK256 ADD PUSH1 0x0 SWAP1 SWAP2 SWAP1 SWAP2 SWAP1 SWAP2 POP SSTORE CALLER PUSH1 0x9 PUSH1 0x0 PUSH1 0x4 SLOAD DUP2 MSTORE PUSH1 0x20 ADD SWAP1 DUP2 MSTORE PUSH1 0x20 ADD PUSH1 0x0 KECCAK256 PUSH1 0x0 PUSH2 0x100 EXP DUP2 SLOAD DUP2 PUSH20 0xFFFFFFFFFFFFFFFFFFFFFFFFFFFFFFFFFFFFFFFF MUL NOT AND SWAP1 DUP4 PUSH20 0xFFFFFFFFFFFFFFFFFFFFFFFFFFFFFFFFFFFFFFFF AND MUL OR SWAP1 SSTORE POP PUSH1 0x4 PUSH1 0x0 DUP2 SLOAD DUP1 SWAP3 SWAP2 SWAP1 PUSH2 0x6CB SWAP1 PUSH2 0x11BD JUMP JUMPDEST SWAP2 SWAP1 POP SSTORE POP PUSH1 0x6 PUSH1 0x0 SWAP1 SLOAD SWAP1 PUSH2 0x100 EXP SWAP1 DIV PUSH20 0xFFFFFFFFFFFFFFFFFFFFFFFFFFFFFFFFFFFFFFFF AND PUSH20 0xFFFFFFFFFFFFFFFFFFFFFFFFFFFFFFFFFFFFFFFF AND PUSH4 0x23B872DD CALLER ADDRESS DUP5 PUSH1 0x40 MLOAD DUP5 PUSH4 0xFFFFFFFF AND PUSH1 0xE0 SHL DUP2 MSTORE PUSH1 0x4 ADD PUSH2 0x72F SWAP4 SWAP3 SWAP2 SWAP1 PUSH2 0x1205 JUMP JUMPDEST PUSH1 0x20 PUSH1 0x40 MLOAD DUP1 DUP4 SUB DUP2 PUSH1 0x0 DUP8 GAS CALL ISZERO DUP1 ISZERO PUSH2 0x74E JUMPI RETURNDATASIZE PUSH1 0x0 DUP1 RETURNDATACOPY RETURNDATASIZE PUSH1 0x0 REVERT JUMPDEST POP POP POP POP PUSH1 0x40 MLOAD RETURNDATASIZE PUSH1 0x1F NOT PUSH1 0x1F DUP3 ADD AND DUP3 ADD DUP1 PUSH1 0x40 MSTORE POP DUP2 ADD SWAP1 PUSH2 0x772 SWAP2 SWAP1 PUSH2 0x1268 JUMP JUMPDEST POP PUSH32 0x8123641A38AD3476AC345FC38496FA9EDC26A110698C8C0C9FFFC30F546F918C CALLER DUP3 PUSH1 0x40 MLOAD PUSH2 0x7A4 SWAP3 SWAP2 SWAP1 PUSH2 0x1295 JUMP JUMPDEST PUSH1 0x40 MLOAD DUP1 SWAP2 SUB SWAP1 LOG1 POP JUMP JUMPDEST PUSH1 0x1 PUSH1 0x0 SWAP1 SLOAD SWAP1 PUSH2 0x100 EXP SWAP1 DIV PUSH20 0xFFFFFFFFFFFFFFFFFFFFFFFFFFFFFFFFFFFFFFFF AND PUSH20 0xFFFFFFFFFFFFFFFFFFFFFFFFFFFFFFFFFFFFFFFF AND CALLER PUSH20 0xFFFFFFFFFFFFFFFFFFFFFFFFFFFFFFFFFFFFFFFF AND EQ PUSH2 0x83F JUMPI PUSH1 0x40 MLOAD PUSH32 0x8C379A000000000000000000000000000000000000000000000000000000000 DUP2 MSTORE PUSH1 0x4 ADD PUSH2 0x836 SWAP1 PUSH2 0x1330 JUMP JUMPDEST PUSH1 0x40 MLOAD DUP1 SWAP2 SUB SWAP1 REVERT JUMPDEST PUSH1 0xC PUSH1 0x0 SWAP1 SLOAD SWAP1 PUSH2 0x100 EXP SWAP1 DIV PUSH1 0xFF AND ISZERO PUSH2 0x88F JUMPI PUSH1 0x40 MLOAD PUSH32 0x8C379A000000000000000000000000000000000000000000000000000000000 DUP2 MSTORE PUSH1 0x4 ADD PUSH2 0x886 SWAP1 PUSH2 0xFAA JUMP JUMPDEST PUSH1 0x40 MLOAD DUP1 SWAP2 SUB SWAP1 REVERT JUMPDEST PUSH1 0x2 SLOAD TIMESTAMP LT PUSH2 0x8D3 JUMPI PUSH1 0x40 MLOAD PUSH32 0x8C379A000000000000000000000000000000000000000000000000000000000 DUP2 MSTORE PUSH1 0x4 ADD PUSH2 0x8CA SWAP1 PUSH2 0xFAA JUMP JUMPDEST PUSH1 0x40 MLOAD DUP1 SWAP2 SUB SWAP1 REVERT JUMPDEST PUSH1 0x1 PUSH1 0xC PUSH1 0x0 PUSH2 0x100 EXP DUP2 SLOAD DUP2 PUSH1 0xFF MUL NOT AND SWAP1 DUP4 ISZERO ISZERO MUL OR SWAP1 SSTORE POP PUSH1 0x0 DUP1 PUSH1 0x0 SWAP1 SLOAD SWAP1 PUSH2 0x100 EXP SWAP1 DIV PUSH20 0xFFFFFFFFFFFFFFFFFFFFFFFFFFFFFFFFFFFFFFFF AND PUSH20 0xFFFFFFFFFFFFFFFFFFFFFFFFFFFFFFFFFFFFFFFF AND PUSH4 0x16E74F09 PUSH1 0x5 PUSH1 0x40 MLOAD DUP3 PUSH4 0xFFFFFFFF AND PUSH1 0xE0 SHL DUP2 MSTORE PUSH1 0x4 ADD PUSH2 0x94B SWAP2 SWAP1 PUSH2 0x145E JUMP JUMPDEST PUSH1 0x40 DUP1 MLOAD DUP1 DUP4 SUB DUP2 DUP7 GAS STATICCALL ISZERO DUP1 ISZERO PUSH2 0x967 JUMPI RETURNDATASIZE PUSH1 0x0 DUP1 RETURNDATACOPY RETURNDATASIZE PUSH1 0x0 REVERT JUMPDEST POP POP POP POP PUSH1 0x40 MLOAD RETURNDATASIZE PUSH1 0x1F NOT PUSH1 0x1F DUP3 ADD AND DUP3 ADD DUP1 PUSH1 0x40 MSTORE POP DUP2 ADD SWAP1 PUSH2 0x98B SWAP2 SWAP1 PUSH2 0x15DC JUMP JUMPDEST SWAP1 POP PUSH1 0x0 DUP2 PUSH1 0x0 PUSH1 0x2 DUP2 LT PUSH2 0x9A3 JUMPI PUSH2 0x9A2 PUSH2 0x1609 JUMP JUMPDEST JUMPDEST PUSH1 0x20 MUL ADD MLOAD SWAP1 POP PUSH1 0x0 DUP3 PUSH1 0x1 PUSH1 0x2 DUP2 LT PUSH2 0x9C0 JUMPI PUSH2 0x9BF PUSH2 0x1609 JUMP JUMPDEST JUMPDEST PUSH1 0x20 MUL ADD MLOAD SWAP1 POP PUSH1 0x0 PUSH1 0x9 PUSH1 0x0 DUP4 DUP2 MSTORE PUSH1 0x20 ADD SWAP1 DUP2 MSTORE PUSH1 0x20 ADD PUSH1 0x0 KECCAK256 PUSH1 0x0 SWAP1 SLOAD SWAP1 PUSH2 0x100 EXP SWAP1 DIV PUSH20 0xFFFFFFFFFFFFFFFFFFFFFFFFFFFFFFFFFFFFFFFF AND SWAP1 POP PUSH1 0x6 PUSH1 0x0 SWAP1 SLOAD SWAP1 PUSH2 0x100 EXP SWAP1 DIV PUSH20 0xFFFFFFFFFFFFFFFFFFFFFFFFFFFFFFFFFFFFFFFF AND PUSH20 0xFFFFFFFFFFFFFFFFFFFFFFFFFFFFFFFFFFFFFFFF AND PUSH4 0x23B872DD ADDRESS DUP4 DUP7 PUSH1 0xB SLOAD PUSH2 0xA4D SWAP2 SWAP1 PUSH2 0x1638 JUMP JUMPDEST PUSH1 0x40 MLOAD DUP5 PUSH4 0xFFFFFFFF AND PUSH1 0xE0 SHL DUP2 MSTORE PUSH1 0x4 ADD PUSH2 0xA6B SWAP4 SWAP3 SWAP2 SWAP1 PUSH2 0x1205 JUMP JUMPDEST PUSH1 0x20 PUSH1 0x40 MLOAD DUP1 DUP4 SUB DUP2 PUSH1 0x0 DUP8 GAS CALL ISZERO DUP1 ISZERO PUSH2 0xA8A JUMPI RETURNDATASIZE PUSH1 0x0 DUP1 RETURNDATACOPY RETURNDATASIZE PUSH1 0x0 REVERT JUMPDEST POP POP POP POP PUSH1 0x40 MLOAD RETURNDATASIZE PUSH1 0x1F NOT PUSH1 0x1F DUP3 ADD AND DUP3 ADD DUP1 PUSH1 0x40 MSTORE POP DUP2 ADD SWAP1 PUSH2 0xAAE SWAP2 SWAP1 PUSH2 0x1268 JUMP JUMPDEST POP PUSH1 0x7 PUSH1 0x0 SWAP1 SLOAD SWAP1 PUSH2 0x100 EXP SWAP1 DIV PUSH20 0xFFFFFFFFFFFFFFFFFFFFFFFFFFFFFFFFFFFFFFFF AND PUSH20 0xFFFFFFFFFFFFFFFFFFFFFFFFFFFFFFFFFFFFFFFF AND PUSH4 0xF242432A ADDRESS DUP4 PUSH1 0x8 SLOAD PUSH1 0x1 PUSH1 0x40 MLOAD DUP6 PUSH4 0xFFFFFFFF AND PUSH1 0xE0 SHL DUP2 MSTORE PUSH1 0x4 ADD PUSH2 0xB13 SWAP5 SWAP4 SWAP3 SWAP2 SWAP1 PUSH2 0x16DE JUMP JUMPDEST PUSH1 0x0 PUSH1 0x40 MLOAD DUP1 DUP4 SUB DUP2 PUSH1 0x0 DUP8 DUP1 EXTCODESIZE ISZERO DUP1 ISZERO PUSH2 0xB2D JUMPI PUSH1 0x0 DUP1 REVERT JUMPDEST POP GAS CALL ISZERO DUP1 ISZERO PUSH2 0xB41 JUMPI RETURNDATASIZE PUSH1 0x0 DUP1 RETURNDATACOPY RETURNDATASIZE PUSH1 0x0 REVERT JUMPDEST POP POP POP POP PUSH1 0x0 JUMPDEST PUSH1 0x4 SLOAD DUP2 LT ISZERO PUSH2 0xC6B JUMPI DUP3 DUP2 EQ PUSH2 0xC58 JUMPI PUSH1 0x0 PUSH1 0x9 PUSH1 0x0 DUP4 DUP2 MSTORE PUSH1 0x20 ADD SWAP1 DUP2 MSTORE PUSH1 0x20 ADD PUSH1 0x0 KECCAK256 PUSH1 0x0 SWAP1 SLOAD SWAP1 PUSH2 0x100 EXP SWAP1 DIV PUSH20 0xFFFFFFFFFFFFFFFFFFFFFFFFFFFFFFFFFFFFFFFF AND SWAP1 POP PUSH1 0x0 PUSH1 0x5 DUP4 DUP2 SLOAD DUP2 LT PUSH2 0xBA7 JUMPI PUSH2 0xBA6 PUSH2 0x1609 JUMP JUMPDEST JUMPDEST SWAP1 PUSH1 0x0 MSTORE PUSH1 0x20 PUSH1 0x0 KECCAK256 ADD SLOAD SWAP1 POP PUSH1 0x6 PUSH1 0x0 SWAP1 SLOAD SWAP1 PUSH2 0x100 EXP SWAP1 DIV PUSH20 0xFFFFFFFFFFFFFFFFFFFFFFFFFFFFFFFFFFFFFFFF AND PUSH20 0xFFFFFFFFFFFFFFFFFFFFFFFFFFFFFFFFFFFFFFFF AND PUSH4 0xA9059CBB DUP4 DUP4 PUSH1 0x40 MLOAD DUP4 PUSH4 0xFFFFFFFF AND PUSH1 0xE0 SHL DUP2 MSTORE PUSH1 0x4 ADD PUSH2 0xC11 SWAP3 SWAP2 SWAP1 PUSH2 0x1295 JUMP JUMPDEST PUSH1 0x20 PUSH1 0x40 MLOAD DUP1 DUP4 SUB DUP2 PUSH1 0x0 DUP8 GAS CALL ISZERO DUP1 ISZERO PUSH2 0xC30 JUMPI RETURNDATASIZE PUSH1 0x0 DUP1 RETURNDATACOPY RETURNDATASIZE PUSH1 0x0 REVERT JUMPDEST POP POP POP POP PUSH1 0x40 MLOAD RETURNDATASIZE PUSH1 0x1F NOT PUSH1 0x1F DUP3 ADD AND DUP3 ADD DUP1 PUSH1 0x40 MSTORE POP DUP2 ADD SWAP1 PUSH2 0xC54 SWAP2 SWAP1 PUSH2 0x1268 JUMP JUMPDEST POP POP POP JUMPDEST DUP1 DUP1 PUSH2 0xC63 SWAP1 PUSH2 0x11BD JUMP JUMPDEST SWAP2 POP POP PUSH2 0xB48 JUMP JUMPDEST POP PUSH32 0xC07789FAC136048B605FEF8E227AB89B2E33D8AFC9AB4817D374197CD81443D6 DUP4 DUP3 PUSH1 0x40 MLOAD PUSH2 0xC9D SWAP3 SWAP2 SWAP1 PUSH2 0x1736 JUMP JUMPDEST PUSH1 0x40 MLOAD DUP1 SWAP2 SUB SWAP1 LOG1 POP POP POP POP JUMP JUMPDEST PUSH1 0x0 PUSH1 0x40 MLOAD SWAP1 POP SWAP1 JUMP JUMPDEST PUSH1 0x0 DUP1 REVERT JUMPDEST PUSH1 0x0 PUSH20 0xFFFFFFFFFFFFFFFFFFFFFFFFFFFFFFFFFFFFFFFF DUP3 AND SWAP1 POP SWAP2 SWAP1 POP JUMP JUMPDEST PUSH1 0x0 PUSH2 0xCE5 DUP3 PUSH2 0xCBA JUMP JUMPDEST SWAP1 POP SWAP2 SWAP1 POP JUMP JUMPDEST PUSH2 0xCF5 DUP2 PUSH2 0xCDA JUMP JUMPDEST DUP2 EQ PUSH2 0xD00 JUMPI PUSH1 0x0 DUP1 REVERT JUMPDEST POP JUMP JUMPDEST PUSH1 0x0 DUP2 CALLDATALOAD SWAP1 POP PUSH2 0xD12 DUP2 PUSH2 0xCEC JUMP JUMPDEST SWAP3 SWAP2 POP POP JUMP JUMPDEST PUSH1 0x0 PUSH1 0x20 DUP3 DUP5 SUB SLT ISZERO PUSH2 0xD2E JUMPI PUSH2 0xD2D PUSH2 0xCB5 JUMP JUMPDEST JUMPDEST PUSH1 0x0 PUSH2 0xD3C DUP5 DUP3 DUP6 ADD PUSH2 0xD03 JUMP JUMPDEST SWAP2 POP POP SWAP3 SWAP2 POP POP JUMP JUMPDEST PUSH1 0x0 DUP2 SWAP1 POP SWAP2 SWAP1 POP JUMP JUMPDEST PUSH2 0xD58 DUP2 PUSH2 0xD45 JUMP JUMPDEST DUP3 MSTORE POP POP JUMP JUMPDEST PUSH1 0x0 DUP2 ISZERO ISZERO SWAP1 POP SWAP2 SWAP1 POP JUMP JUMPDEST PUSH2 0xD73 DUP2 PUSH2 0xD5E JUMP JUMPDEST DUP3 MSTORE POP POP JUMP JUMPDEST PUSH1 0x0 PUSH1 0x40 DUP3 ADD SWAP1 POP PUSH2 0xD8E PUSH1 0x0 DUP4 ADD DUP6 PUSH2 0xD4F JUMP JUMPDEST PUSH2 0xD9B PUSH1 0x20 DUP4 ADD DUP5 PUSH2 0xD6A JUMP JUMPDEST SWAP4 SWAP3 POP POP POP JUMP JUMPDEST PUSH1 0x0 PUSH1 0x20 DUP3 ADD SWAP1 POP PUSH2 0xDB7 PUSH1 0x0 DUP4 ADD DUP5 PUSH2 0xD6A JUMP JUMPDEST SWAP3 SWAP2 POP POP JUMP JUMPDEST PUSH1 0x0 DUP2 SWAP1 POP SWAP2 SWAP1 POP JUMP JUMPDEST PUSH1 0x0 PUSH2 0xDE2 PUSH2 0xDDD PUSH2 0xDD8 DUP5 PUSH2 0xCBA JUMP JUMPDEST PUSH2 0xDBD JUMP JUMPDEST PUSH2 0xCBA JUMP JUMPDEST SWAP1 POP SWAP2 SWAP1 POP JUMP JUMPDEST PUSH1 0x0 PUSH2 0xDF4 DUP3 PUSH2 0xDC7 JUMP JUMPDEST SWAP1 POP SWAP2 SWAP1 POP JUMP JUMPDEST PUSH1 0x0 PUSH2 0xE06 DUP3 PUSH2 0xDE9 JUMP JUMPDEST SWAP1 POP SWAP2 SWAP1 POP JUMP JUMPDEST PUSH2 0xE16 DUP2 PUSH2 0xDFB JUMP JUMPDEST DUP3 MSTORE POP POP JUMP JUMPDEST PUSH1 0x0 PUSH1 0x20 DUP3 ADD SWAP1 POP PUSH2 0xE31 PUSH1 0x0 DUP4 ADD DUP5 PUSH2 0xE0D JUMP JUMPDEST SWAP3 SWAP2 POP POP JUMP JUMPDEST PUSH1 0x0 PUSH1 0x20 DUP3 ADD SWAP1 POP PUSH2 0xE4C PUSH1 0x0 DUP4 ADD DUP5 PUSH2 0xD4F JUMP JUMPDEST SWAP3 SWAP2 POP POP JUMP JUMPDEST PUSH1 0x0 PUSH2 0xE5D DUP3 PUSH2 0xDE9 JUMP JUMPDEST SWAP1 POP SWAP2 SWAP1 POP JUMP JUMPDEST PUSH2 0xE6D DUP2 PUSH2 0xE52 JUMP JUMPDEST DUP3 MSTORE POP POP JUMP JUMPDEST PUSH1 0x0 PUSH1 0x20 DUP3 ADD SWAP1 POP PUSH2 0xE88 PUSH1 0x0 DUP4 ADD DUP5 PUSH2 0xE64 JUMP JUMPDEST SWAP3 SWAP2 POP POP JUMP JUMPDEST PUSH1 0x0 PUSH2 0xE99 DUP3 PUSH2 0xDE9 JUMP JUMPDEST SWAP1 POP SWAP2 SWAP1 POP JUMP JUMPDEST PUSH2 0xEA9 DUP2 PUSH2 0xE8E JUMP JUMPDEST DUP3 MSTORE POP POP JUMP JUMPDEST PUSH1 0x0 PUSH1 0x20 DUP3 ADD SWAP1 POP PUSH2 0xEC4 PUSH1 0x0 DUP4 ADD DUP5 PUSH2 0xEA0 JUMP JUMPDEST SWAP3 SWAP2 POP POP JUMP JUMPDEST PUSH2 0xED3 DUP2 PUSH2 0xCDA JUMP JUMPDEST DUP3 MSTORE POP POP JUMP JUMPDEST PUSH1 0x0 PUSH1 0x20 DUP3 ADD SWAP1 POP PUSH2 0xEEE PUSH1 0x0 DUP4 ADD DUP5 PUSH2 0xECA JUMP JUMPDEST SWAP3 SWAP2 POP POP JUMP JUMPDEST PUSH2 0xEFD DUP2 PUSH2 0xD45 JUMP JUMPDEST DUP2 EQ PUSH2 0xF08 JUMPI PUSH1 0x0 DUP1 REVERT JUMPDEST POP JUMP JUMPDEST PUSH1 0x0 DUP2 CALLDATALOAD SWAP1 POP PUSH2 0xF1A DUP2 PUSH2 0xEF4 JUMP JUMPDEST SWAP3 SWAP2 POP POP JUMP JUMPDEST PUSH1 0x0 PUSH1 0x20 DUP3 DUP5 SUB SLT ISZERO PUSH2 0xF36 JUMPI PUSH2 0xF35 PUSH2 0xCB5 JUMP JUMPDEST JUMPDEST PUSH1 0x0 PUSH2 0xF44 DUP5 DUP3 DUP6 ADD PUSH2 0xF0B JUMP JUMPDEST SWAP2 POP POP SWAP3 SWAP2 POP POP JUMP JUMPDEST PUSH1 0x0 DUP3 DUP3 MSTORE PUSH1 0x20 DUP3 ADD SWAP1 POP SWAP3 SWAP2 POP POP JUMP JUMPDEST PUSH32 0x41756374696F6E2068617320616C726561647920656E6465642E000000000000 PUSH1 0x0 DUP3 ADD MSTORE POP JUMP JUMPDEST PUSH1 0x0 PUSH2 0xF94 PUSH1 0x1A DUP4 PUSH2 0xF4D JUMP JUMPDEST SWAP2 POP PUSH2 0xF9F DUP3 PUSH2 0xF5E JUMP JUMPDEST PUSH1 0x20 DUP3 ADD SWAP1 POP SWAP2 SWAP1 POP JUMP JUMPDEST PUSH1 0x0 PUSH1 0x20 DUP3 ADD SWAP1 POP DUP2 DUP2 SUB PUSH1 0x0 DUP4 ADD MSTORE PUSH2 0xFC3 DUP2 PUSH2 0xF87 JUMP JUMPDEST SWAP1 POP SWAP2 SWAP1 POP JUMP JUMPDEST PUSH32 0x596F75206861766520616C7265616479206A6F696E6564207468652061756374 PUSH1 0x0 DUP3 ADD MSTORE PUSH32 0x696F6E2E00000000000000000000000000000000000000000000000000000000 PUSH1 0x20 DUP3 ADD MSTORE POP JUMP JUMPDEST PUSH1 0x0 PUSH2 0x1026 PUSH1 0x24 DUP4 PUSH2 0xF4D JUMP JUMPDEST SWAP2 POP PUSH2 0x1031 DUP3 PUSH2 0xFCA JUMP JUMPDEST PUSH1 0x40 DUP3 ADD SWAP1 POP SWAP2 SWAP1 POP JUMP JUMPDEST PUSH1 0x0 PUSH1 0x20 DUP3 ADD SWAP1 POP DUP2 DUP2 SUB PUSH1 0x0 DUP4 ADD MSTORE PUSH2 0x1055 DUP2 PUSH2 0x1019 JUMP JUMPDEST SWAP1 POP SWAP2 SWAP1 POP JUMP JUMPDEST PUSH32 0x41756374696F6E2069732066756C6C2E00000000000000000000000000000000 PUSH1 0x0 DUP3 ADD MSTORE POP JUMP JUMPDEST PUSH1 0x0 PUSH2 0x1092 PUSH1 0x10 DUP4 PUSH2 0xF4D JUMP JUMPDEST SWAP2 POP PUSH2 0x109D DUP3 PUSH2 0x105C JUMP JUMPDEST PUSH1 0x20 DUP3 ADD SWAP1 POP SWAP2 SWAP1 POP JUMP JUMPDEST PUSH1 0x0 PUSH1 0x20 DUP3 ADD SWAP1 POP DUP2 DUP2 SUB PUSH1 0x0 DUP4 ADD MSTORE PUSH2 0x10C1 DUP2 PUSH2 0x1085 JUMP JUMPDEST SWAP1 POP SWAP2 SWAP1 POP JUMP JUMPDEST PUSH32 0x5265736572766520616D6F756E74206D75737420626520677265617465722074 PUSH1 0x0 DUP3 ADD MSTORE PUSH32 0x68616E207A65726F2E0000000000000000000000000000000000000000000000 PUSH1 0x20 DUP3 ADD MSTORE POP JUMP JUMPDEST PUSH1 0x0 PUSH2 0x1124 PUSH1 0x29 DUP4 PUSH2 0xF4D JUMP JUMPDEST SWAP2 POP PUSH2 0x112F DUP3 PUSH2 0x10C8 JUMP JUMPDEST PUSH1 0x40 DUP3 ADD SWAP1 POP SWAP2 SWAP1 POP JUMP JUMPDEST PUSH1 0x0 PUSH1 0x20 DUP3 ADD SWAP1 POP DUP2 DUP2 SUB PUSH1 0x0 DUP4 ADD MSTORE PUSH2 0x1153 DUP2 PUSH2 0x1117 JUMP JUMPDEST SWAP1 POP SWAP2 SWAP1 POP JUMP JUMPDEST PUSH32 0x4E487B7100000000000000000000000000000000000000000000000000000000 PUSH1 0x0 MSTORE PUSH1 0x11 PUSH1 0x4 MSTORE PUSH1 0x24 PUSH1 0x0 REVERT JUMPDEST PUSH1 0x0 PUSH2 0x1194 DUP3 PUSH2 0xD45 JUMP JUMPDEST SWAP2 POP PUSH2 0x119F DUP4 PUSH2 0xD45 JUMP JUMPDEST SWAP3 POP DUP3 DUP3 ADD SWAP1 POP DUP1 DUP3 GT ISZERO PUSH2 0x11B7 JUMPI PUSH2 0x11B6 PUSH2 0x115A JUMP JUMPDEST JUMPDEST SWAP3 SWAP2 POP POP JUMP JUMPDEST PUSH1 0x0 PUSH2 0x11C8 DUP3 PUSH2 0xD45 JUMP JUMPDEST SWAP2 POP PUSH32 0xFFFFFFFFFFFFFFFFFFFFFFFFFFFFFFFFFFFFFFFFFFFFFFFFFFFFFFFFFFFFFFFF DUP3 SUB PUSH2 0x11FA JUMPI PUSH2 0x11F9 PUSH2 0x115A JUMP JUMPDEST JUMPDEST PUSH1 0x1 DUP3 ADD SWAP1 POP SWAP2 SWAP1 POP JUMP JUMPDEST PUSH1 0x0 PUSH1 0x60 DUP3 ADD SWAP1 POP PUSH2 0x121A PUSH1 0x0 DUP4 ADD DUP7 PUSH2 0xECA JUMP JUMPDEST PUSH2 0x1227 PUSH1 0x20 DUP4 ADD DUP6 PUSH2 0xECA JUMP JUMPDEST PUSH2 0x1234 PUSH1 0x40 DUP4 ADD DUP5 PUSH2 0xD4F JUMP JUMPDEST SWAP5 SWAP4 POP POP POP POP JUMP JUMPDEST PUSH2 0x1245 DUP2 PUSH2 0xD5E JUMP JUMPDEST DUP2 EQ PUSH2 0x1250 JUMPI PUSH1 0x0 DUP1 REVERT JUMPDEST POP JUMP JUMPDEST PUSH1 0x0 DUP2 MLOAD SWAP1 POP PUSH2 0x1262 DUP2 PUSH2 0x123C JUMP JUMPDEST SWAP3 SWAP2 POP POP JUMP JUMPDEST PUSH1 0x0 PUSH1 0x20 DUP3 DUP5 SUB SLT ISZERO PUSH2 0x127E JUMPI PUSH2 0x127D PUSH2 0xCB5 JUMP JUMPDEST JUMPDEST PUSH1 0x0 PUSH2 0x128C DUP5 DUP3 DUP6 ADD PUSH2 0x1253 JUMP JUMPDEST SWAP2 POP POP SWAP3 SWAP2 POP POP JUMP JUMPDEST PUSH1 0x0 PUSH1 0x40 DUP3 ADD SWAP1 POP PUSH2 0x12AA PUSH1 0x0 DUP4 ADD DUP6 PUSH2 0xECA JUMP JUMPDEST PUSH2 0x12B7 PUSH1 0x20 DUP4 ADD DUP5 PUSH2 0xD4F JUMP JUMPDEST SWAP4 SWAP3 POP POP POP JUMP JUMPDEST PUSH32 0x4F6E6C7920746865206F776E65722063616E2063616C6C20746869732066756E PUSH1 0x0 DUP3 ADD MSTORE PUSH32 0x6374696F6E2E0000000000000000000000000000000000000000000000000000 PUSH1 0x20 DUP3 ADD MSTORE POP JUMP JUMPDEST PUSH1 0x0 PUSH2 0x131A PUSH1 0x26 DUP4 PUSH2 0xF4D JUMP JUMPDEST SWAP2 POP PUSH2 0x1325 DUP3 PUSH2 0x12BE JUMP JUMPDEST PUSH1 0x40 DUP3 ADD SWAP1 POP SWAP2 SWAP1 POP JUMP JUMPDEST PUSH1 0x0 PUSH1 0x20 DUP3 ADD SWAP1 POP DUP2 DUP2 SUB PUSH1 0x0 DUP4 ADD MSTORE PUSH2 0x1349 DUP2 PUSH2 0x130D JUMP JUMPDEST SWAP1 POP SWAP2 SWAP1 POP JUMP JUMPDEST PUSH1 0x0 DUP2 SLOAD SWAP1 POP SWAP2 SWAP1 POP JUMP JUMPDEST PUSH1 0x0 DUP3 DUP3 MSTORE PUSH1 0x20 DUP3 ADD SWAP1 POP SWAP3 SWAP2 POP POP JUMP JUMPDEST PUSH1 0x0 DUP2 SWAP1 POP DUP2 PUSH1 0x0 MSTORE PUSH1 0x20 PUSH1 0x0 KECCAK256 SWAP1 POP SWAP2 SWAP1 POP JUMP JUMPDEST PUSH2 0x138A DUP2 PUSH2 0xD45 JUMP JUMPDEST DUP3 MSTORE POP POP JUMP JUMPDEST PUSH1 0x0 PUSH2 0x139C DUP4 DUP4 PUSH2 0x1381 JUMP JUMPDEST PUSH1 0x20 DUP4 ADD SWAP1 POP SWAP3 SWAP2 POP POP JUMP JUMPDEST PUSH1 0x0 DUP2 PUSH1 0x0 SHR SWAP1 POP SWAP2 SWAP1 POP JUMP JUMPDEST PUSH1 0x0 DUP2 SWAP1 POP SWAP2 SWAP1 POP JUMP JUMPDEST PUSH1 0x0 PUSH2 0x13D2 PUSH2 0x13CD DUP4 PUSH2 0x13A8 JUMP JUMPDEST PUSH2 0x13B5 JUMP JUMPDEST SWAP1 POP SWAP2 SWAP1 POP JUMP JUMPDEST PUSH1 0x0 PUSH2 0x13E5 DUP3 SLOAD PUSH2 0x13BF JUMP JUMPDEST SWAP1 POP SWAP2 SWAP1 POP JUMP JUMPDEST PUSH1 0x0 PUSH1 0x1 DUP3 ADD SWAP1 POP SWAP2 SWAP1 POP JUMP JUMPDEST PUSH1 0x0 PUSH2 0x1404 DUP3 PUSH2 0x1350 JUMP JUMPDEST PUSH2 0x140E DUP2 DUP6 PUSH2 0x135B JUMP JUMPDEST SWAP4 POP PUSH2 0x1419 DUP4 PUSH2 0x136C JUMP JUMPDEST DUP1 PUSH1 0x0 JUMPDEST DUP4 DUP2 LT ISZERO PUSH2 0x1451 JUMPI PUSH2 0x142E DUP3 PUSH2 0x13D9 JUMP JUMPDEST PUSH2 0x1438 DUP9 DUP3 PUSH2 0x1390 JUMP JUMPDEST SWAP8 POP PUSH2 0x1443 DUP4 PUSH2 0x13EC JUMP JUMPDEST SWAP3 POP POP PUSH1 0x1 DUP2 ADD SWAP1 POP PUSH2 0x141D JUMP JUMPDEST POP DUP6 SWAP4 POP POP POP POP SWAP3 SWAP2 POP POP JUMP JUMPDEST PUSH1 0x0 PUSH1 0x20 DUP3 ADD SWAP1 POP DUP2 DUP2 SUB PUSH1 0x0 DUP4 ADD MSTORE PUSH2 0x1478 DUP2 DUP5 PUSH2 0x13F9 JUMP JUMPDEST SWAP1 POP SWAP3 SWAP2 POP POP JUMP JUMPDEST PUSH1 0x0 DUP1 REVERT JUMPDEST PUSH1 0x0 PUSH1 0x1F NOT PUSH1 0x1F DUP4 ADD AND SWAP1 POP SWAP2 SWAP1 POP JUMP JUMPDEST PUSH32 0x4E487B7100000000000000000000000000000000000000000000000000000000 PUSH1 0x0 MSTORE PUSH1 0x41 PUSH1 0x4 MSTORE PUSH1 0x24 PUSH1 0x0 REVERT JUMPDEST PUSH2 0x14CE DUP3 PUSH2 0x1485 JUMP JUMPDEST DUP2 ADD DUP2 DUP2 LT PUSH8 0xFFFFFFFFFFFFFFFF DUP3 GT OR ISZERO PUSH2 0x14ED JUMPI PUSH2 0x14EC PUSH2 0x1496 JUMP JUMPDEST JUMPDEST DUP1 PUSH1 0x40 MSTORE POP POP POP JUMP JUMPDEST PUSH1 0x0 PUSH2 0x1500 PUSH2 0xCAB JUMP JUMPDEST SWAP1 POP PUSH2 0x150C DUP3 DUP3 PUSH2 0x14C5 JUMP JUMPDEST SWAP2 SWAP1 POP JUMP JUMPDEST PUSH1 0x0 PUSH8 0xFFFFFFFFFFFFFFFF DUP3 GT ISZERO PUSH2 0x152C JUMPI PUSH2 0x152B PUSH2 0x1496 JUMP JUMPDEST JUMPDEST PUSH1 0x20 DUP3 MUL SWAP1 POP SWAP2 SWAP1 POP JUMP JUMPDEST PUSH1 0x0 DUP1 REVERT JUMPDEST PUSH1 0x0 DUP2 MLOAD SWAP1 POP PUSH2 0x154B DUP2 PUSH2 0xEF4 JUMP JUMPDEST SWAP3 SWAP2 POP POP JUMP JUMPDEST PUSH1 0x0 PUSH2 0x1564 PUSH2 0x155F DUP5 PUSH2 0x1511 JUMP JUMPDEST PUSH2 0x14F6 JUMP JUMPDEST SWAP1 POP DUP1 PUSH1 0x20 DUP5 MUL DUP4 ADD DUP6 DUP2 GT ISZERO PUSH2 0x157E JUMPI PUSH2 0x157D PUSH2 0x1537 JUMP JUMPDEST JUMPDEST DUP4 JUMPDEST DUP2 DUP2 LT ISZERO PUSH2 0x15A7 JUMPI DUP1 PUSH2 0x1593 DUP9 DUP3 PUSH2 0x153C JUMP JUMPDEST DUP5 MSTORE PUSH1 0x20 DUP5 ADD SWAP4 POP POP PUSH1 0x20 DUP2 ADD SWAP1 POP PUSH2 0x1580 JUMP JUMPDEST POP POP POP SWAP4 SWAP3 POP POP POP JUMP JUMPDEST PUSH1 0x0 DUP3 PUSH1 0x1F DUP4 ADD SLT PUSH2 0x15C6 JUMPI PUSH2 0x15C5 PUSH2 0x1480 JUMP JUMPDEST JUMPDEST PUSH1 0x2 PUSH2 0x15D3 DUP5 DUP3 DUP6 PUSH2 0x1551 JUMP JUMPDEST SWAP2 POP POP SWAP3 SWAP2 POP POP JUMP JUMPDEST PUSH1 0x0 PUSH1 0x40 DUP3 DUP5 SUB SLT ISZERO PUSH2 0x15F2 JUMPI PUSH2 0x15F1 PUSH2 0xCB5 JUMP JUMPDEST JUMPDEST PUSH1 0x0 PUSH2 0x1600 DUP5 DUP3 DUP6 ADD PUSH2 0x15B1 JUMP JUMPDEST SWAP2 POP POP SWAP3 SWAP2 POP POP JUMP JUMPDEST PUSH32 0x4E487B7100000000000000000000000000000000000000000000000000000000 PUSH1 0x0 MSTORE PUSH1 0x32 PUSH1 0x4 MSTORE PUSH1 0x24 PUSH1 0x0 REVERT JUMPDEST PUSH1 0x0 PUSH2 0x1643 DUP3 PUSH2 0xD45 JUMP JUMPDEST SWAP2 POP PUSH2 0x164E DUP4 PUSH2 0xD45 JUMP JUMPDEST SWAP3 POP DUP3 DUP3 SUB SWAP1 POP DUP2 DUP2 GT ISZERO PUSH2 0x1666 JUMPI PUSH2 0x1665 PUSH2 0x115A JUMP JUMPDEST JUMPDEST SWAP3 SWAP2 POP POP JUMP JUMPDEST PUSH1 0x0 DUP2 SWAP1 POP SWAP2 SWAP1 POP JUMP JUMPDEST PUSH1 0x0 PUSH2 0x1691 PUSH2 0x168C PUSH2 0x1687 DUP5 PUSH2 0x166C JUMP JUMPDEST PUSH2 0xDBD JUMP JUMPDEST PUSH2 0xD45 JUMP JUMPDEST SWAP1 POP SWAP2 SWAP1 POP JUMP JUMPDEST PUSH2 0x16A1 DUP2 PUSH2 0x1676 JUMP JUMPDEST DUP3 MSTORE POP POP JUMP JUMPDEST PUSH1 0x0 DUP3 DUP3 MSTORE PUSH1 0x20 DUP3 ADD SWAP1 POP SWAP3 SWAP2 POP POP JUMP JUMPDEST POP JUMP JUMPDEST PUSH1 0x0 PUSH2 0x16C8 PUSH1 0x0 DUP4 PUSH2 0x16A7 JUMP JUMPDEST SWAP2 POP PUSH2 0x16D3 DUP3 PUSH2 0x16B8 JUMP JUMPDEST PUSH1 0x0 DUP3 ADD SWAP1 POP SWAP2 SWAP1 POP JUMP JUMPDEST PUSH1 0x0 PUSH1 0xA0 DUP3 ADD SWAP1 POP PUSH2 0x16F3 PUSH1 0x0 DUP4 ADD DUP8 PUSH2 0xECA JUMP JUMPDEST PUSH2 0x1700 PUSH1 0x20 DUP4 ADD DUP7 PUSH2 0xECA JUMP JUMPDEST PUSH2 0x170D PUSH1 0x40 DUP4 ADD DUP6 PUSH2 0xD4F JUMP JUMPDEST PUSH2 0x171A PUSH1 0x60 DUP4 ADD DUP5 PUSH2 0x1698 JUMP JUMPDEST DUP2 DUP2 SUB PUSH1 0x80 DUP4 ADD MSTORE PUSH2 0x172B DUP2 PUSH2 0x16BB JUMP JUMPDEST SWAP1 POP SWAP6 SWAP5 POP POP POP POP POP JUMP JUMPDEST PUSH1 0x0 PUSH1 0x40 DUP3 ADD SWAP1 POP PUSH2 0x174B PUSH1 0x0 DUP4 ADD DUP6 PUSH2 0xD4F JUMP JUMPDEST PUSH2 0x1758 PUSH1 0x20 DUP4 ADD DUP5 PUSH2 0xECA JUMP JUMPDEST SWAP4 SWAP3 POP POP POP JUMP INVALID LOG2 PUSH5 0x6970667358 0x22 SLT KECCAK256 JUMPDEST 0xD0 PUSH8 0xD6FFDCF64A90D6E GAS 0xB0 ADDMOD 0x4C 0xC0 AND SMOD 0x4A 0xA7 LOG2 SWAP7 SSTORE GAS SWAP10 0xE5 DUP10 JUMPDEST 0xDD SWAP5 0x5D 0xEB PUSH5 0x736F6C6343 STOP ADDMOD SLT STOP CALLER "
				},
				"gasEstimates": {
					"creation": {
						"codeDepositCost": "1207400",
						"executionCost": "infinite",
						"totalCost": "infinite"
					},
					"external": {
						"auctionEndTime()": "2496",
						"coinToken()": "infinite",
						"endAuction()": "infinite",
						"ended()": "2517",
						"erc1155Token()": "infinite",
						"erc1155TokenId()": "2474",
						"getTotalReserve()": "2481",
						"joinAuction(uint256)": "infinite",
						"maxParticipants()": "2452",
						"owner()": "2603",
						"participantCount()": "2474",
						"participants(address)": "5106",
						"reserveAmounts(uint256)": "infinite",
						"totalReserve()": "2518",
						"winnerDeterminationInstance()": "infinite"
					}
				},
				"methodIdentifiers": {
					"auctionEndTime()": "4b449cba",
					"coinToken()": "58797cb6",
					"endAuction()": "fe67a54b",
					"ended()": "12fa6feb",
					"erc1155Token()": "21f42268",
					"erc1155TokenId()": "637a6687",
					"getTotalReserve()": "ec022918",
					"joinAuction(uint256)": "f0194f89",
					"maxParticipants()": "24924bf7",
					"owner()": "8da5cb5b",
					"participantCount()": "362f04c0",
					"participants(address)": "09e69ede",
					"reserveAmounts(uint256)": "e537213e",
					"totalReserve()": "4c68df67",
					"winnerDeterminationInstance()": "67a555d8"
				}
			},
			"storageLayout": {
				"storage": [
					{
						"astId": 219,
						"contract": "contracts/Auction.sol:Auction",
						"label": "winnerDeterminationInstance",
						"offset": 0,
						"slot": "0",
						"type": "t_contract(WinnerDetermination)659"
					},
					{
						"astId": 221,
						"contract": "contracts/Auction.sol:Auction",
						"label": "owner",
						"offset": 0,
						"slot": "1",
						"type": "t_address"
					},
					{
						"astId": 223,
						"contract": "contracts/Auction.sol:Auction",
						"label": "auctionEndTime",
						"offset": 0,
						"slot": "2",
						"type": "t_uint256"
					},
					{
						"astId": 225,
						"contract": "contracts/Auction.sol:Auction",
						"label": "maxParticipants",
						"offset": 0,
						"slot": "3",
						"type": "t_uint256"
					},
					{
						"astId": 227,
						"contract": "contracts/Auction.sol:Auction",
						"label": "participantCount",
						"offset": 0,
						"slot": "4",
						"type": "t_uint256"
					},
					{
						"astId": 230,
						"contract": "contracts/Auction.sol:Auction",
						"label": "reserveAmounts",
						"offset": 0,
						"slot": "5",
						"type": "t_array(t_uint256)dyn_storage"
					},
					{
						"astId": 233,
						"contract": "contracts/Auction.sol:Auction",
						"label": "coinToken",
						"offset": 0,
						"slot": "6",
						"type": "t_contract(IERC20)199"
					},
					{
						"astId": 236,
						"contract": "contracts/Auction.sol:Auction",
						"label": "erc1155Token",
						"offset": 0,
						"slot": "7",
						"type": "t_contract(IERC1155)121"
					},
					{
						"astId": 238,
						"contract": "contracts/Auction.sol:Auction",
						"label": "erc1155TokenId",
						"offset": 0,
						"slot": "8",
						"type": "t_uint256"
					},
					{
						"astId": 247,
						"contract": "contracts/Auction.sol:Auction",
						"label": "addressAtIndex",
						"offset": 0,
						"slot": "9",
						"type": "t_mapping(t_uint256,t_address)"
					},
					{
						"astId": 252,
						"contract": "contracts/Auction.sol:Auction",
						"label": "participants",
						"offset": 0,
						"slot": "10",
						"type": "t_mapping(t_address,t_struct(Participant)243_storage)"
					},
					{
						"astId": 254,
						"contract": "contracts/Auction.sol:Auction",
						"label": "totalReserve",
						"offset": 0,
						"slot": "11",
						"type": "t_uint256"
					},
					{
						"astId": 256,
						"contract": "contracts/Auction.sol:Auction",
						"label": "ended",
						"offset": 0,
						"slot": "12",
						"type": "t_bool"
					}
				],
				"types": {
					"t_address": {
						"encoding": "inplace",
						"label": "address",
						"numberOfBytes": "20"
					},
					"t_array(t_uint256)dyn_storage": {
						"base": "t_uint256",
						"encoding": "dynamic_array",
						"label": "uint256[]",
						"numberOfBytes": "32"
					},
					"t_bool": {
						"encoding": "inplace",
						"label": "bool",
						"numberOfBytes": "1"
					},
					"t_contract(IERC1155)121": {
						"encoding": "inplace",
						"label": "contract IERC1155",
						"numberOfBytes": "20"
					},
					"t_contract(IERC20)199": {
						"encoding": "inplace",
						"label": "contract IERC20",
						"numberOfBytes": "20"
					},
					"t_contract(WinnerDetermination)659": {
						"encoding": "inplace",
						"label": "contract WinnerDetermination",
						"numberOfBytes": "20"
					},
					"t_mapping(t_address,t_struct(Participant)243_storage)": {
						"encoding": "mapping",
						"key": "t_address",
						"label": "mapping(address => struct Auction.Participant)",
						"numberOfBytes": "32",
						"value": "t_struct(Participant)243_storage"
					},
					"t_mapping(t_uint256,t_address)": {
						"encoding": "mapping",
						"key": "t_uint256",
						"label": "mapping(uint256 => address)",
						"numberOfBytes": "32",
						"value": "t_address"
					},
					"t_struct(Participant)243_storage": {
						"encoding": "inplace",
						"label": "struct Auction.Participant",
						"members": [
							{
								"astId": 240,
								"contract": "contracts/Auction.sol:Auction",
								"label": "reserveAmount",
								"offset": 0,
								"slot": "0",
								"type": "t_uint256"
							},
							{
								"astId": 242,
								"contract": "contracts/Auction.sol:Auction",
								"label": "active",
								"offset": 0,
								"slot": "1",
								"type": "t_bool"
							}
						],
						"numberOfBytes": "64"
					},
					"t_uint256": {
						"encoding": "inplace",
						"label": "uint256",
						"numberOfBytes": "32"
					}
				}
			},
			"userdoc": {
				"kind": "user",
				"methods": {},
				"version": 1
			}
		}
	}
}