{
	"contracts/auction.sol": {
		"Auction": {
			"abi": [
				{
					"inputs": [
						{
							"internalType": "address",
							"name": "_coinToken",
							"type": "address"
						},
						{
							"internalType": "uint256",
							"name": "_duration",
							"type": "uint256"
						},
						{
							"internalType": "uint256",
							"name": "_maxParticipants",
							"type": "uint256"
						}
					],
					"stateMutability": "nonpayable",
					"type": "constructor"
				},
				{
					"anonymous": false,
					"inputs": [],
					"name": "AuctionEnded",
					"type": "event"
				},
				{
					"anonymous": false,
					"inputs": [
						{
							"indexed": false,
							"internalType": "address",
							"name": "participant",
							"type": "address"
						},
						{
							"indexed": false,
							"internalType": "uint256",
							"name": "reserveAmount",
							"type": "uint256"
						}
					],
					"name": "ParticipantJoined",
					"type": "event"
				},
				{
					"inputs": [],
					"name": "auctionEndTime",
					"outputs": [
						{
							"internalType": "uint256",
							"name": "",
							"type": "uint256"
						}
					],
					"stateMutability": "view",
					"type": "function"
				},
				{
					"inputs": [],
					"name": "coinToken",
					"outputs": [
						{
							"internalType": "contract IERC20",
							"name": "",
							"type": "address"
						}
					],
					"stateMutability": "view",
					"type": "function"
				},
				{
					"inputs": [],
					"name": "endAuction",
					"outputs": [],
					"stateMutability": "nonpayable",
					"type": "function"
				},
				{
					"inputs": [],
					"name": "ended",
					"outputs": [
						{
							"internalType": "bool",
							"name": "",
							"type": "bool"
						}
					],
					"stateMutability": "view",
					"type": "function"
				},
				{
					"inputs": [],
					"name": "getTotalReserve",
					"outputs": [
						{
							"internalType": "uint256",
							"name": "",
							"type": "uint256"
						}
					],
					"stateMutability": "view",
					"type": "function"
				},
				{
					"inputs": [
						{
							"internalType": "uint256",
							"name": "reserveAmount",
							"type": "uint256"
						}
					],
					"name": "joinAuction",
					"outputs": [],
					"stateMutability": "nonpayable",
					"type": "function"
				},
				{
					"inputs": [],
					"name": "maxParticipants",
					"outputs": [
						{
							"internalType": "uint256",
							"name": "",
							"type": "uint256"
						}
					],
					"stateMutability": "view",
					"type": "function"
				},
				{
					"inputs": [],
					"name": "owner",
					"outputs": [
						{
							"internalType": "address",
							"name": "",
							"type": "address"
						}
					],
					"stateMutability": "view",
					"type": "function"
				},
				{
					"inputs": [],
					"name": "participantCount",
					"outputs": [
						{
							"internalType": "uint256",
							"name": "",
							"type": "uint256"
						}
					],
					"stateMutability": "view",
					"type": "function"
				},
				{
					"inputs": [
						{
							"internalType": "address",
							"name": "",
							"type": "address"
						}
					],
					"name": "participants",
					"outputs": [
						{
							"internalType": "uint256",
							"name": "reserveAmount",
							"type": "uint256"
						},
						{
							"internalType": "bool",
							"name": "active",
							"type": "bool"
						}
					],
					"stateMutability": "view",
					"type": "function"
				},
				{
					"inputs": [],
					"name": "totalReserve",
					"outputs": [
						{
							"internalType": "uint256",
							"name": "",
							"type": "uint256"
						}
					],
					"stateMutability": "view",
					"type": "function"
				}
			],
			"devdoc": {
				"kind": "dev",
				"methods": {},
				"version": 1
			},
			"evm": {
				"assembly": "    /* \"contracts/auction.sol\":120:2112  contract Auction {... */\n  mstore(0x40, 0x80)\n    /* \"contracts/auction.sol\":949:1205  constructor(address _coinToken, uint256 _duration, uint256 _maxParticipants) {... */\n  callvalue\n  dup1\n  iszero\n  tag_1\n  jumpi\n  0x00\n  dup1\n  revert\ntag_1:\n  pop\n  mload(0x40)\n  sub(codesize, bytecodeSize)\n  dup1\n  bytecodeSize\n  dup4\n  codecopy\n  dup2\n  dup2\n  add\n  0x40\n  mstore\n  dup2\n  add\n  swap1\n  tag_2\n  swap2\n  swap1\n  tag_3\n  jump\t// in\ntag_2:\n    /* \"contracts/auction.sol\":1045:1055  msg.sender */\n  caller\n    /* \"contracts/auction.sol\":1037:1042  owner */\n  0x00\n  dup1\n    /* \"contracts/auction.sol\":1037:1055  owner = msg.sender */\n  0x0100\n  exp\n  dup2\n  sload\n  dup2\n  0xffffffffffffffffffffffffffffffffffffffff\n  mul\n  not\n  and\n  swap1\n  dup4\n  0xffffffffffffffffffffffffffffffffffffffff\n  and\n  mul\n  or\n  swap1\n  sstore\n  pop\n    /* \"contracts/auction.sol\":1085:1095  _coinToken */\n  dup3\n    /* \"contracts/auction.sol\":1066:1075  coinToken */\n  0x04\n  0x00\n    /* \"contracts/auction.sol\":1066:1096  coinToken = IERC20(_coinToken) */\n  0x0100\n  exp\n  dup2\n  sload\n  dup2\n  0xffffffffffffffffffffffffffffffffffffffff\n  mul\n  not\n  and\n  swap1\n  dup4\n  0xffffffffffffffffffffffffffffffffffffffff\n  and\n  mul\n  or\n  swap1\n  sstore\n  pop\n    /* \"contracts/auction.sol\":1143:1152  _duration */\n  dup2\n    /* \"contracts/auction.sol\":1125:1140  block.timestamp */\n  timestamp\n    /* \"contracts/auction.sol\":1125:1152  block.timestamp + _duration */\n  tag_6\n  swap2\n  swap1\n  tag_7\n  jump\t// in\ntag_6:\n    /* \"contracts/auction.sol\":1108:1122  auctionEndTime */\n  0x01\n    /* \"contracts/auction.sol\":1108:1152  auctionEndTime = block.timestamp + _duration */\n  dup2\n  swap1\n  sstore\n  pop\n    /* \"contracts/auction.sol\":1181:1197  _maxParticipants */\n  dup1\n    /* \"contracts/auction.sol\":1163:1178  maxParticipants */\n  0x02\n    /* \"contracts/auction.sol\":1163:1197  maxParticipants = _maxParticipants */\n  dup2\n  swap1\n  sstore\n  pop\n    /* \"contracts/auction.sol\":949:1205  constructor(address _coinToken, uint256 _duration, uint256 _maxParticipants) {... */\n  pop\n  pop\n  pop\n    /* \"contracts/auction.sol\":120:2112  contract Auction {... */\n  jump(tag_8)\n    /* \"#utility.yul\":88:205   */\ntag_10:\n    /* \"#utility.yul\":197:198   */\n  0x00\n    /* \"#utility.yul\":194:195   */\n  dup1\n    /* \"#utility.yul\":187:199   */\n  revert\n    /* \"#utility.yul\":334:460   */\ntag_12:\n    /* \"#utility.yul\":371:378   */\n  0x00\n    /* \"#utility.yul\":411:453   */\n  0xffffffffffffffffffffffffffffffffffffffff\n    /* \"#utility.yul\":404:409   */\n  dup3\n    /* \"#utility.yul\":400:454   */\n  and\n    /* \"#utility.yul\":389:454   */\n  swap1\n  pop\n    /* \"#utility.yul\":334:460   */\n  swap2\n  swap1\n  pop\n  jump\t// out\n    /* \"#utility.yul\":466:562   */\ntag_13:\n    /* \"#utility.yul\":503:510   */\n  0x00\n    /* \"#utility.yul\":532:556   */\n  tag_26\n    /* \"#utility.yul\":550:555   */\n  dup3\n    /* \"#utility.yul\":532:556   */\n  tag_12\n  jump\t// in\ntag_26:\n    /* \"#utility.yul\":521:556   */\n  swap1\n  pop\n    /* \"#utility.yul\":466:562   */\n  swap2\n  swap1\n  pop\n  jump\t// out\n    /* \"#utility.yul\":568:690   */\ntag_14:\n    /* \"#utility.yul\":641:665   */\n  tag_28\n    /* \"#utility.yul\":659:664   */\n  dup2\n    /* \"#utility.yul\":641:665   */\n  tag_13\n  jump\t// in\ntag_28:\n    /* \"#utility.yul\":634:639   */\n  dup2\n    /* \"#utility.yul\":631:666   */\n  eq\n    /* \"#utility.yul\":621:684   */\n  tag_29\n  jumpi\n    /* \"#utility.yul\":680:681   */\n  0x00\n    /* \"#utility.yul\":677:678   */\n  dup1\n    /* \"#utility.yul\":670:682   */\n  revert\n    /* \"#utility.yul\":621:684   */\ntag_29:\n    /* \"#utility.yul\":568:690   */\n  pop\n  jump\t// out\n    /* \"#utility.yul\":696:839   */\ntag_15:\n    /* \"#utility.yul\":753:758   */\n  0x00\n    /* \"#utility.yul\":784:790   */\n  dup2\n    /* \"#utility.yul\":778:791   */\n  mload\n    /* \"#utility.yul\":769:791   */\n  swap1\n  pop\n    /* \"#utility.yul\":800:833   */\n  tag_31\n    /* \"#utility.yul\":827:832   */\n  dup2\n    /* \"#utility.yul\":800:833   */\n  tag_14\n  jump\t// in\ntag_31:\n    /* \"#utility.yul\":696:839   */\n  swap3\n  swap2\n  pop\n  pop\n  jump\t// out\n    /* \"#utility.yul\":845:922   */\ntag_16:\n    /* \"#utility.yul\":882:889   */\n  0x00\n    /* \"#utility.yul\":911:916   */\n  dup2\n    /* \"#utility.yul\":900:916   */\n  swap1\n  pop\n    /* \"#utility.yul\":845:922   */\n  swap2\n  swap1\n  pop\n  jump\t// out\n    /* \"#utility.yul\":928:1050   */\ntag_17:\n    /* \"#utility.yul\":1001:1025   */\n  tag_34\n    /* \"#utility.yul\":1019:1024   */\n  dup2\n    /* \"#utility.yul\":1001:1025   */\n  tag_16\n  jump\t// in\ntag_34:\n    /* \"#utility.yul\":994:999   */\n  dup2\n    /* \"#utility.yul\":991:1026   */\n  eq\n    /* \"#utility.yul\":981:1044   */\n  tag_35\n  jumpi\n    /* \"#utility.yul\":1040:1041   */\n  0x00\n    /* \"#utility.yul\":1037:1038   */\n  dup1\n    /* \"#utility.yul\":1030:1042   */\n  revert\n    /* \"#utility.yul\":981:1044   */\ntag_35:\n    /* \"#utility.yul\":928:1050   */\n  pop\n  jump\t// out\n    /* \"#utility.yul\":1056:1199   */\ntag_18:\n    /* \"#utility.yul\":1113:1118   */\n  0x00\n    /* \"#utility.yul\":1144:1150   */\n  dup2\n    /* \"#utility.yul\":1138:1151   */\n  mload\n    /* \"#utility.yul\":1129:1151   */\n  swap1\n  pop\n    /* \"#utility.yul\":1160:1193   */\n  tag_37\n    /* \"#utility.yul\":1187:1192   */\n  dup2\n    /* \"#utility.yul\":1160:1193   */\n  tag_17\n  jump\t// in\ntag_37:\n    /* \"#utility.yul\":1056:1199   */\n  swap3\n  swap2\n  pop\n  pop\n  jump\t// out\n    /* \"#utility.yul\":1205:1868   */\ntag_3:\n    /* \"#utility.yul\":1293:1299   */\n  0x00\n    /* \"#utility.yul\":1301:1307   */\n  dup1\n    /* \"#utility.yul\":1309:1315   */\n  0x00\n    /* \"#utility.yul\":1358:1360   */\n  0x60\n    /* \"#utility.yul\":1346:1355   */\n  dup5\n    /* \"#utility.yul\":1337:1344   */\n  dup7\n    /* \"#utility.yul\":1333:1356   */\n  sub\n    /* \"#utility.yul\":1329:1361   */\n  slt\n    /* \"#utility.yul\":1326:1445   */\n  iszero\n  tag_39\n  jumpi\n    /* \"#utility.yul\":1364:1443   */\n  tag_40\n  tag_10\n  jump\t// in\ntag_40:\n    /* \"#utility.yul\":1326:1445   */\ntag_39:\n    /* \"#utility.yul\":1484:1485   */\n  0x00\n    /* \"#utility.yul\":1509:1573   */\n  tag_41\n    /* \"#utility.yul\":1565:1572   */\n  dup7\n    /* \"#utility.yul\":1556:1562   */\n  dup3\n    /* \"#utility.yul\":1545:1554   */\n  dup8\n    /* \"#utility.yul\":1541:1563   */\n  add\n    /* \"#utility.yul\":1509:1573   */\n  tag_15\n  jump\t// in\ntag_41:\n    /* \"#utility.yul\":1499:1573   */\n  swap4\n  pop\n    /* \"#utility.yul\":1455:1583   */\n  pop\n    /* \"#utility.yul\":1622:1624   */\n  0x20\n    /* \"#utility.yul\":1648:1712   */\n  tag_42\n    /* \"#utility.yul\":1704:1711   */\n  dup7\n    /* \"#utility.yul\":1695:1701   */\n  dup3\n    /* \"#utility.yul\":1684:1693   */\n  dup8\n    /* \"#utility.yul\":1680:1702   */\n  add\n    /* \"#utility.yul\":1648:1712   */\n  tag_18\n  jump\t// in\ntag_42:\n    /* \"#utility.yul\":1638:1712   */\n  swap3\n  pop\n    /* \"#utility.yul\":1593:1722   */\n  pop\n    /* \"#utility.yul\":1761:1763   */\n  0x40\n    /* \"#utility.yul\":1787:1851   */\n  tag_43\n    /* \"#utility.yul\":1843:1850   */\n  dup7\n    /* \"#utility.yul\":1834:1840   */\n  dup3\n    /* \"#utility.yul\":1823:1832   */\n  dup8\n    /* \"#utility.yul\":1819:1841   */\n  add\n    /* \"#utility.yul\":1787:1851   */\n  tag_18\n  jump\t// in\ntag_43:\n    /* \"#utility.yul\":1777:1851   */\n  swap2\n  pop\n    /* \"#utility.yul\":1732:1861   */\n  pop\n    /* \"#utility.yul\":1205:1868   */\n  swap3\n  pop\n  swap3\n  pop\n  swap3\n  jump\t// out\n    /* \"#utility.yul\":1874:2054   */\ntag_19:\n    /* \"#utility.yul\":1922:1999   */\n  0x4e487b7100000000000000000000000000000000000000000000000000000000\n    /* \"#utility.yul\":1919:1920   */\n  0x00\n    /* \"#utility.yul\":1912:2000   */\n  mstore\n    /* \"#utility.yul\":2019:2023   */\n  0x11\n    /* \"#utility.yul\":2016:2017   */\n  0x04\n    /* \"#utility.yul\":2009:2024   */\n  mstore\n    /* \"#utility.yul\":2043:2047   */\n  0x24\n    /* \"#utility.yul\":2040:2041   */\n  0x00\n    /* \"#utility.yul\":2033:2048   */\n  revert\n    /* \"#utility.yul\":2060:2365   */\ntag_7:\n    /* \"#utility.yul\":2100:2103   */\n  0x00\n    /* \"#utility.yul\":2119:2139   */\n  tag_46\n    /* \"#utility.yul\":2137:2138   */\n  dup3\n    /* \"#utility.yul\":2119:2139   */\n  tag_16\n  jump\t// in\ntag_46:\n    /* \"#utility.yul\":2114:2139   */\n  swap2\n  pop\n    /* \"#utility.yul\":2153:2173   */\n  tag_47\n    /* \"#utility.yul\":2171:2172   */\n  dup4\n    /* \"#utility.yul\":2153:2173   */\n  tag_16\n  jump\t// in\ntag_47:\n    /* \"#utility.yul\":2148:2173   */\n  swap3\n  pop\n    /* \"#utility.yul\":2307:2308   */\n  dup3\n    /* \"#utility.yul\":2239:2305   */\n  0xffffffffffffffffffffffffffffffffffffffffffffffffffffffffffffffff\n    /* \"#utility.yul\":2235:2309   */\n  sub\n    /* \"#utility.yul\":2232:2233   */\n  dup3\n    /* \"#utility.yul\":2229:2310   */\n  gt\n    /* \"#utility.yul\":2226:2333   */\n  iszero\n  tag_48\n  jumpi\n    /* \"#utility.yul\":2313:2331   */\n  tag_49\n  tag_19\n  jump\t// in\ntag_49:\n    /* \"#utility.yul\":2226:2333   */\ntag_48:\n    /* \"#utility.yul\":2357:2358   */\n  dup3\n    /* \"#utility.yul\":2354:2355   */\n  dup3\n    /* \"#utility.yul\":2350:2359   */\n  add\n    /* \"#utility.yul\":2343:2359   */\n  swap1\n  pop\n    /* \"#utility.yul\":2060:2365   */\n  swap3\n  swap2\n  pop\n  pop\n  jump\t// out\n    /* \"contracts/auction.sol\":120:2112  contract Auction {... */\ntag_8:\n  dataSize(sub_0)\n  dup1\n  dataOffset(sub_0)\n  0x00\n  codecopy\n  0x00\n  return\nstop\n\nsub_0: assembly {\n        /* \"contracts/auction.sol\":120:2112  contract Auction {... */\n      mstore(0x40, 0x80)\n      callvalue\n      dup1\n      iszero\n      tag_1\n      jumpi\n      0x00\n      dup1\n      revert\n    tag_1:\n      pop\n      jumpi(tag_2, lt(calldatasize, 0x04))\n      shr(0xe0, calldataload(0x00))\n      dup1\n      0x4c68df67\n      gt\n      tag_14\n      jumpi\n      dup1\n      0x4c68df67\n      eq\n      tag_8\n      jumpi\n      dup1\n      0x58797cb6\n      eq\n      tag_9\n      jumpi\n      dup1\n      0x8da5cb5b\n      eq\n      tag_10\n      jumpi\n      dup1\n      0xec022918\n      eq\n      tag_11\n      jumpi\n      dup1\n      0xf0194f89\n      eq\n      tag_12\n      jumpi\n      dup1\n      0xfe67a54b\n      eq\n      tag_13\n      jumpi\n      jump(tag_2)\n    tag_14:\n      dup1\n      0x09e69ede\n      eq\n      tag_3\n      jumpi\n      dup1\n      0x12fa6feb\n      eq\n      tag_4\n      jumpi\n      dup1\n      0x24924bf7\n      eq\n      tag_5\n      jumpi\n      dup1\n      0x362f04c0\n      eq\n      tag_6\n      jumpi\n      dup1\n      0x4b449cba\n      eq\n      tag_7\n      jumpi\n    tag_2:\n      0x00\n      dup1\n      revert\n        /* \"contracts/auction.sol\":405:456  mapping(address => Participant) public participants */\n    tag_3:\n      tag_15\n      0x04\n      dup1\n      calldatasize\n      sub\n      dup2\n      add\n      swap1\n      tag_16\n      swap2\n      swap1\n      tag_17\n      jump\t// in\n    tag_16:\n      tag_18\n      jump\t// in\n    tag_15:\n      mload(0x40)\n      tag_19\n      swap3\n      swap2\n      swap1\n      tag_20\n      jump\t// in\n    tag_19:\n      mload(0x40)\n      dup1\n      swap2\n      sub\n      swap1\n      return\n        /* \"contracts/auction.sol\":499:516  bool public ended */\n    tag_4:\n      tag_21\n      tag_22\n      jump\t// in\n    tag_21:\n      mload(0x40)\n      tag_23\n      swap2\n      swap1\n      tag_24\n      jump\t// in\n    tag_23:\n      mload(0x40)\n      dup1\n      swap2\n      sub\n      swap1\n      return\n        /* \"contracts/auction.sol\":207:237  uint256 public maxParticipants */\n    tag_5:\n      tag_25\n      tag_26\n      jump\t// in\n    tag_25:\n      mload(0x40)\n      tag_27\n      swap2\n      swap1\n      tag_28\n      jump\t// in\n    tag_27:\n      mload(0x40)\n      dup1\n      swap2\n      sub\n      swap1\n      return\n        /* \"contracts/auction.sol\":244:275  uint256 public participantCount */\n    tag_6:\n      tag_29\n      tag_30\n      jump\t// in\n    tag_29:\n      mload(0x40)\n      tag_31\n      swap2\n      swap1\n      tag_28\n      jump\t// in\n    tag_31:\n      mload(0x40)\n      dup1\n      swap2\n      sub\n      swap1\n      return\n        /* \"contracts/auction.sol\":171:200  uint256 public auctionEndTime */\n    tag_7:\n      tag_32\n      tag_33\n      jump\t// in\n    tag_32:\n      mload(0x40)\n      tag_34\n      swap2\n      swap1\n      tag_28\n      jump\t// in\n    tag_34:\n      mload(0x40)\n      dup1\n      swap2\n      sub\n      swap1\n      return\n        /* \"contracts/auction.sol\":463:490  uint256 public totalReserve */\n    tag_8:\n      tag_35\n      tag_36\n      jump\t// in\n    tag_35:\n      mload(0x40)\n      tag_37\n      swap2\n      swap1\n      tag_28\n      jump\t// in\n    tag_37:\n      mload(0x40)\n      dup1\n      swap2\n      sub\n      swap1\n      return\n        /* \"contracts/auction.sol\":284:307  IERC20 public coinToken */\n    tag_9:\n      tag_38\n      tag_39\n      jump\t// in\n    tag_38:\n      mload(0x40)\n      tag_40\n      swap2\n      swap1\n      tag_41\n      jump\t// in\n    tag_40:\n      mload(0x40)\n      dup1\n      swap2\n      sub\n      swap1\n      return\n        /* \"contracts/auction.sol\":144:164  address public owner */\n    tag_10:\n      tag_42\n      tag_43\n      jump\t// in\n    tag_42:\n      mload(0x40)\n      tag_44\n      swap2\n      swap1\n      tag_45\n      jump\t// in\n    tag_44:\n      mload(0x40)\n      dup1\n      swap2\n      sub\n      swap1\n      return\n        /* \"contracts/auction.sol\":2012:2109  function getTotalReserve() external view returns (uint256) {... */\n    tag_11:\n      tag_46\n      tag_47\n      jump\t// in\n    tag_46:\n      mload(0x40)\n      tag_48\n      swap2\n      swap1\n      tag_28\n      jump\t// in\n    tag_48:\n      mload(0x40)\n      dup1\n      swap2\n      sub\n      swap1\n      return\n        /* \"contracts/auction.sol\":1213:1880  function joinAuction(uint256 reserveAmount) external onlyBeforeEnd {... */\n    tag_12:\n      tag_49\n      0x04\n      dup1\n      calldatasize\n      sub\n      dup2\n      add\n      swap1\n      tag_50\n      swap2\n      swap1\n      tag_51\n      jump\t// in\n    tag_50:\n      tag_52\n      jump\t// in\n    tag_49:\n      stop\n        /* \"contracts/auction.sol\":1888:2004  function endAuction() external onlyOwner onlyBeforeEnd {... */\n    tag_13:\n      tag_53\n      tag_54\n      jump\t// in\n    tag_53:\n      stop\n        /* \"contracts/auction.sol\":405:456  mapping(address => Participant) public participants */\n    tag_18:\n      mstore(0x20, 0x05)\n      dup1\n      0x00\n      mstore\n      keccak256(0x00, 0x40)\n      0x00\n      swap2\n      pop\n      swap1\n      pop\n      dup1\n      0x00\n      add\n      sload\n      swap1\n      dup1\n      0x01\n      add\n      0x00\n      swap1\n      sload\n      swap1\n      0x0100\n      exp\n      swap1\n      div\n      0xff\n      and\n      swap1\n      pop\n      dup3\n      jump\t// out\n        /* \"contracts/auction.sol\":499:516  bool public ended */\n    tag_22:\n      0x07\n      0x00\n      swap1\n      sload\n      swap1\n      0x0100\n      exp\n      swap1\n      div\n      0xff\n      and\n      dup2\n      jump\t// out\n        /* \"contracts/auction.sol\":207:237  uint256 public maxParticipants */\n    tag_26:\n      sload(0x02)\n      dup2\n      jump\t// out\n        /* \"contracts/auction.sol\":244:275  uint256 public participantCount */\n    tag_30:\n      sload(0x03)\n      dup2\n      jump\t// out\n        /* \"contracts/auction.sol\":171:200  uint256 public auctionEndTime */\n    tag_33:\n      sload(0x01)\n      dup2\n      jump\t// out\n        /* \"contracts/auction.sol\":463:490  uint256 public totalReserve */\n    tag_36:\n      sload(0x06)\n      dup2\n      jump\t// out\n        /* \"contracts/auction.sol\":284:307  IERC20 public coinToken */\n    tag_39:\n      0x04\n      0x00\n      swap1\n      sload\n      swap1\n      0x0100\n      exp\n      swap1\n      div\n      0xffffffffffffffffffffffffffffffffffffffff\n      and\n      dup2\n      jump\t// out\n        /* \"contracts/auction.sol\":144:164  address public owner */\n    tag_43:\n      0x00\n      dup1\n      sload\n      swap1\n      0x0100\n      exp\n      swap1\n      div\n      0xffffffffffffffffffffffffffffffffffffffff\n      and\n      dup2\n      jump\t// out\n        /* \"contracts/auction.sol\":2012:2109  function getTotalReserve() external view returns (uint256) {... */\n    tag_47:\n        /* \"contracts/auction.sol\":2062:2069  uint256 */\n      0x00\n        /* \"contracts/auction.sol\":2089:2101  totalReserve */\n      sload(0x06)\n        /* \"contracts/auction.sol\":2082:2101  return totalReserve */\n      swap1\n      pop\n        /* \"contracts/auction.sol\":2012:2109  function getTotalReserve() external view returns (uint256) {... */\n      swap1\n      jump\t// out\n        /* \"contracts/auction.sol\":1213:1880  function joinAuction(uint256 reserveAmount) external onlyBeforeEnd {... */\n    tag_52:\n        /* \"contracts/auction.sol\":803:808  ended */\n      0x07\n      0x00\n      swap1\n      sload\n      swap1\n      0x0100\n      exp\n      swap1\n      div\n      0xff\n      and\n        /* \"contracts/auction.sol\":802:808  !ended */\n      iszero\n        /* \"contracts/auction.sol\":794:839  require(!ended, \"Auction has already ended.\") */\n      tag_57\n      jumpi\n      mload(0x40)\n      0x08c379a000000000000000000000000000000000000000000000000000000000\n      dup2\n      mstore\n      0x04\n      add\n      tag_58\n      swap1\n      tag_59\n      jump\t// in\n    tag_58:\n      mload(0x40)\n      dup1\n      swap2\n      sub\n      swap1\n      revert\n    tag_57:\n        /* \"contracts/auction.sol\":876:890  auctionEndTime */\n      sload(0x01)\n        /* \"contracts/auction.sol\":858:873  block.timestamp */\n      timestamp\n        /* \"contracts/auction.sol\":858:890  block.timestamp < auctionEndTime */\n      lt\n        /* \"contracts/auction.sol\":850:921  require(block.timestamp < auctionEndTime, \"Auction has already ended.\") */\n      tag_60\n      jumpi\n      mload(0x40)\n      0x08c379a000000000000000000000000000000000000000000000000000000000\n      dup2\n      mstore\n      0x04\n      add\n      tag_61\n      swap1\n      tag_59\n      jump\t// in\n    tag_61:\n      mload(0x40)\n      dup1\n      swap2\n      sub\n      swap1\n      revert\n    tag_60:\n        /* \"contracts/auction.sol\":1300:1312  participants */\n      0x05\n        /* \"contracts/auction.sol\":1300:1324  participants[msg.sender] */\n      0x00\n        /* \"contracts/auction.sol\":1313:1323  msg.sender */\n      caller\n        /* \"contracts/auction.sol\":1300:1324  participants[msg.sender] */\n      0xffffffffffffffffffffffffffffffffffffffff\n      and\n      0xffffffffffffffffffffffffffffffffffffffff\n      and\n      dup2\n      mstore\n      0x20\n      add\n      swap1\n      dup2\n      mstore\n      0x20\n      add\n      0x00\n      keccak256\n        /* \"contracts/auction.sol\":1300:1331  participants[msg.sender].active */\n      0x01\n      add\n      0x00\n      swap1\n      sload\n      swap1\n      0x0100\n      exp\n      swap1\n      div\n      0xff\n      and\n        /* \"contracts/auction.sol\":1299:1331  !participants[msg.sender].active */\n      iszero\n        /* \"contracts/auction.sol\":1291:1372  require(!participants[msg.sender].active, \"You have already joined the auction.\") */\n      tag_63\n      jumpi\n      mload(0x40)\n      0x08c379a000000000000000000000000000000000000000000000000000000000\n      dup2\n      mstore\n      0x04\n      add\n      tag_64\n      swap1\n      tag_65\n      jump\t// in\n    tag_64:\n      mload(0x40)\n      dup1\n      swap2\n      sub\n      swap1\n      revert\n    tag_63:\n        /* \"contracts/auction.sol\":1410:1425  maxParticipants */\n      sload(0x02)\n        /* \"contracts/auction.sol\":1391:1407  participantCount */\n      sload(0x03)\n        /* \"contracts/auction.sol\":1391:1425  participantCount < maxParticipants */\n      lt\n        /* \"contracts/auction.sol\":1383:1446  require(participantCount < maxParticipants, \"Auction is full.\") */\n      tag_66\n      jumpi\n      mload(0x40)\n      0x08c379a000000000000000000000000000000000000000000000000000000000\n      dup2\n      mstore\n      0x04\n      add\n      tag_67\n      swap1\n      tag_68\n      jump\t// in\n    tag_67:\n      mload(0x40)\n      dup1\n      swap2\n      sub\n      swap1\n      revert\n    tag_66:\n        /* \"contracts/auction.sol\":1481:1482  0 */\n      0x00\n        /* \"contracts/auction.sol\":1465:1478  reserveAmount */\n      dup2\n        /* \"contracts/auction.sol\":1465:1482  reserveAmount > 0 */\n      gt\n        /* \"contracts/auction.sol\":1457:1528  require(reserveAmount > 0, \"Reserve amount must be greater than zero.\") */\n      tag_69\n      jumpi\n      mload(0x40)\n      0x08c379a000000000000000000000000000000000000000000000000000000000\n      dup2\n      mstore\n      0x04\n      add\n      tag_70\n      swap1\n      tag_71\n      jump\t// in\n    tag_70:\n      mload(0x40)\n      dup1\n      swap2\n      sub\n      swap1\n      revert\n    tag_69:\n        /* \"contracts/auction.sol\":1568:1662  Participant({... */\n      mload(0x40)\n      dup1\n      0x40\n      add\n      0x40\n      mstore\n      dup1\n        /* \"contracts/auction.sol\":1610:1623  reserveAmount */\n      dup3\n        /* \"contracts/auction.sol\":1568:1662  Participant({... */\n      dup2\n      mstore\n      0x20\n      add\n        /* \"contracts/auction.sol\":1646:1650  true */\n      0x01\n        /* \"contracts/auction.sol\":1568:1662  Participant({... */\n      iszero\n      iszero\n      dup2\n      mstore\n      pop\n        /* \"contracts/auction.sol\":1541:1553  participants */\n      0x05\n        /* \"contracts/auction.sol\":1541:1565  participants[msg.sender] */\n      0x00\n        /* \"contracts/auction.sol\":1554:1564  msg.sender */\n      caller\n        /* \"contracts/auction.sol\":1541:1565  participants[msg.sender] */\n      0xffffffffffffffffffffffffffffffffffffffff\n      and\n      0xffffffffffffffffffffffffffffffffffffffff\n      and\n      dup2\n      mstore\n      0x20\n      add\n      swap1\n      dup2\n      mstore\n      0x20\n      add\n      0x00\n      keccak256\n        /* \"contracts/auction.sol\":1541:1662  participants[msg.sender] = Participant({... */\n      0x00\n      dup3\n      add\n      mload\n      dup2\n      0x00\n      add\n      sstore\n      0x20\n      dup3\n      add\n      mload\n      dup2\n      0x01\n      add\n      exp(0x0100, 0x00)\n      dup2\n      sload\n      dup2\n      0xff\n      mul\n      not\n      and\n      swap1\n      dup4\n      iszero\n      iszero\n      mul\n      or\n      swap1\n      sstore\n      pop\n      swap1\n      pop\n      pop\n        /* \"contracts/auction.sol\":1691:1704  reserveAmount */\n      dup1\n        /* \"contracts/auction.sol\":1675:1687  totalReserve */\n      0x06\n      0x00\n        /* \"contracts/auction.sol\":1675:1704  totalReserve += reserveAmount */\n      dup3\n      dup3\n      sload\n      tag_72\n      swap2\n      swap1\n      tag_73\n      jump\t// in\n    tag_72:\n      swap3\n      pop\n      pop\n      dup2\n      swap1\n      sstore\n      pop\n        /* \"contracts/auction.sol\":1715:1731  participantCount */\n      0x03\n      0x00\n        /* \"contracts/auction.sol\":1715:1733  participantCount++ */\n      dup2\n      sload\n      dup1\n      swap3\n      swap2\n      swap1\n      tag_74\n      swap1\n      tag_75\n      jump\t// in\n    tag_74:\n      swap2\n      swap1\n      pop\n      sstore\n      pop\n        /* \"contracts/auction.sol\":1746:1755  coinToken */\n      0x04\n      0x00\n      swap1\n      sload\n      swap1\n      0x0100\n      exp\n      swap1\n      div\n      0xffffffffffffffffffffffffffffffffffffffff\n      and\n        /* \"contracts/auction.sol\":1746:1768  coinToken.transferFrom */\n      0xffffffffffffffffffffffffffffffffffffffff\n      and\n      0x23b872dd\n        /* \"contracts/auction.sol\":1769:1779  msg.sender */\n      caller\n        /* \"contracts/auction.sol\":1789:1793  this */\n      address\n        /* \"contracts/auction.sol\":1796:1809  reserveAmount */\n      dup5\n        /* \"contracts/auction.sol\":1746:1810  coinToken.transferFrom(msg.sender, address(this), reserveAmount) */\n      mload(0x40)\n      dup5\n      0xffffffff\n      and\n      0xe0\n      shl\n      dup2\n      mstore\n      0x04\n      add\n      tag_76\n      swap4\n      swap3\n      swap2\n      swap1\n      tag_77\n      jump\t// in\n    tag_76:\n      0x20\n      mload(0x40)\n      dup1\n      dup4\n      sub\n      dup2\n      0x00\n      dup8\n      dup1\n      extcodesize\n      iszero\n      dup1\n      iszero\n      tag_78\n      jumpi\n      0x00\n      dup1\n      revert\n    tag_78:\n      pop\n      gas\n      call\n      iszero\n      dup1\n      iszero\n      tag_80\n      jumpi\n      returndatasize\n      0x00\n      dup1\n      returndatacopy\n      revert(0x00, returndatasize)\n    tag_80:\n      pop\n      pop\n      pop\n      pop\n      mload(0x40)\n      returndatasize\n      not(0x1f)\n      0x1f\n      dup3\n      add\n      and\n      dup3\n      add\n      dup1\n      0x40\n      mstore\n      pop\n      dup2\n      add\n      swap1\n      tag_81\n      swap2\n      swap1\n      tag_82\n      jump\t// in\n    tag_81:\n      pop\n        /* \"contracts/auction.sol\":1828:1872  ParticipantJoined(msg.sender, reserveAmount) */\n      0x8123641a38ad3476ac345fc38496fa9edc26a110698c8c0c9fffc30f546f918c\n        /* \"contracts/auction.sol\":1846:1856  msg.sender */\n      caller\n        /* \"contracts/auction.sol\":1858:1871  reserveAmount */\n      dup3\n        /* \"contracts/auction.sol\":1828:1872  ParticipantJoined(msg.sender, reserveAmount) */\n      mload(0x40)\n      tag_83\n      swap3\n      swap2\n      swap1\n      tag_84\n      jump\t// in\n    tag_83:\n      mload(0x40)\n      dup1\n      swap2\n      sub\n      swap1\n      log1\n        /* \"contracts/auction.sol\":1213:1880  function joinAuction(uint256 reserveAmount) external onlyBeforeEnd {... */\n      pop\n      jump\t// out\n        /* \"contracts/auction.sol\":1888:2004  function endAuction() external onlyOwner onlyBeforeEnd {... */\n    tag_54:\n        /* \"contracts/auction.sol\":682:687  owner */\n      0x00\n      dup1\n      sload\n      swap1\n      0x0100\n      exp\n      swap1\n      div\n      0xffffffffffffffffffffffffffffffffffffffff\n      and\n        /* \"contracts/auction.sol\":668:687  msg.sender == owner */\n      0xffffffffffffffffffffffffffffffffffffffff\n      and\n        /* \"contracts/auction.sol\":668:678  msg.sender */\n      caller\n        /* \"contracts/auction.sol\":668:687  msg.sender == owner */\n      0xffffffffffffffffffffffffffffffffffffffff\n      and\n      eq\n        /* \"contracts/auction.sol\":660:730  require(msg.sender == owner, \"Only the owner can call this function.\") */\n      tag_86\n      jumpi\n      mload(0x40)\n      0x08c379a000000000000000000000000000000000000000000000000000000000\n      dup2\n      mstore\n      0x04\n      add\n      tag_87\n      swap1\n      tag_88\n      jump\t// in\n    tag_87:\n      mload(0x40)\n      dup1\n      swap2\n      sub\n      swap1\n      revert\n    tag_86:\n        /* \"contracts/auction.sol\":803:808  ended */\n      0x07\n      0x00\n      swap1\n      sload\n      swap1\n      0x0100\n      exp\n      swap1\n      div\n      0xff\n      and\n        /* \"contracts/auction.sol\":802:808  !ended */\n      iszero\n        /* \"contracts/auction.sol\":794:839  require(!ended, \"Auction has already ended.\") */\n      tag_90\n      jumpi\n      mload(0x40)\n      0x08c379a000000000000000000000000000000000000000000000000000000000\n      dup2\n      mstore\n      0x04\n      add\n      tag_91\n      swap1\n      tag_59\n      jump\t// in\n    tag_91:\n      mload(0x40)\n      dup1\n      swap2\n      sub\n      swap1\n      revert\n    tag_90:\n        /* \"contracts/auction.sol\":876:890  auctionEndTime */\n      sload(0x01)\n        /* \"contracts/auction.sol\":858:873  block.timestamp */\n      timestamp\n        /* \"contracts/auction.sol\":858:890  block.timestamp < auctionEndTime */\n      lt\n        /* \"contracts/auction.sol\":850:921  require(block.timestamp < auctionEndTime, \"Auction has already ended.\") */\n      tag_92\n      jumpi\n      mload(0x40)\n      0x08c379a000000000000000000000000000000000000000000000000000000000\n      dup2\n      mstore\n      0x04\n      add\n      tag_93\n      swap1\n      tag_59\n      jump\t// in\n    tag_93:\n      mload(0x40)\n      dup1\n      swap2\n      sub\n      swap1\n      revert\n    tag_92:\n        /* \"contracts/auction.sol\":1962:1966  true */\n      0x01\n        /* \"contracts/auction.sol\":1954:1959  ended */\n      0x07\n      0x00\n        /* \"contracts/auction.sol\":1954:1966  ended = true */\n      0x0100\n      exp\n      dup2\n      sload\n      dup2\n      0xff\n      mul\n      not\n      and\n      swap1\n      dup4\n      iszero\n      iszero\n      mul\n      or\n      swap1\n      sstore\n      pop\n        /* \"contracts/auction.sol\":1982:1996  AuctionEnded() */\n      0xa0e92984607195c326795751263414ee1074526323552e694c90ef2b99ae3f29\n      mload(0x40)\n      mload(0x40)\n      dup1\n      swap2\n      sub\n      swap1\n      log1\n        /* \"contracts/auction.sol\":1888:2004  function endAuction() external onlyOwner onlyBeforeEnd {... */\n      jump\t// out\n        /* \"#utility.yul\":88:205   */\n    tag_96:\n        /* \"#utility.yul\":197:198   */\n      0x00\n        /* \"#utility.yul\":194:195   */\n      dup1\n        /* \"#utility.yul\":187:199   */\n      revert\n        /* \"#utility.yul\":334:460   */\n    tag_98:\n        /* \"#utility.yul\":371:378   */\n      0x00\n        /* \"#utility.yul\":411:453   */\n      0xffffffffffffffffffffffffffffffffffffffff\n        /* \"#utility.yul\":404:409   */\n      dup3\n        /* \"#utility.yul\":400:454   */\n      and\n        /* \"#utility.yul\":389:454   */\n      swap1\n      pop\n        /* \"#utility.yul\":334:460   */\n      swap2\n      swap1\n      pop\n      jump\t// out\n        /* \"#utility.yul\":466:562   */\n    tag_99:\n        /* \"#utility.yul\":503:510   */\n      0x00\n        /* \"#utility.yul\":532:556   */\n      tag_134\n        /* \"#utility.yul\":550:555   */\n      dup3\n        /* \"#utility.yul\":532:556   */\n      tag_98\n      jump\t// in\n    tag_134:\n        /* \"#utility.yul\":521:556   */\n      swap1\n      pop\n        /* \"#utility.yul\":466:562   */\n      swap2\n      swap1\n      pop\n      jump\t// out\n        /* \"#utility.yul\":568:690   */\n    tag_100:\n        /* \"#utility.yul\":641:665   */\n      tag_136\n        /* \"#utility.yul\":659:664   */\n      dup2\n        /* \"#utility.yul\":641:665   */\n      tag_99\n      jump\t// in\n    tag_136:\n        /* \"#utility.yul\":634:639   */\n      dup2\n        /* \"#utility.yul\":631:666   */\n      eq\n        /* \"#utility.yul\":621:684   */\n      tag_137\n      jumpi\n        /* \"#utility.yul\":680:681   */\n      0x00\n        /* \"#utility.yul\":677:678   */\n      dup1\n        /* \"#utility.yul\":670:682   */\n      revert\n        /* \"#utility.yul\":621:684   */\n    tag_137:\n        /* \"#utility.yul\":568:690   */\n      pop\n      jump\t// out\n        /* \"#utility.yul\":696:835   */\n    tag_101:\n        /* \"#utility.yul\":742:747   */\n      0x00\n        /* \"#utility.yul\":780:786   */\n      dup2\n        /* \"#utility.yul\":767:787   */\n      calldataload\n        /* \"#utility.yul\":758:787   */\n      swap1\n      pop\n        /* \"#utility.yul\":796:829   */\n      tag_139\n        /* \"#utility.yul\":823:828   */\n      dup2\n        /* \"#utility.yul\":796:829   */\n      tag_100\n      jump\t// in\n    tag_139:\n        /* \"#utility.yul\":696:835   */\n      swap3\n      swap2\n      pop\n      pop\n      jump\t// out\n        /* \"#utility.yul\":841:1170   */\n    tag_17:\n        /* \"#utility.yul\":900:906   */\n      0x00\n        /* \"#utility.yul\":949:951   */\n      0x20\n        /* \"#utility.yul\":937:946   */\n      dup3\n        /* \"#utility.yul\":928:935   */\n      dup5\n        /* \"#utility.yul\":924:947   */\n      sub\n        /* \"#utility.yul\":920:952   */\n      slt\n        /* \"#utility.yul\":917:1036   */\n      iszero\n      tag_141\n      jumpi\n        /* \"#utility.yul\":955:1034   */\n      tag_142\n      tag_96\n      jump\t// in\n    tag_142:\n        /* \"#utility.yul\":917:1036   */\n    tag_141:\n        /* \"#utility.yul\":1075:1076   */\n      0x00\n        /* \"#utility.yul\":1100:1153   */\n      tag_143\n        /* \"#utility.yul\":1145:1152   */\n      dup5\n        /* \"#utility.yul\":1136:1142   */\n      dup3\n        /* \"#utility.yul\":1125:1134   */\n      dup6\n        /* \"#utility.yul\":1121:1143   */\n      add\n        /* \"#utility.yul\":1100:1153   */\n      tag_101\n      jump\t// in\n    tag_143:\n        /* \"#utility.yul\":1090:1153   */\n      swap2\n      pop\n        /* \"#utility.yul\":1046:1163   */\n      pop\n        /* \"#utility.yul\":841:1170   */\n      swap3\n      swap2\n      pop\n      pop\n      jump\t// out\n        /* \"#utility.yul\":1176:1253   */\n    tag_102:\n        /* \"#utility.yul\":1213:1220   */\n      0x00\n        /* \"#utility.yul\":1242:1247   */\n      dup2\n        /* \"#utility.yul\":1231:1247   */\n      swap1\n      pop\n        /* \"#utility.yul\":1176:1253   */\n      swap2\n      swap1\n      pop\n      jump\t// out\n        /* \"#utility.yul\":1259:1377   */\n    tag_103:\n        /* \"#utility.yul\":1346:1370   */\n      tag_146\n        /* \"#utility.yul\":1364:1369   */\n      dup2\n        /* \"#utility.yul\":1346:1370   */\n      tag_102\n      jump\t// in\n    tag_146:\n        /* \"#utility.yul\":1341:1344   */\n      dup3\n        /* \"#utility.yul\":1334:1371   */\n      mstore\n        /* \"#utility.yul\":1259:1377   */\n      pop\n      pop\n      jump\t// out\n        /* \"#utility.yul\":1383:1473   */\n    tag_104:\n        /* \"#utility.yul\":1417:1424   */\n      0x00\n        /* \"#utility.yul\":1460:1465   */\n      dup2\n        /* \"#utility.yul\":1453:1466   */\n      iszero\n        /* \"#utility.yul\":1446:1467   */\n      iszero\n        /* \"#utility.yul\":1435:1467   */\n      swap1\n      pop\n        /* \"#utility.yul\":1383:1473   */\n      swap2\n      swap1\n      pop\n      jump\t// out\n        /* \"#utility.yul\":1479:1588   */\n    tag_105:\n        /* \"#utility.yul\":1560:1581   */\n      tag_149\n        /* \"#utility.yul\":1575:1580   */\n      dup2\n        /* \"#utility.yul\":1560:1581   */\n      tag_104\n      jump\t// in\n    tag_149:\n        /* \"#utility.yul\":1555:1558   */\n      dup3\n        /* \"#utility.yul\":1548:1582   */\n      mstore\n        /* \"#utility.yul\":1479:1588   */\n      pop\n      pop\n      jump\t// out\n        /* \"#utility.yul\":1594:1914   */\n    tag_20:\n        /* \"#utility.yul\":1709:1713   */\n      0x00\n        /* \"#utility.yul\":1747:1749   */\n      0x40\n        /* \"#utility.yul\":1736:1745   */\n      dup3\n        /* \"#utility.yul\":1732:1750   */\n      add\n        /* \"#utility.yul\":1724:1750   */\n      swap1\n      pop\n        /* \"#utility.yul\":1760:1831   */\n      tag_151\n        /* \"#utility.yul\":1828:1829   */\n      0x00\n        /* \"#utility.yul\":1817:1826   */\n      dup4\n        /* \"#utility.yul\":1813:1830   */\n      add\n        /* \"#utility.yul\":1804:1810   */\n      dup6\n        /* \"#utility.yul\":1760:1831   */\n      tag_103\n      jump\t// in\n    tag_151:\n        /* \"#utility.yul\":1841:1907   */\n      tag_152\n        /* \"#utility.yul\":1903:1905   */\n      0x20\n        /* \"#utility.yul\":1892:1901   */\n      dup4\n        /* \"#utility.yul\":1888:1906   */\n      add\n        /* \"#utility.yul\":1879:1885   */\n      dup5\n        /* \"#utility.yul\":1841:1907   */\n      tag_105\n      jump\t// in\n    tag_152:\n        /* \"#utility.yul\":1594:1914   */\n      swap4\n      swap3\n      pop\n      pop\n      pop\n      jump\t// out\n        /* \"#utility.yul\":1920:2130   */\n    tag_24:\n        /* \"#utility.yul\":2007:2011   */\n      0x00\n        /* \"#utility.yul\":2045:2047   */\n      0x20\n        /* \"#utility.yul\":2034:2043   */\n      dup3\n        /* \"#utility.yul\":2030:2048   */\n      add\n        /* \"#utility.yul\":2022:2048   */\n      swap1\n      pop\n        /* \"#utility.yul\":2058:2123   */\n      tag_154\n        /* \"#utility.yul\":2120:2121   */\n      0x00\n        /* \"#utility.yul\":2109:2118   */\n      dup4\n        /* \"#utility.yul\":2105:2122   */\n      add\n        /* \"#utility.yul\":2096:2102   */\n      dup5\n        /* \"#utility.yul\":2058:2123   */\n      tag_105\n      jump\t// in\n    tag_154:\n        /* \"#utility.yul\":1920:2130   */\n      swap3\n      swap2\n      pop\n      pop\n      jump\t// out\n        /* \"#utility.yul\":2136:2358   */\n    tag_28:\n        /* \"#utility.yul\":2229:2233   */\n      0x00\n        /* \"#utility.yul\":2267:2269   */\n      0x20\n        /* \"#utility.yul\":2256:2265   */\n      dup3\n        /* \"#utility.yul\":2252:2270   */\n      add\n        /* \"#utility.yul\":2244:2270   */\n      swap1\n      pop\n        /* \"#utility.yul\":2280:2351   */\n      tag_156\n        /* \"#utility.yul\":2348:2349   */\n      0x00\n        /* \"#utility.yul\":2337:2346   */\n      dup4\n        /* \"#utility.yul\":2333:2350   */\n      add\n        /* \"#utility.yul\":2324:2330   */\n      dup5\n        /* \"#utility.yul\":2280:2351   */\n      tag_103\n      jump\t// in\n    tag_156:\n        /* \"#utility.yul\":2136:2358   */\n      swap3\n      swap2\n      pop\n      pop\n      jump\t// out\n        /* \"#utility.yul\":2364:2424   */\n    tag_106:\n        /* \"#utility.yul\":2392:2395   */\n      0x00\n        /* \"#utility.yul\":2413:2418   */\n      dup2\n        /* \"#utility.yul\":2406:2418   */\n      swap1\n      pop\n        /* \"#utility.yul\":2364:2424   */\n      swap2\n      swap1\n      pop\n      jump\t// out\n        /* \"#utility.yul\":2430:2572   */\n    tag_107:\n        /* \"#utility.yul\":2480:2489   */\n      0x00\n        /* \"#utility.yul\":2513:2566   */\n      tag_159\n        /* \"#utility.yul\":2531:2565   */\n      tag_160\n        /* \"#utility.yul\":2540:2564   */\n      tag_161\n        /* \"#utility.yul\":2558:2563   */\n      dup5\n        /* \"#utility.yul\":2540:2564   */\n      tag_98\n      jump\t// in\n    tag_161:\n        /* \"#utility.yul\":2531:2565   */\n      tag_106\n      jump\t// in\n    tag_160:\n        /* \"#utility.yul\":2513:2566   */\n      tag_98\n      jump\t// in\n    tag_159:\n        /* \"#utility.yul\":2500:2566   */\n      swap1\n      pop\n        /* \"#utility.yul\":2430:2572   */\n      swap2\n      swap1\n      pop\n      jump\t// out\n        /* \"#utility.yul\":2578:2704   */\n    tag_108:\n        /* \"#utility.yul\":2628:2637   */\n      0x00\n        /* \"#utility.yul\":2661:2698   */\n      tag_163\n        /* \"#utility.yul\":2692:2697   */\n      dup3\n        /* \"#utility.yul\":2661:2698   */\n      tag_107\n      jump\t// in\n    tag_163:\n        /* \"#utility.yul\":2648:2698   */\n      swap1\n      pop\n        /* \"#utility.yul\":2578:2704   */\n      swap2\n      swap1\n      pop\n      jump\t// out\n        /* \"#utility.yul\":2710:2849   */\n    tag_109:\n        /* \"#utility.yul\":2773:2782   */\n      0x00\n        /* \"#utility.yul\":2806:2843   */\n      tag_165\n        /* \"#utility.yul\":2837:2842   */\n      dup3\n        /* \"#utility.yul\":2806:2843   */\n      tag_108\n      jump\t// in\n    tag_165:\n        /* \"#utility.yul\":2793:2843   */\n      swap1\n      pop\n        /* \"#utility.yul\":2710:2849   */\n      swap2\n      swap1\n      pop\n      jump\t// out\n        /* \"#utility.yul\":2855:3012   */\n    tag_110:\n        /* \"#utility.yul\":2955:3005   */\n      tag_167\n        /* \"#utility.yul\":2999:3004   */\n      dup2\n        /* \"#utility.yul\":2955:3005   */\n      tag_109\n      jump\t// in\n    tag_167:\n        /* \"#utility.yul\":2950:2953   */\n      dup3\n        /* \"#utility.yul\":2943:3006   */\n      mstore\n        /* \"#utility.yul\":2855:3012   */\n      pop\n      pop\n      jump\t// out\n        /* \"#utility.yul\":3018:3266   */\n    tag_41:\n        /* \"#utility.yul\":3124:3128   */\n      0x00\n        /* \"#utility.yul\":3162:3164   */\n      0x20\n        /* \"#utility.yul\":3151:3160   */\n      dup3\n        /* \"#utility.yul\":3147:3165   */\n      add\n        /* \"#utility.yul\":3139:3165   */\n      swap1\n      pop\n        /* \"#utility.yul\":3175:3259   */\n      tag_169\n        /* \"#utility.yul\":3256:3257   */\n      0x00\n        /* \"#utility.yul\":3245:3254   */\n      dup4\n        /* \"#utility.yul\":3241:3258   */\n      add\n        /* \"#utility.yul\":3232:3238   */\n      dup5\n        /* \"#utility.yul\":3175:3259   */\n      tag_110\n      jump\t// in\n    tag_169:\n        /* \"#utility.yul\":3018:3266   */\n      swap3\n      swap2\n      pop\n      pop\n      jump\t// out\n        /* \"#utility.yul\":3272:3390   */\n    tag_111:\n        /* \"#utility.yul\":3359:3383   */\n      tag_171\n        /* \"#utility.yul\":3377:3382   */\n      dup2\n        /* \"#utility.yul\":3359:3383   */\n      tag_99\n      jump\t// in\n    tag_171:\n        /* \"#utility.yul\":3354:3357   */\n      dup3\n        /* \"#utility.yul\":3347:3384   */\n      mstore\n        /* \"#utility.yul\":3272:3390   */\n      pop\n      pop\n      jump\t// out\n        /* \"#utility.yul\":3396:3618   */\n    tag_45:\n        /* \"#utility.yul\":3489:3493   */\n      0x00\n        /* \"#utility.yul\":3527:3529   */\n      0x20\n        /* \"#utility.yul\":3516:3525   */\n      dup3\n        /* \"#utility.yul\":3512:3530   */\n      add\n        /* \"#utility.yul\":3504:3530   */\n      swap1\n      pop\n        /* \"#utility.yul\":3540:3611   */\n      tag_173\n        /* \"#utility.yul\":3608:3609   */\n      0x00\n        /* \"#utility.yul\":3597:3606   */\n      dup4\n        /* \"#utility.yul\":3593:3610   */\n      add\n        /* \"#utility.yul\":3584:3590   */\n      dup5\n        /* \"#utility.yul\":3540:3611   */\n      tag_111\n      jump\t// in\n    tag_173:\n        /* \"#utility.yul\":3396:3618   */\n      swap3\n      swap2\n      pop\n      pop\n      jump\t// out\n        /* \"#utility.yul\":3624:3746   */\n    tag_112:\n        /* \"#utility.yul\":3697:3721   */\n      tag_175\n        /* \"#utility.yul\":3715:3720   */\n      dup2\n        /* \"#utility.yul\":3697:3721   */\n      tag_102\n      jump\t// in\n    tag_175:\n        /* \"#utility.yul\":3690:3695   */\n      dup2\n        /* \"#utility.yul\":3687:3722   */\n      eq\n        /* \"#utility.yul\":3677:3740   */\n      tag_176\n      jumpi\n        /* \"#utility.yul\":3736:3737   */\n      0x00\n        /* \"#utility.yul\":3733:3734   */\n      dup1\n        /* \"#utility.yul\":3726:3738   */\n      revert\n        /* \"#utility.yul\":3677:3740   */\n    tag_176:\n        /* \"#utility.yul\":3624:3746   */\n      pop\n      jump\t// out\n        /* \"#utility.yul\":3752:3891   */\n    tag_113:\n        /* \"#utility.yul\":3798:3803   */\n      0x00\n        /* \"#utility.yul\":3836:3842   */\n      dup2\n        /* \"#utility.yul\":3823:3843   */\n      calldataload\n        /* \"#utility.yul\":3814:3843   */\n      swap1\n      pop\n        /* \"#utility.yul\":3852:3885   */\n      tag_178\n        /* \"#utility.yul\":3879:3884   */\n      dup2\n        /* \"#utility.yul\":3852:3885   */\n      tag_112\n      jump\t// in\n    tag_178:\n        /* \"#utility.yul\":3752:3891   */\n      swap3\n      swap2\n      pop\n      pop\n      jump\t// out\n        /* \"#utility.yul\":3897:4226   */\n    tag_51:\n        /* \"#utility.yul\":3956:3962   */\n      0x00\n        /* \"#utility.yul\":4005:4007   */\n      0x20\n        /* \"#utility.yul\":3993:4002   */\n      dup3\n        /* \"#utility.yul\":3984:3991   */\n      dup5\n        /* \"#utility.yul\":3980:4003   */\n      sub\n        /* \"#utility.yul\":3976:4008   */\n      slt\n        /* \"#utility.yul\":3973:4092   */\n      iszero\n      tag_180\n      jumpi\n        /* \"#utility.yul\":4011:4090   */\n      tag_181\n      tag_96\n      jump\t// in\n    tag_181:\n        /* \"#utility.yul\":3973:4092   */\n    tag_180:\n        /* \"#utility.yul\":4131:4132   */\n      0x00\n        /* \"#utility.yul\":4156:4209   */\n      tag_182\n        /* \"#utility.yul\":4201:4208   */\n      dup5\n        /* \"#utility.yul\":4192:4198   */\n      dup3\n        /* \"#utility.yul\":4181:4190   */\n      dup6\n        /* \"#utility.yul\":4177:4199   */\n      add\n        /* \"#utility.yul\":4156:4209   */\n      tag_113\n      jump\t// in\n    tag_182:\n        /* \"#utility.yul\":4146:4209   */\n      swap2\n      pop\n        /* \"#utility.yul\":4102:4219   */\n      pop\n        /* \"#utility.yul\":3897:4226   */\n      swap3\n      swap2\n      pop\n      pop\n      jump\t// out\n        /* \"#utility.yul\":4232:4401   */\n    tag_114:\n        /* \"#utility.yul\":4316:4327   */\n      0x00\n        /* \"#utility.yul\":4350:4356   */\n      dup3\n        /* \"#utility.yul\":4345:4348   */\n      dup3\n        /* \"#utility.yul\":4338:4357   */\n      mstore\n        /* \"#utility.yul\":4390:4394   */\n      0x20\n        /* \"#utility.yul\":4385:4388   */\n      dup3\n        /* \"#utility.yul\":4381:4395   */\n      add\n        /* \"#utility.yul\":4366:4395   */\n      swap1\n      pop\n        /* \"#utility.yul\":4232:4401   */\n      swap3\n      swap2\n      pop\n      pop\n      jump\t// out\n        /* \"#utility.yul\":4407:4583   */\n    tag_115:\n        /* \"#utility.yul\":4547:4575   */\n      0x41756374696f6e2068617320616c726561647920656e6465642e000000000000\n        /* \"#utility.yul\":4543:4544   */\n      0x00\n        /* \"#utility.yul\":4535:4541   */\n      dup3\n        /* \"#utility.yul\":4531:4545   */\n      add\n        /* \"#utility.yul\":4524:4576   */\n      mstore\n        /* \"#utility.yul\":4407:4583   */\n      pop\n      jump\t// out\n        /* \"#utility.yul\":4589:4955   */\n    tag_116:\n        /* \"#utility.yul\":4731:4734   */\n      0x00\n        /* \"#utility.yul\":4752:4819   */\n      tag_186\n        /* \"#utility.yul\":4816:4818   */\n      0x1a\n        /* \"#utility.yul\":4811:4814   */\n      dup4\n        /* \"#utility.yul\":4752:4819   */\n      tag_114\n      jump\t// in\n    tag_186:\n        /* \"#utility.yul\":4745:4819   */\n      swap2\n      pop\n        /* \"#utility.yul\":4828:4921   */\n      tag_187\n        /* \"#utility.yul\":4917:4920   */\n      dup3\n        /* \"#utility.yul\":4828:4921   */\n      tag_115\n      jump\t// in\n    tag_187:\n        /* \"#utility.yul\":4946:4948   */\n      0x20\n        /* \"#utility.yul\":4941:4944   */\n      dup3\n        /* \"#utility.yul\":4937:4949   */\n      add\n        /* \"#utility.yul\":4930:4949   */\n      swap1\n      pop\n        /* \"#utility.yul\":4589:4955   */\n      swap2\n      swap1\n      pop\n      jump\t// out\n        /* \"#utility.yul\":4961:5380   */\n    tag_59:\n        /* \"#utility.yul\":5127:5131   */\n      0x00\n        /* \"#utility.yul\":5165:5167   */\n      0x20\n        /* \"#utility.yul\":5154:5163   */\n      dup3\n        /* \"#utility.yul\":5150:5168   */\n      add\n        /* \"#utility.yul\":5142:5168   */\n      swap1\n      pop\n        /* \"#utility.yul\":5214:5223   */\n      dup2\n        /* \"#utility.yul\":5208:5212   */\n      dup2\n        /* \"#utility.yul\":5204:5224   */\n      sub\n        /* \"#utility.yul\":5200:5201   */\n      0x00\n        /* \"#utility.yul\":5189:5198   */\n      dup4\n        /* \"#utility.yul\":5185:5202   */\n      add\n        /* \"#utility.yul\":5178:5225   */\n      mstore\n        /* \"#utility.yul\":5242:5373   */\n      tag_189\n        /* \"#utility.yul\":5368:5372   */\n      dup2\n        /* \"#utility.yul\":5242:5373   */\n      tag_116\n      jump\t// in\n    tag_189:\n        /* \"#utility.yul\":5234:5373   */\n      swap1\n      pop\n        /* \"#utility.yul\":4961:5380   */\n      swap2\n      swap1\n      pop\n      jump\t// out\n        /* \"#utility.yul\":5386:5609   */\n    tag_117:\n        /* \"#utility.yul\":5526:5560   */\n      0x596f75206861766520616c7265616479206a6f696e6564207468652061756374\n        /* \"#utility.yul\":5522:5523   */\n      0x00\n        /* \"#utility.yul\":5514:5520   */\n      dup3\n        /* \"#utility.yul\":5510:5524   */\n      add\n        /* \"#utility.yul\":5503:5561   */\n      mstore\n        /* \"#utility.yul\":5595:5601   */\n      0x696f6e2e00000000000000000000000000000000000000000000000000000000\n        /* \"#utility.yul\":5590:5592   */\n      0x20\n        /* \"#utility.yul\":5582:5588   */\n      dup3\n        /* \"#utility.yul\":5578:5593   */\n      add\n        /* \"#utility.yul\":5571:5602   */\n      mstore\n        /* \"#utility.yul\":5386:5609   */\n      pop\n      jump\t// out\n        /* \"#utility.yul\":5615:5981   */\n    tag_118:\n        /* \"#utility.yul\":5757:5760   */\n      0x00\n        /* \"#utility.yul\":5778:5845   */\n      tag_192\n        /* \"#utility.yul\":5842:5844   */\n      0x24\n        /* \"#utility.yul\":5837:5840   */\n      dup4\n        /* \"#utility.yul\":5778:5845   */\n      tag_114\n      jump\t// in\n    tag_192:\n        /* \"#utility.yul\":5771:5845   */\n      swap2\n      pop\n        /* \"#utility.yul\":5854:5947   */\n      tag_193\n        /* \"#utility.yul\":5943:5946   */\n      dup3\n        /* \"#utility.yul\":5854:5947   */\n      tag_117\n      jump\t// in\n    tag_193:\n        /* \"#utility.yul\":5972:5974   */\n      0x40\n        /* \"#utility.yul\":5967:5970   */\n      dup3\n        /* \"#utility.yul\":5963:5975   */\n      add\n        /* \"#utility.yul\":5956:5975   */\n      swap1\n      pop\n        /* \"#utility.yul\":5615:5981   */\n      swap2\n      swap1\n      pop\n      jump\t// out\n        /* \"#utility.yul\":5987:6406   */\n    tag_65:\n        /* \"#utility.yul\":6153:6157   */\n      0x00\n        /* \"#utility.yul\":6191:6193   */\n      0x20\n        /* \"#utility.yul\":6180:6189   */\n      dup3\n        /* \"#utility.yul\":6176:6194   */\n      add\n        /* \"#utility.yul\":6168:6194   */\n      swap1\n      pop\n        /* \"#utility.yul\":6240:6249   */\n      dup2\n        /* \"#utility.yul\":6234:6238   */\n      dup2\n        /* \"#utility.yul\":6230:6250   */\n      sub\n        /* \"#utility.yul\":6226:6227   */\n      0x00\n        /* \"#utility.yul\":6215:6224   */\n      dup4\n        /* \"#utility.yul\":6211:6228   */\n      add\n        /* \"#utility.yul\":6204:6251   */\n      mstore\n        /* \"#utility.yul\":6268:6399   */\n      tag_195\n        /* \"#utility.yul\":6394:6398   */\n      dup2\n        /* \"#utility.yul\":6268:6399   */\n      tag_118\n      jump\t// in\n    tag_195:\n        /* \"#utility.yul\":6260:6399   */\n      swap1\n      pop\n        /* \"#utility.yul\":5987:6406   */\n      swap2\n      swap1\n      pop\n      jump\t// out\n        /* \"#utility.yul\":6412:6578   */\n    tag_119:\n        /* \"#utility.yul\":6552:6570   */\n      0x41756374696f6e2069732066756c6c2e00000000000000000000000000000000\n        /* \"#utility.yul\":6548:6549   */\n      0x00\n        /* \"#utility.yul\":6540:6546   */\n      dup3\n        /* \"#utility.yul\":6536:6550   */\n      add\n        /* \"#utility.yul\":6529:6571   */\n      mstore\n        /* \"#utility.yul\":6412:6578   */\n      pop\n      jump\t// out\n        /* \"#utility.yul\":6584:6950   */\n    tag_120:\n        /* \"#utility.yul\":6726:6729   */\n      0x00\n        /* \"#utility.yul\":6747:6814   */\n      tag_198\n        /* \"#utility.yul\":6811:6813   */\n      0x10\n        /* \"#utility.yul\":6806:6809   */\n      dup4\n        /* \"#utility.yul\":6747:6814   */\n      tag_114\n      jump\t// in\n    tag_198:\n        /* \"#utility.yul\":6740:6814   */\n      swap2\n      pop\n        /* \"#utility.yul\":6823:6916   */\n      tag_199\n        /* \"#utility.yul\":6912:6915   */\n      dup3\n        /* \"#utility.yul\":6823:6916   */\n      tag_119\n      jump\t// in\n    tag_199:\n        /* \"#utility.yul\":6941:6943   */\n      0x20\n        /* \"#utility.yul\":6936:6939   */\n      dup3\n        /* \"#utility.yul\":6932:6944   */\n      add\n        /* \"#utility.yul\":6925:6944   */\n      swap1\n      pop\n        /* \"#utility.yul\":6584:6950   */\n      swap2\n      swap1\n      pop\n      jump\t// out\n        /* \"#utility.yul\":6956:7375   */\n    tag_68:\n        /* \"#utility.yul\":7122:7126   */\n      0x00\n        /* \"#utility.yul\":7160:7162   */\n      0x20\n        /* \"#utility.yul\":7149:7158   */\n      dup3\n        /* \"#utility.yul\":7145:7163   */\n      add\n        /* \"#utility.yul\":7137:7163   */\n      swap1\n      pop\n        /* \"#utility.yul\":7209:7218   */\n      dup2\n        /* \"#utility.yul\":7203:7207   */\n      dup2\n        /* \"#utility.yul\":7199:7219   */\n      sub\n        /* \"#utility.yul\":7195:7196   */\n      0x00\n        /* \"#utility.yul\":7184:7193   */\n      dup4\n        /* \"#utility.yul\":7180:7197   */\n      add\n        /* \"#utility.yul\":7173:7220   */\n      mstore\n        /* \"#utility.yul\":7237:7368   */\n      tag_201\n        /* \"#utility.yul\":7363:7367   */\n      dup2\n        /* \"#utility.yul\":7237:7368   */\n      tag_120\n      jump\t// in\n    tag_201:\n        /* \"#utility.yul\":7229:7368   */\n      swap1\n      pop\n        /* \"#utility.yul\":6956:7375   */\n      swap2\n      swap1\n      pop\n      jump\t// out\n        /* \"#utility.yul\":7381:7609   */\n    tag_121:\n        /* \"#utility.yul\":7521:7555   */\n      0x5265736572766520616d6f756e74206d75737420626520677265617465722074\n        /* \"#utility.yul\":7517:7518   */\n      0x00\n        /* \"#utility.yul\":7509:7515   */\n      dup3\n        /* \"#utility.yul\":7505:7519   */\n      add\n        /* \"#utility.yul\":7498:7556   */\n      mstore\n        /* \"#utility.yul\":7590:7601   */\n      0x68616e207a65726f2e0000000000000000000000000000000000000000000000\n        /* \"#utility.yul\":7585:7587   */\n      0x20\n        /* \"#utility.yul\":7577:7583   */\n      dup3\n        /* \"#utility.yul\":7573:7588   */\n      add\n        /* \"#utility.yul\":7566:7602   */\n      mstore\n        /* \"#utility.yul\":7381:7609   */\n      pop\n      jump\t// out\n        /* \"#utility.yul\":7615:7981   */\n    tag_122:\n        /* \"#utility.yul\":7757:7760   */\n      0x00\n        /* \"#utility.yul\":7778:7845   */\n      tag_204\n        /* \"#utility.yul\":7842:7844   */\n      0x29\n        /* \"#utility.yul\":7837:7840   */\n      dup4\n        /* \"#utility.yul\":7778:7845   */\n      tag_114\n      jump\t// in\n    tag_204:\n        /* \"#utility.yul\":7771:7845   */\n      swap2\n      pop\n        /* \"#utility.yul\":7854:7947   */\n      tag_205\n        /* \"#utility.yul\":7943:7946   */\n      dup3\n        /* \"#utility.yul\":7854:7947   */\n      tag_121\n      jump\t// in\n    tag_205:\n        /* \"#utility.yul\":7972:7974   */\n      0x40\n        /* \"#utility.yul\":7967:7970   */\n      dup3\n        /* \"#utility.yul\":7963:7975   */\n      add\n        /* \"#utility.yul\":7956:7975   */\n      swap1\n      pop\n        /* \"#utility.yul\":7615:7981   */\n      swap2\n      swap1\n      pop\n      jump\t// out\n        /* \"#utility.yul\":7987:8406   */\n    tag_71:\n        /* \"#utility.yul\":8153:8157   */\n      0x00\n        /* \"#utility.yul\":8191:8193   */\n      0x20\n        /* \"#utility.yul\":8180:8189   */\n      dup3\n        /* \"#utility.yul\":8176:8194   */\n      add\n        /* \"#utility.yul\":8168:8194   */\n      swap1\n      pop\n        /* \"#utility.yul\":8240:8249   */\n      dup2\n        /* \"#utility.yul\":8234:8238   */\n      dup2\n        /* \"#utility.yul\":8230:8250   */\n      sub\n        /* \"#utility.yul\":8226:8227   */\n      0x00\n        /* \"#utility.yul\":8215:8224   */\n      dup4\n        /* \"#utility.yul\":8211:8228   */\n      add\n        /* \"#utility.yul\":8204:8251   */\n      mstore\n        /* \"#utility.yul\":8268:8399   */\n      tag_207\n        /* \"#utility.yul\":8394:8398   */\n      dup2\n        /* \"#utility.yul\":8268:8399   */\n      tag_122\n      jump\t// in\n    tag_207:\n        /* \"#utility.yul\":8260:8399   */\n      swap1\n      pop\n        /* \"#utility.yul\":7987:8406   */\n      swap2\n      swap1\n      pop\n      jump\t// out\n        /* \"#utility.yul\":8412:8592   */\n    tag_123:\n        /* \"#utility.yul\":8460:8537   */\n      0x4e487b7100000000000000000000000000000000000000000000000000000000\n        /* \"#utility.yul\":8457:8458   */\n      0x00\n        /* \"#utility.yul\":8450:8538   */\n      mstore\n        /* \"#utility.yul\":8557:8561   */\n      0x11\n        /* \"#utility.yul\":8554:8555   */\n      0x04\n        /* \"#utility.yul\":8547:8562   */\n      mstore\n        /* \"#utility.yul\":8581:8585   */\n      0x24\n        /* \"#utility.yul\":8578:8579   */\n      0x00\n        /* \"#utility.yul\":8571:8586   */\n      revert\n        /* \"#utility.yul\":8598:8903   */\n    tag_73:\n        /* \"#utility.yul\":8638:8641   */\n      0x00\n        /* \"#utility.yul\":8657:8677   */\n      tag_210\n        /* \"#utility.yul\":8675:8676   */\n      dup3\n        /* \"#utility.yul\":8657:8677   */\n      tag_102\n      jump\t// in\n    tag_210:\n        /* \"#utility.yul\":8652:8677   */\n      swap2\n      pop\n        /* \"#utility.yul\":8691:8711   */\n      tag_211\n        /* \"#utility.yul\":8709:8710   */\n      dup4\n        /* \"#utility.yul\":8691:8711   */\n      tag_102\n      jump\t// in\n    tag_211:\n        /* \"#utility.yul\":8686:8711   */\n      swap3\n      pop\n        /* \"#utility.yul\":8845:8846   */\n      dup3\n        /* \"#utility.yul\":8777:8843   */\n      0xffffffffffffffffffffffffffffffffffffffffffffffffffffffffffffffff\n        /* \"#utility.yul\":8773:8847   */\n      sub\n        /* \"#utility.yul\":8770:8771   */\n      dup3\n        /* \"#utility.yul\":8767:8848   */\n      gt\n        /* \"#utility.yul\":8764:8871   */\n      iszero\n      tag_212\n      jumpi\n        /* \"#utility.yul\":8851:8869   */\n      tag_213\n      tag_123\n      jump\t// in\n    tag_213:\n        /* \"#utility.yul\":8764:8871   */\n    tag_212:\n        /* \"#utility.yul\":8895:8896   */\n      dup3\n        /* \"#utility.yul\":8892:8893   */\n      dup3\n        /* \"#utility.yul\":8888:8897   */\n      add\n        /* \"#utility.yul\":8881:8897   */\n      swap1\n      pop\n        /* \"#utility.yul\":8598:8903   */\n      swap3\n      swap2\n      pop\n      pop\n      jump\t// out\n        /* \"#utility.yul\":8909:9142   */\n    tag_75:\n        /* \"#utility.yul\":8948:8951   */\n      0x00\n        /* \"#utility.yul\":8971:8995   */\n      tag_215\n        /* \"#utility.yul\":8989:8994   */\n      dup3\n        /* \"#utility.yul\":8971:8995   */\n      tag_102\n      jump\t// in\n    tag_215:\n        /* \"#utility.yul\":8962:8995   */\n      swap2\n      pop\n        /* \"#utility.yul\":9017:9083   */\n      0xffffffffffffffffffffffffffffffffffffffffffffffffffffffffffffffff\n        /* \"#utility.yul\":9010:9015   */\n      dup3\n        /* \"#utility.yul\":9007:9084   */\n      eq\n        /* \"#utility.yul\":9004:9107   */\n      iszero\n      tag_216\n      jumpi\n        /* \"#utility.yul\":9087:9105   */\n      tag_217\n      tag_123\n      jump\t// in\n    tag_217:\n        /* \"#utility.yul\":9004:9107   */\n    tag_216:\n        /* \"#utility.yul\":9134:9135   */\n      0x01\n        /* \"#utility.yul\":9127:9132   */\n      dup3\n        /* \"#utility.yul\":9123:9136   */\n      add\n        /* \"#utility.yul\":9116:9136   */\n      swap1\n      pop\n        /* \"#utility.yul\":8909:9142   */\n      swap2\n      swap1\n      pop\n      jump\t// out\n        /* \"#utility.yul\":9148:9590   */\n    tag_77:\n        /* \"#utility.yul\":9297:9301   */\n      0x00\n        /* \"#utility.yul\":9335:9337   */\n      0x60\n        /* \"#utility.yul\":9324:9333   */\n      dup3\n        /* \"#utility.yul\":9320:9338   */\n      add\n        /* \"#utility.yul\":9312:9338   */\n      swap1\n      pop\n        /* \"#utility.yul\":9348:9419   */\n      tag_219\n        /* \"#utility.yul\":9416:9417   */\n      0x00\n        /* \"#utility.yul\":9405:9414   */\n      dup4\n        /* \"#utility.yul\":9401:9418   */\n      add\n        /* \"#utility.yul\":9392:9398   */\n      dup7\n        /* \"#utility.yul\":9348:9419   */\n      tag_111\n      jump\t// in\n    tag_219:\n        /* \"#utility.yul\":9429:9501   */\n      tag_220\n        /* \"#utility.yul\":9497:9499   */\n      0x20\n        /* \"#utility.yul\":9486:9495   */\n      dup4\n        /* \"#utility.yul\":9482:9500   */\n      add\n        /* \"#utility.yul\":9473:9479   */\n      dup6\n        /* \"#utility.yul\":9429:9501   */\n      tag_111\n      jump\t// in\n    tag_220:\n        /* \"#utility.yul\":9511:9583   */\n      tag_221\n        /* \"#utility.yul\":9579:9581   */\n      0x40\n        /* \"#utility.yul\":9568:9577   */\n      dup4\n        /* \"#utility.yul\":9564:9582   */\n      add\n        /* \"#utility.yul\":9555:9561   */\n      dup5\n        /* \"#utility.yul\":9511:9583   */\n      tag_103\n      jump\t// in\n    tag_221:\n        /* \"#utility.yul\":9148:9590   */\n      swap5\n      swap4\n      pop\n      pop\n      pop\n      pop\n      jump\t// out\n        /* \"#utility.yul\":9596:9712   */\n    tag_124:\n        /* \"#utility.yul\":9666:9687   */\n      tag_223\n        /* \"#utility.yul\":9681:9686   */\n      dup2\n        /* \"#utility.yul\":9666:9687   */\n      tag_104\n      jump\t// in\n    tag_223:\n        /* \"#utility.yul\":9659:9664   */\n      dup2\n        /* \"#utility.yul\":9656:9688   */\n      eq\n        /* \"#utility.yul\":9646:9706   */\n      tag_224\n      jumpi\n        /* \"#utility.yul\":9702:9703   */\n      0x00\n        /* \"#utility.yul\":9699:9700   */\n      dup1\n        /* \"#utility.yul\":9692:9704   */\n      revert\n        /* \"#utility.yul\":9646:9706   */\n    tag_224:\n        /* \"#utility.yul\":9596:9712   */\n      pop\n      jump\t// out\n        /* \"#utility.yul\":9718:9855   */\n    tag_125:\n        /* \"#utility.yul\":9772:9777   */\n      0x00\n        /* \"#utility.yul\":9803:9809   */\n      dup2\n        /* \"#utility.yul\":9797:9810   */\n      mload\n        /* \"#utility.yul\":9788:9810   */\n      swap1\n      pop\n        /* \"#utility.yul\":9819:9849   */\n      tag_226\n        /* \"#utility.yul\":9843:9848   */\n      dup2\n        /* \"#utility.yul\":9819:9849   */\n      tag_124\n      jump\t// in\n    tag_226:\n        /* \"#utility.yul\":9718:9855   */\n      swap3\n      swap2\n      pop\n      pop\n      jump\t// out\n        /* \"#utility.yul\":9861:10206   */\n    tag_82:\n        /* \"#utility.yul\":9928:9934   */\n      0x00\n        /* \"#utility.yul\":9977:9979   */\n      0x20\n        /* \"#utility.yul\":9965:9974   */\n      dup3\n        /* \"#utility.yul\":9956:9963   */\n      dup5\n        /* \"#utility.yul\":9952:9975   */\n      sub\n        /* \"#utility.yul\":9948:9980   */\n      slt\n        /* \"#utility.yul\":9945:10064   */\n      iszero\n      tag_228\n      jumpi\n        /* \"#utility.yul\":9983:10062   */\n      tag_229\n      tag_96\n      jump\t// in\n    tag_229:\n        /* \"#utility.yul\":9945:10064   */\n    tag_228:\n        /* \"#utility.yul\":10103:10104   */\n      0x00\n        /* \"#utility.yul\":10128:10189   */\n      tag_230\n        /* \"#utility.yul\":10181:10188   */\n      dup5\n        /* \"#utility.yul\":10172:10178   */\n      dup3\n        /* \"#utility.yul\":10161:10170   */\n      dup6\n        /* \"#utility.yul\":10157:10179   */\n      add\n        /* \"#utility.yul\":10128:10189   */\n      tag_125\n      jump\t// in\n    tag_230:\n        /* \"#utility.yul\":10118:10189   */\n      swap2\n      pop\n        /* \"#utility.yul\":10074:10199   */\n      pop\n        /* \"#utility.yul\":9861:10206   */\n      swap3\n      swap2\n      pop\n      pop\n      jump\t// out\n        /* \"#utility.yul\":10212:10544   */\n    tag_84:\n        /* \"#utility.yul\":10333:10337   */\n      0x00\n        /* \"#utility.yul\":10371:10373   */\n      0x40\n        /* \"#utility.yul\":10360:10369   */\n      dup3\n        /* \"#utility.yul\":10356:10374   */\n      add\n        /* \"#utility.yul\":10348:10374   */\n      swap1\n      pop\n        /* \"#utility.yul\":10384:10455   */\n      tag_232\n        /* \"#utility.yul\":10452:10453   */\n      0x00\n        /* \"#utility.yul\":10441:10450   */\n      dup4\n        /* \"#utility.yul\":10437:10454   */\n      add\n        /* \"#utility.yul\":10428:10434   */\n      dup6\n        /* \"#utility.yul\":10384:10455   */\n      tag_111\n      jump\t// in\n    tag_232:\n        /* \"#utility.yul\":10465:10537   */\n      tag_233\n        /* \"#utility.yul\":10533:10535   */\n      0x20\n        /* \"#utility.yul\":10522:10531   */\n      dup4\n        /* \"#utility.yul\":10518:10536   */\n      add\n        /* \"#utility.yul\":10509:10515   */\n      dup5\n        /* \"#utility.yul\":10465:10537   */\n      tag_103\n      jump\t// in\n    tag_233:\n        /* \"#utility.yul\":10212:10544   */\n      swap4\n      swap3\n      pop\n      pop\n      pop\n      jump\t// out\n        /* \"#utility.yul\":10550:10775   */\n    tag_126:\n        /* \"#utility.yul\":10690:10724   */\n      0x4f6e6c7920746865206f776e65722063616e2063616c6c20746869732066756e\n        /* \"#utility.yul\":10686:10687   */\n      0x00\n        /* \"#utility.yul\":10678:10684   */\n      dup3\n        /* \"#utility.yul\":10674:10688   */\n      add\n        /* \"#utility.yul\":10667:10725   */\n      mstore\n        /* \"#utility.yul\":10759:10767   */\n      0x6374696f6e2e0000000000000000000000000000000000000000000000000000\n        /* \"#utility.yul\":10754:10756   */\n      0x20\n        /* \"#utility.yul\":10746:10752   */\n      dup3\n        /* \"#utility.yul\":10742:10757   */\n      add\n        /* \"#utility.yul\":10735:10768   */\n      mstore\n        /* \"#utility.yul\":10550:10775   */\n      pop\n      jump\t// out\n        /* \"#utility.yul\":10781:11147   */\n    tag_127:\n        /* \"#utility.yul\":10923:10926   */\n      0x00\n        /* \"#utility.yul\":10944:11011   */\n      tag_236\n        /* \"#utility.yul\":11008:11010   */\n      0x26\n        /* \"#utility.yul\":11003:11006   */\n      dup4\n        /* \"#utility.yul\":10944:11011   */\n      tag_114\n      jump\t// in\n    tag_236:\n        /* \"#utility.yul\":10937:11011   */\n      swap2\n      pop\n        /* \"#utility.yul\":11020:11113   */\n      tag_237\n        /* \"#utility.yul\":11109:11112   */\n      dup3\n        /* \"#utility.yul\":11020:11113   */\n      tag_126\n      jump\t// in\n    tag_237:\n        /* \"#utility.yul\":11138:11140   */\n      0x40\n        /* \"#utility.yul\":11133:11136   */\n      dup3\n        /* \"#utility.yul\":11129:11141   */\n      add\n        /* \"#utility.yul\":11122:11141   */\n      swap1\n      pop\n        /* \"#utility.yul\":10781:11147   */\n      swap2\n      swap1\n      pop\n      jump\t// out\n        /* \"#utility.yul\":11153:11572   */\n    tag_88:\n        /* \"#utility.yul\":11319:11323   */\n      0x00\n        /* \"#utility.yul\":11357:11359   */\n      0x20\n        /* \"#utility.yul\":11346:11355   */\n      dup3\n        /* \"#utility.yul\":11342:11360   */\n      add\n        /* \"#utility.yul\":11334:11360   */\n      swap1\n      pop\n        /* \"#utility.yul\":11406:11415   */\n      dup2\n        /* \"#utility.yul\":11400:11404   */\n      dup2\n        /* \"#utility.yul\":11396:11416   */\n      sub\n        /* \"#utility.yul\":11392:11393   */\n      0x00\n        /* \"#utility.yul\":11381:11390   */\n      dup4\n        /* \"#utility.yul\":11377:11394   */\n      add\n        /* \"#utility.yul\":11370:11417   */\n      mstore\n        /* \"#utility.yul\":11434:11565   */\n      tag_239\n        /* \"#utility.yul\":11560:11564   */\n      dup2\n        /* \"#utility.yul\":11434:11565   */\n      tag_127\n      jump\t// in\n    tag_239:\n        /* \"#utility.yul\":11426:11565   */\n      swap1\n      pop\n        /* \"#utility.yul\":11153:11572   */\n      swap2\n      swap1\n      pop\n      jump\t// out\n\n    auxdata: 0xa26469706673582212208c566da5a401ac51d03c5d3da73f8c77df4c28a99b453d9b34619bf450410fe164736f6c63430008080033\n}\n",
				"bytecode": {
					"linkReferences": {},
					"object": "60806040523480156200001157600080fd5b506040516200105538038062001055833981810160405281019062000037919062000181565b336000806101000a81548173ffffffffffffffffffffffffffffffffffffffff021916908373ffffffffffffffffffffffffffffffffffffffff16021790555082600460006101000a81548173ffffffffffffffffffffffffffffffffffffffff021916908373ffffffffffffffffffffffffffffffffffffffff1602179055508142620000c691906200020c565b6001819055508060028190555050505062000269565b600080fd5b600073ffffffffffffffffffffffffffffffffffffffff82169050919050565b60006200010e82620000e1565b9050919050565b620001208162000101565b81146200012c57600080fd5b50565b600081519050620001408162000115565b92915050565b6000819050919050565b6200015b8162000146565b81146200016757600080fd5b50565b6000815190506200017b8162000150565b92915050565b6000806000606084860312156200019d576200019c620000dc565b5b6000620001ad868287016200012f565b9350506020620001c0868287016200016a565b9250506040620001d3868287016200016a565b9150509250925092565b7f4e487b7100000000000000000000000000000000000000000000000000000000600052601160045260246000fd5b6000620002198262000146565b9150620002268362000146565b9250827fffffffffffffffffffffffffffffffffffffffffffffffffffffffffffffffff038211156200025e576200025d620001dd565b5b828201905092915050565b610ddc80620002796000396000f3fe608060405234801561001057600080fd5b50600436106100a95760003560e01c80634c68df67116100715780634c68df671461015757806358797cb6146101755780638da5cb5b14610193578063ec022918146101b1578063f0194f89146101cf578063fe67a54b146101eb576100a9565b806309e69ede146100ae57806312fa6feb146100df57806324924bf7146100fd578063362f04c01461011b5780634b449cba14610139575b600080fd5b6100c860048036038101906100c391906107c3565b6101f5565b6040516100d6929190610824565b60405180910390f35b6100e7610226565b6040516100f4919061084d565b60405180910390f35b610105610239565b6040516101129190610868565b60405180910390f35b61012361023f565b6040516101309190610868565b60405180910390f35b610141610245565b60405161014e9190610868565b60405180910390f35b61015f61024b565b60405161016c9190610868565b60405180910390f35b61017d610251565b60405161018a91906108e2565b60405180910390f35b61019b610277565b6040516101a8919061090c565b60405180910390f35b6101b961029b565b6040516101c69190610868565b60405180910390f35b6101e960048036038101906101e49190610953565b6102a5565b005b6101f36105f5565b005b60056020528060005260406000206000915090508060000154908060010160009054906101000a900460ff16905082565b600760009054906101000a900460ff1681565b60025481565b60035481565b60015481565b60065481565b600460009054906101000a900473ffffffffffffffffffffffffffffffffffffffff1681565b60008054906101000a900473ffffffffffffffffffffffffffffffffffffffff1681565b6000600654905090565b600760009054906101000a900460ff16156102f5576040517f08c379a00000000000000000000000000000000000000000000000000000000081526004016102ec906109dd565b60405180910390fd5b6001544210610339576040517f08c379a0000000000000000000000000000000000000000000000000000000008152600401610330906109dd565b60405180910390fd5b600560003373ffffffffffffffffffffffffffffffffffffffff1673ffffffffffffffffffffffffffffffffffffffff16815260200190815260200160002060010160009054906101000a900460ff16156103c9576040517f08c379a00000000000000000000000000000000000000000000000000000000081526004016103c090610a6f565b60405180910390fd5b6002546003541061040f576040517f08c379a000000000000000000000000000000000000000000000000000000000815260040161040690610adb565b60405180910390fd5b60008111610452576040517f08c379a000000000000000000000000000000000000000000000000000000000815260040161044990610b6d565b60405180910390fd5b604051806040016040528082815260200160011515815250600560003373ffffffffffffffffffffffffffffffffffffffff1673ffffffffffffffffffffffffffffffffffffffff1681526020019081526020016000206000820151816000015560208201518160010160006101000a81548160ff02191690831515021790555090505080600660008282546104e89190610bbc565b925050819055506003600081548092919061050290610c12565b9190505550600460009054906101000a900473ffffffffffffffffffffffffffffffffffffffff1673ffffffffffffffffffffffffffffffffffffffff166323b872dd3330846040518463ffffffff1660e01b815260040161056693929190610c5b565b602060405180830381600087803b15801561058057600080fd5b505af1158015610594573d6000803e3d6000fd5b505050506040513d601f19601f820116820180604052508101906105b89190610cbe565b507f8123641a38ad3476ac345fc38496fa9edc26a110698c8c0c9fffc30f546f918c33826040516105ea929190610ceb565b60405180910390a150565b60008054906101000a900473ffffffffffffffffffffffffffffffffffffffff1673ffffffffffffffffffffffffffffffffffffffff163373ffffffffffffffffffffffffffffffffffffffff1614610683576040517f08c379a000000000000000000000000000000000000000000000000000000000815260040161067a90610d86565b60405180910390fd5b600760009054906101000a900460ff16156106d3576040517f08c379a00000000000000000000000000000000000000000000000000000000081526004016106ca906109dd565b60405180910390fd5b6001544210610717576040517f08c379a000000000000000000000000000000000000000000000000000000000815260040161070e906109dd565b60405180910390fd5b6001600760006101000a81548160ff0219169083151502179055507fa0e92984607195c326795751263414ee1074526323552e694c90ef2b99ae3f2960405160405180910390a1565b600080fd5b600073ffffffffffffffffffffffffffffffffffffffff82169050919050565b600061079082610765565b9050919050565b6107a081610785565b81146107ab57600080fd5b50565b6000813590506107bd81610797565b92915050565b6000602082840312156107d9576107d8610760565b5b60006107e7848285016107ae565b91505092915050565b6000819050919050565b610803816107f0565b82525050565b60008115159050919050565b61081e81610809565b82525050565b600060408201905061083960008301856107fa565b6108466020830184610815565b9392505050565b60006020820190506108626000830184610815565b92915050565b600060208201905061087d60008301846107fa565b92915050565b6000819050919050565b60006108a86108a361089e84610765565b610883565b610765565b9050919050565b60006108ba8261088d565b9050919050565b60006108cc826108af565b9050919050565b6108dc816108c1565b82525050565b60006020820190506108f760008301846108d3565b92915050565b61090681610785565b82525050565b600060208201905061092160008301846108fd565b92915050565b610930816107f0565b811461093b57600080fd5b50565b60008135905061094d81610927565b92915050565b60006020828403121561096957610968610760565b5b60006109778482850161093e565b91505092915050565b600082825260208201905092915050565b7f41756374696f6e2068617320616c726561647920656e6465642e000000000000600082015250565b60006109c7601a83610980565b91506109d282610991565b602082019050919050565b600060208201905081810360008301526109f6816109ba565b9050919050565b7f596f75206861766520616c7265616479206a6f696e656420746865206175637460008201527f696f6e2e00000000000000000000000000000000000000000000000000000000602082015250565b6000610a59602483610980565b9150610a64826109fd565b604082019050919050565b60006020820190508181036000830152610a8881610a4c565b9050919050565b7f41756374696f6e2069732066756c6c2e00000000000000000000000000000000600082015250565b6000610ac5601083610980565b9150610ad082610a8f565b602082019050919050565b60006020820190508181036000830152610af481610ab8565b9050919050565b7f5265736572766520616d6f756e74206d7573742062652067726561746572207460008201527f68616e207a65726f2e0000000000000000000000000000000000000000000000602082015250565b6000610b57602983610980565b9150610b6282610afb565b604082019050919050565b60006020820190508181036000830152610b8681610b4a565b9050919050565b7f4e487b7100000000000000000000000000000000000000000000000000000000600052601160045260246000fd5b6000610bc7826107f0565b9150610bd2836107f0565b9250827fffffffffffffffffffffffffffffffffffffffffffffffffffffffffffffffff03821115610c0757610c06610b8d565b5b828201905092915050565b6000610c1d826107f0565b91507fffffffffffffffffffffffffffffffffffffffffffffffffffffffffffffffff821415610c5057610c4f610b8d565b5b600182019050919050565b6000606082019050610c7060008301866108fd565b610c7d60208301856108fd565b610c8a60408301846107fa565b949350505050565b610c9b81610809565b8114610ca657600080fd5b50565b600081519050610cb881610c92565b92915050565b600060208284031215610cd457610cd3610760565b5b6000610ce284828501610ca9565b91505092915050565b6000604082019050610d0060008301856108fd565b610d0d60208301846107fa565b9392505050565b7f4f6e6c7920746865206f776e65722063616e2063616c6c20746869732066756e60008201527f6374696f6e2e0000000000000000000000000000000000000000000000000000602082015250565b6000610d70602683610980565b9150610d7b82610d14565b604082019050919050565b60006020820190508181036000830152610d9f81610d63565b905091905056fea26469706673582212208c566da5a401ac51d03c5d3da73f8c77df4c28a99b453d9b34619bf450410fe164736f6c63430008080033",
					"opcodes": "PUSH1 0x80 PUSH1 0x40 MSTORE CALLVALUE DUP1 ISZERO PUSH3 0x11 JUMPI PUSH1 0x0 DUP1 REVERT JUMPDEST POP PUSH1 0x40 MLOAD PUSH3 0x1055 CODESIZE SUB DUP1 PUSH3 0x1055 DUP4 CODECOPY DUP2 DUP2 ADD PUSH1 0x40 MSTORE DUP2 ADD SWAP1 PUSH3 0x37 SWAP2 SWAP1 PUSH3 0x181 JUMP JUMPDEST CALLER PUSH1 0x0 DUP1 PUSH2 0x100 EXP DUP2 SLOAD DUP2 PUSH20 0xFFFFFFFFFFFFFFFFFFFFFFFFFFFFFFFFFFFFFFFF MUL NOT AND SWAP1 DUP4 PUSH20 0xFFFFFFFFFFFFFFFFFFFFFFFFFFFFFFFFFFFFFFFF AND MUL OR SWAP1 SSTORE POP DUP3 PUSH1 0x4 PUSH1 0x0 PUSH2 0x100 EXP DUP2 SLOAD DUP2 PUSH20 0xFFFFFFFFFFFFFFFFFFFFFFFFFFFFFFFFFFFFFFFF MUL NOT AND SWAP1 DUP4 PUSH20 0xFFFFFFFFFFFFFFFFFFFFFFFFFFFFFFFFFFFFFFFF AND MUL OR SWAP1 SSTORE POP DUP2 TIMESTAMP PUSH3 0xC6 SWAP2 SWAP1 PUSH3 0x20C JUMP JUMPDEST PUSH1 0x1 DUP2 SWAP1 SSTORE POP DUP1 PUSH1 0x2 DUP2 SWAP1 SSTORE POP POP POP POP PUSH3 0x269 JUMP JUMPDEST PUSH1 0x0 DUP1 REVERT JUMPDEST PUSH1 0x0 PUSH20 0xFFFFFFFFFFFFFFFFFFFFFFFFFFFFFFFFFFFFFFFF DUP3 AND SWAP1 POP SWAP2 SWAP1 POP JUMP JUMPDEST PUSH1 0x0 PUSH3 0x10E DUP3 PUSH3 0xE1 JUMP JUMPDEST SWAP1 POP SWAP2 SWAP1 POP JUMP JUMPDEST PUSH3 0x120 DUP2 PUSH3 0x101 JUMP JUMPDEST DUP2 EQ PUSH3 0x12C JUMPI PUSH1 0x0 DUP1 REVERT JUMPDEST POP JUMP JUMPDEST PUSH1 0x0 DUP2 MLOAD SWAP1 POP PUSH3 0x140 DUP2 PUSH3 0x115 JUMP JUMPDEST SWAP3 SWAP2 POP POP JUMP JUMPDEST PUSH1 0x0 DUP2 SWAP1 POP SWAP2 SWAP1 POP JUMP JUMPDEST PUSH3 0x15B DUP2 PUSH3 0x146 JUMP JUMPDEST DUP2 EQ PUSH3 0x167 JUMPI PUSH1 0x0 DUP1 REVERT JUMPDEST POP JUMP JUMPDEST PUSH1 0x0 DUP2 MLOAD SWAP1 POP PUSH3 0x17B DUP2 PUSH3 0x150 JUMP JUMPDEST SWAP3 SWAP2 POP POP JUMP JUMPDEST PUSH1 0x0 DUP1 PUSH1 0x0 PUSH1 0x60 DUP5 DUP7 SUB SLT ISZERO PUSH3 0x19D JUMPI PUSH3 0x19C PUSH3 0xDC JUMP JUMPDEST JUMPDEST PUSH1 0x0 PUSH3 0x1AD DUP7 DUP3 DUP8 ADD PUSH3 0x12F JUMP JUMPDEST SWAP4 POP POP PUSH1 0x20 PUSH3 0x1C0 DUP7 DUP3 DUP8 ADD PUSH3 0x16A JUMP JUMPDEST SWAP3 POP POP PUSH1 0x40 PUSH3 0x1D3 DUP7 DUP3 DUP8 ADD PUSH3 0x16A JUMP JUMPDEST SWAP2 POP POP SWAP3 POP SWAP3 POP SWAP3 JUMP JUMPDEST PUSH32 0x4E487B7100000000000000000000000000000000000000000000000000000000 PUSH1 0x0 MSTORE PUSH1 0x11 PUSH1 0x4 MSTORE PUSH1 0x24 PUSH1 0x0 REVERT JUMPDEST PUSH1 0x0 PUSH3 0x219 DUP3 PUSH3 0x146 JUMP JUMPDEST SWAP2 POP PUSH3 0x226 DUP4 PUSH3 0x146 JUMP JUMPDEST SWAP3 POP DUP3 PUSH32 0xFFFFFFFFFFFFFFFFFFFFFFFFFFFFFFFFFFFFFFFFFFFFFFFFFFFFFFFFFFFFFFFF SUB DUP3 GT ISZERO PUSH3 0x25E JUMPI PUSH3 0x25D PUSH3 0x1DD JUMP JUMPDEST JUMPDEST DUP3 DUP3 ADD SWAP1 POP SWAP3 SWAP2 POP POP JUMP JUMPDEST PUSH2 0xDDC DUP1 PUSH3 0x279 PUSH1 0x0 CODECOPY PUSH1 0x0 RETURN INVALID PUSH1 0x80 PUSH1 0x40 MSTORE CALLVALUE DUP1 ISZERO PUSH2 0x10 JUMPI PUSH1 0x0 DUP1 REVERT JUMPDEST POP PUSH1 0x4 CALLDATASIZE LT PUSH2 0xA9 JUMPI PUSH1 0x0 CALLDATALOAD PUSH1 0xE0 SHR DUP1 PUSH4 0x4C68DF67 GT PUSH2 0x71 JUMPI DUP1 PUSH4 0x4C68DF67 EQ PUSH2 0x157 JUMPI DUP1 PUSH4 0x58797CB6 EQ PUSH2 0x175 JUMPI DUP1 PUSH4 0x8DA5CB5B EQ PUSH2 0x193 JUMPI DUP1 PUSH4 0xEC022918 EQ PUSH2 0x1B1 JUMPI DUP1 PUSH4 0xF0194F89 EQ PUSH2 0x1CF JUMPI DUP1 PUSH4 0xFE67A54B EQ PUSH2 0x1EB JUMPI PUSH2 0xA9 JUMP JUMPDEST DUP1 PUSH4 0x9E69EDE EQ PUSH2 0xAE JUMPI DUP1 PUSH4 0x12FA6FEB EQ PUSH2 0xDF JUMPI DUP1 PUSH4 0x24924BF7 EQ PUSH2 0xFD JUMPI DUP1 PUSH4 0x362F04C0 EQ PUSH2 0x11B JUMPI DUP1 PUSH4 0x4B449CBA EQ PUSH2 0x139 JUMPI JUMPDEST PUSH1 0x0 DUP1 REVERT JUMPDEST PUSH2 0xC8 PUSH1 0x4 DUP1 CALLDATASIZE SUB DUP2 ADD SWAP1 PUSH2 0xC3 SWAP2 SWAP1 PUSH2 0x7C3 JUMP JUMPDEST PUSH2 0x1F5 JUMP JUMPDEST PUSH1 0x40 MLOAD PUSH2 0xD6 SWAP3 SWAP2 SWAP1 PUSH2 0x824 JUMP JUMPDEST PUSH1 0x40 MLOAD DUP1 SWAP2 SUB SWAP1 RETURN JUMPDEST PUSH2 0xE7 PUSH2 0x226 JUMP JUMPDEST PUSH1 0x40 MLOAD PUSH2 0xF4 SWAP2 SWAP1 PUSH2 0x84D JUMP JUMPDEST PUSH1 0x40 MLOAD DUP1 SWAP2 SUB SWAP1 RETURN JUMPDEST PUSH2 0x105 PUSH2 0x239 JUMP JUMPDEST PUSH1 0x40 MLOAD PUSH2 0x112 SWAP2 SWAP1 PUSH2 0x868 JUMP JUMPDEST PUSH1 0x40 MLOAD DUP1 SWAP2 SUB SWAP1 RETURN JUMPDEST PUSH2 0x123 PUSH2 0x23F JUMP JUMPDEST PUSH1 0x40 MLOAD PUSH2 0x130 SWAP2 SWAP1 PUSH2 0x868 JUMP JUMPDEST PUSH1 0x40 MLOAD DUP1 SWAP2 SUB SWAP1 RETURN JUMPDEST PUSH2 0x141 PUSH2 0x245 JUMP JUMPDEST PUSH1 0x40 MLOAD PUSH2 0x14E SWAP2 SWAP1 PUSH2 0x868 JUMP JUMPDEST PUSH1 0x40 MLOAD DUP1 SWAP2 SUB SWAP1 RETURN JUMPDEST PUSH2 0x15F PUSH2 0x24B JUMP JUMPDEST PUSH1 0x40 MLOAD PUSH2 0x16C SWAP2 SWAP1 PUSH2 0x868 JUMP JUMPDEST PUSH1 0x40 MLOAD DUP1 SWAP2 SUB SWAP1 RETURN JUMPDEST PUSH2 0x17D PUSH2 0x251 JUMP JUMPDEST PUSH1 0x40 MLOAD PUSH2 0x18A SWAP2 SWAP1 PUSH2 0x8E2 JUMP JUMPDEST PUSH1 0x40 MLOAD DUP1 SWAP2 SUB SWAP1 RETURN JUMPDEST PUSH2 0x19B PUSH2 0x277 JUMP JUMPDEST PUSH1 0x40 MLOAD PUSH2 0x1A8 SWAP2 SWAP1 PUSH2 0x90C JUMP JUMPDEST PUSH1 0x40 MLOAD DUP1 SWAP2 SUB SWAP1 RETURN JUMPDEST PUSH2 0x1B9 PUSH2 0x29B JUMP JUMPDEST PUSH1 0x40 MLOAD PUSH2 0x1C6 SWAP2 SWAP1 PUSH2 0x868 JUMP JUMPDEST PUSH1 0x40 MLOAD DUP1 SWAP2 SUB SWAP1 RETURN JUMPDEST PUSH2 0x1E9 PUSH1 0x4 DUP1 CALLDATASIZE SUB DUP2 ADD SWAP1 PUSH2 0x1E4 SWAP2 SWAP1 PUSH2 0x953 JUMP JUMPDEST PUSH2 0x2A5 JUMP JUMPDEST STOP JUMPDEST PUSH2 0x1F3 PUSH2 0x5F5 JUMP JUMPDEST STOP JUMPDEST PUSH1 0x5 PUSH1 0x20 MSTORE DUP1 PUSH1 0x0 MSTORE PUSH1 0x40 PUSH1 0x0 KECCAK256 PUSH1 0x0 SWAP2 POP SWAP1 POP DUP1 PUSH1 0x0 ADD SLOAD SWAP1 DUP1 PUSH1 0x1 ADD PUSH1 0x0 SWAP1 SLOAD SWAP1 PUSH2 0x100 EXP SWAP1 DIV PUSH1 0xFF AND SWAP1 POP DUP3 JUMP JUMPDEST PUSH1 0x7 PUSH1 0x0 SWAP1 SLOAD SWAP1 PUSH2 0x100 EXP SWAP1 DIV PUSH1 0xFF AND DUP2 JUMP JUMPDEST PUSH1 0x2 SLOAD DUP2 JUMP JUMPDEST PUSH1 0x3 SLOAD DUP2 JUMP JUMPDEST PUSH1 0x1 SLOAD DUP2 JUMP JUMPDEST PUSH1 0x6 SLOAD DUP2 JUMP JUMPDEST PUSH1 0x4 PUSH1 0x0 SWAP1 SLOAD SWAP1 PUSH2 0x100 EXP SWAP1 DIV PUSH20 0xFFFFFFFFFFFFFFFFFFFFFFFFFFFFFFFFFFFFFFFF AND DUP2 JUMP JUMPDEST PUSH1 0x0 DUP1 SLOAD SWAP1 PUSH2 0x100 EXP SWAP1 DIV PUSH20 0xFFFFFFFFFFFFFFFFFFFFFFFFFFFFFFFFFFFFFFFF AND DUP2 JUMP JUMPDEST PUSH1 0x0 PUSH1 0x6 SLOAD SWAP1 POP SWAP1 JUMP JUMPDEST PUSH1 0x7 PUSH1 0x0 SWAP1 SLOAD SWAP1 PUSH2 0x100 EXP SWAP1 DIV PUSH1 0xFF AND ISZERO PUSH2 0x2F5 JUMPI PUSH1 0x40 MLOAD PUSH32 0x8C379A000000000000000000000000000000000000000000000000000000000 DUP2 MSTORE PUSH1 0x4 ADD PUSH2 0x2EC SWAP1 PUSH2 0x9DD JUMP JUMPDEST PUSH1 0x40 MLOAD DUP1 SWAP2 SUB SWAP1 REVERT JUMPDEST PUSH1 0x1 SLOAD TIMESTAMP LT PUSH2 0x339 JUMPI PUSH1 0x40 MLOAD PUSH32 0x8C379A000000000000000000000000000000000000000000000000000000000 DUP2 MSTORE PUSH1 0x4 ADD PUSH2 0x330 SWAP1 PUSH2 0x9DD JUMP JUMPDEST PUSH1 0x40 MLOAD DUP1 SWAP2 SUB SWAP1 REVERT JUMPDEST PUSH1 0x5 PUSH1 0x0 CALLER PUSH20 0xFFFFFFFFFFFFFFFFFFFFFFFFFFFFFFFFFFFFFFFF AND PUSH20 0xFFFFFFFFFFFFFFFFFFFFFFFFFFFFFFFFFFFFFFFF AND DUP2 MSTORE PUSH1 0x20 ADD SWAP1 DUP2 MSTORE PUSH1 0x20 ADD PUSH1 0x0 KECCAK256 PUSH1 0x1 ADD PUSH1 0x0 SWAP1 SLOAD SWAP1 PUSH2 0x100 EXP SWAP1 DIV PUSH1 0xFF AND ISZERO PUSH2 0x3C9 JUMPI PUSH1 0x40 MLOAD PUSH32 0x8C379A000000000000000000000000000000000000000000000000000000000 DUP2 MSTORE PUSH1 0x4 ADD PUSH2 0x3C0 SWAP1 PUSH2 0xA6F JUMP JUMPDEST PUSH1 0x40 MLOAD DUP1 SWAP2 SUB SWAP1 REVERT JUMPDEST PUSH1 0x2 SLOAD PUSH1 0x3 SLOAD LT PUSH2 0x40F JUMPI PUSH1 0x40 MLOAD PUSH32 0x8C379A000000000000000000000000000000000000000000000000000000000 DUP2 MSTORE PUSH1 0x4 ADD PUSH2 0x406 SWAP1 PUSH2 0xADB JUMP JUMPDEST PUSH1 0x40 MLOAD DUP1 SWAP2 SUB SWAP1 REVERT JUMPDEST PUSH1 0x0 DUP2 GT PUSH2 0x452 JUMPI PUSH1 0x40 MLOAD PUSH32 0x8C379A000000000000000000000000000000000000000000000000000000000 DUP2 MSTORE PUSH1 0x4 ADD PUSH2 0x449 SWAP1 PUSH2 0xB6D JUMP JUMPDEST PUSH1 0x40 MLOAD DUP1 SWAP2 SUB SWAP1 REVERT JUMPDEST PUSH1 0x40 MLOAD DUP1 PUSH1 0x40 ADD PUSH1 0x40 MSTORE DUP1 DUP3 DUP2 MSTORE PUSH1 0x20 ADD PUSH1 0x1 ISZERO ISZERO DUP2 MSTORE POP PUSH1 0x5 PUSH1 0x0 CALLER PUSH20 0xFFFFFFFFFFFFFFFFFFFFFFFFFFFFFFFFFFFFFFFF AND PUSH20 0xFFFFFFFFFFFFFFFFFFFFFFFFFFFFFFFFFFFFFFFF AND DUP2 MSTORE PUSH1 0x20 ADD SWAP1 DUP2 MSTORE PUSH1 0x20 ADD PUSH1 0x0 KECCAK256 PUSH1 0x0 DUP3 ADD MLOAD DUP2 PUSH1 0x0 ADD SSTORE PUSH1 0x20 DUP3 ADD MLOAD DUP2 PUSH1 0x1 ADD PUSH1 0x0 PUSH2 0x100 EXP DUP2 SLOAD DUP2 PUSH1 0xFF MUL NOT AND SWAP1 DUP4 ISZERO ISZERO MUL OR SWAP1 SSTORE POP SWAP1 POP POP DUP1 PUSH1 0x6 PUSH1 0x0 DUP3 DUP3 SLOAD PUSH2 0x4E8 SWAP2 SWAP1 PUSH2 0xBBC JUMP JUMPDEST SWAP3 POP POP DUP2 SWAP1 SSTORE POP PUSH1 0x3 PUSH1 0x0 DUP2 SLOAD DUP1 SWAP3 SWAP2 SWAP1 PUSH2 0x502 SWAP1 PUSH2 0xC12 JUMP JUMPDEST SWAP2 SWAP1 POP SSTORE POP PUSH1 0x4 PUSH1 0x0 SWAP1 SLOAD SWAP1 PUSH2 0x100 EXP SWAP1 DIV PUSH20 0xFFFFFFFFFFFFFFFFFFFFFFFFFFFFFFFFFFFFFFFF AND PUSH20 0xFFFFFFFFFFFFFFFFFFFFFFFFFFFFFFFFFFFFFFFF AND PUSH4 0x23B872DD CALLER ADDRESS DUP5 PUSH1 0x40 MLOAD DUP5 PUSH4 0xFFFFFFFF AND PUSH1 0xE0 SHL DUP2 MSTORE PUSH1 0x4 ADD PUSH2 0x566 SWAP4 SWAP3 SWAP2 SWAP1 PUSH2 0xC5B JUMP JUMPDEST PUSH1 0x20 PUSH1 0x40 MLOAD DUP1 DUP4 SUB DUP2 PUSH1 0x0 DUP8 DUP1 EXTCODESIZE ISZERO DUP1 ISZERO PUSH2 0x580 JUMPI PUSH1 0x0 DUP1 REVERT JUMPDEST POP GAS CALL ISZERO DUP1 ISZERO PUSH2 0x594 JUMPI RETURNDATASIZE PUSH1 0x0 DUP1 RETURNDATACOPY RETURNDATASIZE PUSH1 0x0 REVERT JUMPDEST POP POP POP POP PUSH1 0x40 MLOAD RETURNDATASIZE PUSH1 0x1F NOT PUSH1 0x1F DUP3 ADD AND DUP3 ADD DUP1 PUSH1 0x40 MSTORE POP DUP2 ADD SWAP1 PUSH2 0x5B8 SWAP2 SWAP1 PUSH2 0xCBE JUMP JUMPDEST POP PUSH32 0x8123641A38AD3476AC345FC38496FA9EDC26A110698C8C0C9FFFC30F546F918C CALLER DUP3 PUSH1 0x40 MLOAD PUSH2 0x5EA SWAP3 SWAP2 SWAP1 PUSH2 0xCEB JUMP JUMPDEST PUSH1 0x40 MLOAD DUP1 SWAP2 SUB SWAP1 LOG1 POP JUMP JUMPDEST PUSH1 0x0 DUP1 SLOAD SWAP1 PUSH2 0x100 EXP SWAP1 DIV PUSH20 0xFFFFFFFFFFFFFFFFFFFFFFFFFFFFFFFFFFFFFFFF AND PUSH20 0xFFFFFFFFFFFFFFFFFFFFFFFFFFFFFFFFFFFFFFFF AND CALLER PUSH20 0xFFFFFFFFFFFFFFFFFFFFFFFFFFFFFFFFFFFFFFFF AND EQ PUSH2 0x683 JUMPI PUSH1 0x40 MLOAD PUSH32 0x8C379A000000000000000000000000000000000000000000000000000000000 DUP2 MSTORE PUSH1 0x4 ADD PUSH2 0x67A SWAP1 PUSH2 0xD86 JUMP JUMPDEST PUSH1 0x40 MLOAD DUP1 SWAP2 SUB SWAP1 REVERT JUMPDEST PUSH1 0x7 PUSH1 0x0 SWAP1 SLOAD SWAP1 PUSH2 0x100 EXP SWAP1 DIV PUSH1 0xFF AND ISZERO PUSH2 0x6D3 JUMPI PUSH1 0x40 MLOAD PUSH32 0x8C379A000000000000000000000000000000000000000000000000000000000 DUP2 MSTORE PUSH1 0x4 ADD PUSH2 0x6CA SWAP1 PUSH2 0x9DD JUMP JUMPDEST PUSH1 0x40 MLOAD DUP1 SWAP2 SUB SWAP1 REVERT JUMPDEST PUSH1 0x1 SLOAD TIMESTAMP LT PUSH2 0x717 JUMPI PUSH1 0x40 MLOAD PUSH32 0x8C379A000000000000000000000000000000000000000000000000000000000 DUP2 MSTORE PUSH1 0x4 ADD PUSH2 0x70E SWAP1 PUSH2 0x9DD JUMP JUMPDEST PUSH1 0x40 MLOAD DUP1 SWAP2 SUB SWAP1 REVERT JUMPDEST PUSH1 0x1 PUSH1 0x7 PUSH1 0x0 PUSH2 0x100 EXP DUP2 SLOAD DUP2 PUSH1 0xFF MUL NOT AND SWAP1 DUP4 ISZERO ISZERO MUL OR SWAP1 SSTORE POP PUSH32 0xA0E92984607195C326795751263414EE1074526323552E694C90EF2B99AE3F29 PUSH1 0x40 MLOAD PUSH1 0x40 MLOAD DUP1 SWAP2 SUB SWAP1 LOG1 JUMP JUMPDEST PUSH1 0x0 DUP1 REVERT JUMPDEST PUSH1 0x0 PUSH20 0xFFFFFFFFFFFFFFFFFFFFFFFFFFFFFFFFFFFFFFFF DUP3 AND SWAP1 POP SWAP2 SWAP1 POP JUMP JUMPDEST PUSH1 0x0 PUSH2 0x790 DUP3 PUSH2 0x765 JUMP JUMPDEST SWAP1 POP SWAP2 SWAP1 POP JUMP JUMPDEST PUSH2 0x7A0 DUP2 PUSH2 0x785 JUMP JUMPDEST DUP2 EQ PUSH2 0x7AB JUMPI PUSH1 0x0 DUP1 REVERT JUMPDEST POP JUMP JUMPDEST PUSH1 0x0 DUP2 CALLDATALOAD SWAP1 POP PUSH2 0x7BD DUP2 PUSH2 0x797 JUMP JUMPDEST SWAP3 SWAP2 POP POP JUMP JUMPDEST PUSH1 0x0 PUSH1 0x20 DUP3 DUP5 SUB SLT ISZERO PUSH2 0x7D9 JUMPI PUSH2 0x7D8 PUSH2 0x760 JUMP JUMPDEST JUMPDEST PUSH1 0x0 PUSH2 0x7E7 DUP5 DUP3 DUP6 ADD PUSH2 0x7AE JUMP JUMPDEST SWAP2 POP POP SWAP3 SWAP2 POP POP JUMP JUMPDEST PUSH1 0x0 DUP2 SWAP1 POP SWAP2 SWAP1 POP JUMP JUMPDEST PUSH2 0x803 DUP2 PUSH2 0x7F0 JUMP JUMPDEST DUP3 MSTORE POP POP JUMP JUMPDEST PUSH1 0x0 DUP2 ISZERO ISZERO SWAP1 POP SWAP2 SWAP1 POP JUMP JUMPDEST PUSH2 0x81E DUP2 PUSH2 0x809 JUMP JUMPDEST DUP3 MSTORE POP POP JUMP JUMPDEST PUSH1 0x0 PUSH1 0x40 DUP3 ADD SWAP1 POP PUSH2 0x839 PUSH1 0x0 DUP4 ADD DUP6 PUSH2 0x7FA JUMP JUMPDEST PUSH2 0x846 PUSH1 0x20 DUP4 ADD DUP5 PUSH2 0x815 JUMP JUMPDEST SWAP4 SWAP3 POP POP POP JUMP JUMPDEST PUSH1 0x0 PUSH1 0x20 DUP3 ADD SWAP1 POP PUSH2 0x862 PUSH1 0x0 DUP4 ADD DUP5 PUSH2 0x815 JUMP JUMPDEST SWAP3 SWAP2 POP POP JUMP JUMPDEST PUSH1 0x0 PUSH1 0x20 DUP3 ADD SWAP1 POP PUSH2 0x87D PUSH1 0x0 DUP4 ADD DUP5 PUSH2 0x7FA JUMP JUMPDEST SWAP3 SWAP2 POP POP JUMP JUMPDEST PUSH1 0x0 DUP2 SWAP1 POP SWAP2 SWAP1 POP JUMP JUMPDEST PUSH1 0x0 PUSH2 0x8A8 PUSH2 0x8A3 PUSH2 0x89E DUP5 PUSH2 0x765 JUMP JUMPDEST PUSH2 0x883 JUMP JUMPDEST PUSH2 0x765 JUMP JUMPDEST SWAP1 POP SWAP2 SWAP1 POP JUMP JUMPDEST PUSH1 0x0 PUSH2 0x8BA DUP3 PUSH2 0x88D JUMP JUMPDEST SWAP1 POP SWAP2 SWAP1 POP JUMP JUMPDEST PUSH1 0x0 PUSH2 0x8CC DUP3 PUSH2 0x8AF JUMP JUMPDEST SWAP1 POP SWAP2 SWAP1 POP JUMP JUMPDEST PUSH2 0x8DC DUP2 PUSH2 0x8C1 JUMP JUMPDEST DUP3 MSTORE POP POP JUMP JUMPDEST PUSH1 0x0 PUSH1 0x20 DUP3 ADD SWAP1 POP PUSH2 0x8F7 PUSH1 0x0 DUP4 ADD DUP5 PUSH2 0x8D3 JUMP JUMPDEST SWAP3 SWAP2 POP POP JUMP JUMPDEST PUSH2 0x906 DUP2 PUSH2 0x785 JUMP JUMPDEST DUP3 MSTORE POP POP JUMP JUMPDEST PUSH1 0x0 PUSH1 0x20 DUP3 ADD SWAP1 POP PUSH2 0x921 PUSH1 0x0 DUP4 ADD DUP5 PUSH2 0x8FD JUMP JUMPDEST SWAP3 SWAP2 POP POP JUMP JUMPDEST PUSH2 0x930 DUP2 PUSH2 0x7F0 JUMP JUMPDEST DUP2 EQ PUSH2 0x93B JUMPI PUSH1 0x0 DUP1 REVERT JUMPDEST POP JUMP JUMPDEST PUSH1 0x0 DUP2 CALLDATALOAD SWAP1 POP PUSH2 0x94D DUP2 PUSH2 0x927 JUMP JUMPDEST SWAP3 SWAP2 POP POP JUMP JUMPDEST PUSH1 0x0 PUSH1 0x20 DUP3 DUP5 SUB SLT ISZERO PUSH2 0x969 JUMPI PUSH2 0x968 PUSH2 0x760 JUMP JUMPDEST JUMPDEST PUSH1 0x0 PUSH2 0x977 DUP5 DUP3 DUP6 ADD PUSH2 0x93E JUMP JUMPDEST SWAP2 POP POP SWAP3 SWAP2 POP POP JUMP JUMPDEST PUSH1 0x0 DUP3 DUP3 MSTORE PUSH1 0x20 DUP3 ADD SWAP1 POP SWAP3 SWAP2 POP POP JUMP JUMPDEST PUSH32 0x41756374696F6E2068617320616C726561647920656E6465642E000000000000 PUSH1 0x0 DUP3 ADD MSTORE POP JUMP JUMPDEST PUSH1 0x0 PUSH2 0x9C7 PUSH1 0x1A DUP4 PUSH2 0x980 JUMP JUMPDEST SWAP2 POP PUSH2 0x9D2 DUP3 PUSH2 0x991 JUMP JUMPDEST PUSH1 0x20 DUP3 ADD SWAP1 POP SWAP2 SWAP1 POP JUMP JUMPDEST PUSH1 0x0 PUSH1 0x20 DUP3 ADD SWAP1 POP DUP2 DUP2 SUB PUSH1 0x0 DUP4 ADD MSTORE PUSH2 0x9F6 DUP2 PUSH2 0x9BA JUMP JUMPDEST SWAP1 POP SWAP2 SWAP1 POP JUMP JUMPDEST PUSH32 0x596F75206861766520616C7265616479206A6F696E6564207468652061756374 PUSH1 0x0 DUP3 ADD MSTORE PUSH32 0x696F6E2E00000000000000000000000000000000000000000000000000000000 PUSH1 0x20 DUP3 ADD MSTORE POP JUMP JUMPDEST PUSH1 0x0 PUSH2 0xA59 PUSH1 0x24 DUP4 PUSH2 0x980 JUMP JUMPDEST SWAP2 POP PUSH2 0xA64 DUP3 PUSH2 0x9FD JUMP JUMPDEST PUSH1 0x40 DUP3 ADD SWAP1 POP SWAP2 SWAP1 POP JUMP JUMPDEST PUSH1 0x0 PUSH1 0x20 DUP3 ADD SWAP1 POP DUP2 DUP2 SUB PUSH1 0x0 DUP4 ADD MSTORE PUSH2 0xA88 DUP2 PUSH2 0xA4C JUMP JUMPDEST SWAP1 POP SWAP2 SWAP1 POP JUMP JUMPDEST PUSH32 0x41756374696F6E2069732066756C6C2E00000000000000000000000000000000 PUSH1 0x0 DUP3 ADD MSTORE POP JUMP JUMPDEST PUSH1 0x0 PUSH2 0xAC5 PUSH1 0x10 DUP4 PUSH2 0x980 JUMP JUMPDEST SWAP2 POP PUSH2 0xAD0 DUP3 PUSH2 0xA8F JUMP JUMPDEST PUSH1 0x20 DUP3 ADD SWAP1 POP SWAP2 SWAP1 POP JUMP JUMPDEST PUSH1 0x0 PUSH1 0x20 DUP3 ADD SWAP1 POP DUP2 DUP2 SUB PUSH1 0x0 DUP4 ADD MSTORE PUSH2 0xAF4 DUP2 PUSH2 0xAB8 JUMP JUMPDEST SWAP1 POP SWAP2 SWAP1 POP JUMP JUMPDEST PUSH32 0x5265736572766520616D6F756E74206D75737420626520677265617465722074 PUSH1 0x0 DUP3 ADD MSTORE PUSH32 0x68616E207A65726F2E0000000000000000000000000000000000000000000000 PUSH1 0x20 DUP3 ADD MSTORE POP JUMP JUMPDEST PUSH1 0x0 PUSH2 0xB57 PUSH1 0x29 DUP4 PUSH2 0x980 JUMP JUMPDEST SWAP2 POP PUSH2 0xB62 DUP3 PUSH2 0xAFB JUMP JUMPDEST PUSH1 0x40 DUP3 ADD SWAP1 POP SWAP2 SWAP1 POP JUMP JUMPDEST PUSH1 0x0 PUSH1 0x20 DUP3 ADD SWAP1 POP DUP2 DUP2 SUB PUSH1 0x0 DUP4 ADD MSTORE PUSH2 0xB86 DUP2 PUSH2 0xB4A JUMP JUMPDEST SWAP1 POP SWAP2 SWAP1 POP JUMP JUMPDEST PUSH32 0x4E487B7100000000000000000000000000000000000000000000000000000000 PUSH1 0x0 MSTORE PUSH1 0x11 PUSH1 0x4 MSTORE PUSH1 0x24 PUSH1 0x0 REVERT JUMPDEST PUSH1 0x0 PUSH2 0xBC7 DUP3 PUSH2 0x7F0 JUMP JUMPDEST SWAP2 POP PUSH2 0xBD2 DUP4 PUSH2 0x7F0 JUMP JUMPDEST SWAP3 POP DUP3 PUSH32 0xFFFFFFFFFFFFFFFFFFFFFFFFFFFFFFFFFFFFFFFFFFFFFFFFFFFFFFFFFFFFFFFF SUB DUP3 GT ISZERO PUSH2 0xC07 JUMPI PUSH2 0xC06 PUSH2 0xB8D JUMP JUMPDEST JUMPDEST DUP3 DUP3 ADD SWAP1 POP SWAP3 SWAP2 POP POP JUMP JUMPDEST PUSH1 0x0 PUSH2 0xC1D DUP3 PUSH2 0x7F0 JUMP JUMPDEST SWAP2 POP PUSH32 0xFFFFFFFFFFFFFFFFFFFFFFFFFFFFFFFFFFFFFFFFFFFFFFFFFFFFFFFFFFFFFFFF DUP3 EQ ISZERO PUSH2 0xC50 JUMPI PUSH2 0xC4F PUSH2 0xB8D JUMP JUMPDEST JUMPDEST PUSH1 0x1 DUP3 ADD SWAP1 POP SWAP2 SWAP1 POP JUMP JUMPDEST PUSH1 0x0 PUSH1 0x60 DUP3 ADD SWAP1 POP PUSH2 0xC70 PUSH1 0x0 DUP4 ADD DUP7 PUSH2 0x8FD JUMP JUMPDEST PUSH2 0xC7D PUSH1 0x20 DUP4 ADD DUP6 PUSH2 0x8FD JUMP JUMPDEST PUSH2 0xC8A PUSH1 0x40 DUP4 ADD DUP5 PUSH2 0x7FA JUMP JUMPDEST SWAP5 SWAP4 POP POP POP POP JUMP JUMPDEST PUSH2 0xC9B DUP2 PUSH2 0x809 JUMP JUMPDEST DUP2 EQ PUSH2 0xCA6 JUMPI PUSH1 0x0 DUP1 REVERT JUMPDEST POP JUMP JUMPDEST PUSH1 0x0 DUP2 MLOAD SWAP1 POP PUSH2 0xCB8 DUP2 PUSH2 0xC92 JUMP JUMPDEST SWAP3 SWAP2 POP POP JUMP JUMPDEST PUSH1 0x0 PUSH1 0x20 DUP3 DUP5 SUB SLT ISZERO PUSH2 0xCD4 JUMPI PUSH2 0xCD3 PUSH2 0x760 JUMP JUMPDEST JUMPDEST PUSH1 0x0 PUSH2 0xCE2 DUP5 DUP3 DUP6 ADD PUSH2 0xCA9 JUMP JUMPDEST SWAP2 POP POP SWAP3 SWAP2 POP POP JUMP JUMPDEST PUSH1 0x0 PUSH1 0x40 DUP3 ADD SWAP1 POP PUSH2 0xD00 PUSH1 0x0 DUP4 ADD DUP6 PUSH2 0x8FD JUMP JUMPDEST PUSH2 0xD0D PUSH1 0x20 DUP4 ADD DUP5 PUSH2 0x7FA JUMP JUMPDEST SWAP4 SWAP3 POP POP POP JUMP JUMPDEST PUSH32 0x4F6E6C7920746865206F776E65722063616E2063616C6C20746869732066756E PUSH1 0x0 DUP3 ADD MSTORE PUSH32 0x6374696F6E2E0000000000000000000000000000000000000000000000000000 PUSH1 0x20 DUP3 ADD MSTORE POP JUMP JUMPDEST PUSH1 0x0 PUSH2 0xD70 PUSH1 0x26 DUP4 PUSH2 0x980 JUMP JUMPDEST SWAP2 POP PUSH2 0xD7B DUP3 PUSH2 0xD14 JUMP JUMPDEST PUSH1 0x40 DUP3 ADD SWAP1 POP SWAP2 SWAP1 POP JUMP JUMPDEST PUSH1 0x0 PUSH1 0x20 DUP3 ADD SWAP1 POP DUP2 DUP2 SUB PUSH1 0x0 DUP4 ADD MSTORE PUSH2 0xD9F DUP2 PUSH2 0xD63 JUMP JUMPDEST SWAP1 POP SWAP2 SWAP1 POP JUMP INVALID LOG2 PUSH5 0x6970667358 0x22 SLT KECCAK256 DUP13 JUMP PUSH14 0xA5A401AC51D03C5D3DA73F8C77DF 0x4C 0x28 0xA9 SWAP12 GASLIMIT RETURNDATASIZE SWAP12 CALLVALUE PUSH2 0x9BF4 POP COINBASE 0xF 0xE1 PUSH5 0x736F6C6343 STOP ADDMOD ADDMOD STOP CALLER "
				},
				"gasEstimates": {
					"creation": {
						"codeDepositCost": "709600",
						"executionCost": "infinite",
						"totalCost": "infinite"
					},
					"external": {
						"auctionEndTime()": "2518",
						"coinToken()": "infinite",
						"endAuction()": "31743",
						"ended()": "2494",
						"getTotalReserve()": "2503",
						"joinAuction(uint256)": "infinite",
						"maxParticipants()": "2474",
						"owner()": "2555",
						"participantCount()": "2496",
						"participants(address)": "5083",
						"totalReserve()": "2429"
					}
				},
				"methodIdentifiers": {
					"auctionEndTime()": "4b449cba",
					"coinToken()": "58797cb6",
					"endAuction()": "fe67a54b",
					"ended()": "12fa6feb",
					"getTotalReserve()": "ec022918",
					"joinAuction(uint256)": "f0194f89",
					"maxParticipants()": "24924bf7",
					"owner()": "8da5cb5b",
					"participantCount()": "362f04c0",
					"participants(address)": "09e69ede",
					"totalReserve()": "4c68df67"
				}
			},
			"storageLayout": {
				"storage": [
					{
						"astId": 82,
						"contract": "contracts/auction.sol:Auction",
						"label": "owner",
						"offset": 0,
						"slot": "0",
						"type": "t_address"
					},
					{
						"astId": 84,
						"contract": "contracts/auction.sol:Auction",
						"label": "auctionEndTime",
						"offset": 0,
						"slot": "1",
						"type": "t_uint256"
					},
					{
						"astId": 86,
						"contract": "contracts/auction.sol:Auction",
						"label": "maxParticipants",
						"offset": 0,
						"slot": "2",
						"type": "t_uint256"
					},
					{
						"astId": 88,
						"contract": "contracts/auction.sol:Auction",
						"label": "participantCount",
						"offset": 0,
						"slot": "3",
						"type": "t_uint256"
					},
					{
						"astId": 91,
						"contract": "contracts/auction.sol:Auction",
						"label": "coinToken",
						"offset": 0,
						"slot": "4",
						"type": "t_contract(IERC20)77"
					},
					{
						"astId": 101,
						"contract": "contracts/auction.sol:Auction",
						"label": "participants",
						"offset": 0,
						"slot": "5",
						"type": "t_mapping(t_address,t_struct(Participant)96_storage)"
					},
					{
						"astId": 103,
						"contract": "contracts/auction.sol:Auction",
						"label": "totalReserve",
						"offset": 0,
						"slot": "6",
						"type": "t_uint256"
					},
					{
						"astId": 105,
						"contract": "contracts/auction.sol:Auction",
						"label": "ended",
						"offset": 0,
						"slot": "7",
						"type": "t_bool"
					}
				],
				"types": {
					"t_address": {
						"encoding": "inplace",
						"label": "address",
						"numberOfBytes": "20"
					},
					"t_bool": {
						"encoding": "inplace",
						"label": "bool",
						"numberOfBytes": "1"
					},
					"t_contract(IERC20)77": {
						"encoding": "inplace",
						"label": "contract IERC20",
						"numberOfBytes": "20"
					},
					"t_mapping(t_address,t_struct(Participant)96_storage)": {
						"encoding": "mapping",
						"key": "t_address",
						"label": "mapping(address => struct Auction.Participant)",
						"numberOfBytes": "32",
						"value": "t_struct(Participant)96_storage"
					},
					"t_struct(Participant)96_storage": {
						"encoding": "inplace",
						"label": "struct Auction.Participant",
						"members": [
							{
								"astId": 93,
								"contract": "contracts/auction.sol:Auction",
								"label": "reserveAmount",
								"offset": 0,
								"slot": "0",
								"type": "t_uint256"
							},
							{
								"astId": 95,
								"contract": "contracts/auction.sol:Auction",
								"label": "active",
								"offset": 0,
								"slot": "1",
								"type": "t_bool"
							}
						],
						"numberOfBytes": "64"
					},
					"t_uint256": {
						"encoding": "inplace",
						"label": "uint256",
						"numberOfBytes": "32"
					}
				}
			},
			"userdoc": {
				"kind": "user",
				"methods": {},
				"version": 1
			}
		}
	}
}