{
	"contracts/DetermineWinner.sol": {
		"WinnerDetermination": {
			"abi": [
				{
					"inputs": [
						{
							"internalType": "address",
							"name": "_auctionAddress",
							"type": "address"
						}
					],
					"stateMutability": "nonpayable",
					"type": "constructor"
				},
				{
					"inputs": [],
					"name": "auction",
					"outputs": [
						{
							"internalType": "contract Auction",
							"name": "",
							"type": "address"
						}
					],
					"stateMutability": "view",
					"type": "function"
				},
				{
					"inputs": [
						{
							"internalType": "uint256[]",
							"name": "encryptedValues",
							"type": "uint256[]"
						}
					],
					"name": "getWinner",
					"outputs": [
						{
							"internalType": "uint256[2]",
							"name": "",
							"type": "uint256[2]"
						}
					],
					"stateMutability": "view",
					"type": "function"
				}
			],
			"devdoc": {
				"kind": "dev",
				"methods": {},
				"version": 1
			},
			"evm": {
				"assembly": "    /* \"contracts/DetermineWinner.sol\":122:1181  contract WinnerDetermination {... */\n  mstore(0x40, 0x80)\n    /* \"contracts/DetermineWinner.sol\":236:324  constructor(address _auctionAddress) {... */\n  callvalue\n  dup1\n  iszero\n  tag_1\n  jumpi\n  0x00\n  dup1\n  revert\ntag_1:\n  pop\n  mload(0x40)\n  sub(codesize, bytecodeSize)\n  dup1\n  bytecodeSize\n  dup4\n  codecopy\n  dup2\n  dup2\n  add\n  0x40\n  mstore\n  dup2\n  add\n  swap1\n  tag_2\n  swap2\n  swap1\n  tag_3\n  jump\t// in\ntag_2:\n    /* \"contracts/DetermineWinner.sol\":301:316  _auctionAddress */\n  dup1\n    /* \"contracts/DetermineWinner.sol\":283:290  auction */\n  0x00\n  dup1\n    /* \"contracts/DetermineWinner.sol\":283:317  auction = Auction(_auctionAddress) */\n  0x0100\n  exp\n  dup2\n  sload\n  dup2\n  0xffffffffffffffffffffffffffffffffffffffff\n  mul\n  not\n  and\n  swap1\n  dup4\n  0xffffffffffffffffffffffffffffffffffffffff\n  and\n  mul\n  or\n  swap1\n  sstore\n  pop\n    /* \"contracts/DetermineWinner.sol\":236:324  constructor(address _auctionAddress) {... */\n  pop\n    /* \"contracts/DetermineWinner.sol\":122:1181  contract WinnerDetermination {... */\n  jump(tag_6)\n    /* \"#utility.yul\":88:205   */\ntag_8:\n    /* \"#utility.yul\":197:198   */\n  0x00\n    /* \"#utility.yul\":194:195   */\n  dup1\n    /* \"#utility.yul\":187:199   */\n  revert\n    /* \"#utility.yul\":334:460   */\ntag_10:\n    /* \"#utility.yul\":371:378   */\n  0x00\n    /* \"#utility.yul\":411:453   */\n  0xffffffffffffffffffffffffffffffffffffffff\n    /* \"#utility.yul\":404:409   */\n  dup3\n    /* \"#utility.yul\":400:454   */\n  and\n    /* \"#utility.yul\":389:454   */\n  swap1\n  pop\n    /* \"#utility.yul\":334:460   */\n  swap2\n  swap1\n  pop\n  jump\t// out\n    /* \"#utility.yul\":466:562   */\ntag_11:\n    /* \"#utility.yul\":503:510   */\n  0x00\n    /* \"#utility.yul\":532:556   */\n  tag_20\n    /* \"#utility.yul\":550:555   */\n  dup3\n    /* \"#utility.yul\":532:556   */\n  tag_10\n  jump\t// in\ntag_20:\n    /* \"#utility.yul\":521:556   */\n  swap1\n  pop\n    /* \"#utility.yul\":466:562   */\n  swap2\n  swap1\n  pop\n  jump\t// out\n    /* \"#utility.yul\":568:690   */\ntag_12:\n    /* \"#utility.yul\":641:665   */\n  tag_22\n    /* \"#utility.yul\":659:664   */\n  dup2\n    /* \"#utility.yul\":641:665   */\n  tag_11\n  jump\t// in\ntag_22:\n    /* \"#utility.yul\":634:639   */\n  dup2\n    /* \"#utility.yul\":631:666   */\n  eq\n    /* \"#utility.yul\":621:684   */\n  tag_23\n  jumpi\n    /* \"#utility.yul\":680:681   */\n  0x00\n    /* \"#utility.yul\":677:678   */\n  dup1\n    /* \"#utility.yul\":670:682   */\n  revert\n    /* \"#utility.yul\":621:684   */\ntag_23:\n    /* \"#utility.yul\":568:690   */\n  pop\n  jump\t// out\n    /* \"#utility.yul\":696:839   */\ntag_13:\n    /* \"#utility.yul\":753:758   */\n  0x00\n    /* \"#utility.yul\":784:790   */\n  dup2\n    /* \"#utility.yul\":778:791   */\n  mload\n    /* \"#utility.yul\":769:791   */\n  swap1\n  pop\n    /* \"#utility.yul\":800:833   */\n  tag_25\n    /* \"#utility.yul\":827:832   */\n  dup2\n    /* \"#utility.yul\":800:833   */\n  tag_12\n  jump\t// in\ntag_25:\n    /* \"#utility.yul\":696:839   */\n  swap3\n  swap2\n  pop\n  pop\n  jump\t// out\n    /* \"#utility.yul\":845:1196   */\ntag_3:\n    /* \"#utility.yul\":915:921   */\n  0x00\n    /* \"#utility.yul\":964:966   */\n  0x20\n    /* \"#utility.yul\":952:961   */\n  dup3\n    /* \"#utility.yul\":943:950   */\n  dup5\n    /* \"#utility.yul\":939:962   */\n  sub\n    /* \"#utility.yul\":935:967   */\n  slt\n    /* \"#utility.yul\":932:1051   */\n  iszero\n  tag_27\n  jumpi\n    /* \"#utility.yul\":970:1049   */\n  tag_28\n  tag_8\n  jump\t// in\ntag_28:\n    /* \"#utility.yul\":932:1051   */\ntag_27:\n    /* \"#utility.yul\":1090:1091   */\n  0x00\n    /* \"#utility.yul\":1115:1179   */\n  tag_29\n    /* \"#utility.yul\":1171:1178   */\n  dup5\n    /* \"#utility.yul\":1162:1168   */\n  dup3\n    /* \"#utility.yul\":1151:1160   */\n  dup6\n    /* \"#utility.yul\":1147:1169   */\n  add\n    /* \"#utility.yul\":1115:1179   */\n  tag_13\n  jump\t// in\ntag_29:\n    /* \"#utility.yul\":1105:1179   */\n  swap2\n  pop\n    /* \"#utility.yul\":1061:1189   */\n  pop\n    /* \"#utility.yul\":845:1196   */\n  swap3\n  swap2\n  pop\n  pop\n  jump\t// out\n    /* \"contracts/DetermineWinner.sol\":122:1181  contract WinnerDetermination {... */\ntag_6:\n  dataSize(sub_0)\n  dup1\n  dataOffset(sub_0)\n  0x00\n  codecopy\n  0x00\n  return\nstop\n\nsub_0: assembly {\n        /* \"contracts/DetermineWinner.sol\":122:1181  contract WinnerDetermination {... */\n      mstore(0x40, 0x80)\n      callvalue\n      dup1\n      iszero\n      tag_1\n      jumpi\n      0x00\n      dup1\n      revert\n    tag_1:\n      pop\n      jumpi(tag_2, lt(calldatasize, 0x04))\n      shr(0xe0, calldataload(0x00))\n      dup1\n      0x16e74f09\n      eq\n      tag_3\n      jumpi\n      dup1\n      0x7d9f6db5\n      eq\n      tag_4\n      jumpi\n    tag_2:\n      0x00\n      dup1\n      revert\n        /* \"contracts/DetermineWinner.sol\":330:1062  function getWinner(uint256[] calldata encryptedValues) external view returns (uint256[2] memory) {... */\n    tag_3:\n      tag_5\n      0x04\n      dup1\n      calldatasize\n      sub\n      dup2\n      add\n      swap1\n      tag_6\n      swap2\n      swap1\n      tag_7\n      jump\t// in\n    tag_6:\n      tag_8\n      jump\t// in\n    tag_5:\n      mload(0x40)\n      tag_9\n      swap2\n      swap1\n      tag_10\n      jump\t// in\n    tag_9:\n      mload(0x40)\n      dup1\n      swap2\n      sub\n      swap1\n      return\n        /* \"contracts/DetermineWinner.sol\":207:229  Auction public auction */\n    tag_4:\n      tag_11\n      tag_12\n      jump\t// in\n    tag_11:\n      mload(0x40)\n      tag_13\n      swap2\n      swap1\n      tag_14\n      jump\t// in\n    tag_13:\n      mload(0x40)\n      dup1\n      swap2\n      sub\n      swap1\n      return\n        /* \"contracts/DetermineWinner.sol\":330:1062  function getWinner(uint256[] calldata encryptedValues) external view returns (uint256[2] memory) {... */\n    tag_8:\n        /* \"contracts/DetermineWinner.sol\":408:425  uint256[2] memory */\n      tag_15\n      tag_16\n      jump\t// in\n    tag_15:\n        /* \"contracts/DetermineWinner.sol\":484:491  auction */\n      0x00\n      dup1\n      sload\n      swap1\n      0x0100\n      exp\n      swap1\n      div\n      0xffffffffffffffffffffffffffffffffffffffff\n      and\n        /* \"contracts/DetermineWinner.sol\":484:507  auction.maxParticipants */\n      0xffffffffffffffffffffffffffffffffffffffff\n      and\n      0x24924bf7\n        /* \"contracts/DetermineWinner.sol\":484:509  auction.maxParticipants() */\n      mload(0x40)\n      dup2\n      0xffffffff\n      and\n      0xe0\n      shl\n      dup2\n      mstore\n      0x04\n      add\n      0x20\n      mload(0x40)\n      dup1\n      dup4\n      sub\n      dup2\n      dup7\n      dup1\n      extcodesize\n      iszero\n      dup1\n      iszero\n      tag_18\n      jumpi\n      0x00\n      dup1\n      revert\n    tag_18:\n      pop\n      gas\n      staticcall\n      iszero\n      dup1\n      iszero\n      tag_20\n      jumpi\n      returndatasize\n      0x00\n      dup1\n      returndatacopy\n      revert(0x00, returndatasize)\n    tag_20:\n      pop\n      pop\n      pop\n      pop\n      mload(0x40)\n      returndatasize\n      not(0x1f)\n      0x1f\n      dup3\n      add\n      and\n      dup3\n      add\n      dup1\n      0x40\n      mstore\n      pop\n      dup2\n      add\n      swap1\n      tag_21\n      swap2\n      swap1\n      tag_22\n      jump\t// in\n    tag_21:\n        /* \"contracts/DetermineWinner.sol\":458:473  encryptedValues */\n      dup4\n      dup4\n        /* \"contracts/DetermineWinner.sol\":458:480  encryptedValues.length */\n      swap1\n      pop\n        /* \"contracts/DetermineWinner.sol\":458:509  encryptedValues.length == auction.maxParticipants() */\n      eq\n        /* \"contracts/DetermineWinner.sol\":437:569  require(... */\n      tag_23\n      jumpi\n      mload(0x40)\n      0x08c379a000000000000000000000000000000000000000000000000000000000\n      dup2\n      mstore\n      0x04\n      add\n      tag_24\n      swap1\n      tag_25\n      jump\t// in\n    tag_24:\n      mload(0x40)\n      dup1\n      swap2\n      sub\n      swap1\n      revert\n    tag_23:\n        /* \"contracts/DetermineWinner.sol\":580:598  uint256 highestBid */\n      0x00\n        /* \"contracts/DetermineWinner.sol\":601:616  encryptedValues */\n      dup4\n      dup4\n        /* \"contracts/DetermineWinner.sol\":617:618  0 */\n      0x00\n        /* \"contracts/DetermineWinner.sol\":601:619  encryptedValues[0] */\n      dup2\n      dup2\n      lt\n      tag_26\n      jumpi\n      tag_27\n      tag_28\n      jump\t// in\n    tag_27:\n    tag_26:\n      swap1\n      pop\n      0x20\n      mul\n      add\n      calldataload\n        /* \"contracts/DetermineWinner.sol\":580:619  uint256 highestBid = encryptedValues[0] */\n      swap1\n      pop\n        /* \"contracts/DetermineWinner.sol\":630:653  uint256 highestBidIndex */\n      0x00\n        /* \"contracts/DetermineWinner.sol\":673:682  uint256 i */\n      dup1\n        /* \"contracts/DetermineWinner.sol\":685:686  1 */\n      0x01\n        /* \"contracts/DetermineWinner.sol\":673:686  uint256 i = 1 */\n      swap1\n      pop\n        /* \"contracts/DetermineWinner.sol\":668:1009  for (uint256 i = 1; i < encryptedValues.length; i++) {... */\n    tag_29:\n        /* \"contracts/DetermineWinner.sol\":692:707  encryptedValues */\n      dup6\n      dup6\n        /* \"contracts/DetermineWinner.sol\":692:714  encryptedValues.length */\n      swap1\n      pop\n        /* \"contracts/DetermineWinner.sol\":688:689  i */\n      dup2\n        /* \"contracts/DetermineWinner.sol\":688:714  i < encryptedValues.length */\n      lt\n        /* \"contracts/DetermineWinner.sol\":668:1009  for (uint256 i = 1; i < encryptedValues.length; i++) {... */\n      iszero\n      tag_30\n      jumpi\n        /* \"contracts/DetermineWinner.sol\":735:757  uint256 encryptedValue */\n      0x00\n        /* \"contracts/DetermineWinner.sol\":760:775  encryptedValues */\n      dup7\n      dup7\n        /* \"contracts/DetermineWinner.sol\":776:777  i */\n      dup4\n        /* \"contracts/DetermineWinner.sol\":760:778  encryptedValues[i] */\n      dup2\n      dup2\n      lt\n      tag_32\n      jumpi\n      tag_33\n      tag_28\n      jump\t// in\n    tag_33:\n    tag_32:\n      swap1\n      pop\n      0x20\n      mul\n      add\n      calldataload\n        /* \"contracts/DetermineWinner.sol\":735:778  uint256 encryptedValue = encryptedValues[i] */\n      swap1\n      pop\n        /* \"contracts/DetermineWinner.sol\":792:819  uint256 encryptedDifference */\n      0x00\n        /* \"contracts/DetermineWinner.sol\":839:849  highestBid */\n      dup5\n        /* \"contracts/DetermineWinner.sol\":822:836  encryptedValue */\n      dup3\n        /* \"contracts/DetermineWinner.sol\":822:849  encryptedValue - highestBid */\n      tag_34\n      swap2\n      swap1\n      tag_35\n      jump\t// in\n    tag_34:\n        /* \"contracts/DetermineWinner.sol\":792:849  uint256 encryptedDifference = encryptedValue - highestBid */\n      swap1\n      pop\n        /* \"contracts/DetermineWinner.sol\":899:900  0 */\n      0x00\n        /* \"contracts/DetermineWinner.sol\":868:896  decrypt(encryptedDifference) */\n      tag_36\n        /* \"contracts/DetermineWinner.sol\":876:895  encryptedDifference */\n      dup3\n        /* \"contracts/DetermineWinner.sol\":868:875  decrypt */\n      tag_37\n        /* \"contracts/DetermineWinner.sol\":868:896  decrypt(encryptedDifference) */\n      jump\t// in\n    tag_36:\n        /* \"contracts/DetermineWinner.sol\":868:900  decrypt(encryptedDifference) > 0 */\n      gt\n        /* \"contracts/DetermineWinner.sol\":864:999  if (decrypt(encryptedDifference) > 0) {... */\n      iszero\n      tag_38\n      jumpi\n        /* \"contracts/DetermineWinner.sol\":933:947  encryptedValue */\n      dup2\n        /* \"contracts/DetermineWinner.sol\":920:947  highestBid = encryptedValue */\n      swap5\n      pop\n        /* \"contracts/DetermineWinner.sol\":983:984  i */\n      dup3\n        /* \"contracts/DetermineWinner.sol\":965:984  highestBidIndex = i */\n      swap4\n      pop\n        /* \"contracts/DetermineWinner.sol\":864:999  if (decrypt(encryptedDifference) > 0) {... */\n    tag_38:\n        /* \"contracts/DetermineWinner.sol\":721:1009  {... */\n      pop\n      pop\n        /* \"contracts/DetermineWinner.sol\":716:719  i++ */\n      dup1\n      dup1\n      tag_39\n      swap1\n      tag_40\n      jump\t// in\n    tag_39:\n      swap2\n      pop\n      pop\n        /* \"contracts/DetermineWinner.sol\":668:1009  for (uint256 i = 1; i < encryptedValues.length; i++) {... */\n      jump(tag_29)\n    tag_30:\n      pop\n        /* \"contracts/DetermineWinner.sol\":1019:1055  return [highestBid, highestBidIndex] */\n      mload(0x40)\n      dup1\n      0x40\n      add\n      0x40\n      mstore\n      dup1\n        /* \"contracts/DetermineWinner.sol\":1027:1037  highestBid */\n      dup4\n        /* \"contracts/DetermineWinner.sol\":1019:1055  return [highestBid, highestBidIndex] */\n      dup2\n      mstore\n      0x20\n      add\n        /* \"contracts/DetermineWinner.sol\":1039:1054  highestBidIndex */\n      dup3\n        /* \"contracts/DetermineWinner.sol\":1019:1055  return [highestBid, highestBidIndex] */\n      dup2\n      mstore\n      pop\n      swap3\n      pop\n      pop\n      pop\n        /* \"contracts/DetermineWinner.sol\":330:1062  function getWinner(uint256[] calldata encryptedValues) external view returns (uint256[2] memory) {... */\n      swap3\n      swap2\n      pop\n      pop\n      jump\t// out\n        /* \"contracts/DetermineWinner.sol\":207:229  Auction public auction */\n    tag_12:\n      0x00\n      dup1\n      sload\n      swap1\n      0x0100\n      exp\n      swap1\n      div\n      0xffffffffffffffffffffffffffffffffffffffff\n      and\n      dup2\n      jump\t// out\n        /* \"contracts/DetermineWinner.sol\":1068:1179  function decrypt(uint256 encryptedValue) internal pure returns (uint256) {... */\n    tag_37:\n        /* \"contracts/DetermineWinner.sol\":1132:1139  uint256 */\n      0x00\n        /* \"contracts/DetermineWinner.sol\":1158:1172  encryptedValue */\n      dup2\n        /* \"contracts/DetermineWinner.sol\":1151:1172  return encryptedValue */\n      swap1\n      pop\n        /* \"contracts/DetermineWinner.sol\":1068:1179  function decrypt(uint256 encryptedValue) internal pure returns (uint256) {... */\n      swap2\n      swap1\n      pop\n      jump\t// out\n    tag_16:\n      mload(0x40)\n      dup1\n      0x40\n      add\n      0x40\n      mstore\n      dup1\n      0x02\n      swap1\n      0x20\n      dup3\n      mul\n      dup1\n      calldatasize\n      dup4\n      calldatacopy\n      dup1\n      dup3\n      add\n      swap2\n      pop\n      pop\n      swap1\n      pop\n      pop\n      swap1\n      jump\t// out\n        /* \"#utility.yul\":88:205   */\n    tag_43:\n        /* \"#utility.yul\":197:198   */\n      0x00\n        /* \"#utility.yul\":194:195   */\n      dup1\n        /* \"#utility.yul\":187:199   */\n      revert\n        /* \"#utility.yul\":211:328   */\n    tag_44:\n        /* \"#utility.yul\":320:321   */\n      0x00\n        /* \"#utility.yul\":317:318   */\n      dup1\n        /* \"#utility.yul\":310:322   */\n      revert\n        /* \"#utility.yul\":334:451   */\n    tag_45:\n        /* \"#utility.yul\":443:444   */\n      0x00\n        /* \"#utility.yul\":440:441   */\n      dup1\n        /* \"#utility.yul\":433:445   */\n      revert\n        /* \"#utility.yul\":457:574   */\n    tag_46:\n        /* \"#utility.yul\":566:567   */\n      0x00\n        /* \"#utility.yul\":563:564   */\n      dup1\n        /* \"#utility.yul\":556:568   */\n      revert\n        /* \"#utility.yul\":580:697   */\n    tag_47:\n        /* \"#utility.yul\":689:690   */\n      0x00\n        /* \"#utility.yul\":686:687   */\n      dup1\n        /* \"#utility.yul\":679:691   */\n      revert\n        /* \"#utility.yul\":720:1288   */\n    tag_48:\n        /* \"#utility.yul\":793:801   */\n      0x00\n        /* \"#utility.yul\":803:809   */\n      dup1\n        /* \"#utility.yul\":853:856   */\n      dup4\n        /* \"#utility.yul\":846:850   */\n      0x1f\n        /* \"#utility.yul\":838:844   */\n      dup5\n        /* \"#utility.yul\":834:851   */\n      add\n        /* \"#utility.yul\":830:857   */\n      slt\n        /* \"#utility.yul\":820:942   */\n      tag_77\n      jumpi\n        /* \"#utility.yul\":861:940   */\n      tag_78\n      tag_45\n      jump\t// in\n    tag_78:\n        /* \"#utility.yul\":820:942   */\n    tag_77:\n        /* \"#utility.yul\":974:980   */\n      dup3\n        /* \"#utility.yul\":961:981   */\n      calldataload\n        /* \"#utility.yul\":951:981   */\n      swap1\n      pop\n        /* \"#utility.yul\":1004:1022   */\n      0xffffffffffffffff\n        /* \"#utility.yul\":996:1002   */\n      dup2\n        /* \"#utility.yul\":993:1023   */\n      gt\n        /* \"#utility.yul\":990:1107   */\n      iszero\n      tag_79\n      jumpi\n        /* \"#utility.yul\":1026:1105   */\n      tag_80\n      tag_46\n      jump\t// in\n    tag_80:\n        /* \"#utility.yul\":990:1107   */\n    tag_79:\n        /* \"#utility.yul\":1140:1144   */\n      0x20\n        /* \"#utility.yul\":1132:1138   */\n      dup4\n        /* \"#utility.yul\":1128:1145   */\n      add\n        /* \"#utility.yul\":1116:1145   */\n      swap2\n      pop\n        /* \"#utility.yul\":1194:1197   */\n      dup4\n        /* \"#utility.yul\":1186:1190   */\n      0x20\n        /* \"#utility.yul\":1178:1184   */\n      dup3\n        /* \"#utility.yul\":1174:1191   */\n      mul\n        /* \"#utility.yul\":1164:1172   */\n      dup4\n        /* \"#utility.yul\":1160:1192   */\n      add\n        /* \"#utility.yul\":1157:1198   */\n      gt\n        /* \"#utility.yul\":1154:1282   */\n      iszero\n      tag_81\n      jumpi\n        /* \"#utility.yul\":1201:1280   */\n      tag_82\n      tag_47\n      jump\t// in\n    tag_82:\n        /* \"#utility.yul\":1154:1282   */\n    tag_81:\n        /* \"#utility.yul\":720:1288   */\n      swap3\n      pop\n      swap3\n      swap1\n      pop\n      jump\t// out\n        /* \"#utility.yul\":1294:1853   */\n    tag_7:\n        /* \"#utility.yul\":1380:1386   */\n      0x00\n        /* \"#utility.yul\":1388:1394   */\n      dup1\n        /* \"#utility.yul\":1437:1439   */\n      0x20\n        /* \"#utility.yul\":1425:1434   */\n      dup4\n        /* \"#utility.yul\":1416:1423   */\n      dup6\n        /* \"#utility.yul\":1412:1435   */\n      sub\n        /* \"#utility.yul\":1408:1440   */\n      slt\n        /* \"#utility.yul\":1405:1524   */\n      iszero\n      tag_84\n      jumpi\n        /* \"#utility.yul\":1443:1522   */\n      tag_85\n      tag_43\n      jump\t// in\n    tag_85:\n        /* \"#utility.yul\":1405:1524   */\n    tag_84:\n        /* \"#utility.yul\":1591:1592   */\n      0x00\n        /* \"#utility.yul\":1580:1589   */\n      dup4\n        /* \"#utility.yul\":1576:1593   */\n      add\n        /* \"#utility.yul\":1563:1594   */\n      calldataload\n        /* \"#utility.yul\":1621:1639   */\n      0xffffffffffffffff\n        /* \"#utility.yul\":1613:1619   */\n      dup2\n        /* \"#utility.yul\":1610:1640   */\n      gt\n        /* \"#utility.yul\":1607:1724   */\n      iszero\n      tag_86\n      jumpi\n        /* \"#utility.yul\":1643:1722   */\n      tag_87\n      tag_44\n      jump\t// in\n    tag_87:\n        /* \"#utility.yul\":1607:1724   */\n    tag_86:\n        /* \"#utility.yul\":1756:1836   */\n      tag_88\n        /* \"#utility.yul\":1828:1835   */\n      dup6\n        /* \"#utility.yul\":1819:1825   */\n      dup3\n        /* \"#utility.yul\":1808:1817   */\n      dup7\n        /* \"#utility.yul\":1804:1826   */\n      add\n        /* \"#utility.yul\":1756:1836   */\n      tag_48\n      jump\t// in\n    tag_88:\n        /* \"#utility.yul\":1738:1836   */\n      swap3\n      pop\n      swap3\n      pop\n        /* \"#utility.yul\":1534:1846   */\n      pop\n        /* \"#utility.yul\":1294:1853   */\n      swap3\n      pop\n      swap3\n      swap1\n      pop\n      jump\t// out\n        /* \"#utility.yul\":1859:1963   */\n    tag_49:\n        /* \"#utility.yul\":1924:1930   */\n      0x00\n        /* \"#utility.yul\":1952:1956   */\n      0x02\n        /* \"#utility.yul\":1942:1956   */\n      swap1\n      pop\n        /* \"#utility.yul\":1859:1963   */\n      swap2\n      swap1\n      pop\n      jump\t// out\n        /* \"#utility.yul\":1969:2112   */\n    tag_50:\n        /* \"#utility.yul\":2066:2077   */\n      0x00\n        /* \"#utility.yul\":2103:2106   */\n      dup2\n        /* \"#utility.yul\":2088:2106   */\n      swap1\n      pop\n        /* \"#utility.yul\":1969:2112   */\n      swap3\n      swap2\n      pop\n      pop\n      jump\t// out\n        /* \"#utility.yul\":2118:2216   */\n    tag_51:\n        /* \"#utility.yul\":2183:2187   */\n      0x00\n        /* \"#utility.yul\":2206:2209   */\n      dup2\n        /* \"#utility.yul\":2198:2209   */\n      swap1\n      pop\n        /* \"#utility.yul\":2118:2216   */\n      swap2\n      swap1\n      pop\n      jump\t// out\n        /* \"#utility.yul\":2222:2299   */\n    tag_52:\n        /* \"#utility.yul\":2259:2266   */\n      0x00\n        /* \"#utility.yul\":2288:2293   */\n      dup2\n        /* \"#utility.yul\":2277:2293   */\n      swap1\n      pop\n        /* \"#utility.yul\":2222:2299   */\n      swap2\n      swap1\n      pop\n      jump\t// out\n        /* \"#utility.yul\":2305:2413   */\n    tag_53:\n        /* \"#utility.yul\":2382:2406   */\n      tag_94\n        /* \"#utility.yul\":2400:2405   */\n      dup2\n        /* \"#utility.yul\":2382:2406   */\n      tag_52\n      jump\t// in\n    tag_94:\n        /* \"#utility.yul\":2377:2380   */\n      dup3\n        /* \"#utility.yul\":2370:2407   */\n      mstore\n        /* \"#utility.yul\":2305:2413   */\n      pop\n      pop\n      jump\t// out\n        /* \"#utility.yul\":2419:2598   */\n    tag_54:\n        /* \"#utility.yul\":2488:2498   */\n      0x00\n        /* \"#utility.yul\":2509:2555   */\n      tag_96\n        /* \"#utility.yul\":2551:2554   */\n      dup4\n        /* \"#utility.yul\":2543:2549   */\n      dup4\n        /* \"#utility.yul\":2509:2555   */\n      tag_53\n      jump\t// in\n    tag_96:\n        /* \"#utility.yul\":2587:2591   */\n      0x20\n        /* \"#utility.yul\":2582:2585   */\n      dup4\n        /* \"#utility.yul\":2578:2592   */\n      add\n        /* \"#utility.yul\":2564:2592   */\n      swap1\n      pop\n        /* \"#utility.yul\":2419:2598   */\n      swap3\n      swap2\n      pop\n      pop\n      jump\t// out\n        /* \"#utility.yul\":2604:2715   */\n    tag_55:\n        /* \"#utility.yul\":2672:2676   */\n      0x00\n        /* \"#utility.yul\":2704:2708   */\n      0x20\n        /* \"#utility.yul\":2699:2702   */\n      dup3\n        /* \"#utility.yul\":2695:2709   */\n      add\n        /* \"#utility.yul\":2687:2709   */\n      swap1\n      pop\n        /* \"#utility.yul\":2604:2715   */\n      swap2\n      swap1\n      pop\n      jump\t// out\n        /* \"#utility.yul\":2753:3447   */\n    tag_56:\n        /* \"#utility.yul\":2889:2941   */\n      tag_99\n        /* \"#utility.yul\":2935:2940   */\n      dup2\n        /* \"#utility.yul\":2889:2941   */\n      tag_49\n      jump\t// in\n    tag_99:\n        /* \"#utility.yul\":2957:3041   */\n      tag_100\n        /* \"#utility.yul\":3034:3040   */\n      dup2\n        /* \"#utility.yul\":3029:3032   */\n      dup5\n        /* \"#utility.yul\":2957:3041   */\n      tag_50\n      jump\t// in\n    tag_100:\n        /* \"#utility.yul\":2950:3041   */\n      swap3\n      pop\n        /* \"#utility.yul\":3065:3119   */\n      tag_101\n        /* \"#utility.yul\":3113:3118   */\n      dup3\n        /* \"#utility.yul\":3065:3119   */\n      tag_51\n      jump\t// in\n    tag_101:\n        /* \"#utility.yul\":3142:3149   */\n      dup1\n        /* \"#utility.yul\":3173:3174   */\n      0x00\n        /* \"#utility.yul\":3158:3440   */\n    tag_102:\n        /* \"#utility.yul\":3183:3189   */\n      dup4\n        /* \"#utility.yul\":3180:3181   */\n      dup2\n        /* \"#utility.yul\":3177:3190   */\n      lt\n        /* \"#utility.yul\":3158:3440   */\n      iszero\n      tag_104\n      jumpi\n        /* \"#utility.yul\":3259:3265   */\n      dup2\n        /* \"#utility.yul\":3253:3266   */\n      mload\n        /* \"#utility.yul\":3286:3349   */\n      tag_105\n        /* \"#utility.yul\":3345:3348   */\n      dup8\n        /* \"#utility.yul\":3330:3343   */\n      dup3\n        /* \"#utility.yul\":3286:3349   */\n      tag_54\n      jump\t// in\n    tag_105:\n        /* \"#utility.yul\":3279:3349   */\n      swap7\n      pop\n        /* \"#utility.yul\":3372:3430   */\n      tag_106\n        /* \"#utility.yul\":3423:3429   */\n      dup4\n        /* \"#utility.yul\":3372:3430   */\n      tag_55\n      jump\t// in\n    tag_106:\n        /* \"#utility.yul\":3362:3430   */\n      swap3\n      pop\n        /* \"#utility.yul\":3218:3440   */\n      pop\n        /* \"#utility.yul\":3205:3206   */\n      0x01\n        /* \"#utility.yul\":3202:3203   */\n      dup2\n        /* \"#utility.yul\":3198:3207   */\n      add\n        /* \"#utility.yul\":3193:3207   */\n      swap1\n      pop\n        /* \"#utility.yul\":3158:3440   */\n      jump(tag_102)\n    tag_104:\n        /* \"#utility.yul\":3162:3176   */\n      pop\n        /* \"#utility.yul\":2865:3447   */\n      pop\n      pop\n      pop\n        /* \"#utility.yul\":2753:3447   */\n      pop\n      pop\n      jump\t// out\n        /* \"#utility.yul\":3453:3767   */\n    tag_10:\n        /* \"#utility.yul\":3592:3596   */\n      0x00\n        /* \"#utility.yul\":3630:3632   */\n      0x40\n        /* \"#utility.yul\":3619:3628   */\n      dup3\n        /* \"#utility.yul\":3615:3633   */\n      add\n        /* \"#utility.yul\":3607:3633   */\n      swap1\n      pop\n        /* \"#utility.yul\":3643:3760   */\n      tag_108\n        /* \"#utility.yul\":3757:3758   */\n      0x00\n        /* \"#utility.yul\":3746:3755   */\n      dup4\n        /* \"#utility.yul\":3742:3759   */\n      add\n        /* \"#utility.yul\":3733:3739   */\n      dup5\n        /* \"#utility.yul\":3643:3760   */\n      tag_56\n      jump\t// in\n    tag_108:\n        /* \"#utility.yul\":3453:3767   */\n      swap3\n      swap2\n      pop\n      pop\n      jump\t// out\n        /* \"#utility.yul\":3773:3899   */\n    tag_57:\n        /* \"#utility.yul\":3810:3817   */\n      0x00\n        /* \"#utility.yul\":3850:3892   */\n      0xffffffffffffffffffffffffffffffffffffffff\n        /* \"#utility.yul\":3843:3848   */\n      dup3\n        /* \"#utility.yul\":3839:3893   */\n      and\n        /* \"#utility.yul\":3828:3893   */\n      swap1\n      pop\n        /* \"#utility.yul\":3773:3899   */\n      swap2\n      swap1\n      pop\n      jump\t// out\n        /* \"#utility.yul\":3905:3965   */\n    tag_58:\n        /* \"#utility.yul\":3933:3936   */\n      0x00\n        /* \"#utility.yul\":3954:3959   */\n      dup2\n        /* \"#utility.yul\":3947:3959   */\n      swap1\n      pop\n        /* \"#utility.yul\":3905:3965   */\n      swap2\n      swap1\n      pop\n      jump\t// out\n        /* \"#utility.yul\":3971:4113   */\n    tag_59:\n        /* \"#utility.yul\":4021:4030   */\n      0x00\n        /* \"#utility.yul\":4054:4107   */\n      tag_112\n        /* \"#utility.yul\":4072:4106   */\n      tag_113\n        /* \"#utility.yul\":4081:4105   */\n      tag_114\n        /* \"#utility.yul\":4099:4104   */\n      dup5\n        /* \"#utility.yul\":4081:4105   */\n      tag_57\n      jump\t// in\n    tag_114:\n        /* \"#utility.yul\":4072:4106   */\n      tag_58\n      jump\t// in\n    tag_113:\n        /* \"#utility.yul\":4054:4107   */\n      tag_57\n      jump\t// in\n    tag_112:\n        /* \"#utility.yul\":4041:4107   */\n      swap1\n      pop\n        /* \"#utility.yul\":3971:4113   */\n      swap2\n      swap1\n      pop\n      jump\t// out\n        /* \"#utility.yul\":4119:4245   */\n    tag_60:\n        /* \"#utility.yul\":4169:4178   */\n      0x00\n        /* \"#utility.yul\":4202:4239   */\n      tag_116\n        /* \"#utility.yul\":4233:4238   */\n      dup3\n        /* \"#utility.yul\":4202:4239   */\n      tag_59\n      jump\t// in\n    tag_116:\n        /* \"#utility.yul\":4189:4239   */\n      swap1\n      pop\n        /* \"#utility.yul\":4119:4245   */\n      swap2\n      swap1\n      pop\n      jump\t// out\n        /* \"#utility.yul\":4251:4392   */\n    tag_61:\n        /* \"#utility.yul\":4316:4325   */\n      0x00\n        /* \"#utility.yul\":4349:4386   */\n      tag_118\n        /* \"#utility.yul\":4380:4385   */\n      dup3\n        /* \"#utility.yul\":4349:4386   */\n      tag_60\n      jump\t// in\n    tag_118:\n        /* \"#utility.yul\":4336:4386   */\n      swap1\n      pop\n        /* \"#utility.yul\":4251:4392   */\n      swap2\n      swap1\n      pop\n      jump\t// out\n        /* \"#utility.yul\":4398:4559   */\n    tag_62:\n        /* \"#utility.yul\":4500:4552   */\n      tag_120\n        /* \"#utility.yul\":4546:4551   */\n      dup2\n        /* \"#utility.yul\":4500:4552   */\n      tag_61\n      jump\t// in\n    tag_120:\n        /* \"#utility.yul\":4495:4498   */\n      dup3\n        /* \"#utility.yul\":4488:4553   */\n      mstore\n        /* \"#utility.yul\":4398:4559   */\n      pop\n      pop\n      jump\t// out\n        /* \"#utility.yul\":4565:4817   */\n    tag_14:\n        /* \"#utility.yul\":4673:4677   */\n      0x00\n        /* \"#utility.yul\":4711:4713   */\n      0x20\n        /* \"#utility.yul\":4700:4709   */\n      dup3\n        /* \"#utility.yul\":4696:4714   */\n      add\n        /* \"#utility.yul\":4688:4714   */\n      swap1\n      pop\n        /* \"#utility.yul\":4724:4810   */\n      tag_122\n        /* \"#utility.yul\":4807:4808   */\n      0x00\n        /* \"#utility.yul\":4796:4805   */\n      dup4\n        /* \"#utility.yul\":4792:4809   */\n      add\n        /* \"#utility.yul\":4783:4789   */\n      dup5\n        /* \"#utility.yul\":4724:4810   */\n      tag_62\n      jump\t// in\n    tag_122:\n        /* \"#utility.yul\":4565:4817   */\n      swap3\n      swap2\n      pop\n      pop\n      jump\t// out\n        /* \"#utility.yul\":4823:4945   */\n    tag_63:\n        /* \"#utility.yul\":4896:4920   */\n      tag_124\n        /* \"#utility.yul\":4914:4919   */\n      dup2\n        /* \"#utility.yul\":4896:4920   */\n      tag_52\n      jump\t// in\n    tag_124:\n        /* \"#utility.yul\":4889:4894   */\n      dup2\n        /* \"#utility.yul\":4886:4921   */\n      eq\n        /* \"#utility.yul\":4876:4939   */\n      tag_125\n      jumpi\n        /* \"#utility.yul\":4935:4936   */\n      0x00\n        /* \"#utility.yul\":4932:4933   */\n      dup1\n        /* \"#utility.yul\":4925:4937   */\n      revert\n        /* \"#utility.yul\":4876:4939   */\n    tag_125:\n        /* \"#utility.yul\":4823:4945   */\n      pop\n      jump\t// out\n        /* \"#utility.yul\":4951:5094   */\n    tag_64:\n        /* \"#utility.yul\":5008:5013   */\n      0x00\n        /* \"#utility.yul\":5039:5045   */\n      dup2\n        /* \"#utility.yul\":5033:5046   */\n      mload\n        /* \"#utility.yul\":5024:5046   */\n      swap1\n      pop\n        /* \"#utility.yul\":5055:5088   */\n      tag_127\n        /* \"#utility.yul\":5082:5087   */\n      dup2\n        /* \"#utility.yul\":5055:5088   */\n      tag_63\n      jump\t// in\n    tag_127:\n        /* \"#utility.yul\":4951:5094   */\n      swap3\n      swap2\n      pop\n      pop\n      jump\t// out\n        /* \"#utility.yul\":5100:5451   */\n    tag_22:\n        /* \"#utility.yul\":5170:5176   */\n      0x00\n        /* \"#utility.yul\":5219:5221   */\n      0x20\n        /* \"#utility.yul\":5207:5216   */\n      dup3\n        /* \"#utility.yul\":5198:5205   */\n      dup5\n        /* \"#utility.yul\":5194:5217   */\n      sub\n        /* \"#utility.yul\":5190:5222   */\n      slt\n        /* \"#utility.yul\":5187:5306   */\n      iszero\n      tag_129\n      jumpi\n        /* \"#utility.yul\":5225:5304   */\n      tag_130\n      tag_43\n      jump\t// in\n    tag_130:\n        /* \"#utility.yul\":5187:5306   */\n    tag_129:\n        /* \"#utility.yul\":5345:5346   */\n      0x00\n        /* \"#utility.yul\":5370:5434   */\n      tag_131\n        /* \"#utility.yul\":5426:5433   */\n      dup5\n        /* \"#utility.yul\":5417:5423   */\n      dup3\n        /* \"#utility.yul\":5406:5415   */\n      dup6\n        /* \"#utility.yul\":5402:5424   */\n      add\n        /* \"#utility.yul\":5370:5434   */\n      tag_64\n      jump\t// in\n    tag_131:\n        /* \"#utility.yul\":5360:5434   */\n      swap2\n      pop\n        /* \"#utility.yul\":5316:5444   */\n      pop\n        /* \"#utility.yul\":5100:5451   */\n      swap3\n      swap2\n      pop\n      pop\n      jump\t// out\n        /* \"#utility.yul\":5457:5626   */\n    tag_65:\n        /* \"#utility.yul\":5541:5552   */\n      0x00\n        /* \"#utility.yul\":5575:5581   */\n      dup3\n        /* \"#utility.yul\":5570:5573   */\n      dup3\n        /* \"#utility.yul\":5563:5582   */\n      mstore\n        /* \"#utility.yul\":5615:5619   */\n      0x20\n        /* \"#utility.yul\":5610:5613   */\n      dup3\n        /* \"#utility.yul\":5606:5620   */\n      add\n        /* \"#utility.yul\":5591:5620   */\n      swap1\n      pop\n        /* \"#utility.yul\":5457:5626   */\n      swap3\n      swap2\n      pop\n      pop\n      jump\t// out\n        /* \"#utility.yul\":5632:5853   */\n    tag_66:\n        /* \"#utility.yul\":5772:5806   */\n      0x496e76616c6964206e756d626572206f6620656e637279707465642076616c75\n        /* \"#utility.yul\":5768:5769   */\n      0x00\n        /* \"#utility.yul\":5760:5766   */\n      dup3\n        /* \"#utility.yul\":5756:5770   */\n      add\n        /* \"#utility.yul\":5749:5807   */\n      mstore\n        /* \"#utility.yul\":5841:5845   */\n      0x6573000000000000000000000000000000000000000000000000000000000000\n        /* \"#utility.yul\":5836:5838   */\n      0x20\n        /* \"#utility.yul\":5828:5834   */\n      dup3\n        /* \"#utility.yul\":5824:5839   */\n      add\n        /* \"#utility.yul\":5817:5846   */\n      mstore\n        /* \"#utility.yul\":5632:5853   */\n      pop\n      jump\t// out\n        /* \"#utility.yul\":5859:6225   */\n    tag_67:\n        /* \"#utility.yul\":6001:6004   */\n      0x00\n        /* \"#utility.yul\":6022:6089   */\n      tag_135\n        /* \"#utility.yul\":6086:6088   */\n      0x22\n        /* \"#utility.yul\":6081:6084   */\n      dup4\n        /* \"#utility.yul\":6022:6089   */\n      tag_65\n      jump\t// in\n    tag_135:\n        /* \"#utility.yul\":6015:6089   */\n      swap2\n      pop\n        /* \"#utility.yul\":6098:6191   */\n      tag_136\n        /* \"#utility.yul\":6187:6190   */\n      dup3\n        /* \"#utility.yul\":6098:6191   */\n      tag_66\n      jump\t// in\n    tag_136:\n        /* \"#utility.yul\":6216:6218   */\n      0x40\n        /* \"#utility.yul\":6211:6214   */\n      dup3\n        /* \"#utility.yul\":6207:6219   */\n      add\n        /* \"#utility.yul\":6200:6219   */\n      swap1\n      pop\n        /* \"#utility.yul\":5859:6225   */\n      swap2\n      swap1\n      pop\n      jump\t// out\n        /* \"#utility.yul\":6231:6650   */\n    tag_25:\n        /* \"#utility.yul\":6397:6401   */\n      0x00\n        /* \"#utility.yul\":6435:6437   */\n      0x20\n        /* \"#utility.yul\":6424:6433   */\n      dup3\n        /* \"#utility.yul\":6420:6438   */\n      add\n        /* \"#utility.yul\":6412:6438   */\n      swap1\n      pop\n        /* \"#utility.yul\":6484:6493   */\n      dup2\n        /* \"#utility.yul\":6478:6482   */\n      dup2\n        /* \"#utility.yul\":6474:6494   */\n      sub\n        /* \"#utility.yul\":6470:6471   */\n      0x00\n        /* \"#utility.yul\":6459:6468   */\n      dup4\n        /* \"#utility.yul\":6455:6472   */\n      add\n        /* \"#utility.yul\":6448:6495   */\n      mstore\n        /* \"#utility.yul\":6512:6643   */\n      tag_138\n        /* \"#utility.yul\":6638:6642   */\n      dup2\n        /* \"#utility.yul\":6512:6643   */\n      tag_67\n      jump\t// in\n    tag_138:\n        /* \"#utility.yul\":6504:6643   */\n      swap1\n      pop\n        /* \"#utility.yul\":6231:6650   */\n      swap2\n      swap1\n      pop\n      jump\t// out\n        /* \"#utility.yul\":6656:6836   */\n    tag_28:\n        /* \"#utility.yul\":6704:6781   */\n      0x4e487b7100000000000000000000000000000000000000000000000000000000\n        /* \"#utility.yul\":6701:6702   */\n      0x00\n        /* \"#utility.yul\":6694:6782   */\n      mstore\n        /* \"#utility.yul\":6801:6805   */\n      0x32\n        /* \"#utility.yul\":6798:6799   */\n      0x04\n        /* \"#utility.yul\":6791:6806   */\n      mstore\n        /* \"#utility.yul\":6825:6829   */\n      0x24\n        /* \"#utility.yul\":6822:6823   */\n      0x00\n        /* \"#utility.yul\":6815:6830   */\n      revert\n        /* \"#utility.yul\":6842:7022   */\n    tag_68:\n        /* \"#utility.yul\":6890:6967   */\n      0x4e487b7100000000000000000000000000000000000000000000000000000000\n        /* \"#utility.yul\":6887:6888   */\n      0x00\n        /* \"#utility.yul\":6880:6968   */\n      mstore\n        /* \"#utility.yul\":6987:6991   */\n      0x11\n        /* \"#utility.yul\":6984:6985   */\n      0x04\n        /* \"#utility.yul\":6977:6992   */\n      mstore\n        /* \"#utility.yul\":7011:7015   */\n      0x24\n        /* \"#utility.yul\":7008:7009   */\n      0x00\n        /* \"#utility.yul\":7001:7016   */\n      revert\n        /* \"#utility.yul\":7028:7219   */\n    tag_35:\n        /* \"#utility.yul\":7068:7072   */\n      0x00\n        /* \"#utility.yul\":7088:7108   */\n      tag_142\n        /* \"#utility.yul\":7106:7107   */\n      dup3\n        /* \"#utility.yul\":7088:7108   */\n      tag_52\n      jump\t// in\n    tag_142:\n        /* \"#utility.yul\":7083:7108   */\n      swap2\n      pop\n        /* \"#utility.yul\":7122:7142   */\n      tag_143\n        /* \"#utility.yul\":7140:7141   */\n      dup4\n        /* \"#utility.yul\":7122:7142   */\n      tag_52\n      jump\t// in\n    tag_143:\n        /* \"#utility.yul\":7117:7142   */\n      swap3\n      pop\n        /* \"#utility.yul\":7161:7162   */\n      dup3\n        /* \"#utility.yul\":7158:7159   */\n      dup3\n        /* \"#utility.yul\":7155:7163   */\n      lt\n        /* \"#utility.yul\":7152:7186   */\n      iszero\n      tag_144\n      jumpi\n        /* \"#utility.yul\":7166:7184   */\n      tag_145\n      tag_68\n      jump\t// in\n    tag_145:\n        /* \"#utility.yul\":7152:7186   */\n    tag_144:\n        /* \"#utility.yul\":7211:7212   */\n      dup3\n        /* \"#utility.yul\":7208:7209   */\n      dup3\n        /* \"#utility.yul\":7204:7213   */\n      sub\n        /* \"#utility.yul\":7196:7213   */\n      swap1\n      pop\n        /* \"#utility.yul\":7028:7219   */\n      swap3\n      swap2\n      pop\n      pop\n      jump\t// out\n        /* \"#utility.yul\":7225:7458   */\n    tag_40:\n        /* \"#utility.yul\":7264:7267   */\n      0x00\n        /* \"#utility.yul\":7287:7311   */\n      tag_147\n        /* \"#utility.yul\":7305:7310   */\n      dup3\n        /* \"#utility.yul\":7287:7311   */\n      tag_52\n      jump\t// in\n    tag_147:\n        /* \"#utility.yul\":7278:7311   */\n      swap2\n      pop\n        /* \"#utility.yul\":7333:7399   */\n      0xffffffffffffffffffffffffffffffffffffffffffffffffffffffffffffffff\n        /* \"#utility.yul\":7326:7331   */\n      dup3\n        /* \"#utility.yul\":7323:7400   */\n      eq\n        /* \"#utility.yul\":7320:7423   */\n      iszero\n      tag_148\n      jumpi\n        /* \"#utility.yul\":7403:7421   */\n      tag_149\n      tag_68\n      jump\t// in\n    tag_149:\n        /* \"#utility.yul\":7320:7423   */\n    tag_148:\n        /* \"#utility.yul\":7450:7451   */\n      0x01\n        /* \"#utility.yul\":7443:7448   */\n      dup3\n        /* \"#utility.yul\":7439:7452   */\n      add\n        /* \"#utility.yul\":7432:7452   */\n      swap1\n      pop\n        /* \"#utility.yul\":7225:7458   */\n      swap2\n      swap1\n      pop\n      jump\t// out\n\n    auxdata: 0xa2646970667358221220a142a414f0bd0e8b456223ca2844c24dc08cd8f2169c8b3644444c068b19a95d64736f6c63430008080033\n}\n",
				"bytecode": {
					"linkReferences": {},
					"object": "608060405234801561001057600080fd5b506040516107ba3803806107ba833981810160405281019061003291906100db565b806000806101000a81548173ffffffffffffffffffffffffffffffffffffffff021916908373ffffffffffffffffffffffffffffffffffffffff16021790555050610108565b600080fd5b600073ffffffffffffffffffffffffffffffffffffffff82169050919050565b60006100a88261007d565b9050919050565b6100b88161009d565b81146100c357600080fd5b50565b6000815190506100d5816100af565b92915050565b6000602082840312156100f1576100f0610078565b5b60006100ff848285016100c6565b91505092915050565b6106a3806101176000396000f3fe608060405234801561001057600080fd5b50600436106100365760003560e01c806316e74f091461003b5780637d9f6db51461006b575b600080fd5b610055600480360381019061005091906102df565b610089565b60405161006291906103e1565b60405180910390f35b610073610220565b604051610080919061047b565b60405180910390f35b61009161024e565b60008054906101000a900473ffffffffffffffffffffffffffffffffffffffff1673ffffffffffffffffffffffffffffffffffffffff166324924bf76040518163ffffffff1660e01b815260040160206040518083038186803b1580156100f757600080fd5b505afa15801561010b573d6000803e3d6000fd5b505050506040513d601f19601f8201168201806040525081019061012f91906104c2565b8383905014610173576040517f08c379a000000000000000000000000000000000000000000000000000000000815260040161016a90610572565b60405180910390fd5b60008383600081811061018957610188610592565b5b905060200201359050600080600190505b858590508110156102005760008686838181106101ba576101b9610592565b5b905060200201359050600084826101d191906105f0565b905060006101de82610244565b11156101eb578194508293505b505080806101f890610624565b91505061019a565b506040518060400160405280838152602001828152509250505092915050565b60008054906101000a900473ffffffffffffffffffffffffffffffffffffffff1681565b6000819050919050565b6040518060400160405280600290602082028036833780820191505090505090565b600080fd5b600080fd5b600080fd5b600080fd5b600080fd5b60008083601f84011261029f5761029e61027a565b5b8235905067ffffffffffffffff8111156102bc576102bb61027f565b5b6020830191508360208202830111156102d8576102d7610284565b5b9250929050565b600080602083850312156102f6576102f5610270565b5b600083013567ffffffffffffffff81111561031457610313610275565b5b61032085828601610289565b92509250509250929050565b600060029050919050565b600081905092915050565b6000819050919050565b6000819050919050565b61035f8161034c565b82525050565b60006103718383610356565b60208301905092915050565b6000602082019050919050565b6103938161032c565b61039d8184610337565b92506103a882610342565b8060005b838110156103d95781516103c08782610365565b96506103cb8361037d565b9250506001810190506103ac565b505050505050565b60006040820190506103f6600083018461038a565b92915050565b600073ffffffffffffffffffffffffffffffffffffffff82169050919050565b6000819050919050565b600061044161043c610437846103fc565b61041c565b6103fc565b9050919050565b600061045382610426565b9050919050565b600061046582610448565b9050919050565b6104758161045a565b82525050565b6000602082019050610490600083018461046c565b92915050565b61049f8161034c565b81146104aa57600080fd5b50565b6000815190506104bc81610496565b92915050565b6000602082840312156104d8576104d7610270565b5b60006104e6848285016104ad565b91505092915050565b600082825260208201905092915050565b7f496e76616c6964206e756d626572206f6620656e637279707465642076616c7560008201527f6573000000000000000000000000000000000000000000000000000000000000602082015250565b600061055c6022836104ef565b915061056782610500565b604082019050919050565b6000602082019050818103600083015261058b8161054f565b9050919050565b7f4e487b7100000000000000000000000000000000000000000000000000000000600052603260045260246000fd5b7f4e487b7100000000000000000000000000000000000000000000000000000000600052601160045260246000fd5b60006105fb8261034c565b91506106068361034c565b925082821015610619576106186105c1565b5b828203905092915050565b600061062f8261034c565b91507fffffffffffffffffffffffffffffffffffffffffffffffffffffffffffffffff821415610662576106616105c1565b5b60018201905091905056fea2646970667358221220a142a414f0bd0e8b456223ca2844c24dc08cd8f2169c8b3644444c068b19a95d64736f6c63430008080033",
					"opcodes": "PUSH1 0x80 PUSH1 0x40 MSTORE CALLVALUE DUP1 ISZERO PUSH2 0x10 JUMPI PUSH1 0x0 DUP1 REVERT JUMPDEST POP PUSH1 0x40 MLOAD PUSH2 0x7BA CODESIZE SUB DUP1 PUSH2 0x7BA DUP4 CODECOPY DUP2 DUP2 ADD PUSH1 0x40 MSTORE DUP2 ADD SWAP1 PUSH2 0x32 SWAP2 SWAP1 PUSH2 0xDB JUMP JUMPDEST DUP1 PUSH1 0x0 DUP1 PUSH2 0x100 EXP DUP2 SLOAD DUP2 PUSH20 0xFFFFFFFFFFFFFFFFFFFFFFFFFFFFFFFFFFFFFFFF MUL NOT AND SWAP1 DUP4 PUSH20 0xFFFFFFFFFFFFFFFFFFFFFFFFFFFFFFFFFFFFFFFF AND MUL OR SWAP1 SSTORE POP POP PUSH2 0x108 JUMP JUMPDEST PUSH1 0x0 DUP1 REVERT JUMPDEST PUSH1 0x0 PUSH20 0xFFFFFFFFFFFFFFFFFFFFFFFFFFFFFFFFFFFFFFFF DUP3 AND SWAP1 POP SWAP2 SWAP1 POP JUMP JUMPDEST PUSH1 0x0 PUSH2 0xA8 DUP3 PUSH2 0x7D JUMP JUMPDEST SWAP1 POP SWAP2 SWAP1 POP JUMP JUMPDEST PUSH2 0xB8 DUP2 PUSH2 0x9D JUMP JUMPDEST DUP2 EQ PUSH2 0xC3 JUMPI PUSH1 0x0 DUP1 REVERT JUMPDEST POP JUMP JUMPDEST PUSH1 0x0 DUP2 MLOAD SWAP1 POP PUSH2 0xD5 DUP2 PUSH2 0xAF JUMP JUMPDEST SWAP3 SWAP2 POP POP JUMP JUMPDEST PUSH1 0x0 PUSH1 0x20 DUP3 DUP5 SUB SLT ISZERO PUSH2 0xF1 JUMPI PUSH2 0xF0 PUSH2 0x78 JUMP JUMPDEST JUMPDEST PUSH1 0x0 PUSH2 0xFF DUP5 DUP3 DUP6 ADD PUSH2 0xC6 JUMP JUMPDEST SWAP2 POP POP SWAP3 SWAP2 POP POP JUMP JUMPDEST PUSH2 0x6A3 DUP1 PUSH2 0x117 PUSH1 0x0 CODECOPY PUSH1 0x0 RETURN INVALID PUSH1 0x80 PUSH1 0x40 MSTORE CALLVALUE DUP1 ISZERO PUSH2 0x10 JUMPI PUSH1 0x0 DUP1 REVERT JUMPDEST POP PUSH1 0x4 CALLDATASIZE LT PUSH2 0x36 JUMPI PUSH1 0x0 CALLDATALOAD PUSH1 0xE0 SHR DUP1 PUSH4 0x16E74F09 EQ PUSH2 0x3B JUMPI DUP1 PUSH4 0x7D9F6DB5 EQ PUSH2 0x6B JUMPI JUMPDEST PUSH1 0x0 DUP1 REVERT JUMPDEST PUSH2 0x55 PUSH1 0x4 DUP1 CALLDATASIZE SUB DUP2 ADD SWAP1 PUSH2 0x50 SWAP2 SWAP1 PUSH2 0x2DF JUMP JUMPDEST PUSH2 0x89 JUMP JUMPDEST PUSH1 0x40 MLOAD PUSH2 0x62 SWAP2 SWAP1 PUSH2 0x3E1 JUMP JUMPDEST PUSH1 0x40 MLOAD DUP1 SWAP2 SUB SWAP1 RETURN JUMPDEST PUSH2 0x73 PUSH2 0x220 JUMP JUMPDEST PUSH1 0x40 MLOAD PUSH2 0x80 SWAP2 SWAP1 PUSH2 0x47B JUMP JUMPDEST PUSH1 0x40 MLOAD DUP1 SWAP2 SUB SWAP1 RETURN JUMPDEST PUSH2 0x91 PUSH2 0x24E JUMP JUMPDEST PUSH1 0x0 DUP1 SLOAD SWAP1 PUSH2 0x100 EXP SWAP1 DIV PUSH20 0xFFFFFFFFFFFFFFFFFFFFFFFFFFFFFFFFFFFFFFFF AND PUSH20 0xFFFFFFFFFFFFFFFFFFFFFFFFFFFFFFFFFFFFFFFF AND PUSH4 0x24924BF7 PUSH1 0x40 MLOAD DUP2 PUSH4 0xFFFFFFFF AND PUSH1 0xE0 SHL DUP2 MSTORE PUSH1 0x4 ADD PUSH1 0x20 PUSH1 0x40 MLOAD DUP1 DUP4 SUB DUP2 DUP7 DUP1 EXTCODESIZE ISZERO DUP1 ISZERO PUSH2 0xF7 JUMPI PUSH1 0x0 DUP1 REVERT JUMPDEST POP GAS STATICCALL ISZERO DUP1 ISZERO PUSH2 0x10B JUMPI RETURNDATASIZE PUSH1 0x0 DUP1 RETURNDATACOPY RETURNDATASIZE PUSH1 0x0 REVERT JUMPDEST POP POP POP POP PUSH1 0x40 MLOAD RETURNDATASIZE PUSH1 0x1F NOT PUSH1 0x1F DUP3 ADD AND DUP3 ADD DUP1 PUSH1 0x40 MSTORE POP DUP2 ADD SWAP1 PUSH2 0x12F SWAP2 SWAP1 PUSH2 0x4C2 JUMP JUMPDEST DUP4 DUP4 SWAP1 POP EQ PUSH2 0x173 JUMPI PUSH1 0x40 MLOAD PUSH32 0x8C379A000000000000000000000000000000000000000000000000000000000 DUP2 MSTORE PUSH1 0x4 ADD PUSH2 0x16A SWAP1 PUSH2 0x572 JUMP JUMPDEST PUSH1 0x40 MLOAD DUP1 SWAP2 SUB SWAP1 REVERT JUMPDEST PUSH1 0x0 DUP4 DUP4 PUSH1 0x0 DUP2 DUP2 LT PUSH2 0x189 JUMPI PUSH2 0x188 PUSH2 0x592 JUMP JUMPDEST JUMPDEST SWAP1 POP PUSH1 0x20 MUL ADD CALLDATALOAD SWAP1 POP PUSH1 0x0 DUP1 PUSH1 0x1 SWAP1 POP JUMPDEST DUP6 DUP6 SWAP1 POP DUP2 LT ISZERO PUSH2 0x200 JUMPI PUSH1 0x0 DUP7 DUP7 DUP4 DUP2 DUP2 LT PUSH2 0x1BA JUMPI PUSH2 0x1B9 PUSH2 0x592 JUMP JUMPDEST JUMPDEST SWAP1 POP PUSH1 0x20 MUL ADD CALLDATALOAD SWAP1 POP PUSH1 0x0 DUP5 DUP3 PUSH2 0x1D1 SWAP2 SWAP1 PUSH2 0x5F0 JUMP JUMPDEST SWAP1 POP PUSH1 0x0 PUSH2 0x1DE DUP3 PUSH2 0x244 JUMP JUMPDEST GT ISZERO PUSH2 0x1EB JUMPI DUP2 SWAP5 POP DUP3 SWAP4 POP JUMPDEST POP POP DUP1 DUP1 PUSH2 0x1F8 SWAP1 PUSH2 0x624 JUMP JUMPDEST SWAP2 POP POP PUSH2 0x19A JUMP JUMPDEST POP PUSH1 0x40 MLOAD DUP1 PUSH1 0x40 ADD PUSH1 0x40 MSTORE DUP1 DUP4 DUP2 MSTORE PUSH1 0x20 ADD DUP3 DUP2 MSTORE POP SWAP3 POP POP POP SWAP3 SWAP2 POP POP JUMP JUMPDEST PUSH1 0x0 DUP1 SLOAD SWAP1 PUSH2 0x100 EXP SWAP1 DIV PUSH20 0xFFFFFFFFFFFFFFFFFFFFFFFFFFFFFFFFFFFFFFFF AND DUP2 JUMP JUMPDEST PUSH1 0x0 DUP2 SWAP1 POP SWAP2 SWAP1 POP JUMP JUMPDEST PUSH1 0x40 MLOAD DUP1 PUSH1 0x40 ADD PUSH1 0x40 MSTORE DUP1 PUSH1 0x2 SWAP1 PUSH1 0x20 DUP3 MUL DUP1 CALLDATASIZE DUP4 CALLDATACOPY DUP1 DUP3 ADD SWAP2 POP POP SWAP1 POP POP SWAP1 JUMP JUMPDEST PUSH1 0x0 DUP1 REVERT JUMPDEST PUSH1 0x0 DUP1 REVERT JUMPDEST PUSH1 0x0 DUP1 REVERT JUMPDEST PUSH1 0x0 DUP1 REVERT JUMPDEST PUSH1 0x0 DUP1 REVERT JUMPDEST PUSH1 0x0 DUP1 DUP4 PUSH1 0x1F DUP5 ADD SLT PUSH2 0x29F JUMPI PUSH2 0x29E PUSH2 0x27A JUMP JUMPDEST JUMPDEST DUP3 CALLDATALOAD SWAP1 POP PUSH8 0xFFFFFFFFFFFFFFFF DUP2 GT ISZERO PUSH2 0x2BC JUMPI PUSH2 0x2BB PUSH2 0x27F JUMP JUMPDEST JUMPDEST PUSH1 0x20 DUP4 ADD SWAP2 POP DUP4 PUSH1 0x20 DUP3 MUL DUP4 ADD GT ISZERO PUSH2 0x2D8 JUMPI PUSH2 0x2D7 PUSH2 0x284 JUMP JUMPDEST JUMPDEST SWAP3 POP SWAP3 SWAP1 POP JUMP JUMPDEST PUSH1 0x0 DUP1 PUSH1 0x20 DUP4 DUP6 SUB SLT ISZERO PUSH2 0x2F6 JUMPI PUSH2 0x2F5 PUSH2 0x270 JUMP JUMPDEST JUMPDEST PUSH1 0x0 DUP4 ADD CALLDATALOAD PUSH8 0xFFFFFFFFFFFFFFFF DUP2 GT ISZERO PUSH2 0x314 JUMPI PUSH2 0x313 PUSH2 0x275 JUMP JUMPDEST JUMPDEST PUSH2 0x320 DUP6 DUP3 DUP7 ADD PUSH2 0x289 JUMP JUMPDEST SWAP3 POP SWAP3 POP POP SWAP3 POP SWAP3 SWAP1 POP JUMP JUMPDEST PUSH1 0x0 PUSH1 0x2 SWAP1 POP SWAP2 SWAP1 POP JUMP JUMPDEST PUSH1 0x0 DUP2 SWAP1 POP SWAP3 SWAP2 POP POP JUMP JUMPDEST PUSH1 0x0 DUP2 SWAP1 POP SWAP2 SWAP1 POP JUMP JUMPDEST PUSH1 0x0 DUP2 SWAP1 POP SWAP2 SWAP1 POP JUMP JUMPDEST PUSH2 0x35F DUP2 PUSH2 0x34C JUMP JUMPDEST DUP3 MSTORE POP POP JUMP JUMPDEST PUSH1 0x0 PUSH2 0x371 DUP4 DUP4 PUSH2 0x356 JUMP JUMPDEST PUSH1 0x20 DUP4 ADD SWAP1 POP SWAP3 SWAP2 POP POP JUMP JUMPDEST PUSH1 0x0 PUSH1 0x20 DUP3 ADD SWAP1 POP SWAP2 SWAP1 POP JUMP JUMPDEST PUSH2 0x393 DUP2 PUSH2 0x32C JUMP JUMPDEST PUSH2 0x39D DUP2 DUP5 PUSH2 0x337 JUMP JUMPDEST SWAP3 POP PUSH2 0x3A8 DUP3 PUSH2 0x342 JUMP JUMPDEST DUP1 PUSH1 0x0 JUMPDEST DUP4 DUP2 LT ISZERO PUSH2 0x3D9 JUMPI DUP2 MLOAD PUSH2 0x3C0 DUP8 DUP3 PUSH2 0x365 JUMP JUMPDEST SWAP7 POP PUSH2 0x3CB DUP4 PUSH2 0x37D JUMP JUMPDEST SWAP3 POP POP PUSH1 0x1 DUP2 ADD SWAP1 POP PUSH2 0x3AC JUMP JUMPDEST POP POP POP POP POP POP JUMP JUMPDEST PUSH1 0x0 PUSH1 0x40 DUP3 ADD SWAP1 POP PUSH2 0x3F6 PUSH1 0x0 DUP4 ADD DUP5 PUSH2 0x38A JUMP JUMPDEST SWAP3 SWAP2 POP POP JUMP JUMPDEST PUSH1 0x0 PUSH20 0xFFFFFFFFFFFFFFFFFFFFFFFFFFFFFFFFFFFFFFFF DUP3 AND SWAP1 POP SWAP2 SWAP1 POP JUMP JUMPDEST PUSH1 0x0 DUP2 SWAP1 POP SWAP2 SWAP1 POP JUMP JUMPDEST PUSH1 0x0 PUSH2 0x441 PUSH2 0x43C PUSH2 0x437 DUP5 PUSH2 0x3FC JUMP JUMPDEST PUSH2 0x41C JUMP JUMPDEST PUSH2 0x3FC JUMP JUMPDEST SWAP1 POP SWAP2 SWAP1 POP JUMP JUMPDEST PUSH1 0x0 PUSH2 0x453 DUP3 PUSH2 0x426 JUMP JUMPDEST SWAP1 POP SWAP2 SWAP1 POP JUMP JUMPDEST PUSH1 0x0 PUSH2 0x465 DUP3 PUSH2 0x448 JUMP JUMPDEST SWAP1 POP SWAP2 SWAP1 POP JUMP JUMPDEST PUSH2 0x475 DUP2 PUSH2 0x45A JUMP JUMPDEST DUP3 MSTORE POP POP JUMP JUMPDEST PUSH1 0x0 PUSH1 0x20 DUP3 ADD SWAP1 POP PUSH2 0x490 PUSH1 0x0 DUP4 ADD DUP5 PUSH2 0x46C JUMP JUMPDEST SWAP3 SWAP2 POP POP JUMP JUMPDEST PUSH2 0x49F DUP2 PUSH2 0x34C JUMP JUMPDEST DUP2 EQ PUSH2 0x4AA JUMPI PUSH1 0x0 DUP1 REVERT JUMPDEST POP JUMP JUMPDEST PUSH1 0x0 DUP2 MLOAD SWAP1 POP PUSH2 0x4BC DUP2 PUSH2 0x496 JUMP JUMPDEST SWAP3 SWAP2 POP POP JUMP JUMPDEST PUSH1 0x0 PUSH1 0x20 DUP3 DUP5 SUB SLT ISZERO PUSH2 0x4D8 JUMPI PUSH2 0x4D7 PUSH2 0x270 JUMP JUMPDEST JUMPDEST PUSH1 0x0 PUSH2 0x4E6 DUP5 DUP3 DUP6 ADD PUSH2 0x4AD JUMP JUMPDEST SWAP2 POP POP SWAP3 SWAP2 POP POP JUMP JUMPDEST PUSH1 0x0 DUP3 DUP3 MSTORE PUSH1 0x20 DUP3 ADD SWAP1 POP SWAP3 SWAP2 POP POP JUMP JUMPDEST PUSH32 0x496E76616C6964206E756D626572206F6620656E637279707465642076616C75 PUSH1 0x0 DUP3 ADD MSTORE PUSH32 0x6573000000000000000000000000000000000000000000000000000000000000 PUSH1 0x20 DUP3 ADD MSTORE POP JUMP JUMPDEST PUSH1 0x0 PUSH2 0x55C PUSH1 0x22 DUP4 PUSH2 0x4EF JUMP JUMPDEST SWAP2 POP PUSH2 0x567 DUP3 PUSH2 0x500 JUMP JUMPDEST PUSH1 0x40 DUP3 ADD SWAP1 POP SWAP2 SWAP1 POP JUMP JUMPDEST PUSH1 0x0 PUSH1 0x20 DUP3 ADD SWAP1 POP DUP2 DUP2 SUB PUSH1 0x0 DUP4 ADD MSTORE PUSH2 0x58B DUP2 PUSH2 0x54F JUMP JUMPDEST SWAP1 POP SWAP2 SWAP1 POP JUMP JUMPDEST PUSH32 0x4E487B7100000000000000000000000000000000000000000000000000000000 PUSH1 0x0 MSTORE PUSH1 0x32 PUSH1 0x4 MSTORE PUSH1 0x24 PUSH1 0x0 REVERT JUMPDEST PUSH32 0x4E487B7100000000000000000000000000000000000000000000000000000000 PUSH1 0x0 MSTORE PUSH1 0x11 PUSH1 0x4 MSTORE PUSH1 0x24 PUSH1 0x0 REVERT JUMPDEST PUSH1 0x0 PUSH2 0x5FB DUP3 PUSH2 0x34C JUMP JUMPDEST SWAP2 POP PUSH2 0x606 DUP4 PUSH2 0x34C JUMP JUMPDEST SWAP3 POP DUP3 DUP3 LT ISZERO PUSH2 0x619 JUMPI PUSH2 0x618 PUSH2 0x5C1 JUMP JUMPDEST JUMPDEST DUP3 DUP3 SUB SWAP1 POP SWAP3 SWAP2 POP POP JUMP JUMPDEST PUSH1 0x0 PUSH2 0x62F DUP3 PUSH2 0x34C JUMP JUMPDEST SWAP2 POP PUSH32 0xFFFFFFFFFFFFFFFFFFFFFFFFFFFFFFFFFFFFFFFFFFFFFFFFFFFFFFFFFFFFFFFF DUP3 EQ ISZERO PUSH2 0x662 JUMPI PUSH2 0x661 PUSH2 0x5C1 JUMP JUMPDEST JUMPDEST PUSH1 0x1 DUP3 ADD SWAP1 POP SWAP2 SWAP1 POP JUMP INVALID LOG2 PUSH5 0x6970667358 0x22 SLT KECCAK256 LOG1 TIMESTAMP LOG4 EQ CREATE 0xBD 0xE DUP12 GASLIMIT PUSH3 0x23CA28 DIFFICULTY 0xC2 0x4D 0xC0 DUP13 0xD8 CALLCODE AND SWAP13 DUP12 CALLDATASIZE DIFFICULTY DIFFICULTY 0x4C MOD DUP12 NOT 0xA9 0x5D PUSH5 0x736F6C6343 STOP ADDMOD ADDMOD STOP CALLER "
				},
				"gasEstimates": {
					"creation": {
						"codeDepositCost": "339800",
						"executionCost": "infinite",
						"totalCost": "infinite"
					},
					"external": {
						"auction()": "infinite",
						"getWinner(uint256[])": "infinite"
					},
					"internal": {
						"decrypt(uint256)": "28"
					}
				},
				"methodIdentifiers": {
					"auction()": "7d9f6db5",
					"getWinner(uint256[])": "16e74f09"
				}
			},
			"storageLayout": {
				"storage": [
					{
						"astId": 561,
						"contract": "contracts/DetermineWinner.sol:WinnerDetermination",
						"label": "auction",
						"offset": 0,
						"slot": "0",
						"type": "t_contract(Auction)555"
					}
				],
				"types": {
					"t_contract(Auction)555": {
						"encoding": "inplace",
						"label": "contract Auction",
						"numberOfBytes": "20"
					}
				}
			},
			"userdoc": {
				"kind": "user",
				"methods": {},
				"version": 1
			}
		}
	}
}