{
	"data": {
		"bytecode": {
			"linkReferences": {},
			"object": "60806040523480156200001157600080fd5b5060405162001e8138038062001e818339818101604052810190620000379190620002ba565b620000576200004b6200014960201b60201c565b6200015160201b60201c565b82600560006101000a81548173ffffffffffffffffffffffffffffffffffffffff021916908373ffffffffffffffffffffffffffffffffffffffff1602179055508160068190555080600281905550600560009054906101000a900473ffffffffffffffffffffffffffffffffffffffff1673ffffffffffffffffffffffffffffffffffffffff1663f242432a333060065460016040518563ffffffff1660e01b81526004016200010c9493929190620003c0565b600060405180830381600087803b1580156200012757600080fd5b505af11580156200013c573d6000803e3d6000fd5b5050505050505062000422565b600033905090565b60008060009054906101000a900473ffffffffffffffffffffffffffffffffffffffff169050816000806101000a81548173ffffffffffffffffffffffffffffffffffffffff021916908373ffffffffffffffffffffffffffffffffffffffff1602179055508173ffffffffffffffffffffffffffffffffffffffff168173ffffffffffffffffffffffffffffffffffffffff167f8be0079c531659141344cd1fd0a4f28419497f9722a3daafe3b4186f6b6457e060405160405180910390a35050565b600080fd5b600073ffffffffffffffffffffffffffffffffffffffff82169050919050565b600062000247826200021a565b9050919050565b62000259816200023a565b81146200026557600080fd5b50565b60008151905062000279816200024e565b92915050565b6000819050919050565b62000294816200027f565b8114620002a057600080fd5b50565b600081519050620002b48162000289565b92915050565b600080600060608486031215620002d657620002d562000215565b5b6000620002e68682870162000268565b9350506020620002f986828701620002a3565b92505060406200030c86828701620002a3565b9150509250925092565b62000321816200023a565b82525050565b62000332816200027f565b82525050565b6000819050919050565b6000819050919050565b60006200036d62000367620003618462000338565b62000342565b6200027f565b9050919050565b6200037f816200034c565b82525050565b600082825260208201905092915050565b50565b6000620003a860008362000385565b9150620003b58262000396565b600082019050919050565b600060a082019050620003d7600083018762000316565b620003e6602083018662000316565b620003f5604083018562000327565b62000404606083018462000374565b8181036080830152620004178162000399565b905095945050505050565b611a4f80620004326000396000f3fe6080604052600436106100fe5760003560e01c8063637a668711610095578063bc197c8111610064578063bc197c81146102f7578063e537213e14610334578063f23a6e6114610371578063f2fde38b146103ae578063fe67a54b146103d7576100fe565b8063637a66871461025f57806367a555d81461028a578063715018a6146102b55780638da5cb5b146102cc576100fe565b806324924bf7116100d157806324924bf7146101d4578063362f04c0146101ff57806336fb61a71461022a5780634c68df6714610234576100fe565b806301ffc9a71461010357806309e69ede1461014057806312fa6feb1461017e57806321f42268146101a9575b600080fd5b34801561010f57600080fd5b5061012a60048036038101906101259190610e1f565b6103ee565b6040516101379190610e67565b60405180910390f35b34801561014c57600080fd5b5061016760048036038101906101629190610ee0565b610468565b604051610175929190610f26565b60405180910390f35b34801561018a57600080fd5b50610193610499565b6040516101a09190610e67565b60405180910390f35b3480156101b557600080fd5b506101be6104ac565b6040516101cb9190610fae565b60405180910390f35b3480156101e057600080fd5b506101e96104d2565b6040516101f69190610fc9565b60405180910390f35b34801561020b57600080fd5b506102146104d8565b6040516102219190610fc9565b60405180910390f35b6102326104de565b005b34801561024057600080fd5b5061024961077c565b6040516102569190610fc9565b60405180910390f35b34801561026b57600080fd5b50610274610782565b6040516102819190610fc9565b60405180910390f35b34801561029657600080fd5b5061029f610788565b6040516102ac9190611005565b60405180910390f35b3480156102c157600080fd5b506102ca6107ae565b005b3480156102d857600080fd5b506102e16107c2565b6040516102ee919061102f565b60405180910390f35b34801561030357600080fd5b5061031e60048036038101906103199190611105565b6107eb565b60405161032b91906111f0565b60405180910390f35b34801561034057600080fd5b5061035b60048036038101906103569190611237565b610803565b6040516103689190610fc9565b60405180910390f35b34801561037d57600080fd5b5061039860048036038101906103939190611264565b610827565b6040516103a591906111f0565b60405180910390f35b3480156103ba57600080fd5b506103d560048036038101906103d09190610ee0565b61083d565b005b3480156103e357600080fd5b506103ec6108c0565b005b60007f4e2312e0000000000000000000000000000000000000000000000000000000007bffffffffffffffffffffffffffffffffffffffffffffffffffffffff1916827bffffffffffffffffffffffffffffffffffffffffffffffffffffffff19161480610461575061046082610bff565b5b9050919050565b60086020528060005260406000206000915090508060000154908060010160009054906101000a900460ff16905082565b600a60009054906101000a900460ff1681565b600560009054906101000a900473ffffffffffffffffffffffffffffffffffffffff1681565b60025481565b60035481565b600a60009054906101000a900460ff16156104f857600080fd5b600860003373ffffffffffffffffffffffffffffffffffffffff1673ffffffffffffffffffffffffffffffffffffffff16815260200190815260200160002060010160009054906101000a900460ff1615610588576040517f08c379a000000000000000000000000000000000000000000000000000000000815260040161057f90611381565b60405180910390fd5b600254600354106105ce576040517f08c379a00000000000000000000000000000000000000000000000000000000081526004016105c5906113ed565b60405180910390fd5b60003411610611576040517f08c379a00000000000000000000000000000000000000000000000000000000081526004016106089061147f565b60405180910390fd5b604051806040016040528034815260200160011515815250600860003373ffffffffffffffffffffffffffffffffffffffff1673ffffffffffffffffffffffffffffffffffffffff1681526020019081526020016000206000820151816000015560208201518160010160006101000a81548160ff02191690831515021790555090505034600960008282546106a791906114ce565b9250508190555060043490806001815401808255809150506001900390600052602060002001600090919091909150553360076000600354815260200190815260200160002060006101000a81548173ffffffffffffffffffffffffffffffffffffffff021916908373ffffffffffffffffffffffffffffffffffffffff1602179055506003600081548092919061073e90611502565b91905055507f6cd71e167cab47cb2ccb763aada102691b585b848adb6395f1da4ac187b9214a33604051610772919061102f565b60405180910390a1565b60095481565b60065481565b600160009054906101000a900473ffffffffffffffffffffffffffffffffffffffff1681565b6107b6610c69565b6107c06000610ce7565b565b60008060009054906101000a900473ffffffffffffffffffffffffffffffffffffffff16905090565b600063bc197c8160e01b905098975050505050505050565b6004818154811061081357600080fd5b906000526020600020016000915090505481565b600063f23a6e6160e01b90509695505050505050565b610845610c69565b600073ffffffffffffffffffffffffffffffffffffffff168173ffffffffffffffffffffffffffffffffffffffff16036108b4576040517f08c379a00000000000000000000000000000000000000000000000000000000081526004016108ab906115bc565b60405180910390fd5b6108bd81610ce7565b50565b6108c8610c69565b600a60009054906101000a900460ff16156108e257600080fd5b6001600a60006101000a81548160ff0219169083151502179055506000600160009054906101000a900473ffffffffffffffffffffffffffffffffffffffff1673ffffffffffffffffffffffffffffffffffffffff166316e74f0960046040518263ffffffff1660e01b815260040161095b91906116ea565b6040805180830381865afa158015610977573d6000803e3d6000fd5b505050506040513d601f19601f8201168201806040525081019061099b919061185e565b90506000816000600281106109b3576109b261188b565b5b602002015190506000826001600281106109d0576109cf61188b565b5b6020020151905060006007600083815260200190815260200160002060009054906101000a900473ffffffffffffffffffffffffffffffffffffffff169050610a176107c2565b73ffffffffffffffffffffffffffffffffffffffff166108fc849081150290604051600060405180830381858888f19350505050158015610a5c573d6000803e3d6000fd5b50600560009054906101000a900473ffffffffffffffffffffffffffffffffffffffff1673ffffffffffffffffffffffffffffffffffffffff1663f242432a308360065460016040518563ffffffff1660e01b8152600401610ac1949392919061192c565b600060405180830381600087803b158015610adb57600080fd5b505af1158015610aef573d6000803e3d6000fd5b5050505060005b600354811015610bbf57828114610bac5760006007600083815260200190815260200160002060009054906101000a900473ffffffffffffffffffffffffffffffffffffffff169050600060048381548110610b5557610b5461188b565b5b906000526020600020015490508173ffffffffffffffffffffffffffffffffffffffff166108fc829081150290604051600060405180830381858888f19350505050158015610ba8573d6000803e3d6000fd5b5050505b8080610bb790611502565b915050610af6565b507fc07789fac136048b605fef8e227ab89b2e33d8afc9ab4817d374197cd81443d68382604051610bf1929190611984565b60405180910390a150505050565b60007f01ffc9a7000000000000000000000000000000000000000000000000000000007bffffffffffffffffffffffffffffffffffffffffffffffffffffffff1916827bffffffffffffffffffffffffffffffffffffffffffffffffffffffff1916149050919050565b610c71610dab565b73ffffffffffffffffffffffffffffffffffffffff16610c8f6107c2565b73ffffffffffffffffffffffffffffffffffffffff1614610ce5576040517f08c379a0000000000000000000000000000000000000000000000000000000008152600401610cdc906119f9565b60405180910390fd5b565b60008060009054906101000a900473ffffffffffffffffffffffffffffffffffffffff169050816000806101000a81548173ffffffffffffffffffffffffffffffffffffffff021916908373ffffffffffffffffffffffffffffffffffffffff1602179055508173ffffffffffffffffffffffffffffffffffffffff168173ffffffffffffffffffffffffffffffffffffffff167f8be0079c531659141344cd1fd0a4f28419497f9722a3daafe3b4186f6b6457e060405160405180910390a35050565b600033905090565b6000604051905090565b600080fd5b600080fd5b60007fffffffff0000000000000000000000000000000000000000000000000000000082169050919050565b610dfc81610dc7565b8114610e0757600080fd5b50565b600081359050610e1981610df3565b92915050565b600060208284031215610e3557610e34610dbd565b5b6000610e4384828501610e0a565b91505092915050565b60008115159050919050565b610e6181610e4c565b82525050565b6000602082019050610e7c6000830184610e58565b92915050565b600073ffffffffffffffffffffffffffffffffffffffff82169050919050565b6000610ead82610e82565b9050919050565b610ebd81610ea2565b8114610ec857600080fd5b50565b600081359050610eda81610eb4565b92915050565b600060208284031215610ef657610ef5610dbd565b5b6000610f0484828501610ecb565b91505092915050565b6000819050919050565b610f2081610f0d565b82525050565b6000604082019050610f3b6000830185610f17565b610f486020830184610e58565b9392505050565b6000819050919050565b6000610f74610f6f610f6a84610e82565b610f4f565b610e82565b9050919050565b6000610f8682610f59565b9050919050565b6000610f9882610f7b565b9050919050565b610fa881610f8d565b82525050565b6000602082019050610fc36000830184610f9f565b92915050565b6000602082019050610fde6000830184610f17565b92915050565b6000610fef82610f7b565b9050919050565b610fff81610fe4565b82525050565b600060208201905061101a6000830184610ff6565b92915050565b61102981610ea2565b82525050565b60006020820190506110446000830184611020565b92915050565b600080fd5b600080fd5b600080fd5b60008083601f84011261106f5761106e61104a565b5b8235905067ffffffffffffffff81111561108c5761108b61104f565b5b6020830191508360208202830111156110a8576110a7611054565b5b9250929050565b60008083601f8401126110c5576110c461104a565b5b8235905067ffffffffffffffff8111156110e2576110e161104f565b5b6020830191508360018202830111156110fe576110fd611054565b5b9250929050565b60008060008060008060008060a0898b03121561112557611124610dbd565b5b60006111338b828c01610ecb565b98505060206111448b828c01610ecb565b975050604089013567ffffffffffffffff81111561116557611164610dc2565b5b6111718b828c01611059565b9650965050606089013567ffffffffffffffff81111561119457611193610dc2565b5b6111a08b828c01611059565b9450945050608089013567ffffffffffffffff8111156111c3576111c2610dc2565b5b6111cf8b828c016110af565b92509250509295985092959890939650565b6111ea81610dc7565b82525050565b600060208201905061120560008301846111e1565b92915050565b61121481610f0d565b811461121f57600080fd5b50565b6000813590506112318161120b565b92915050565b60006020828403121561124d5761124c610dbd565b5b600061125b84828501611222565b91505092915050565b60008060008060008060a0878903121561128157611280610dbd565b5b600061128f89828a01610ecb565b96505060206112a089828a01610ecb565b95505060406112b189828a01611222565b94505060606112c289828a01611222565b935050608087013567ffffffffffffffff8111156112e3576112e2610dc2565b5b6112ef89828a016110af565b92509250509295509295509295565b600082825260208201905092915050565b7f596f75206861766520616c7265616479206a6f696e656420746865206175637460008201527f696f6e2e00000000000000000000000000000000000000000000000000000000602082015250565b600061136b6024836112fe565b91506113768261130f565b604082019050919050565b6000602082019050818103600083015261139a8161135e565b9050919050565b7f41756374696f6e2069732066756c6c2e00000000000000000000000000000000600082015250565b60006113d76010836112fe565b91506113e2826113a1565b602082019050919050565b60006020820190508181036000830152611406816113ca565b9050919050565b7f5265736572766520616d6f756e74206d7573742062652067726561746572207460008201527f68616e207a65726f2e0000000000000000000000000000000000000000000000602082015250565b60006114696029836112fe565b91506114748261140d565b604082019050919050565b600060208201905081810360008301526114988161145c565b9050919050565b7f4e487b7100000000000000000000000000000000000000000000000000000000600052601160045260246000fd5b60006114d982610f0d565b91506114e483610f0d565b92508282019050808211156114fc576114fb61149f565b5b92915050565b600061150d82610f0d565b91507fffffffffffffffffffffffffffffffffffffffffffffffffffffffffffffffff820361153f5761153e61149f565b5b600182019050919050565b7f4f776e61626c653a206e6577206f776e657220697320746865207a65726f206160008201527f6464726573730000000000000000000000000000000000000000000000000000602082015250565b60006115a66026836112fe565b91506115b18261154a565b604082019050919050565b600060208201905081810360008301526115d581611599565b9050919050565b600081549050919050565b600082825260208201905092915050565b60008190508160005260206000209050919050565b61161681610f0d565b82525050565b6000611628838361160d565b60208301905092915050565b60008160001c9050919050565b6000819050919050565b600061165e61165983611634565b611641565b9050919050565b6000611671825461164b565b9050919050565b6000600182019050919050565b6000611690826115dc565b61169a81856115e7565b93506116a5836115f8565b8060005b838110156116dd576116ba82611665565b6116c4888261161c565b97506116cf83611678565b9250506001810190506116a9565b5085935050505092915050565b600060208201905081810360008301526117048184611685565b905092915050565b6000601f19601f8301169050919050565b7f4e487b7100000000000000000000000000000000000000000000000000000000600052604160045260246000fd5b6117558261170c565b810181811067ffffffffffffffff821117156117745761177361171d565b5b80604052505050565b6000611787610db3565b9050611793828261174c565b919050565b600067ffffffffffffffff8211156117b3576117b261171d565b5b602082029050919050565b6000815190506117cd8161120b565b92915050565b60006117e66117e184611798565b61177d565b90508060208402830185811115611800576117ff611054565b5b835b81811015611829578061181588826117be565b845260208401935050602081019050611802565b5050509392505050565b600082601f8301126118485761184761104a565b5b60026118558482856117d3565b91505092915050565b60006040828403121561187457611873610dbd565b5b600061188284828501611833565b91505092915050565b7f4e487b7100000000000000000000000000000000000000000000000000000000600052603260045260246000fd5b6000819050919050565b60006118df6118da6118d5846118ba565b610f4f565b610f0d565b9050919050565b6118ef816118c4565b82525050565b600082825260208201905092915050565b50565b60006119166000836118f5565b915061192182611906565b600082019050919050565b600060a0820190506119416000830187611020565b61194e6020830186611020565b61195b6040830185610f17565b61196860608301846118e6565b818103608083015261197981611909565b905095945050505050565b60006040820190506119996000830185610f17565b6119a66020830184611020565b9392505050565b7f4f776e61626c653a2063616c6c6572206973206e6f7420746865206f776e6572600082015250565b60006119e36020836112fe565b91506119ee826119ad565b602082019050919050565b60006020820190508181036000830152611a12816119d6565b905091905056fea26469706673582212203a55a35d91321cc4fca06ed3cc64f365084a7a162c9409279444ebd86a57701864736f6c63430008120033",
			"opcodes": "PUSH1 0x80 PUSH1 0x40 MSTORE CALLVALUE DUP1 ISZERO PUSH3 0x11 JUMPI PUSH1 0x0 DUP1 REVERT JUMPDEST POP PUSH1 0x40 MLOAD PUSH3 0x1E81 CODESIZE SUB DUP1 PUSH3 0x1E81 DUP4 CODECOPY DUP2 DUP2 ADD PUSH1 0x40 MSTORE DUP2 ADD SWAP1 PUSH3 0x37 SWAP2 SWAP1 PUSH3 0x2BA JUMP JUMPDEST PUSH3 0x57 PUSH3 0x4B PUSH3 0x149 PUSH1 0x20 SHL PUSH1 0x20 SHR JUMP JUMPDEST PUSH3 0x151 PUSH1 0x20 SHL PUSH1 0x20 SHR JUMP JUMPDEST DUP3 PUSH1 0x5 PUSH1 0x0 PUSH2 0x100 EXP DUP2 SLOAD DUP2 PUSH20 0xFFFFFFFFFFFFFFFFFFFFFFFFFFFFFFFFFFFFFFFF MUL NOT AND SWAP1 DUP4 PUSH20 0xFFFFFFFFFFFFFFFFFFFFFFFFFFFFFFFFFFFFFFFF AND MUL OR SWAP1 SSTORE POP DUP2 PUSH1 0x6 DUP2 SWAP1 SSTORE POP DUP1 PUSH1 0x2 DUP2 SWAP1 SSTORE POP PUSH1 0x5 PUSH1 0x0 SWAP1 SLOAD SWAP1 PUSH2 0x100 EXP SWAP1 DIV PUSH20 0xFFFFFFFFFFFFFFFFFFFFFFFFFFFFFFFFFFFFFFFF AND PUSH20 0xFFFFFFFFFFFFFFFFFFFFFFFFFFFFFFFFFFFFFFFF AND PUSH4 0xF242432A CALLER ADDRESS PUSH1 0x6 SLOAD PUSH1 0x1 PUSH1 0x40 MLOAD DUP6 PUSH4 0xFFFFFFFF AND PUSH1 0xE0 SHL DUP2 MSTORE PUSH1 0x4 ADD PUSH3 0x10C SWAP5 SWAP4 SWAP3 SWAP2 SWAP1 PUSH3 0x3C0 JUMP JUMPDEST PUSH1 0x0 PUSH1 0x40 MLOAD DUP1 DUP4 SUB DUP2 PUSH1 0x0 DUP8 DUP1 EXTCODESIZE ISZERO DUP1 ISZERO PUSH3 0x127 JUMPI PUSH1 0x0 DUP1 REVERT JUMPDEST POP GAS CALL ISZERO DUP1 ISZERO PUSH3 0x13C JUMPI RETURNDATASIZE PUSH1 0x0 DUP1 RETURNDATACOPY RETURNDATASIZE PUSH1 0x0 REVERT JUMPDEST POP POP POP POP POP POP POP PUSH3 0x422 JUMP JUMPDEST PUSH1 0x0 CALLER SWAP1 POP SWAP1 JUMP JUMPDEST PUSH1 0x0 DUP1 PUSH1 0x0 SWAP1 SLOAD SWAP1 PUSH2 0x100 EXP SWAP1 DIV PUSH20 0xFFFFFFFFFFFFFFFFFFFFFFFFFFFFFFFFFFFFFFFF AND SWAP1 POP DUP2 PUSH1 0x0 DUP1 PUSH2 0x100 EXP DUP2 SLOAD DUP2 PUSH20 0xFFFFFFFFFFFFFFFFFFFFFFFFFFFFFFFFFFFFFFFF MUL NOT AND SWAP1 DUP4 PUSH20 0xFFFFFFFFFFFFFFFFFFFFFFFFFFFFFFFFFFFFFFFF AND MUL OR SWAP1 SSTORE POP DUP2 PUSH20 0xFFFFFFFFFFFFFFFFFFFFFFFFFFFFFFFFFFFFFFFF AND DUP2 PUSH20 0xFFFFFFFFFFFFFFFFFFFFFFFFFFFFFFFFFFFFFFFF AND PUSH32 0x8BE0079C531659141344CD1FD0A4F28419497F9722A3DAAFE3B4186F6B6457E0 PUSH1 0x40 MLOAD PUSH1 0x40 MLOAD DUP1 SWAP2 SUB SWAP1 LOG3 POP POP JUMP JUMPDEST PUSH1 0x0 DUP1 REVERT JUMPDEST PUSH1 0x0 PUSH20 0xFFFFFFFFFFFFFFFFFFFFFFFFFFFFFFFFFFFFFFFF DUP3 AND SWAP1 POP SWAP2 SWAP1 POP JUMP JUMPDEST PUSH1 0x0 PUSH3 0x247 DUP3 PUSH3 0x21A JUMP JUMPDEST SWAP1 POP SWAP2 SWAP1 POP JUMP JUMPDEST PUSH3 0x259 DUP2 PUSH3 0x23A JUMP JUMPDEST DUP2 EQ PUSH3 0x265 JUMPI PUSH1 0x0 DUP1 REVERT JUMPDEST POP JUMP JUMPDEST PUSH1 0x0 DUP2 MLOAD SWAP1 POP PUSH3 0x279 DUP2 PUSH3 0x24E JUMP JUMPDEST SWAP3 SWAP2 POP POP JUMP JUMPDEST PUSH1 0x0 DUP2 SWAP1 POP SWAP2 SWAP1 POP JUMP JUMPDEST PUSH3 0x294 DUP2 PUSH3 0x27F JUMP JUMPDEST DUP2 EQ PUSH3 0x2A0 JUMPI PUSH1 0x0 DUP1 REVERT JUMPDEST POP JUMP JUMPDEST PUSH1 0x0 DUP2 MLOAD SWAP1 POP PUSH3 0x2B4 DUP2 PUSH3 0x289 JUMP JUMPDEST SWAP3 SWAP2 POP POP JUMP JUMPDEST PUSH1 0x0 DUP1 PUSH1 0x0 PUSH1 0x60 DUP5 DUP7 SUB SLT ISZERO PUSH3 0x2D6 JUMPI PUSH3 0x2D5 PUSH3 0x215 JUMP JUMPDEST JUMPDEST PUSH1 0x0 PUSH3 0x2E6 DUP7 DUP3 DUP8 ADD PUSH3 0x268 JUMP JUMPDEST SWAP4 POP POP PUSH1 0x20 PUSH3 0x2F9 DUP7 DUP3 DUP8 ADD PUSH3 0x2A3 JUMP JUMPDEST SWAP3 POP POP PUSH1 0x40 PUSH3 0x30C DUP7 DUP3 DUP8 ADD PUSH3 0x2A3 JUMP JUMPDEST SWAP2 POP POP SWAP3 POP SWAP3 POP SWAP3 JUMP JUMPDEST PUSH3 0x321 DUP2 PUSH3 0x23A JUMP JUMPDEST DUP3 MSTORE POP POP JUMP JUMPDEST PUSH3 0x332 DUP2 PUSH3 0x27F JUMP JUMPDEST DUP3 MSTORE POP POP JUMP JUMPDEST PUSH1 0x0 DUP2 SWAP1 POP SWAP2 SWAP1 POP JUMP JUMPDEST PUSH1 0x0 DUP2 SWAP1 POP SWAP2 SWAP1 POP JUMP JUMPDEST PUSH1 0x0 PUSH3 0x36D PUSH3 0x367 PUSH3 0x361 DUP5 PUSH3 0x338 JUMP JUMPDEST PUSH3 0x342 JUMP JUMPDEST PUSH3 0x27F JUMP JUMPDEST SWAP1 POP SWAP2 SWAP1 POP JUMP JUMPDEST PUSH3 0x37F DUP2 PUSH3 0x34C JUMP JUMPDEST DUP3 MSTORE POP POP JUMP JUMPDEST PUSH1 0x0 DUP3 DUP3 MSTORE PUSH1 0x20 DUP3 ADD SWAP1 POP SWAP3 SWAP2 POP POP JUMP JUMPDEST POP JUMP JUMPDEST PUSH1 0x0 PUSH3 0x3A8 PUSH1 0x0 DUP4 PUSH3 0x385 JUMP JUMPDEST SWAP2 POP PUSH3 0x3B5 DUP3 PUSH3 0x396 JUMP JUMPDEST PUSH1 0x0 DUP3 ADD SWAP1 POP SWAP2 SWAP1 POP JUMP JUMPDEST PUSH1 0x0 PUSH1 0xA0 DUP3 ADD SWAP1 POP PUSH3 0x3D7 PUSH1 0x0 DUP4 ADD DUP8 PUSH3 0x316 JUMP JUMPDEST PUSH3 0x3E6 PUSH1 0x20 DUP4 ADD DUP7 PUSH3 0x316 JUMP JUMPDEST PUSH3 0x3F5 PUSH1 0x40 DUP4 ADD DUP6 PUSH3 0x327 JUMP JUMPDEST PUSH3 0x404 PUSH1 0x60 DUP4 ADD DUP5 PUSH3 0x374 JUMP JUMPDEST DUP2 DUP2 SUB PUSH1 0x80 DUP4 ADD MSTORE PUSH3 0x417 DUP2 PUSH3 0x399 JUMP JUMPDEST SWAP1 POP SWAP6 SWAP5 POP POP POP POP POP JUMP JUMPDEST PUSH2 0x1A4F DUP1 PUSH3 0x432 PUSH1 0x0 CODECOPY PUSH1 0x0 RETURN INVALID PUSH1 0x80 PUSH1 0x40 MSTORE PUSH1 0x4 CALLDATASIZE LT PUSH2 0xFE JUMPI PUSH1 0x0 CALLDATALOAD PUSH1 0xE0 SHR DUP1 PUSH4 0x637A6687 GT PUSH2 0x95 JUMPI DUP1 PUSH4 0xBC197C81 GT PUSH2 0x64 JUMPI DUP1 PUSH4 0xBC197C81 EQ PUSH2 0x2F7 JUMPI DUP1 PUSH4 0xE537213E EQ PUSH2 0x334 JUMPI DUP1 PUSH4 0xF23A6E61 EQ PUSH2 0x371 JUMPI DUP1 PUSH4 0xF2FDE38B EQ PUSH2 0x3AE JUMPI DUP1 PUSH4 0xFE67A54B EQ PUSH2 0x3D7 JUMPI PUSH2 0xFE JUMP JUMPDEST DUP1 PUSH4 0x637A6687 EQ PUSH2 0x25F JUMPI DUP1 PUSH4 0x67A555D8 EQ PUSH2 0x28A JUMPI DUP1 PUSH4 0x715018A6 EQ PUSH2 0x2B5 JUMPI DUP1 PUSH4 0x8DA5CB5B EQ PUSH2 0x2CC JUMPI PUSH2 0xFE JUMP JUMPDEST DUP1 PUSH4 0x24924BF7 GT PUSH2 0xD1 JUMPI DUP1 PUSH4 0x24924BF7 EQ PUSH2 0x1D4 JUMPI DUP1 PUSH4 0x362F04C0 EQ PUSH2 0x1FF JUMPI DUP1 PUSH4 0x36FB61A7 EQ PUSH2 0x22A JUMPI DUP1 PUSH4 0x4C68DF67 EQ PUSH2 0x234 JUMPI PUSH2 0xFE JUMP JUMPDEST DUP1 PUSH4 0x1FFC9A7 EQ PUSH2 0x103 JUMPI DUP1 PUSH4 0x9E69EDE EQ PUSH2 0x140 JUMPI DUP1 PUSH4 0x12FA6FEB EQ PUSH2 0x17E JUMPI DUP1 PUSH4 0x21F42268 EQ PUSH2 0x1A9 JUMPI JUMPDEST PUSH1 0x0 DUP1 REVERT JUMPDEST CALLVALUE DUP1 ISZERO PUSH2 0x10F JUMPI PUSH1 0x0 DUP1 REVERT JUMPDEST POP PUSH2 0x12A PUSH1 0x4 DUP1 CALLDATASIZE SUB DUP2 ADD SWAP1 PUSH2 0x125 SWAP2 SWAP1 PUSH2 0xE1F JUMP JUMPDEST PUSH2 0x3EE JUMP JUMPDEST PUSH1 0x40 MLOAD PUSH2 0x137 SWAP2 SWAP1 PUSH2 0xE67 JUMP JUMPDEST PUSH1 0x40 MLOAD DUP1 SWAP2 SUB SWAP1 RETURN JUMPDEST CALLVALUE DUP1 ISZERO PUSH2 0x14C JUMPI PUSH1 0x0 DUP1 REVERT JUMPDEST POP PUSH2 0x167 PUSH1 0x4 DUP1 CALLDATASIZE SUB DUP2 ADD SWAP1 PUSH2 0x162 SWAP2 SWAP1 PUSH2 0xEE0 JUMP JUMPDEST PUSH2 0x468 JUMP JUMPDEST PUSH1 0x40 MLOAD PUSH2 0x175 SWAP3 SWAP2 SWAP1 PUSH2 0xF26 JUMP JUMPDEST PUSH1 0x40 MLOAD DUP1 SWAP2 SUB SWAP1 RETURN JUMPDEST CALLVALUE DUP1 ISZERO PUSH2 0x18A JUMPI PUSH1 0x0 DUP1 REVERT JUMPDEST POP PUSH2 0x193 PUSH2 0x499 JUMP JUMPDEST PUSH1 0x40 MLOAD PUSH2 0x1A0 SWAP2 SWAP1 PUSH2 0xE67 JUMP JUMPDEST PUSH1 0x40 MLOAD DUP1 SWAP2 SUB SWAP1 RETURN JUMPDEST CALLVALUE DUP1 ISZERO PUSH2 0x1B5 JUMPI PUSH1 0x0 DUP1 REVERT JUMPDEST POP PUSH2 0x1BE PUSH2 0x4AC JUMP JUMPDEST PUSH1 0x40 MLOAD PUSH2 0x1CB SWAP2 SWAP1 PUSH2 0xFAE JUMP JUMPDEST PUSH1 0x40 MLOAD DUP1 SWAP2 SUB SWAP1 RETURN JUMPDEST CALLVALUE DUP1 ISZERO PUSH2 0x1E0 JUMPI PUSH1 0x0 DUP1 REVERT JUMPDEST POP PUSH2 0x1E9 PUSH2 0x4D2 JUMP JUMPDEST PUSH1 0x40 MLOAD PUSH2 0x1F6 SWAP2 SWAP1 PUSH2 0xFC9 JUMP JUMPDEST PUSH1 0x40 MLOAD DUP1 SWAP2 SUB SWAP1 RETURN JUMPDEST CALLVALUE DUP1 ISZERO PUSH2 0x20B JUMPI PUSH1 0x0 DUP1 REVERT JUMPDEST POP PUSH2 0x214 PUSH2 0x4D8 JUMP JUMPDEST PUSH1 0x40 MLOAD PUSH2 0x221 SWAP2 SWAP1 PUSH2 0xFC9 JUMP JUMPDEST PUSH1 0x40 MLOAD DUP1 SWAP2 SUB SWAP1 RETURN JUMPDEST PUSH2 0x232 PUSH2 0x4DE JUMP JUMPDEST STOP JUMPDEST CALLVALUE DUP1 ISZERO PUSH2 0x240 JUMPI PUSH1 0x0 DUP1 REVERT JUMPDEST POP PUSH2 0x249 PUSH2 0x77C JUMP JUMPDEST PUSH1 0x40 MLOAD PUSH2 0x256 SWAP2 SWAP1 PUSH2 0xFC9 JUMP JUMPDEST PUSH1 0x40 MLOAD DUP1 SWAP2 SUB SWAP1 RETURN JUMPDEST CALLVALUE DUP1 ISZERO PUSH2 0x26B JUMPI PUSH1 0x0 DUP1 REVERT JUMPDEST POP PUSH2 0x274 PUSH2 0x782 JUMP JUMPDEST PUSH1 0x40 MLOAD PUSH2 0x281 SWAP2 SWAP1 PUSH2 0xFC9 JUMP JUMPDEST PUSH1 0x40 MLOAD DUP1 SWAP2 SUB SWAP1 RETURN JUMPDEST CALLVALUE DUP1 ISZERO PUSH2 0x296 JUMPI PUSH1 0x0 DUP1 REVERT JUMPDEST POP PUSH2 0x29F PUSH2 0x788 JUMP JUMPDEST PUSH1 0x40 MLOAD PUSH2 0x2AC SWAP2 SWAP1 PUSH2 0x1005 JUMP JUMPDEST PUSH1 0x40 MLOAD DUP1 SWAP2 SUB SWAP1 RETURN JUMPDEST CALLVALUE DUP1 ISZERO PUSH2 0x2C1 JUMPI PUSH1 0x0 DUP1 REVERT JUMPDEST POP PUSH2 0x2CA PUSH2 0x7AE JUMP JUMPDEST STOP JUMPDEST CALLVALUE DUP1 ISZERO PUSH2 0x2D8 JUMPI PUSH1 0x0 DUP1 REVERT JUMPDEST POP PUSH2 0x2E1 PUSH2 0x7C2 JUMP JUMPDEST PUSH1 0x40 MLOAD PUSH2 0x2EE SWAP2 SWAP1 PUSH2 0x102F JUMP JUMPDEST PUSH1 0x40 MLOAD DUP1 SWAP2 SUB SWAP1 RETURN JUMPDEST CALLVALUE DUP1 ISZERO PUSH2 0x303 JUMPI PUSH1 0x0 DUP1 REVERT JUMPDEST POP PUSH2 0x31E PUSH1 0x4 DUP1 CALLDATASIZE SUB DUP2 ADD SWAP1 PUSH2 0x319 SWAP2 SWAP1 PUSH2 0x1105 JUMP JUMPDEST PUSH2 0x7EB JUMP JUMPDEST PUSH1 0x40 MLOAD PUSH2 0x32B SWAP2 SWAP1 PUSH2 0x11F0 JUMP JUMPDEST PUSH1 0x40 MLOAD DUP1 SWAP2 SUB SWAP1 RETURN JUMPDEST CALLVALUE DUP1 ISZERO PUSH2 0x340 JUMPI PUSH1 0x0 DUP1 REVERT JUMPDEST POP PUSH2 0x35B PUSH1 0x4 DUP1 CALLDATASIZE SUB DUP2 ADD SWAP1 PUSH2 0x356 SWAP2 SWAP1 PUSH2 0x1237 JUMP JUMPDEST PUSH2 0x803 JUMP JUMPDEST PUSH1 0x40 MLOAD PUSH2 0x368 SWAP2 SWAP1 PUSH2 0xFC9 JUMP JUMPDEST PUSH1 0x40 MLOAD DUP1 SWAP2 SUB SWAP1 RETURN JUMPDEST CALLVALUE DUP1 ISZERO PUSH2 0x37D JUMPI PUSH1 0x0 DUP1 REVERT JUMPDEST POP PUSH2 0x398 PUSH1 0x4 DUP1 CALLDATASIZE SUB DUP2 ADD SWAP1 PUSH2 0x393 SWAP2 SWAP1 PUSH2 0x1264 JUMP JUMPDEST PUSH2 0x827 JUMP JUMPDEST PUSH1 0x40 MLOAD PUSH2 0x3A5 SWAP2 SWAP1 PUSH2 0x11F0 JUMP JUMPDEST PUSH1 0x40 MLOAD DUP1 SWAP2 SUB SWAP1 RETURN JUMPDEST CALLVALUE DUP1 ISZERO PUSH2 0x3BA JUMPI PUSH1 0x0 DUP1 REVERT JUMPDEST POP PUSH2 0x3D5 PUSH1 0x4 DUP1 CALLDATASIZE SUB DUP2 ADD SWAP1 PUSH2 0x3D0 SWAP2 SWAP1 PUSH2 0xEE0 JUMP JUMPDEST PUSH2 0x83D JUMP JUMPDEST STOP JUMPDEST CALLVALUE DUP1 ISZERO PUSH2 0x3E3 JUMPI PUSH1 0x0 DUP1 REVERT JUMPDEST POP PUSH2 0x3EC PUSH2 0x8C0 JUMP JUMPDEST STOP JUMPDEST PUSH1 0x0 PUSH32 0x4E2312E000000000000000000000000000000000000000000000000000000000 PUSH28 0xFFFFFFFFFFFFFFFFFFFFFFFFFFFFFFFFFFFFFFFFFFFFFFFFFFFFFFFF NOT AND DUP3 PUSH28 0xFFFFFFFFFFFFFFFFFFFFFFFFFFFFFFFFFFFFFFFFFFFFFFFFFFFFFFFF NOT AND EQ DUP1 PUSH2 0x461 JUMPI POP PUSH2 0x460 DUP3 PUSH2 0xBFF JUMP JUMPDEST JUMPDEST SWAP1 POP SWAP2 SWAP1 POP JUMP JUMPDEST PUSH1 0x8 PUSH1 0x20 MSTORE DUP1 PUSH1 0x0 MSTORE PUSH1 0x40 PUSH1 0x0 KECCAK256 PUSH1 0x0 SWAP2 POP SWAP1 POP DUP1 PUSH1 0x0 ADD SLOAD SWAP1 DUP1 PUSH1 0x1 ADD PUSH1 0x0 SWAP1 SLOAD SWAP1 PUSH2 0x100 EXP SWAP1 DIV PUSH1 0xFF AND SWAP1 POP DUP3 JUMP JUMPDEST PUSH1 0xA PUSH1 0x0 SWAP1 SLOAD SWAP1 PUSH2 0x100 EXP SWAP1 DIV PUSH1 0xFF AND DUP2 JUMP JUMPDEST PUSH1 0x5 PUSH1 0x0 SWAP1 SLOAD SWAP1 PUSH2 0x100 EXP SWAP1 DIV PUSH20 0xFFFFFFFFFFFFFFFFFFFFFFFFFFFFFFFFFFFFFFFF AND DUP2 JUMP JUMPDEST PUSH1 0x2 SLOAD DUP2 JUMP JUMPDEST PUSH1 0x3 SLOAD DUP2 JUMP JUMPDEST PUSH1 0xA PUSH1 0x0 SWAP1 SLOAD SWAP1 PUSH2 0x100 EXP SWAP1 DIV PUSH1 0xFF AND ISZERO PUSH2 0x4F8 JUMPI PUSH1 0x0 DUP1 REVERT JUMPDEST PUSH1 0x8 PUSH1 0x0 CALLER PUSH20 0xFFFFFFFFFFFFFFFFFFFFFFFFFFFFFFFFFFFFFFFF AND PUSH20 0xFFFFFFFFFFFFFFFFFFFFFFFFFFFFFFFFFFFFFFFF AND DUP2 MSTORE PUSH1 0x20 ADD SWAP1 DUP2 MSTORE PUSH1 0x20 ADD PUSH1 0x0 KECCAK256 PUSH1 0x1 ADD PUSH1 0x0 SWAP1 SLOAD SWAP1 PUSH2 0x100 EXP SWAP1 DIV PUSH1 0xFF AND ISZERO PUSH2 0x588 JUMPI PUSH1 0x40 MLOAD PUSH32 0x8C379A000000000000000000000000000000000000000000000000000000000 DUP2 MSTORE PUSH1 0x4 ADD PUSH2 0x57F SWAP1 PUSH2 0x1381 JUMP JUMPDEST PUSH1 0x40 MLOAD DUP1 SWAP2 SUB SWAP1 REVERT JUMPDEST PUSH1 0x2 SLOAD PUSH1 0x3 SLOAD LT PUSH2 0x5CE JUMPI PUSH1 0x40 MLOAD PUSH32 0x8C379A000000000000000000000000000000000000000000000000000000000 DUP2 MSTORE PUSH1 0x4 ADD PUSH2 0x5C5 SWAP1 PUSH2 0x13ED JUMP JUMPDEST PUSH1 0x40 MLOAD DUP1 SWAP2 SUB SWAP1 REVERT JUMPDEST PUSH1 0x0 CALLVALUE GT PUSH2 0x611 JUMPI PUSH1 0x40 MLOAD PUSH32 0x8C379A000000000000000000000000000000000000000000000000000000000 DUP2 MSTORE PUSH1 0x4 ADD PUSH2 0x608 SWAP1 PUSH2 0x147F JUMP JUMPDEST PUSH1 0x40 MLOAD DUP1 SWAP2 SUB SWAP1 REVERT JUMPDEST PUSH1 0x40 MLOAD DUP1 PUSH1 0x40 ADD PUSH1 0x40 MSTORE DUP1 CALLVALUE DUP2 MSTORE PUSH1 0x20 ADD PUSH1 0x1 ISZERO ISZERO DUP2 MSTORE POP PUSH1 0x8 PUSH1 0x0 CALLER PUSH20 0xFFFFFFFFFFFFFFFFFFFFFFFFFFFFFFFFFFFFFFFF AND PUSH20 0xFFFFFFFFFFFFFFFFFFFFFFFFFFFFFFFFFFFFFFFF AND DUP2 MSTORE PUSH1 0x20 ADD SWAP1 DUP2 MSTORE PUSH1 0x20 ADD PUSH1 0x0 KECCAK256 PUSH1 0x0 DUP3 ADD MLOAD DUP2 PUSH1 0x0 ADD SSTORE PUSH1 0x20 DUP3 ADD MLOAD DUP2 PUSH1 0x1 ADD PUSH1 0x0 PUSH2 0x100 EXP DUP2 SLOAD DUP2 PUSH1 0xFF MUL NOT AND SWAP1 DUP4 ISZERO ISZERO MUL OR SWAP1 SSTORE POP SWAP1 POP POP CALLVALUE PUSH1 0x9 PUSH1 0x0 DUP3 DUP3 SLOAD PUSH2 0x6A7 SWAP2 SWAP1 PUSH2 0x14CE JUMP JUMPDEST SWAP3 POP POP DUP2 SWAP1 SSTORE POP PUSH1 0x4 CALLVALUE SWAP1 DUP1 PUSH1 0x1 DUP2 SLOAD ADD DUP1 DUP3 SSTORE DUP1 SWAP2 POP POP PUSH1 0x1 SWAP1 SUB SWAP1 PUSH1 0x0 MSTORE PUSH1 0x20 PUSH1 0x0 KECCAK256 ADD PUSH1 0x0 SWAP1 SWAP2 SWAP1 SWAP2 SWAP1 SWAP2 POP SSTORE CALLER PUSH1 0x7 PUSH1 0x0 PUSH1 0x3 SLOAD DUP2 MSTORE PUSH1 0x20 ADD SWAP1 DUP2 MSTORE PUSH1 0x20 ADD PUSH1 0x0 KECCAK256 PUSH1 0x0 PUSH2 0x100 EXP DUP2 SLOAD DUP2 PUSH20 0xFFFFFFFFFFFFFFFFFFFFFFFFFFFFFFFFFFFFFFFF MUL NOT AND SWAP1 DUP4 PUSH20 0xFFFFFFFFFFFFFFFFFFFFFFFFFFFFFFFFFFFFFFFF AND MUL OR SWAP1 SSTORE POP PUSH1 0x3 PUSH1 0x0 DUP2 SLOAD DUP1 SWAP3 SWAP2 SWAP1 PUSH2 0x73E SWAP1 PUSH2 0x1502 JUMP JUMPDEST SWAP2 SWAP1 POP SSTORE POP PUSH32 0x6CD71E167CAB47CB2CCB763AADA102691B585B848ADB6395F1DA4AC187B9214A CALLER PUSH1 0x40 MLOAD PUSH2 0x772 SWAP2 SWAP1 PUSH2 0x102F JUMP JUMPDEST PUSH1 0x40 MLOAD DUP1 SWAP2 SUB SWAP1 LOG1 JUMP JUMPDEST PUSH1 0x9 SLOAD DUP2 JUMP JUMPDEST PUSH1 0x6 SLOAD DUP2 JUMP JUMPDEST PUSH1 0x1 PUSH1 0x0 SWAP1 SLOAD SWAP1 PUSH2 0x100 EXP SWAP1 DIV PUSH20 0xFFFFFFFFFFFFFFFFFFFFFFFFFFFFFFFFFFFFFFFF AND DUP2 JUMP JUMPDEST PUSH2 0x7B6 PUSH2 0xC69 JUMP JUMPDEST PUSH2 0x7C0 PUSH1 0x0 PUSH2 0xCE7 JUMP JUMPDEST JUMP JUMPDEST PUSH1 0x0 DUP1 PUSH1 0x0 SWAP1 SLOAD SWAP1 PUSH2 0x100 EXP SWAP1 DIV PUSH20 0xFFFFFFFFFFFFFFFFFFFFFFFFFFFFFFFFFFFFFFFF AND SWAP1 POP SWAP1 JUMP JUMPDEST PUSH1 0x0 PUSH4 0xBC197C81 PUSH1 0xE0 SHL SWAP1 POP SWAP9 SWAP8 POP POP POP POP POP POP POP POP JUMP JUMPDEST PUSH1 0x4 DUP2 DUP2 SLOAD DUP2 LT PUSH2 0x813 JUMPI PUSH1 0x0 DUP1 REVERT JUMPDEST SWAP1 PUSH1 0x0 MSTORE PUSH1 0x20 PUSH1 0x0 KECCAK256 ADD PUSH1 0x0 SWAP2 POP SWAP1 POP SLOAD DUP2 JUMP JUMPDEST PUSH1 0x0 PUSH4 0xF23A6E61 PUSH1 0xE0 SHL SWAP1 POP SWAP7 SWAP6 POP POP POP POP POP POP JUMP JUMPDEST PUSH2 0x845 PUSH2 0xC69 JUMP JUMPDEST PUSH1 0x0 PUSH20 0xFFFFFFFFFFFFFFFFFFFFFFFFFFFFFFFFFFFFFFFF AND DUP2 PUSH20 0xFFFFFFFFFFFFFFFFFFFFFFFFFFFFFFFFFFFFFFFF AND SUB PUSH2 0x8B4 JUMPI PUSH1 0x40 MLOAD PUSH32 0x8C379A000000000000000000000000000000000000000000000000000000000 DUP2 MSTORE PUSH1 0x4 ADD PUSH2 0x8AB SWAP1 PUSH2 0x15BC JUMP JUMPDEST PUSH1 0x40 MLOAD DUP1 SWAP2 SUB SWAP1 REVERT JUMPDEST PUSH2 0x8BD DUP2 PUSH2 0xCE7 JUMP JUMPDEST POP JUMP JUMPDEST PUSH2 0x8C8 PUSH2 0xC69 JUMP JUMPDEST PUSH1 0xA PUSH1 0x0 SWAP1 SLOAD SWAP1 PUSH2 0x100 EXP SWAP1 DIV PUSH1 0xFF AND ISZERO PUSH2 0x8E2 JUMPI PUSH1 0x0 DUP1 REVERT JUMPDEST PUSH1 0x1 PUSH1 0xA PUSH1 0x0 PUSH2 0x100 EXP DUP2 SLOAD DUP2 PUSH1 0xFF MUL NOT AND SWAP1 DUP4 ISZERO ISZERO MUL OR SWAP1 SSTORE POP PUSH1 0x0 PUSH1 0x1 PUSH1 0x0 SWAP1 SLOAD SWAP1 PUSH2 0x100 EXP SWAP1 DIV PUSH20 0xFFFFFFFFFFFFFFFFFFFFFFFFFFFFFFFFFFFFFFFF AND PUSH20 0xFFFFFFFFFFFFFFFFFFFFFFFFFFFFFFFFFFFFFFFF AND PUSH4 0x16E74F09 PUSH1 0x4 PUSH1 0x40 MLOAD DUP3 PUSH4 0xFFFFFFFF AND PUSH1 0xE0 SHL DUP2 MSTORE PUSH1 0x4 ADD PUSH2 0x95B SWAP2 SWAP1 PUSH2 0x16EA JUMP JUMPDEST PUSH1 0x40 DUP1 MLOAD DUP1 DUP4 SUB DUP2 DUP7 GAS STATICCALL ISZERO DUP1 ISZERO PUSH2 0x977 JUMPI RETURNDATASIZE PUSH1 0x0 DUP1 RETURNDATACOPY RETURNDATASIZE PUSH1 0x0 REVERT JUMPDEST POP POP POP POP PUSH1 0x40 MLOAD RETURNDATASIZE PUSH1 0x1F NOT PUSH1 0x1F DUP3 ADD AND DUP3 ADD DUP1 PUSH1 0x40 MSTORE POP DUP2 ADD SWAP1 PUSH2 0x99B SWAP2 SWAP1 PUSH2 0x185E JUMP JUMPDEST SWAP1 POP PUSH1 0x0 DUP2 PUSH1 0x0 PUSH1 0x2 DUP2 LT PUSH2 0x9B3 JUMPI PUSH2 0x9B2 PUSH2 0x188B JUMP JUMPDEST JUMPDEST PUSH1 0x20 MUL ADD MLOAD SWAP1 POP PUSH1 0x0 DUP3 PUSH1 0x1 PUSH1 0x2 DUP2 LT PUSH2 0x9D0 JUMPI PUSH2 0x9CF PUSH2 0x188B JUMP JUMPDEST JUMPDEST PUSH1 0x20 MUL ADD MLOAD SWAP1 POP PUSH1 0x0 PUSH1 0x7 PUSH1 0x0 DUP4 DUP2 MSTORE PUSH1 0x20 ADD SWAP1 DUP2 MSTORE PUSH1 0x20 ADD PUSH1 0x0 KECCAK256 PUSH1 0x0 SWAP1 SLOAD SWAP1 PUSH2 0x100 EXP SWAP1 DIV PUSH20 0xFFFFFFFFFFFFFFFFFFFFFFFFFFFFFFFFFFFFFFFF AND SWAP1 POP PUSH2 0xA17 PUSH2 0x7C2 JUMP JUMPDEST PUSH20 0xFFFFFFFFFFFFFFFFFFFFFFFFFFFFFFFFFFFFFFFF AND PUSH2 0x8FC DUP5 SWAP1 DUP2 ISZERO MUL SWAP1 PUSH1 0x40 MLOAD PUSH1 0x0 PUSH1 0x40 MLOAD DUP1 DUP4 SUB DUP2 DUP6 DUP9 DUP9 CALL SWAP4 POP POP POP POP ISZERO DUP1 ISZERO PUSH2 0xA5C JUMPI RETURNDATASIZE PUSH1 0x0 DUP1 RETURNDATACOPY RETURNDATASIZE PUSH1 0x0 REVERT JUMPDEST POP PUSH1 0x5 PUSH1 0x0 SWAP1 SLOAD SWAP1 PUSH2 0x100 EXP SWAP1 DIV PUSH20 0xFFFFFFFFFFFFFFFFFFFFFFFFFFFFFFFFFFFFFFFF AND PUSH20 0xFFFFFFFFFFFFFFFFFFFFFFFFFFFFFFFFFFFFFFFF AND PUSH4 0xF242432A ADDRESS DUP4 PUSH1 0x6 SLOAD PUSH1 0x1 PUSH1 0x40 MLOAD DUP6 PUSH4 0xFFFFFFFF AND PUSH1 0xE0 SHL DUP2 MSTORE PUSH1 0x4 ADD PUSH2 0xAC1 SWAP5 SWAP4 SWAP3 SWAP2 SWAP1 PUSH2 0x192C JUMP JUMPDEST PUSH1 0x0 PUSH1 0x40 MLOAD DUP1 DUP4 SUB DUP2 PUSH1 0x0 DUP8 DUP1 EXTCODESIZE ISZERO DUP1 ISZERO PUSH2 0xADB JUMPI PUSH1 0x0 DUP1 REVERT JUMPDEST POP GAS CALL ISZERO DUP1 ISZERO PUSH2 0xAEF JUMPI RETURNDATASIZE PUSH1 0x0 DUP1 RETURNDATACOPY RETURNDATASIZE PUSH1 0x0 REVERT JUMPDEST POP POP POP POP PUSH1 0x0 JUMPDEST PUSH1 0x3 SLOAD DUP2 LT ISZERO PUSH2 0xBBF JUMPI DUP3 DUP2 EQ PUSH2 0xBAC JUMPI PUSH1 0x0 PUSH1 0x7 PUSH1 0x0 DUP4 DUP2 MSTORE PUSH1 0x20 ADD SWAP1 DUP2 MSTORE PUSH1 0x20 ADD PUSH1 0x0 KECCAK256 PUSH1 0x0 SWAP1 SLOAD SWAP1 PUSH2 0x100 EXP SWAP1 DIV PUSH20 0xFFFFFFFFFFFFFFFFFFFFFFFFFFFFFFFFFFFFFFFF AND SWAP1 POP PUSH1 0x0 PUSH1 0x4 DUP4 DUP2 SLOAD DUP2 LT PUSH2 0xB55 JUMPI PUSH2 0xB54 PUSH2 0x188B JUMP JUMPDEST JUMPDEST SWAP1 PUSH1 0x0 MSTORE PUSH1 0x20 PUSH1 0x0 KECCAK256 ADD SLOAD SWAP1 POP DUP2 PUSH20 0xFFFFFFFFFFFFFFFFFFFFFFFFFFFFFFFFFFFFFFFF AND PUSH2 0x8FC DUP3 SWAP1 DUP2 ISZERO MUL SWAP1 PUSH1 0x40 MLOAD PUSH1 0x0 PUSH1 0x40 MLOAD DUP1 DUP4 SUB DUP2 DUP6 DUP9 DUP9 CALL SWAP4 POP POP POP POP ISZERO DUP1 ISZERO PUSH2 0xBA8 JUMPI RETURNDATASIZE PUSH1 0x0 DUP1 RETURNDATACOPY RETURNDATASIZE PUSH1 0x0 REVERT JUMPDEST POP POP POP JUMPDEST DUP1 DUP1 PUSH2 0xBB7 SWAP1 PUSH2 0x1502 JUMP JUMPDEST SWAP2 POP POP PUSH2 0xAF6 JUMP JUMPDEST POP PUSH32 0xC07789FAC136048B605FEF8E227AB89B2E33D8AFC9AB4817D374197CD81443D6 DUP4 DUP3 PUSH1 0x40 MLOAD PUSH2 0xBF1 SWAP3 SWAP2 SWAP1 PUSH2 0x1984 JUMP JUMPDEST PUSH1 0x40 MLOAD DUP1 SWAP2 SUB SWAP1 LOG1 POP POP POP POP JUMP JUMPDEST PUSH1 0x0 PUSH32 0x1FFC9A700000000000000000000000000000000000000000000000000000000 PUSH28 0xFFFFFFFFFFFFFFFFFFFFFFFFFFFFFFFFFFFFFFFFFFFFFFFFFFFFFFFF NOT AND DUP3 PUSH28 0xFFFFFFFFFFFFFFFFFFFFFFFFFFFFFFFFFFFFFFFFFFFFFFFFFFFFFFFF NOT AND EQ SWAP1 POP SWAP2 SWAP1 POP JUMP JUMPDEST PUSH2 0xC71 PUSH2 0xDAB JUMP JUMPDEST PUSH20 0xFFFFFFFFFFFFFFFFFFFFFFFFFFFFFFFFFFFFFFFF AND PUSH2 0xC8F PUSH2 0x7C2 JUMP JUMPDEST PUSH20 0xFFFFFFFFFFFFFFFFFFFFFFFFFFFFFFFFFFFFFFFF AND EQ PUSH2 0xCE5 JUMPI PUSH1 0x40 MLOAD PUSH32 0x8C379A000000000000000000000000000000000000000000000000000000000 DUP2 MSTORE PUSH1 0x4 ADD PUSH2 0xCDC SWAP1 PUSH2 0x19F9 JUMP JUMPDEST PUSH1 0x40 MLOAD DUP1 SWAP2 SUB SWAP1 REVERT JUMPDEST JUMP JUMPDEST PUSH1 0x0 DUP1 PUSH1 0x0 SWAP1 SLOAD SWAP1 PUSH2 0x100 EXP SWAP1 DIV PUSH20 0xFFFFFFFFFFFFFFFFFFFFFFFFFFFFFFFFFFFFFFFF AND SWAP1 POP DUP2 PUSH1 0x0 DUP1 PUSH2 0x100 EXP DUP2 SLOAD DUP2 PUSH20 0xFFFFFFFFFFFFFFFFFFFFFFFFFFFFFFFFFFFFFFFF MUL NOT AND SWAP1 DUP4 PUSH20 0xFFFFFFFFFFFFFFFFFFFFFFFFFFFFFFFFFFFFFFFF AND MUL OR SWAP1 SSTORE POP DUP2 PUSH20 0xFFFFFFFFFFFFFFFFFFFFFFFFFFFFFFFFFFFFFFFF AND DUP2 PUSH20 0xFFFFFFFFFFFFFFFFFFFFFFFFFFFFFFFFFFFFFFFF AND PUSH32 0x8BE0079C531659141344CD1FD0A4F28419497F9722A3DAAFE3B4186F6B6457E0 PUSH1 0x40 MLOAD PUSH1 0x40 MLOAD DUP1 SWAP2 SUB SWAP1 LOG3 POP POP JUMP JUMPDEST PUSH1 0x0 CALLER SWAP1 POP SWAP1 JUMP JUMPDEST PUSH1 0x0 PUSH1 0x40 MLOAD SWAP1 POP SWAP1 JUMP JUMPDEST PUSH1 0x0 DUP1 REVERT JUMPDEST PUSH1 0x0 DUP1 REVERT JUMPDEST PUSH1 0x0 PUSH32 0xFFFFFFFF00000000000000000000000000000000000000000000000000000000 DUP3 AND SWAP1 POP SWAP2 SWAP1 POP JUMP JUMPDEST PUSH2 0xDFC DUP2 PUSH2 0xDC7 JUMP JUMPDEST DUP2 EQ PUSH2 0xE07 JUMPI PUSH1 0x0 DUP1 REVERT JUMPDEST POP JUMP JUMPDEST PUSH1 0x0 DUP2 CALLDATALOAD SWAP1 POP PUSH2 0xE19 DUP2 PUSH2 0xDF3 JUMP JUMPDEST SWAP3 SWAP2 POP POP JUMP JUMPDEST PUSH1 0x0 PUSH1 0x20 DUP3 DUP5 SUB SLT ISZERO PUSH2 0xE35 JUMPI PUSH2 0xE34 PUSH2 0xDBD JUMP JUMPDEST JUMPDEST PUSH1 0x0 PUSH2 0xE43 DUP5 DUP3 DUP6 ADD PUSH2 0xE0A JUMP JUMPDEST SWAP2 POP POP SWAP3 SWAP2 POP POP JUMP JUMPDEST PUSH1 0x0 DUP2 ISZERO ISZERO SWAP1 POP SWAP2 SWAP1 POP JUMP JUMPDEST PUSH2 0xE61 DUP2 PUSH2 0xE4C JUMP JUMPDEST DUP3 MSTORE POP POP JUMP JUMPDEST PUSH1 0x0 PUSH1 0x20 DUP3 ADD SWAP1 POP PUSH2 0xE7C PUSH1 0x0 DUP4 ADD DUP5 PUSH2 0xE58 JUMP JUMPDEST SWAP3 SWAP2 POP POP JUMP JUMPDEST PUSH1 0x0 PUSH20 0xFFFFFFFFFFFFFFFFFFFFFFFFFFFFFFFFFFFFFFFF DUP3 AND SWAP1 POP SWAP2 SWAP1 POP JUMP JUMPDEST PUSH1 0x0 PUSH2 0xEAD DUP3 PUSH2 0xE82 JUMP JUMPDEST SWAP1 POP SWAP2 SWAP1 POP JUMP JUMPDEST PUSH2 0xEBD DUP2 PUSH2 0xEA2 JUMP JUMPDEST DUP2 EQ PUSH2 0xEC8 JUMPI PUSH1 0x0 DUP1 REVERT JUMPDEST POP JUMP JUMPDEST PUSH1 0x0 DUP2 CALLDATALOAD SWAP1 POP PUSH2 0xEDA DUP2 PUSH2 0xEB4 JUMP JUMPDEST SWAP3 SWAP2 POP POP JUMP JUMPDEST PUSH1 0x0 PUSH1 0x20 DUP3 DUP5 SUB SLT ISZERO PUSH2 0xEF6 JUMPI PUSH2 0xEF5 PUSH2 0xDBD JUMP JUMPDEST JUMPDEST PUSH1 0x0 PUSH2 0xF04 DUP5 DUP3 DUP6 ADD PUSH2 0xECB JUMP JUMPDEST SWAP2 POP POP SWAP3 SWAP2 POP POP JUMP JUMPDEST PUSH1 0x0 DUP2 SWAP1 POP SWAP2 SWAP1 POP JUMP JUMPDEST PUSH2 0xF20 DUP2 PUSH2 0xF0D JUMP JUMPDEST DUP3 MSTORE POP POP JUMP JUMPDEST PUSH1 0x0 PUSH1 0x40 DUP3 ADD SWAP1 POP PUSH2 0xF3B PUSH1 0x0 DUP4 ADD DUP6 PUSH2 0xF17 JUMP JUMPDEST PUSH2 0xF48 PUSH1 0x20 DUP4 ADD DUP5 PUSH2 0xE58 JUMP JUMPDEST SWAP4 SWAP3 POP POP POP JUMP JUMPDEST PUSH1 0x0 DUP2 SWAP1 POP SWAP2 SWAP1 POP JUMP JUMPDEST PUSH1 0x0 PUSH2 0xF74 PUSH2 0xF6F PUSH2 0xF6A DUP5 PUSH2 0xE82 JUMP JUMPDEST PUSH2 0xF4F JUMP JUMPDEST PUSH2 0xE82 JUMP JUMPDEST SWAP1 POP SWAP2 SWAP1 POP JUMP JUMPDEST PUSH1 0x0 PUSH2 0xF86 DUP3 PUSH2 0xF59 JUMP JUMPDEST SWAP1 POP SWAP2 SWAP1 POP JUMP JUMPDEST PUSH1 0x0 PUSH2 0xF98 DUP3 PUSH2 0xF7B JUMP JUMPDEST SWAP1 POP SWAP2 SWAP1 POP JUMP JUMPDEST PUSH2 0xFA8 DUP2 PUSH2 0xF8D JUMP JUMPDEST DUP3 MSTORE POP POP JUMP JUMPDEST PUSH1 0x0 PUSH1 0x20 DUP3 ADD SWAP1 POP PUSH2 0xFC3 PUSH1 0x0 DUP4 ADD DUP5 PUSH2 0xF9F JUMP JUMPDEST SWAP3 SWAP2 POP POP JUMP JUMPDEST PUSH1 0x0 PUSH1 0x20 DUP3 ADD SWAP1 POP PUSH2 0xFDE PUSH1 0x0 DUP4 ADD DUP5 PUSH2 0xF17 JUMP JUMPDEST SWAP3 SWAP2 POP POP JUMP JUMPDEST PUSH1 0x0 PUSH2 0xFEF DUP3 PUSH2 0xF7B JUMP JUMPDEST SWAP1 POP SWAP2 SWAP1 POP JUMP JUMPDEST PUSH2 0xFFF DUP2 PUSH2 0xFE4 JUMP JUMPDEST DUP3 MSTORE POP POP JUMP JUMPDEST PUSH1 0x0 PUSH1 0x20 DUP3 ADD SWAP1 POP PUSH2 0x101A PUSH1 0x0 DUP4 ADD DUP5 PUSH2 0xFF6 JUMP JUMPDEST SWAP3 SWAP2 POP POP JUMP JUMPDEST PUSH2 0x1029 DUP2 PUSH2 0xEA2 JUMP JUMPDEST DUP3 MSTORE POP POP JUMP JUMPDEST PUSH1 0x0 PUSH1 0x20 DUP3 ADD SWAP1 POP PUSH2 0x1044 PUSH1 0x0 DUP4 ADD DUP5 PUSH2 0x1020 JUMP JUMPDEST SWAP3 SWAP2 POP POP JUMP JUMPDEST PUSH1 0x0 DUP1 REVERT JUMPDEST PUSH1 0x0 DUP1 REVERT JUMPDEST PUSH1 0x0 DUP1 REVERT JUMPDEST PUSH1 0x0 DUP1 DUP4 PUSH1 0x1F DUP5 ADD SLT PUSH2 0x106F JUMPI PUSH2 0x106E PUSH2 0x104A JUMP JUMPDEST JUMPDEST DUP3 CALLDATALOAD SWAP1 POP PUSH8 0xFFFFFFFFFFFFFFFF DUP2 GT ISZERO PUSH2 0x108C JUMPI PUSH2 0x108B PUSH2 0x104F JUMP JUMPDEST JUMPDEST PUSH1 0x20 DUP4 ADD SWAP2 POP DUP4 PUSH1 0x20 DUP3 MUL DUP4 ADD GT ISZERO PUSH2 0x10A8 JUMPI PUSH2 0x10A7 PUSH2 0x1054 JUMP JUMPDEST JUMPDEST SWAP3 POP SWAP3 SWAP1 POP JUMP JUMPDEST PUSH1 0x0 DUP1 DUP4 PUSH1 0x1F DUP5 ADD SLT PUSH2 0x10C5 JUMPI PUSH2 0x10C4 PUSH2 0x104A JUMP JUMPDEST JUMPDEST DUP3 CALLDATALOAD SWAP1 POP PUSH8 0xFFFFFFFFFFFFFFFF DUP2 GT ISZERO PUSH2 0x10E2 JUMPI PUSH2 0x10E1 PUSH2 0x104F JUMP JUMPDEST JUMPDEST PUSH1 0x20 DUP4 ADD SWAP2 POP DUP4 PUSH1 0x1 DUP3 MUL DUP4 ADD GT ISZERO PUSH2 0x10FE JUMPI PUSH2 0x10FD PUSH2 0x1054 JUMP JUMPDEST JUMPDEST SWAP3 POP SWAP3 SWAP1 POP JUMP JUMPDEST PUSH1 0x0 DUP1 PUSH1 0x0 DUP1 PUSH1 0x0 DUP1 PUSH1 0x0 DUP1 PUSH1 0xA0 DUP10 DUP12 SUB SLT ISZERO PUSH2 0x1125 JUMPI PUSH2 0x1124 PUSH2 0xDBD JUMP JUMPDEST JUMPDEST PUSH1 0x0 PUSH2 0x1133 DUP12 DUP3 DUP13 ADD PUSH2 0xECB JUMP JUMPDEST SWAP9 POP POP PUSH1 0x20 PUSH2 0x1144 DUP12 DUP3 DUP13 ADD PUSH2 0xECB JUMP JUMPDEST SWAP8 POP POP PUSH1 0x40 DUP10 ADD CALLDATALOAD PUSH8 0xFFFFFFFFFFFFFFFF DUP2 GT ISZERO PUSH2 0x1165 JUMPI PUSH2 0x1164 PUSH2 0xDC2 JUMP JUMPDEST JUMPDEST PUSH2 0x1171 DUP12 DUP3 DUP13 ADD PUSH2 0x1059 JUMP JUMPDEST SWAP7 POP SWAP7 POP POP PUSH1 0x60 DUP10 ADD CALLDATALOAD PUSH8 0xFFFFFFFFFFFFFFFF DUP2 GT ISZERO PUSH2 0x1194 JUMPI PUSH2 0x1193 PUSH2 0xDC2 JUMP JUMPDEST JUMPDEST PUSH2 0x11A0 DUP12 DUP3 DUP13 ADD PUSH2 0x1059 JUMP JUMPDEST SWAP5 POP SWAP5 POP POP PUSH1 0x80 DUP10 ADD CALLDATALOAD PUSH8 0xFFFFFFFFFFFFFFFF DUP2 GT ISZERO PUSH2 0x11C3 JUMPI PUSH2 0x11C2 PUSH2 0xDC2 JUMP JUMPDEST JUMPDEST PUSH2 0x11CF DUP12 DUP3 DUP13 ADD PUSH2 0x10AF JUMP JUMPDEST SWAP3 POP SWAP3 POP POP SWAP3 SWAP6 SWAP9 POP SWAP3 SWAP6 SWAP9 SWAP1 SWAP4 SWAP7 POP JUMP JUMPDEST PUSH2 0x11EA DUP2 PUSH2 0xDC7 JUMP JUMPDEST DUP3 MSTORE POP POP JUMP JUMPDEST PUSH1 0x0 PUSH1 0x20 DUP3 ADD SWAP1 POP PUSH2 0x1205 PUSH1 0x0 DUP4 ADD DUP5 PUSH2 0x11E1 JUMP JUMPDEST SWAP3 SWAP2 POP POP JUMP JUMPDEST PUSH2 0x1214 DUP2 PUSH2 0xF0D JUMP JUMPDEST DUP2 EQ PUSH2 0x121F JUMPI PUSH1 0x0 DUP1 REVERT JUMPDEST POP JUMP JUMPDEST PUSH1 0x0 DUP2 CALLDATALOAD SWAP1 POP PUSH2 0x1231 DUP2 PUSH2 0x120B JUMP JUMPDEST SWAP3 SWAP2 POP POP JUMP JUMPDEST PUSH1 0x0 PUSH1 0x20 DUP3 DUP5 SUB SLT ISZERO PUSH2 0x124D JUMPI PUSH2 0x124C PUSH2 0xDBD JUMP JUMPDEST JUMPDEST PUSH1 0x0 PUSH2 0x125B DUP5 DUP3 DUP6 ADD PUSH2 0x1222 JUMP JUMPDEST SWAP2 POP POP SWAP3 SWAP2 POP POP JUMP JUMPDEST PUSH1 0x0 DUP1 PUSH1 0x0 DUP1 PUSH1 0x0 DUP1 PUSH1 0xA0 DUP8 DUP10 SUB SLT ISZERO PUSH2 0x1281 JUMPI PUSH2 0x1280 PUSH2 0xDBD JUMP JUMPDEST JUMPDEST PUSH1 0x0 PUSH2 0x128F DUP10 DUP3 DUP11 ADD PUSH2 0xECB JUMP JUMPDEST SWAP7 POP POP PUSH1 0x20 PUSH2 0x12A0 DUP10 DUP3 DUP11 ADD PUSH2 0xECB JUMP JUMPDEST SWAP6 POP POP PUSH1 0x40 PUSH2 0x12B1 DUP10 DUP3 DUP11 ADD PUSH2 0x1222 JUMP JUMPDEST SWAP5 POP POP PUSH1 0x60 PUSH2 0x12C2 DUP10 DUP3 DUP11 ADD PUSH2 0x1222 JUMP JUMPDEST SWAP4 POP POP PUSH1 0x80 DUP8 ADD CALLDATALOAD PUSH8 0xFFFFFFFFFFFFFFFF DUP2 GT ISZERO PUSH2 0x12E3 JUMPI PUSH2 0x12E2 PUSH2 0xDC2 JUMP JUMPDEST JUMPDEST PUSH2 0x12EF DUP10 DUP3 DUP11 ADD PUSH2 0x10AF JUMP JUMPDEST SWAP3 POP SWAP3 POP POP SWAP3 SWAP6 POP SWAP3 SWAP6 POP SWAP3 SWAP6 JUMP JUMPDEST PUSH1 0x0 DUP3 DUP3 MSTORE PUSH1 0x20 DUP3 ADD SWAP1 POP SWAP3 SWAP2 POP POP JUMP JUMPDEST PUSH32 0x596F75206861766520616C7265616479206A6F696E6564207468652061756374 PUSH1 0x0 DUP3 ADD MSTORE PUSH32 0x696F6E2E00000000000000000000000000000000000000000000000000000000 PUSH1 0x20 DUP3 ADD MSTORE POP JUMP JUMPDEST PUSH1 0x0 PUSH2 0x136B PUSH1 0x24 DUP4 PUSH2 0x12FE JUMP JUMPDEST SWAP2 POP PUSH2 0x1376 DUP3 PUSH2 0x130F JUMP JUMPDEST PUSH1 0x40 DUP3 ADD SWAP1 POP SWAP2 SWAP1 POP JUMP JUMPDEST PUSH1 0x0 PUSH1 0x20 DUP3 ADD SWAP1 POP DUP2 DUP2 SUB PUSH1 0x0 DUP4 ADD MSTORE PUSH2 0x139A DUP2 PUSH2 0x135E JUMP JUMPDEST SWAP1 POP SWAP2 SWAP1 POP JUMP JUMPDEST PUSH32 0x41756374696F6E2069732066756C6C2E00000000000000000000000000000000 PUSH1 0x0 DUP3 ADD MSTORE POP JUMP JUMPDEST PUSH1 0x0 PUSH2 0x13D7 PUSH1 0x10 DUP4 PUSH2 0x12FE JUMP JUMPDEST SWAP2 POP PUSH2 0x13E2 DUP3 PUSH2 0x13A1 JUMP JUMPDEST PUSH1 0x20 DUP3 ADD SWAP1 POP SWAP2 SWAP1 POP JUMP JUMPDEST PUSH1 0x0 PUSH1 0x20 DUP3 ADD SWAP1 POP DUP2 DUP2 SUB PUSH1 0x0 DUP4 ADD MSTORE PUSH2 0x1406 DUP2 PUSH2 0x13CA JUMP JUMPDEST SWAP1 POP SWAP2 SWAP1 POP JUMP JUMPDEST PUSH32 0x5265736572766520616D6F756E74206D75737420626520677265617465722074 PUSH1 0x0 DUP3 ADD MSTORE PUSH32 0x68616E207A65726F2E0000000000000000000000000000000000000000000000 PUSH1 0x20 DUP3 ADD MSTORE POP JUMP JUMPDEST PUSH1 0x0 PUSH2 0x1469 PUSH1 0x29 DUP4 PUSH2 0x12FE JUMP JUMPDEST SWAP2 POP PUSH2 0x1474 DUP3 PUSH2 0x140D JUMP JUMPDEST PUSH1 0x40 DUP3 ADD SWAP1 POP SWAP2 SWAP1 POP JUMP JUMPDEST PUSH1 0x0 PUSH1 0x20 DUP3 ADD SWAP1 POP DUP2 DUP2 SUB PUSH1 0x0 DUP4 ADD MSTORE PUSH2 0x1498 DUP2 PUSH2 0x145C JUMP JUMPDEST SWAP1 POP SWAP2 SWAP1 POP JUMP JUMPDEST PUSH32 0x4E487B7100000000000000000000000000000000000000000000000000000000 PUSH1 0x0 MSTORE PUSH1 0x11 PUSH1 0x4 MSTORE PUSH1 0x24 PUSH1 0x0 REVERT JUMPDEST PUSH1 0x0 PUSH2 0x14D9 DUP3 PUSH2 0xF0D JUMP JUMPDEST SWAP2 POP PUSH2 0x14E4 DUP4 PUSH2 0xF0D JUMP JUMPDEST SWAP3 POP DUP3 DUP3 ADD SWAP1 POP DUP1 DUP3 GT ISZERO PUSH2 0x14FC JUMPI PUSH2 0x14FB PUSH2 0x149F JUMP JUMPDEST JUMPDEST SWAP3 SWAP2 POP POP JUMP JUMPDEST PUSH1 0x0 PUSH2 0x150D DUP3 PUSH2 0xF0D JUMP JUMPDEST SWAP2 POP PUSH32 0xFFFFFFFFFFFFFFFFFFFFFFFFFFFFFFFFFFFFFFFFFFFFFFFFFFFFFFFFFFFFFFFF DUP3 SUB PUSH2 0x153F JUMPI PUSH2 0x153E PUSH2 0x149F JUMP JUMPDEST JUMPDEST PUSH1 0x1 DUP3 ADD SWAP1 POP SWAP2 SWAP1 POP JUMP JUMPDEST PUSH32 0x4F776E61626C653A206E6577206F776E657220697320746865207A65726F2061 PUSH1 0x0 DUP3 ADD MSTORE PUSH32 0x6464726573730000000000000000000000000000000000000000000000000000 PUSH1 0x20 DUP3 ADD MSTORE POP JUMP JUMPDEST PUSH1 0x0 PUSH2 0x15A6 PUSH1 0x26 DUP4 PUSH2 0x12FE JUMP JUMPDEST SWAP2 POP PUSH2 0x15B1 DUP3 PUSH2 0x154A JUMP JUMPDEST PUSH1 0x40 DUP3 ADD SWAP1 POP SWAP2 SWAP1 POP JUMP JUMPDEST PUSH1 0x0 PUSH1 0x20 DUP3 ADD SWAP1 POP DUP2 DUP2 SUB PUSH1 0x0 DUP4 ADD MSTORE PUSH2 0x15D5 DUP2 PUSH2 0x1599 JUMP JUMPDEST SWAP1 POP SWAP2 SWAP1 POP JUMP JUMPDEST PUSH1 0x0 DUP2 SLOAD SWAP1 POP SWAP2 SWAP1 POP JUMP JUMPDEST PUSH1 0x0 DUP3 DUP3 MSTORE PUSH1 0x20 DUP3 ADD SWAP1 POP SWAP3 SWAP2 POP POP JUMP JUMPDEST PUSH1 0x0 DUP2 SWAP1 POP DUP2 PUSH1 0x0 MSTORE PUSH1 0x20 PUSH1 0x0 KECCAK256 SWAP1 POP SWAP2 SWAP1 POP JUMP JUMPDEST PUSH2 0x1616 DUP2 PUSH2 0xF0D JUMP JUMPDEST DUP3 MSTORE POP POP JUMP JUMPDEST PUSH1 0x0 PUSH2 0x1628 DUP4 DUP4 PUSH2 0x160D JUMP JUMPDEST PUSH1 0x20 DUP4 ADD SWAP1 POP SWAP3 SWAP2 POP POP JUMP JUMPDEST PUSH1 0x0 DUP2 PUSH1 0x0 SHR SWAP1 POP SWAP2 SWAP1 POP JUMP JUMPDEST PUSH1 0x0 DUP2 SWAP1 POP SWAP2 SWAP1 POP JUMP JUMPDEST PUSH1 0x0 PUSH2 0x165E PUSH2 0x1659 DUP4 PUSH2 0x1634 JUMP JUMPDEST PUSH2 0x1641 JUMP JUMPDEST SWAP1 POP SWAP2 SWAP1 POP JUMP JUMPDEST PUSH1 0x0 PUSH2 0x1671 DUP3 SLOAD PUSH2 0x164B JUMP JUMPDEST SWAP1 POP SWAP2 SWAP1 POP JUMP JUMPDEST PUSH1 0x0 PUSH1 0x1 DUP3 ADD SWAP1 POP SWAP2 SWAP1 POP JUMP JUMPDEST PUSH1 0x0 PUSH2 0x1690 DUP3 PUSH2 0x15DC JUMP JUMPDEST PUSH2 0x169A DUP2 DUP6 PUSH2 0x15E7 JUMP JUMPDEST SWAP4 POP PUSH2 0x16A5 DUP4 PUSH2 0x15F8 JUMP JUMPDEST DUP1 PUSH1 0x0 JUMPDEST DUP4 DUP2 LT ISZERO PUSH2 0x16DD JUMPI PUSH2 0x16BA DUP3 PUSH2 0x1665 JUMP JUMPDEST PUSH2 0x16C4 DUP9 DUP3 PUSH2 0x161C JUMP JUMPDEST SWAP8 POP PUSH2 0x16CF DUP4 PUSH2 0x1678 JUMP JUMPDEST SWAP3 POP POP PUSH1 0x1 DUP2 ADD SWAP1 POP PUSH2 0x16A9 JUMP JUMPDEST POP DUP6 SWAP4 POP POP POP POP SWAP3 SWAP2 POP POP JUMP JUMPDEST PUSH1 0x0 PUSH1 0x20 DUP3 ADD SWAP1 POP DUP2 DUP2 SUB PUSH1 0x0 DUP4 ADD MSTORE PUSH2 0x1704 DUP2 DUP5 PUSH2 0x1685 JUMP JUMPDEST SWAP1 POP SWAP3 SWAP2 POP POP JUMP JUMPDEST PUSH1 0x0 PUSH1 0x1F NOT PUSH1 0x1F DUP4 ADD AND SWAP1 POP SWAP2 SWAP1 POP JUMP JUMPDEST PUSH32 0x4E487B7100000000000000000000000000000000000000000000000000000000 PUSH1 0x0 MSTORE PUSH1 0x41 PUSH1 0x4 MSTORE PUSH1 0x24 PUSH1 0x0 REVERT JUMPDEST PUSH2 0x1755 DUP3 PUSH2 0x170C JUMP JUMPDEST DUP2 ADD DUP2 DUP2 LT PUSH8 0xFFFFFFFFFFFFFFFF DUP3 GT OR ISZERO PUSH2 0x1774 JUMPI PUSH2 0x1773 PUSH2 0x171D JUMP JUMPDEST JUMPDEST DUP1 PUSH1 0x40 MSTORE POP POP POP JUMP JUMPDEST PUSH1 0x0 PUSH2 0x1787 PUSH2 0xDB3 JUMP JUMPDEST SWAP1 POP PUSH2 0x1793 DUP3 DUP3 PUSH2 0x174C JUMP JUMPDEST SWAP2 SWAP1 POP JUMP JUMPDEST PUSH1 0x0 PUSH8 0xFFFFFFFFFFFFFFFF DUP3 GT ISZERO PUSH2 0x17B3 JUMPI PUSH2 0x17B2 PUSH2 0x171D JUMP JUMPDEST JUMPDEST PUSH1 0x20 DUP3 MUL SWAP1 POP SWAP2 SWAP1 POP JUMP JUMPDEST PUSH1 0x0 DUP2 MLOAD SWAP1 POP PUSH2 0x17CD DUP2 PUSH2 0x120B JUMP JUMPDEST SWAP3 SWAP2 POP POP JUMP JUMPDEST PUSH1 0x0 PUSH2 0x17E6 PUSH2 0x17E1 DUP5 PUSH2 0x1798 JUMP JUMPDEST PUSH2 0x177D JUMP JUMPDEST SWAP1 POP DUP1 PUSH1 0x20 DUP5 MUL DUP4 ADD DUP6 DUP2 GT ISZERO PUSH2 0x1800 JUMPI PUSH2 0x17FF PUSH2 0x1054 JUMP JUMPDEST JUMPDEST DUP4 JUMPDEST DUP2 DUP2 LT ISZERO PUSH2 0x1829 JUMPI DUP1 PUSH2 0x1815 DUP9 DUP3 PUSH2 0x17BE JUMP JUMPDEST DUP5 MSTORE PUSH1 0x20 DUP5 ADD SWAP4 POP POP PUSH1 0x20 DUP2 ADD SWAP1 POP PUSH2 0x1802 JUMP JUMPDEST POP POP POP SWAP4 SWAP3 POP POP POP JUMP JUMPDEST PUSH1 0x0 DUP3 PUSH1 0x1F DUP4 ADD SLT PUSH2 0x1848 JUMPI PUSH2 0x1847 PUSH2 0x104A JUMP JUMPDEST JUMPDEST PUSH1 0x2 PUSH2 0x1855 DUP5 DUP3 DUP6 PUSH2 0x17D3 JUMP JUMPDEST SWAP2 POP POP SWAP3 SWAP2 POP POP JUMP JUMPDEST PUSH1 0x0 PUSH1 0x40 DUP3 DUP5 SUB SLT ISZERO PUSH2 0x1874 JUMPI PUSH2 0x1873 PUSH2 0xDBD JUMP JUMPDEST JUMPDEST PUSH1 0x0 PUSH2 0x1882 DUP5 DUP3 DUP6 ADD PUSH2 0x1833 JUMP JUMPDEST SWAP2 POP POP SWAP3 SWAP2 POP POP JUMP JUMPDEST PUSH32 0x4E487B7100000000000000000000000000000000000000000000000000000000 PUSH1 0x0 MSTORE PUSH1 0x32 PUSH1 0x4 MSTORE PUSH1 0x24 PUSH1 0x0 REVERT JUMPDEST PUSH1 0x0 DUP2 SWAP1 POP SWAP2 SWAP1 POP JUMP JUMPDEST PUSH1 0x0 PUSH2 0x18DF PUSH2 0x18DA PUSH2 0x18D5 DUP5 PUSH2 0x18BA JUMP JUMPDEST PUSH2 0xF4F JUMP JUMPDEST PUSH2 0xF0D JUMP JUMPDEST SWAP1 POP SWAP2 SWAP1 POP JUMP JUMPDEST PUSH2 0x18EF DUP2 PUSH2 0x18C4 JUMP JUMPDEST DUP3 MSTORE POP POP JUMP JUMPDEST PUSH1 0x0 DUP3 DUP3 MSTORE PUSH1 0x20 DUP3 ADD SWAP1 POP SWAP3 SWAP2 POP POP JUMP JUMPDEST POP JUMP JUMPDEST PUSH1 0x0 PUSH2 0x1916 PUSH1 0x0 DUP4 PUSH2 0x18F5 JUMP JUMPDEST SWAP2 POP PUSH2 0x1921 DUP3 PUSH2 0x1906 JUMP JUMPDEST PUSH1 0x0 DUP3 ADD SWAP1 POP SWAP2 SWAP1 POP JUMP JUMPDEST PUSH1 0x0 PUSH1 0xA0 DUP3 ADD SWAP1 POP PUSH2 0x1941 PUSH1 0x0 DUP4 ADD DUP8 PUSH2 0x1020 JUMP JUMPDEST PUSH2 0x194E PUSH1 0x20 DUP4 ADD DUP7 PUSH2 0x1020 JUMP JUMPDEST PUSH2 0x195B PUSH1 0x40 DUP4 ADD DUP6 PUSH2 0xF17 JUMP JUMPDEST PUSH2 0x1968 PUSH1 0x60 DUP4 ADD DUP5 PUSH2 0x18E6 JUMP JUMPDEST DUP2 DUP2 SUB PUSH1 0x80 DUP4 ADD MSTORE PUSH2 0x1979 DUP2 PUSH2 0x1909 JUMP JUMPDEST SWAP1 POP SWAP6 SWAP5 POP POP POP POP POP JUMP JUMPDEST PUSH1 0x0 PUSH1 0x40 DUP3 ADD SWAP1 POP PUSH2 0x1999 PUSH1 0x0 DUP4 ADD DUP6 PUSH2 0xF17 JUMP JUMPDEST PUSH2 0x19A6 PUSH1 0x20 DUP4 ADD DUP5 PUSH2 0x1020 JUMP JUMPDEST SWAP4 SWAP3 POP POP POP JUMP JUMPDEST PUSH32 0x4F776E61626C653A2063616C6C6572206973206E6F7420746865206F776E6572 PUSH1 0x0 DUP3 ADD MSTORE POP JUMP JUMPDEST PUSH1 0x0 PUSH2 0x19E3 PUSH1 0x20 DUP4 PUSH2 0x12FE JUMP JUMPDEST SWAP2 POP PUSH2 0x19EE DUP3 PUSH2 0x19AD JUMP JUMPDEST PUSH1 0x20 DUP3 ADD SWAP1 POP SWAP2 SWAP1 POP JUMP JUMPDEST PUSH1 0x0 PUSH1 0x20 DUP3 ADD SWAP1 POP DUP2 DUP2 SUB PUSH1 0x0 DUP4 ADD MSTORE PUSH2 0x1A12 DUP2 PUSH2 0x19D6 JUMP JUMPDEST SWAP1 POP SWAP2 SWAP1 POP JUMP INVALID LOG2 PUSH5 0x6970667358 0x22 SLT KECCAK256 GASPRICE SSTORE LOG3 0x5D SWAP2 ORIGIN SHR 0xC4 0xFC LOG0 PUSH15 0xD3CC64F365084A7A162C9409279444 0xEB 0xD8 PUSH11 0x57701864736F6C63430008 SLT STOP CALLER "
		},
		"gasEstimates": {
			"creation": {
				"codeDepositCost": "1347000",
				"executionCost": "infinite",
				"totalCost": "infinite"
			},
			"external": {
				"endAuction()": "infinite",
				"ended()": "2539",
				"erc1155Token()": "infinite",
				"erc1155TokenId()": "2452",
				"joinAuction()": "infinite",
				"maxParticipants()": "2452",
				"onERC1155BatchReceived(address,address,uint256[],uint256[],bytes)": "infinite",
				"onERC1155Received(address,address,uint256,uint256,bytes)": "infinite",
				"owner()": "2611",
				"participantCount()": "2474",
				"participants(address)": "5128",
				"renounceOwnership()": "30465",
				"reserveAmounts(uint256)": "infinite",
				"supportsInterface(bytes4)": "751",
				"totalReserve()": "2518",
				"transferOwnership(address)": "30832",
				"winnerDeterminationInstance()": "infinite"
			}
		},
		"methodIdentifiers": {
			"endAuction()": "fe67a54b",
			"ended()": "12fa6feb",
			"erc1155Token()": "21f42268",
			"erc1155TokenId()": "637a6687",
			"joinAuction()": "36fb61a7",
			"maxParticipants()": "24924bf7",
			"onERC1155BatchReceived(address,address,uint256[],uint256[],bytes)": "bc197c81",
			"onERC1155Received(address,address,uint256,uint256,bytes)": "f23a6e61",
			"owner()": "8da5cb5b",
			"participantCount()": "362f04c0",
			"participants(address)": "09e69ede",
			"renounceOwnership()": "715018a6",
			"reserveAmounts(uint256)": "e537213e",
			"supportsInterface(bytes4)": "01ffc9a7",
			"totalReserve()": "4c68df67",
			"transferOwnership(address)": "f2fde38b",
			"winnerDeterminationInstance()": "67a555d8"
		}
	},
	"abi": [
		{
			"inputs": [
				{
					"internalType": "address",
					"name": "_erc1155Token",
					"type": "address"
				},
				{
					"internalType": "uint256",
					"name": "_erc1155TokenId",
					"type": "uint256"
				},
				{
					"internalType": "uint256",
					"name": "_maxParticipants",
					"type": "uint256"
				}
			],
			"stateMutability": "nonpayable",
			"type": "constructor"
		},
		{
			"anonymous": false,
			"inputs": [
				{
					"indexed": false,
					"internalType": "uint256",
					"name": "winningBid",
					"type": "uint256"
				},
				{
					"indexed": false,
					"internalType": "address",
					"name": "winner",
					"type": "address"
				}
			],
			"name": "AuctionEnded",
			"type": "event"
		},
		{
			"anonymous": false,
			"inputs": [
				{
					"indexed": true,
					"internalType": "address",
					"name": "previousOwner",
					"type": "address"
				},
				{
					"indexed": true,
					"internalType": "address",
					"name": "newOwner",
					"type": "address"
				}
			],
			"name": "OwnershipTransferred",
			"type": "event"
		},
		{
			"anonymous": false,
			"inputs": [
				{
					"indexed": false,
					"internalType": "address",
					"name": "participant",
					"type": "address"
				}
			],
			"name": "ParticipantJoined",
			"type": "event"
		},
		{
			"inputs": [],
			"name": "endAuction",
			"outputs": [],
			"stateMutability": "nonpayable",
			"type": "function"
		},
		{
			"inputs": [],
			"name": "ended",
			"outputs": [
				{
					"internalType": "bool",
					"name": "",
					"type": "bool"
				}
			],
			"stateMutability": "view",
			"type": "function"
		},
		{
			"inputs": [],
			"name": "erc1155Token",
			"outputs": [
				{
					"internalType": "contract MyERC1155Token",
					"name": "",
					"type": "address"
				}
			],
			"stateMutability": "view",
			"type": "function"
		},
		{
			"inputs": [],
			"name": "erc1155TokenId",
			"outputs": [
				{
					"internalType": "uint256",
					"name": "",
					"type": "uint256"
				}
			],
			"stateMutability": "view",
			"type": "function"
		},
		{
			"inputs": [],
			"name": "joinAuction",
			"outputs": [],
			"stateMutability": "payable",
			"type": "function"
		},
		{
			"inputs": [],
			"name": "maxParticipants",
			"outputs": [
				{
					"internalType": "uint256",
					"name": "",
					"type": "uint256"
				}
			],
			"stateMutability": "view",
			"type": "function"
		},
		{
			"inputs": [
				{
					"internalType": "address",
					"name": "operator",
					"type": "address"
				},
				{
					"internalType": "address",
					"name": "from",
					"type": "address"
				},
				{
					"internalType": "uint256[]",
					"name": "ids",
					"type": "uint256[]"
				},
				{
					"internalType": "uint256[]",
					"name": "values",
					"type": "uint256[]"
				},
				{
					"internalType": "bytes",
					"name": "data",
					"type": "bytes"
				}
			],
			"name": "onERC1155BatchReceived",
			"outputs": [
				{
					"internalType": "bytes4",
					"name": "",
					"type": "bytes4"
				}
			],
			"stateMutability": "pure",
			"type": "function"
		},
		{
			"inputs": [
				{
					"internalType": "address",
					"name": "operator",
					"type": "address"
				},
				{
					"internalType": "address",
					"name": "from",
					"type": "address"
				},
				{
					"internalType": "uint256",
					"name": "id",
					"type": "uint256"
				},
				{
					"internalType": "uint256",
					"name": "value",
					"type": "uint256"
				},
				{
					"internalType": "bytes",
					"name": "data",
					"type": "bytes"
				}
			],
			"name": "onERC1155Received",
			"outputs": [
				{
					"internalType": "bytes4",
					"name": "",
					"type": "bytes4"
				}
			],
			"stateMutability": "pure",
			"type": "function"
		},
		{
			"inputs": [],
			"name": "owner",
			"outputs": [
				{
					"internalType": "address",
					"name": "",
					"type": "address"
				}
			],
			"stateMutability": "view",
			"type": "function"
		},
		{
			"inputs": [],
			"name": "participantCount",
			"outputs": [
				{
					"internalType": "uint256",
					"name": "",
					"type": "uint256"
				}
			],
			"stateMutability": "view",
			"type": "function"
		},
		{
			"inputs": [
				{
					"internalType": "address",
					"name": "",
					"type": "address"
				}
			],
			"name": "participants",
			"outputs": [
				{
					"internalType": "uint256",
					"name": "reserveAmount",
					"type": "uint256"
				},
				{
					"internalType": "bool",
					"name": "active",
					"type": "bool"
				}
			],
			"stateMutability": "view",
			"type": "function"
		},
		{
			"inputs": [],
			"name": "renounceOwnership",
			"outputs": [],
			"stateMutability": "nonpayable",
			"type": "function"
		},
		{
			"inputs": [
				{
					"internalType": "uint256",
					"name": "",
					"type": "uint256"
				}
			],
			"name": "reserveAmounts",
			"outputs": [
				{
					"internalType": "uint256",
					"name": "",
					"type": "uint256"
				}
			],
			"stateMutability": "view",
			"type": "function"
		},
		{
			"inputs": [
				{
					"internalType": "bytes4",
					"name": "interfaceId",
					"type": "bytes4"
				}
			],
			"name": "supportsInterface",
			"outputs": [
				{
					"internalType": "bool",
					"name": "",
					"type": "bool"
				}
			],
			"stateMutability": "view",
			"type": "function"
		},
		{
			"inputs": [],
			"name": "totalReserve",
			"outputs": [
				{
					"internalType": "uint256",
					"name": "",
					"type": "uint256"
				}
			],
			"stateMutability": "view",
			"type": "function"
		},
		{
			"inputs": [
				{
					"internalType": "address",
					"name": "newOwner",
					"type": "address"
				}
			],
			"name": "transferOwnership",
			"outputs": [],
			"stateMutability": "nonpayable",
			"type": "function"
		},
		{
			"inputs": [],
			"name": "winnerDeterminationInstance",
			"outputs": [
				{
					"internalType": "contract WinnerDetermination",
					"name": "",
					"type": "address"
				}
			],
			"stateMutability": "view",
			"type": "function"
		}
	]
}